{
  "contractName": "Administration",
  "abi": [
    {
      "inputs": [
        {
          "internalType": "address",
          "name": "_owner",
          "type": "address"
        }
      ],
      "stateMutability": "nonpayable",
      "type": "constructor"
    },
    {
      "inputs": [
        {
          "internalType": "address",
          "name": "_man",
          "type": "address"
        }
      ],
      "name": "addManager",
      "outputs": [],
      "stateMutability": "nonpayable",
      "type": "function"
    }
  ],
  "bytecode": "0x608060405234801561001057600080fd5b506040516105aa3803806105aa833981810160405281019061003291906101e9565b806000806101000a81548173ffffffffffffffffffffffffffffffffffffffff021916908373ffffffffffffffffffffffffffffffffffffffff1602179055506063600360008060009054906101000a900473ffffffffffffffffffffffffffffffffffffffff1673ffffffffffffffffffffffffffffffffffffffff1673ffffffffffffffffffffffffffffffffffffffff1681526020019081526020016000208190555033600160006101000a81548173ffffffffffffffffffffffffffffffffffffffff021916908373ffffffffffffffffffffffffffffffffffffffff160217905550600060036000600160009054906101000a900473ffffffffffffffffffffffffffffffffffffffff1673ffffffffffffffffffffffffffffffffffffffff1673ffffffffffffffffffffffffffffffffffffffff1681526020019081526020016000208190555050610216565b600080fd5b600073ffffffffffffffffffffffffffffffffffffffff82169050919050565b60006101b68261018b565b9050919050565b6101c6816101ab565b81146101d157600080fd5b50565b6000815190506101e3816101bd565b92915050565b6000602082840312156101ff576101fe610186565b5b600061020d848285016101d4565b91505092915050565b610385806102256000396000f3fe608060405234801561001057600080fd5b506004361061002b5760003560e01c80632d06177a14610030575b600080fd5b61004a600480360381019061004591906102a1565b61004c565b005b3373ffffffffffffffffffffffffffffffffffffffff16600160009054906101000a900473ffffffffffffffffffffffffffffffffffffffff1673ffffffffffffffffffffffffffffffffffffffff161415806100e957506000600360003373ffffffffffffffffffffffffffffffffffffffff1673ffffffffffffffffffffffffffffffffffffffff1681526020019081526020016000205414155b156100f357600080fd5b6000600360008373ffffffffffffffffffffffffffffffffffffffff1673ffffffffffffffffffffffffffffffffffffffff16815260200190815260200160002054148061018057506063600360008373ffffffffffffffffffffffffffffffffffffffff1673ffffffffffffffffffffffffffffffffffffffff16815260200190815260200160002054145b1561018a57600080fd5b8060026000600454815260200190815260200160002060006101000a81548173ffffffffffffffffffffffffffffffffffffffff021916908373ffffffffffffffffffffffffffffffffffffffff1602179055506001600360008373ffffffffffffffffffffffffffffffffffffffff1673ffffffffffffffffffffffffffffffffffffffff168152602001908152602001600020819055506004600081548092919061023690610307565b919050555050565b600080fd5b600073ffffffffffffffffffffffffffffffffffffffff82169050919050565b600061026e82610243565b9050919050565b61027e81610263565b811461028957600080fd5b50565b60008135905061029b81610275565b92915050565b6000602082840312156102b7576102b661023e565b5b60006102c58482850161028c565b91505092915050565b7f4e487b7100000000000000000000000000000000000000000000000000000000600052601160045260246000fd5b6000819050919050565b6000610312826102fd565b91507fffffffffffffffffffffffffffffffffffffffffffffffffffffffffffffffff8203610344576103436102ce565b5b60018201905091905056fea2646970667358221220fd24f5ab5b8bafa10ec2a1923f89026b2ce3ff7abc36f26381f895737c6dd06564736f6c63430008170033",
  "immutableReferences": {},
  "source": "// SPDX-License-Identifier: MIT\npragma solidity ^0.8.19;\n\ncontract Administration {\n\n    address owner;      // Founder Safe Wallet Access Level 99\n    address admin;      // Deployer Wallet Access Level 0\n    \n    mapping(uint => address) manager;    // Manager Access Level 1\n    mapping(address => uint) role;\n    \n    uint m;\n\n    modifier onlyOwner(){\n        if(owner != msg.sender || role[msg.sender] != 99) revert();\n        _;\n    }\n\n    modifier onlyAdmin(){\n        if(admin != msg.sender || role[msg.sender] != 0) revert();\n        _;\n    }\n\n    modifier levelOne(){\n        // if(manager[msg.sender] != 0  || manager[msg.sender] != 1 || manager[msg.sender] != 99) revert();\n        _;\n    }\n\n    constructor(address _owner){\n        owner = _owner;\n        role[owner] = 99;\n        admin = msg.sender;\n        role[admin] = 0;\n    }\n\n    function addManager(address _man) external onlyAdmin {\n        if(role[_man] == 0 || role[_man] == 99) revert();\n        manager [m] = _man;\n        role[_man] = 1;\n        m++;\n    }\n}",
  "sourcePath": "/Users/iii6/Documents/GitHub/iii6v2/iii6v2/contracts/utils/Administration.sol",
  "compiler": {
    "name": "solc",
    "version": "0.8.23+commit.f704f362.Emscripten.clang"
  },
  "schemaVersion": "3.4.16",
  "updatedAt": "2023-12-05T23:55:20.256Z",
  "devdoc": {
    "kind": "dev",
    "methods": {},
    "version": 1
  },
  "userdoc": {
    "kind": "user",
    "methods": {},
    "version": 1
  }
}