{
  "contractName": "AFL8_CampaignModel",
  "abi": [
    {
      "inputs": [],
      "stateMutability": "nonpayable",
      "type": "constructor"
    },
    {
      "inputs": [],
      "name": "All_Slots_Taken",
      "type": "error"
    },
    {
      "inputs": [],
      "name": "Already_Listed",
      "type": "error"
    },
    {
      "inputs": [],
      "name": "Array_Length_Mismatch",
      "type": "error"
    },
    {
      "inputs": [
        {
          "internalType": "address",
          "name": "sender",
          "type": "address"
        },
        {
          "internalType": "uint256",
          "name": "tokenId",
          "type": "uint256"
        },
        {
          "internalType": "address",
          "name": "owner",
          "type": "address"
        }
      ],
      "name": "ERC721IncorrectOwner",
      "type": "error"
    },
    {
      "inputs": [
        {
          "internalType": "address",
          "name": "operator",
          "type": "address"
        },
        {
          "internalType": "uint256",
          "name": "tokenId",
          "type": "uint256"
        }
      ],
      "name": "ERC721InsufficientApproval",
      "type": "error"
    },
    {
      "inputs": [
        {
          "internalType": "address",
          "name": "approver",
          "type": "address"
        }
      ],
      "name": "ERC721InvalidApprover",
      "type": "error"
    },
    {
      "inputs": [
        {
          "internalType": "address",
          "name": "operator",
          "type": "address"
        }
      ],
      "name": "ERC721InvalidOperator",
      "type": "error"
    },
    {
      "inputs": [
        {
          "internalType": "address",
          "name": "owner",
          "type": "address"
        }
      ],
      "name": "ERC721InvalidOwner",
      "type": "error"
    },
    {
      "inputs": [
        {
          "internalType": "address",
          "name": "receiver",
          "type": "address"
        }
      ],
      "name": "ERC721InvalidReceiver",
      "type": "error"
    },
    {
      "inputs": [
        {
          "internalType": "address",
          "name": "sender",
          "type": "address"
        }
      ],
      "name": "ERC721InvalidSender",
      "type": "error"
    },
    {
      "inputs": [
        {
          "internalType": "uint256",
          "name": "tokenId",
          "type": "uint256"
        }
      ],
      "name": "ERC721NonexistentToken",
      "type": "error"
    },
    {
      "inputs": [],
      "name": "Event_Has_Ended",
      "type": "error"
    },
    {
      "inputs": [],
      "name": "Greenlist_Expired",
      "type": "error"
    },
    {
      "inputs": [],
      "name": "Insufficient_Amount",
      "type": "error"
    },
    {
      "inputs": [],
      "name": "Insufficient_Balance",
      "type": "error"
    },
    {
      "inputs": [],
      "name": "Insufficient_Funds",
      "type": "error"
    },
    {
      "inputs": [],
      "name": "Insufficient_MLQ",
      "type": "error"
    },
    {
      "inputs": [],
      "name": "Insufficient_Supply",
      "type": "error"
    },
    {
      "inputs": [],
      "name": "Invalid_Amount",
      "type": "error"
    },
    {
      "inputs": [],
      "name": "Invalid_Response",
      "type": "error"
    },
    {
      "inputs": [],
      "name": "Max_Tokens_Minted",
      "type": "error"
    },
    {
      "inputs": [],
      "name": "Min_Requirements_Not_Met",
      "type": "error"
    },
    {
      "inputs": [],
      "name": "Mint_In_Progress",
      "type": "error"
    },
    {
      "inputs": [],
      "name": "Mint_Is_Not_Yet_Live",
      "type": "error"
    },
    {
      "inputs": [],
      "name": "Not_Burnable",
      "type": "error"
    },
    {
      "inputs": [],
      "name": "Not_Friends",
      "type": "error"
    },
    {
      "inputs": [],
      "name": "Not_Friends_Rev",
      "type": "error"
    },
    {
      "inputs": [],
      "name": "Not_Greenlisted",
      "type": "error"
    },
    {
      "inputs": [],
      "name": "Not_Pausable",
      "type": "error"
    },
    {
      "inputs": [],
      "name": "Sold_Out",
      "type": "error"
    },
    {
      "inputs": [],
      "name": "Unauthorized",
      "type": "error"
    },
    {
      "inputs": [],
      "name": "You_Are_Not_The_Holder",
      "type": "error"
    },
    {
      "inputs": [],
      "name": "You_Need_To_Wait",
      "type": "error"
    },
    {
      "anonymous": false,
      "inputs": [
        {
          "indexed": false,
          "internalType": "uint256",
          "name": "TX",
          "type": "uint256"
        },
        {
          "indexed": false,
          "internalType": "address",
          "name": "ACTOR",
          "type": "address"
        },
        {
          "indexed": false,
          "internalType": "string",
          "name": "ACTION",
          "type": "string"
        },
        {
          "indexed": false,
          "internalType": "address",
          "name": "REL",
          "type": "address"
        },
        {
          "indexed": false,
          "internalType": "uint256",
          "name": "DATE",
          "type": "uint256"
        }
      ],
      "name": "ACTION_Log",
      "type": "event"
    },
    {
      "anonymous": false,
      "inputs": [
        {
          "indexed": true,
          "internalType": "address",
          "name": "owner",
          "type": "address"
        },
        {
          "indexed": true,
          "internalType": "address",
          "name": "approved",
          "type": "address"
        },
        {
          "indexed": true,
          "internalType": "uint256",
          "name": "tokenId",
          "type": "uint256"
        }
      ],
      "name": "Approval",
      "type": "event"
    },
    {
      "anonymous": false,
      "inputs": [
        {
          "indexed": true,
          "internalType": "address",
          "name": "owner",
          "type": "address"
        },
        {
          "indexed": true,
          "internalType": "address",
          "name": "operator",
          "type": "address"
        },
        {
          "indexed": false,
          "internalType": "bool",
          "name": "approved",
          "type": "bool"
        }
      ],
      "name": "ApprovalForAll",
      "type": "event"
    },
    {
      "anonymous": false,
      "inputs": [
        {
          "indexed": false,
          "internalType": "uint256",
          "name": "TX",
          "type": "uint256"
        },
        {
          "indexed": false,
          "internalType": "address",
          "name": "ACTOR",
          "type": "address"
        },
        {
          "indexed": false,
          "internalType": "string",
          "name": "ERROR",
          "type": "string"
        },
        {
          "indexed": false,
          "internalType": "uint256",
          "name": "DATE",
          "type": "uint256"
        }
      ],
      "name": "ERR_Log",
      "type": "event"
    },
    {
      "anonymous": false,
      "inputs": [
        {
          "indexed": false,
          "internalType": "uint256",
          "name": "TX",
          "type": "uint256"
        },
        {
          "indexed": false,
          "internalType": "address",
          "name": "TRUSTEE",
          "type": "address"
        },
        {
          "indexed": false,
          "internalType": "uint256",
          "name": "AMNT",
          "type": "uint256"
        },
        {
          "indexed": false,
          "internalType": "uint256",
          "name": "DATE",
          "type": "uint256"
        }
      ],
      "name": "TX_Log",
      "type": "event"
    },
    {
      "anonymous": false,
      "inputs": [
        {
          "indexed": true,
          "internalType": "address",
          "name": "from",
          "type": "address"
        },
        {
          "indexed": true,
          "internalType": "address",
          "name": "to",
          "type": "address"
        },
        {
          "indexed": true,
          "internalType": "uint256",
          "name": "tokenId",
          "type": "uint256"
        }
      ],
      "name": "Transfer",
      "type": "event"
    },
    {
      "inputs": [],
      "name": "C_ID",
      "outputs": [
        {
          "internalType": "uint256",
          "name": "",
          "type": "uint256"
        }
      ],
      "stateMutability": "view",
      "type": "function"
    },
    {
      "inputs": [],
      "name": "afl8",
      "outputs": [
        {
          "internalType": "contract iii6CoinModel",
          "name": "",
          "type": "address"
        }
      ],
      "stateMutability": "view",
      "type": "function"
    },
    {
      "inputs": [
        {
          "internalType": "address",
          "name": "to",
          "type": "address"
        },
        {
          "internalType": "uint256",
          "name": "tokenId",
          "type": "uint256"
        }
      ],
      "name": "approve",
      "outputs": [],
      "stateMutability": "nonpayable",
      "type": "function"
    },
    {
      "inputs": [
        {
          "internalType": "address",
          "name": "owner",
          "type": "address"
        }
      ],
      "name": "balanceOf",
      "outputs": [
        {
          "internalType": "uint256",
          "name": "",
          "type": "uint256"
        }
      ],
      "stateMutability": "view",
      "type": "function"
    },
    {
      "inputs": [
        {
          "internalType": "uint256",
          "name": "",
          "type": "uint256"
        }
      ],
      "name": "campaignSafe",
      "outputs": [
        {
          "internalType": "uint256",
          "name": "",
          "type": "uint256"
        }
      ],
      "stateMutability": "view",
      "type": "function"
    },
    {
      "inputs": [
        {
          "internalType": "address",
          "name": "",
          "type": "address"
        },
        {
          "internalType": "uint256",
          "name": "",
          "type": "uint256"
        }
      ],
      "name": "campaignShow",
      "outputs": [
        {
          "internalType": "uint256",
          "name": "id",
          "type": "uint256"
        },
        {
          "internalType": "address",
          "name": "author",
          "type": "address"
        },
        {
          "internalType": "uint256",
          "name": "start",
          "type": "uint256"
        },
        {
          "internalType": "uint256",
          "name": "budget",
          "type": "uint256"
        },
        {
          "internalType": "uint256",
          "name": "price",
          "type": "uint256"
        },
        {
          "internalType": "uint256",
          "name": "actions",
          "type": "uint256"
        },
        {
          "internalType": "bytes",
          "name": "dias",
          "type": "bytes"
        },
        {
          "internalType": "enum iii6Misc.CampaignType",
          "name": "ctype",
          "type": "uint8"
        },
        {
          "internalType": "enum iii6Misc.Status",
          "name": "state",
          "type": "uint8"
        }
      ],
      "stateMutability": "view",
      "type": "function"
    },
    {
      "inputs": [
        {
          "internalType": "uint256",
          "name": "",
          "type": "uint256"
        }
      ],
      "name": "campaigns",
      "outputs": [
        {
          "internalType": "uint256",
          "name": "id",
          "type": "uint256"
        },
        {
          "internalType": "address",
          "name": "author",
          "type": "address"
        },
        {
          "internalType": "uint256",
          "name": "start",
          "type": "uint256"
        },
        {
          "internalType": "uint256",
          "name": "budget",
          "type": "uint256"
        },
        {
          "internalType": "uint256",
          "name": "price",
          "type": "uint256"
        },
        {
          "internalType": "uint256",
          "name": "actions",
          "type": "uint256"
        },
        {
          "internalType": "bytes",
          "name": "dias",
          "type": "bytes"
        },
        {
          "internalType": "enum iii6Misc.CampaignType",
          "name": "ctype",
          "type": "uint8"
        },
        {
          "internalType": "enum iii6Misc.Status",
          "name": "state",
          "type": "uint8"
        }
      ],
      "stateMutability": "view",
      "type": "function"
    },
    {
      "inputs": [],
      "name": "changeMintState",
      "outputs": [
        {
          "internalType": "bool",
          "name": "",
          "type": "bool"
        }
      ],
      "stateMutability": "nonpayable",
      "type": "function"
    },
    {
      "inputs": [
        {
          "internalType": "uint256",
          "name": "",
          "type": "uint256"
        }
      ],
      "name": "dias",
      "outputs": [
        {
          "internalType": "bytes",
          "name": "",
          "type": "bytes"
        }
      ],
      "stateMutability": "view",
      "type": "function"
    },
    {
      "inputs": [
        {
          "internalType": "uint256",
          "name": "tokenId",
          "type": "uint256"
        }
      ],
      "name": "getApproved",
      "outputs": [
        {
          "internalType": "address",
          "name": "",
          "type": "address"
        }
      ],
      "stateMutability": "view",
      "type": "function"
    },
    {
      "inputs": [
        {
          "internalType": "uint256",
          "name": "count",
          "type": "uint256"
        }
      ],
      "name": "grabIds",
      "outputs": [
        {
          "internalType": "uint256",
          "name": "ids",
          "type": "uint256"
        }
      ],
      "stateMutability": "view",
      "type": "function"
    },
    {
      "inputs": [
        {
          "internalType": "uint256",
          "name": "_id",
          "type": "uint256"
        }
      ],
      "name": "holder",
      "outputs": [
        {
          "internalType": "address",
          "name": "",
          "type": "address"
        }
      ],
      "stateMutability": "view",
      "type": "function"
    },
    {
      "inputs": [
        {
          "internalType": "address",
          "name": "owner",
          "type": "address"
        },
        {
          "internalType": "address",
          "name": "operator",
          "type": "address"
        }
      ],
      "name": "isApprovedForAll",
      "outputs": [
        {
          "internalType": "bool",
          "name": "",
          "type": "bool"
        }
      ],
      "stateMutability": "view",
      "type": "function"
    },
    {
      "inputs": [
        {
          "internalType": "address",
          "name": "_adr",
          "type": "address"
        }
      ],
      "name": "isOwner",
      "outputs": [
        {
          "internalType": "bool",
          "name": "",
          "type": "bool"
        }
      ],
      "stateMutability": "view",
      "type": "function"
    },
    {
      "inputs": [],
      "name": "max",
      "outputs": [
        {
          "internalType": "uint256",
          "name": "",
          "type": "uint256"
        }
      ],
      "stateMutability": "view",
      "type": "function"
    },
    {
      "inputs": [
        {
          "internalType": "uint256",
          "name": "_amnt",
          "type": "uint256"
        }
      ],
      "name": "mint",
      "outputs": [
        {
          "internalType": "uint256",
          "name": "",
          "type": "uint256"
        }
      ],
      "stateMutability": "payable",
      "type": "function"
    },
    {
      "inputs": [],
      "name": "minted",
      "outputs": [
        {
          "internalType": "uint256",
          "name": "",
          "type": "uint256"
        }
      ],
      "stateMutability": "view",
      "type": "function"
    },
    {
      "inputs": [],
      "name": "nam",
      "outputs": [
        {
          "internalType": "string",
          "name": "",
          "type": "string"
        }
      ],
      "stateMutability": "view",
      "type": "function"
    },
    {
      "inputs": [],
      "name": "name",
      "outputs": [
        {
          "internalType": "string",
          "name": "",
          "type": "string"
        }
      ],
      "stateMutability": "view",
      "type": "function"
    },
    {
      "inputs": [
        {
          "internalType": "address",
          "name": "",
          "type": "address"
        }
      ],
      "name": "nftCount",
      "outputs": [
        {
          "internalType": "uint256",
          "name": "",
          "type": "uint256"
        }
      ],
      "stateMutability": "view",
      "type": "function"
    },
    {
      "inputs": [
        {
          "internalType": "address",
          "name": "",
          "type": "address"
        },
        {
          "internalType": "uint256",
          "name": "",
          "type": "uint256"
        }
      ],
      "name": "ntfIdByCount",
      "outputs": [
        {
          "internalType": "uint256",
          "name": "",
          "type": "uint256"
        }
      ],
      "stateMutability": "view",
      "type": "function"
    },
    {
      "inputs": [],
      "name": "owner",
      "outputs": [
        {
          "internalType": "address",
          "name": "",
          "type": "address"
        }
      ],
      "stateMutability": "view",
      "type": "function"
    },
    {
      "inputs": [
        {
          "internalType": "uint256",
          "name": "tokenId",
          "type": "uint256"
        }
      ],
      "name": "ownerOf",
      "outputs": [
        {
          "internalType": "address",
          "name": "",
          "type": "address"
        }
      ],
      "stateMutability": "view",
      "type": "function"
    },
    {
      "inputs": [],
      "name": "price",
      "outputs": [
        {
          "internalType": "uint256",
          "name": "",
          "type": "uint256"
        }
      ],
      "stateMutability": "view",
      "type": "function"
    },
    {
      "inputs": [
        {
          "internalType": "address",
          "name": "from",
          "type": "address"
        },
        {
          "internalType": "address",
          "name": "to",
          "type": "address"
        },
        {
          "internalType": "uint256",
          "name": "tokenId",
          "type": "uint256"
        }
      ],
      "name": "safeTransferFrom",
      "outputs": [],
      "stateMutability": "nonpayable",
      "type": "function"
    },
    {
      "inputs": [
        {
          "internalType": "address",
          "name": "from",
          "type": "address"
        },
        {
          "internalType": "address",
          "name": "to",
          "type": "address"
        },
        {
          "internalType": "uint256",
          "name": "tokenId",
          "type": "uint256"
        },
        {
          "internalType": "bytes",
          "name": "data",
          "type": "bytes"
        }
      ],
      "name": "safeTransferFrom",
      "outputs": [],
      "stateMutability": "nonpayable",
      "type": "function"
    },
    {
      "inputs": [
        {
          "internalType": "address",
          "name": "operator",
          "type": "address"
        },
        {
          "internalType": "bool",
          "name": "approved",
          "type": "bool"
        }
      ],
      "name": "setApprovalForAll",
      "outputs": [],
      "stateMutability": "nonpayable",
      "type": "function"
    },
    {
      "inputs": [],
      "name": "start",
      "outputs": [
        {
          "internalType": "bool",
          "name": "",
          "type": "bool"
        }
      ],
      "stateMutability": "view",
      "type": "function"
    },
    {
      "inputs": [
        {
          "internalType": "bytes4",
          "name": "interfaceId",
          "type": "bytes4"
        }
      ],
      "name": "supportsInterface",
      "outputs": [
        {
          "internalType": "bool",
          "name": "",
          "type": "bool"
        }
      ],
      "stateMutability": "view",
      "type": "function"
    },
    {
      "inputs": [],
      "name": "sym",
      "outputs": [
        {
          "internalType": "string",
          "name": "",
          "type": "string"
        }
      ],
      "stateMutability": "view",
      "type": "function"
    },
    {
      "inputs": [],
      "name": "symbol",
      "outputs": [
        {
          "internalType": "string",
          "name": "",
          "type": "string"
        }
      ],
      "stateMutability": "view",
      "type": "function"
    },
    {
      "inputs": [
        {
          "internalType": "uint256",
          "name": "tokenId",
          "type": "uint256"
        }
      ],
      "name": "tokenURI",
      "outputs": [
        {
          "internalType": "string",
          "name": "",
          "type": "string"
        }
      ],
      "stateMutability": "view",
      "type": "function"
    },
    {
      "inputs": [
        {
          "internalType": "address",
          "name": "from",
          "type": "address"
        },
        {
          "internalType": "address",
          "name": "to",
          "type": "address"
        },
        {
          "internalType": "uint256",
          "name": "tokenId",
          "type": "uint256"
        }
      ],
      "name": "transferFrom",
      "outputs": [],
      "stateMutability": "nonpayable",
      "type": "function"
    },
    {
      "inputs": [
        {
          "internalType": "uint256",
          "name": "_start",
          "type": "uint256"
        },
        {
          "internalType": "uint256",
          "name": "_budget",
          "type": "uint256"
        },
        {
          "internalType": "uint256",
          "name": "_price",
          "type": "uint256"
        },
        {
          "internalType": "string",
          "name": "_dias",
          "type": "string"
        },
        {
          "internalType": "uint256",
          "name": "_ctype",
          "type": "uint256"
        }
      ],
      "name": "createCampaign",
      "outputs": [
        {
          "internalType": "bool",
          "name": "",
          "type": "bool"
        }
      ],
      "stateMutability": "nonpayable",
      "type": "function"
    },
    {
      "inputs": [
        {
          "internalType": "uint256",
          "name": "_cid",
          "type": "uint256"
        },
        {
          "internalType": "bool",
          "name": "_quit",
          "type": "bool"
        }
      ],
      "name": "changeState",
      "outputs": [
        {
          "internalType": "bool",
          "name": "",
          "type": "bool"
        }
      ],
      "stateMutability": "nonpayable",
      "type": "function"
    }
  ],
  "bytecode": "0x60806040523480156200001157600080fd5b50336040518060400160405280601881526020017f416666696c696174652043616d706169676e20417373657400000000000000008152506040518060400160405280600481526020017f41464c38000000000000000000000000000000000000000000000000000000008152506000806000848481600090816200009791906200046d565b508060019081620000a991906200046d565b505050600060068190555060006007819055506000600881905550600060098190555085600a60006101000a81548173ffffffffffffffffffffffffffffffffffffffff021916908373ffffffffffffffffffffffffffffffffffffffff16021790555084600d90816200011e91906200046d565b5083600e90816200013091906200046d565b5082600c8190555066038d7ea4c68000826200014d919062000583565b6010819055506000811115620001d95780306040516200016d90620001e5565b6200017a92919062000624565b604051809103906000f08015801562000197573d6000803e3d6000fd5b50601460006101000a81548173ffffffffffffffffffffffffffffffffffffffff021916908373ffffffffffffffffffffffffffffffffffffffff1602179055505b50505050505062000651565b611ccc8062004fcb83390190565b600081519050919050565b7f4e487b7100000000000000000000000000000000000000000000000000000000600052604160045260246000fd5b7f4e487b7100000000000000000000000000000000000000000000000000000000600052602260045260246000fd5b600060028204905060018216806200027557607f821691505b6020821081036200028b576200028a6200022d565b5b50919050565b60008190508160005260206000209050919050565b60006020601f8301049050919050565b600082821b905092915050565b600060088302620002f57fffffffffffffffffffffffffffffffffffffffffffffffffffffffffffffffff82620002b6565b620003018683620002b6565b95508019841693508086168417925050509392505050565b6000819050919050565b6000819050919050565b60006200034e62000348620003428462000319565b62000323565b62000319565b9050919050565b6000819050919050565b6200036a836200032d565b62000382620003798262000355565b848454620002c3565b825550505050565b600090565b620003996200038a565b620003a68184846200035f565b505050565b5b81811015620003ce57620003c26000826200038f565b600181019050620003ac565b5050565b601f8211156200041d57620003e78162000291565b620003f284620002a6565b8101602085101562000402578190505b6200041a6200041185620002a6565b830182620003ab565b50505b505050565b600082821c905092915050565b6000620004426000198460080262000422565b1980831691505092915050565b60006200045d83836200042f565b9150826002028217905092915050565b6200047882620001f3565b67ffffffffffffffff811115620004945762000493620001fe565b5b620004a082546200025c565b620004ad828285620003d2565b600060209050601f831160018114620004e55760008415620004d0578287015190505b620004dc85826200044f565b8655506200054c565b601f198416620004f58662000291565b60005b828110156200051f57848901518255600182019150602085019450602081019050620004f8565b868310156200053f57848901516200053b601f8916826200042f565b8355505b6001600288020188555050505b505050505050565b7f4e487b7100000000000000000000000000000000000000000000000000000000600052601160045260246000fd5b6000620005908262000319565b91506200059d8362000319565b9250828202620005ad8162000319565b91508282048414831517620005c757620005c662000554565b5b5092915050565b620005d98162000319565b82525050565b600073ffffffffffffffffffffffffffffffffffffffff82169050919050565b60006200060c82620005df565b9050919050565b6200061e81620005ff565b82525050565b60006040820190506200063b6000830185620005ce565b6200064a602083018462000613565b9392505050565b61496a80620006616000396000f3fe6080604052600436106102045760003560e01c806383813a2811610118578063aba4759f116100a0578063be9a65551161006f578063be9a655514610808578063c87b56dd14610833578063c971ebb314610870578063d7bb9d74146108ad578063e985e9c5146108ea57610204565b8063aba4759f1461073a578063b524fd6f14610777578063b88d4fde146107a2578063ba899a2e146107cb57610204565b80639b4f589f116100e75780639b4f589f1461064e578063a035b1fe1461068b578063a0712d68146106b6578063a22cb465146106e6578063a51d8fb11461070f57610204565b806383813a28146105a25780638da5cb5b146105cd57806395d89b41146105f85780639af9bec01461062357610204565b80632f54bf6e1161019b5780636352211e1161016a5780636352211e1461047b5780636ac5db19146104b8578063705faf2d146104e357806370a08231146105285780637641a89a1461056557610204565b80632f54bf6e146103ad578063406d4d23146103ea57806342842e0e146104275780634f02c4201461045057610204565b80630f4c0134116101d75780630f4c0134146102d7578063141961bc1461031457806314e0d7c01461035957806323b872dd1461038457610204565b806301ffc9a71461020957806306fdde0314610246578063081812fc14610271578063095ea7b3146102ae575b600080fd5b34801561021557600080fd5b50610230600480360381019061022b919061378f565b610927565b60405161023d91906137d7565b60405180910390f35b34801561025257600080fd5b5061025b610a09565b6040516102689190613882565b60405180910390f35b34801561027d57600080fd5b50610298600480360381019061029391906138da565b610a9b565b6040516102a59190613948565b60405180910390f35b3480156102ba57600080fd5b506102d560048036038101906102d0919061398f565b610ab7565b005b3480156102e357600080fd5b506102fe60048036038101906102f9919061398f565b610acd565b60405161030b91906139de565b60405180910390f35b34801561032057600080fd5b5061033b600480360381019061033691906138da565b610af2565b60405161035099989796959493929190613b0d565b60405180910390f35b34801561036557600080fd5b5061036e610c12565b60405161037b9190613c00565b60405180910390f35b34801561039057600080fd5b506103ab60048036038101906103a69190613c1b565b610c38565b005b3480156103b957600080fd5b506103d460048036038101906103cf9190613c6e565b610d3a565b6040516103e191906137d7565b60405180910390f35b3480156103f657600080fd5b50610411600480360381019061040c9190613cc7565b610da2565b60405161041e91906137d7565b60405180910390f35b34801561043357600080fd5b5061044e60048036038101906104499190613c1b565b611051565b005b34801561045c57600080fd5b50610465611071565b60405161047291906139de565b60405180910390f35b34801561048757600080fd5b506104a2600480360381019061049d91906138da565b611077565b6040516104af9190613948565b60405180910390f35b3480156104c457600080fd5b506104cd611089565b6040516104da91906139de565b60405180910390f35b3480156104ef57600080fd5b5061050a6004803603810190610505919061398f565b61108f565b60405161051f99989796959493929190613b0d565b60405180910390f35b34801561053457600080fd5b5061054f600480360381019061054a9190613c6e565b6111ac565b60405161055c91906139de565b60405180910390f35b34801561057157600080fd5b5061058c60048036038101906105879190613e3c565b611266565b60405161059991906137d7565b60405180910390f35b3480156105ae57600080fd5b506105b76114cc565b6040516105c49190613882565b60405180910390f35b3480156105d957600080fd5b506105e261155a565b6040516105ef9190613948565b60405180910390f35b34801561060457600080fd5b5061060d611580565b60405161061a9190613882565b60405180910390f35b34801561062f57600080fd5b50610638611612565b6040516106459190613882565b60405180910390f35b34801561065a57600080fd5b50610675600480360381019061067091906138da565b6116a0565b6040516106829190613ed3565b60405180910390f35b34801561069757600080fd5b506106a0611740565b6040516106ad91906139de565b60405180910390f35b6106d060048036038101906106cb91906138da565b611746565b6040516106dd91906139de565b60405180910390f35b3480156106f257600080fd5b5061070d60048036038101906107089190613ef5565b6117fb565b005b34801561071b57600080fd5b50610724611811565b60405161073191906139de565b60405180910390f35b34801561074657600080fd5b50610761600480360381019061075c91906138da565b611817565b60405161076e91906139de565b60405180910390f35b34801561078357600080fd5b5061078c611871565b60405161079991906137d7565b60405180910390f35b3480156107ae57600080fd5b506107c960048036038101906107c49190613fd6565b611880565b005b3480156107d757600080fd5b506107f260048036038101906107ed91906138da565b61189d565b6040516107ff9190613948565b60405180910390f35b34801561081457600080fd5b5061081d6118af565b60405161082a91906137d7565b60405180910390f35b34801561083f57600080fd5b5061085a600480360381019061085591906138da565b6118c2565b6040516108679190613882565b60405180910390f35b34801561087c57600080fd5b5061089760048036038101906108929190613c6e565b61192b565b6040516108a491906139de565b60405180910390f35b3480156108b957600080fd5b506108d460048036038101906108cf91906138da565b611943565b6040516108e191906139de565b60405180910390f35b3480156108f657600080fd5b50610911600480360381019061090c9190614059565b61195b565b60405161091e91906137d7565b60405180910390f35b60007f80ac58cd000000000000000000000000000000000000000000000000000000007bffffffffffffffffffffffffffffffffffffffffffffffffffffffff1916827bffffffffffffffffffffffffffffffffffffffffffffffffffffffff191614806109f257507f5b5e139f000000000000000000000000000000000000000000000000000000007bffffffffffffffffffffffffffffffffffffffffffffffffffffffff1916827bffffffffffffffffffffffffffffffffffffffffffffffffffffffff1916145b80610a025750610a01826119ef565b5b9050919050565b606060008054610a18906140c8565b80601f0160208091040260200160405190810160405280929190818152602001828054610a44906140c8565b8015610a915780601f10610a6657610100808354040283529160200191610a91565b820191906000526020600020905b815481529060010190602001808311610a7457829003601f168201915b5050505050905090565b6000610aa682611a59565b50610ab082611ae1565b9050919050565b610ac98282610ac4611b1e565b611b26565b5050565b6013602052816000526040600020602052806000526040600020600091509150505481565b60188181548110610b0257600080fd5b90600052602060002090600802016000915090508060000154908060010160009054906101000a900473ffffffffffffffffffffffffffffffffffffffff1690806002015490806003015490806004015490806005015490806006018054610b69906140c8565b80601f0160208091040260200160405190810160405280929190818152602001828054610b95906140c8565b8015610be25780601f10610bb757610100808354040283529160200191610be2565b820191906000526020600020905b815481529060010190602001808311610bc557829003601f168201915b5050505050908060070160009054906101000a900460ff16908060070160019054906101000a900460ff16905089565b601560009054906101000a900473ffffffffffffffffffffffffffffffffffffffff1681565b600073ffffffffffffffffffffffffffffffffffffffff168273ffffffffffffffffffffffffffffffffffffffff1603610caa5760006040517f64a0ae92000000000000000000000000000000000000000000000000000000008152600401610ca19190613948565b60405180910390fd5b6000610cbe8383610cb9611b1e565b611b38565b90508373ffffffffffffffffffffffffffffffffffffffff168173ffffffffffffffffffffffffffffffffffffffff1614610d34578382826040517f64283d7b000000000000000000000000000000000000000000000000000000008152600401610d2b939291906140f9565b60405180910390fd5b50505050565b6000600a60009054906101000a900473ffffffffffffffffffffffffffffffffffffffff1673ffffffffffffffffffffffffffffffffffffffff168273ffffffffffffffffffffffffffffffffffffffff1614610d98576000610d9b565b60015b9050919050565b60008060188481548110610db957610db8614130565b5b906000526020600020906008020160405180610120016040529081600082015481526020016001820160009054906101000a900473ffffffffffffffffffffffffffffffffffffffff1673ffffffffffffffffffffffffffffffffffffffff1673ffffffffffffffffffffffffffffffffffffffff16815260200160028201548152602001600382015481526020016004820154815260200160058201548152602001600682018054610e6b906140c8565b80601f0160208091040260200160405190810160405280929190818152602001828054610e97906140c8565b8015610ee45780601f10610eb957610100808354040283529160200191610ee4565b820191906000526020600020905b815481529060010190602001808311610ec757829003601f168201915b505050505081526020016007820160009054906101000a900460ff166004811115610f1257610f11613a4e565b5b6004811115610f2457610f23613a4e565b5b81526020016007820160019054906101000a900460ff166003811115610f4d57610f4c613a4e565b5b6003811115610f5f57610f5e613a4e565b5b8152505090508215610f7c57610f7484611d52565b91505061104b565b428160400151108015610fb85750600380811115610f9d57610f9c613a4e565b5b8161010001516003811115610fb557610fb4613a4e565b5b14155b156110455760006003811115610fd157610fd0613a4e565b5b8161010001516003811115610fe957610fe8613a4e565b5b148061101e57506002600381111561100457611003613a4e565b5b816101000151600381111561101c5761101b613a4e565b5b145b156110345761102c84612067565b91505061104b565b61103d8461237c565b91505061104b565b60009150505b92915050565b61106c83838360405180602001604052806000815250611880565b505050565b600b5481565b600061108282611a59565b9050919050565b600c5481565b601a602052816000526040600020602052806000526040600020600091509150508060000154908060010160009054906101000a900473ffffffffffffffffffffffffffffffffffffffff1690806002015490806003015490806004015490806005015490806006018054611103906140c8565b80601f016020809104026020016040519081016040528092919081815260200182805461112f906140c8565b801561117c5780601f106111515761010080835404028352916020019161117c565b820191906000526020600020905b81548152906001019060200180831161115f57829003601f168201915b5050505050908060070160009054906101000a900460ff16908060070160019054906101000a900460ff16905089565b60008073ffffffffffffffffffffffffffffffffffffffff168273ffffffffffffffffffffffffffffffffffffffff160361121f5760006040517f89c62b640000000000000000000000000000000000000000000000000000000081526004016112169190613948565b60405180910390fd5b600360008373ffffffffffffffffffffffffffffffffffffffff1673ffffffffffffffffffffffffffffffffffffffff168152602001908152602001600020549050919050565b60008085674563918244f4000061127d919061418e565b905080601560009054906101000a900473ffffffffffffffffffffffffffffffffffffffff1673ffffffffffffffffffffffffffffffffffffffff166370a08231336040518263ffffffff1660e01b81526004016112db9190613948565b602060405180830381865afa1580156112f8573d6000803e3d6000fd5b505050506040513d601f19601f8201168201806040525081019061131c91906141d7565b101561135d576040517f08c379a000000000000000000000000000000000000000000000000000000000815260040161135490614250565b60405180910390fd5b600080840361136f57600090506113aa565b6001840361138057600190506113a9565b6002840361139157600290506113a8565b600384036113a257600390506113a7565b600490505b5b5b5b60006113b7828989612691565b9050600081036113fc576040517f08c379a00000000000000000000000000000000000000000000000000000000081526004016113f3906142bc565b60405180910390fd5b6000428a101561140b57600190505b601560009054906101000a900473ffffffffffffffffffffffffffffffffffffffff1673ffffffffffffffffffffffffffffffffffffffff166323b872dd3330876040518463ffffffff1660e01b815260040161146a939291906142dc565b6020604051808303816000875af1158015611489573d6000803e3d6000fd5b505050506040513d601f19601f820116820180604052508101906114ad9190614328565b506114bd8a8a8a858b88876128c7565b94505050505095945050505050565b600e80546114d9906140c8565b80601f0160208091040260200160405190810160405280929190818152602001828054611505906140c8565b80156115525780601f1061152757610100808354040283529160200191611552565b820191906000526020600020905b81548152906001019060200180831161153557829003601f168201915b505050505081565b600a60009054906101000a900473ffffffffffffffffffffffffffffffffffffffff1681565b60606001805461158f906140c8565b80601f01602080910402602001604051908101604052809291908181526020018280546115bb906140c8565b80156116085780601f106115dd57610100808354040283529160200191611608565b820191906000526020600020905b8154815290600101906020018083116115eb57829003601f168201915b5050505050905090565b600d805461161f906140c8565b80601f016020809104026020016040519081016040528092919081815260200182805461164b906140c8565b80156116985780601f1061166d57610100808354040283529160200191611698565b820191906000526020600020905b81548152906001019060200180831161167b57829003601f168201915b505050505081565b601160205280600052604060002060009150905080546116bf906140c8565b80601f01602080910402602001604051908101604052809291908181526020018280546116eb906140c8565b80156117385780601f1061170d57610100808354040283529160200191611738565b820191906000526020600020905b81548152906001019060200180831161171b57829003601f168201915b505050505081565b60105481565b6000600c54600b5410158061176a5750600c5482600b54611767919061418e565b10155b156117a1576040517f064a6c4100000000000000000000000000000000000000000000000000000000815260040160405180910390fd5b816010546117af9190614355565b34106117e7576040517fefc60c1400000000000000000000000000000000000000000000000000000000815260040160405180910390fd5b6117f082612cc8565b50600b549050919050565b61180d611806611b1e565b8383612d15565b5050565b60175481565b6000601360003373ffffffffffffffffffffffffffffffffffffffff1673ffffffffffffffffffffffffffffffffffffffff1681526020019081526020016000206000838152602001908152602001600020549050919050565b600061187b612e84565b905090565b61188b848484610c38565b61189784848484612eb4565b50505050565b60006118a882611077565b9050919050565b600f60009054906101000a900460ff1681565b60606118cd82611a59565b5060006118d861306b565b905060008151116118f85760405180602001604052806000815250611923565b8061190284613082565b6040516020016119139291906143d3565b6040516020818303038152906040525b915050919050565b60126020528060005260406000206000915090505481565b601b6020528060005260406000206000915090505481565b6000600560008473ffffffffffffffffffffffffffffffffffffffff1673ffffffffffffffffffffffffffffffffffffffff16815260200190815260200160002060008373ffffffffffffffffffffffffffffffffffffffff1673ffffffffffffffffffffffffffffffffffffffff16815260200190815260200160002060009054906101000a900460ff16905092915050565b60007f01ffc9a7000000000000000000000000000000000000000000000000000000007bffffffffffffffffffffffffffffffffffffffffffffffffffffffff1916827bffffffffffffffffffffffffffffffffffffffffffffffffffffffff1916149050919050565b600080611a6583613150565b9050600073ffffffffffffffffffffffffffffffffffffffff168173ffffffffffffffffffffffffffffffffffffffff1603611ad857826040517f7e273289000000000000000000000000000000000000000000000000000000008152600401611acf91906139de565b60405180910390fd5b80915050919050565b60006004600083815260200190815260200160002060009054906101000a900473ffffffffffffffffffffffffffffffffffffffff169050919050565b600033905090565b611b33838383600161318d565b505050565b600080611b4484613150565b9050600073ffffffffffffffffffffffffffffffffffffffff168373ffffffffffffffffffffffffffffffffffffffff1614611b8657611b85818486613352565b5b600073ffffffffffffffffffffffffffffffffffffffff168173ffffffffffffffffffffffffffffffffffffffff1614611c1757611bc860008560008061318d565b6001600360008373ffffffffffffffffffffffffffffffffffffffff1673ffffffffffffffffffffffffffffffffffffffff168152602001908152602001600020600082825403925050819055505b600073ffffffffffffffffffffffffffffffffffffffff168573ffffffffffffffffffffffffffffffffffffffff1614611c9a576001600360008773ffffffffffffffffffffffffffffffffffffffff1673ffffffffffffffffffffffffffffffffffffffff168152602001908152602001600020600082825401925050819055505b846002600086815260200190815260200160002060006101000a81548173ffffffffffffffffffffffffffffffffffffffff021916908373ffffffffffffffffffffffffffffffffffffffff160217905550838573ffffffffffffffffffffffffffffffffffffffff168273ffffffffffffffffffffffffffffffffffffffff167fddf252ad1be2c89b69c2b068fc378daa952ba7f163c4a11628f55a4df523b3ef60405160405180910390a4809150509392505050565b60008060188381548110611d6957611d68614130565b5b906000526020600020906008020160405180610120016040529081600082015481526020016001820160009054906101000a900473ffffffffffffffffffffffffffffffffffffffff1673ffffffffffffffffffffffffffffffffffffffff1673ffffffffffffffffffffffffffffffffffffffff16815260200160028201548152602001600382015481526020016004820154815260200160058201548152602001600682018054611e1b906140c8565b80601f0160208091040260200160405190810160405280929190818152602001828054611e47906140c8565b8015611e945780601f10611e6957610100808354040283529160200191611e94565b820191906000526020600020905b815481529060010190602001808311611e7757829003601f168201915b505050505081526020016007820160009054906101000a900460ff166004811115611ec257611ec1613a4e565b5b6004811115611ed457611ed3613a4e565b5b81526020016007820160019054906101000a900460ff166003811115611efd57611efc613a4e565b5b6003811115611f0f57611f0e613a4e565b5b81525050905060038161010001906003811115611f2f57611f2e613a4e565b5b90816003811115611f4357611f42613a4e565b5b815250508060188481548110611f5c57611f5b614130565b5b90600052602060002090600802016000820151816000015560208201518160010160006101000a81548173ffffffffffffffffffffffffffffffffffffffff021916908373ffffffffffffffffffffffffffffffffffffffff16021790555060408201518160020155606082015181600301556080820151816004015560a0820151816005015560c0820151816006019081611ff89190614599565b5060e08201518160070160006101000a81548160ff0219169083600481111561202457612023613a4e565b5b02179055506101008201518160070160016101000a81548160ff0219169083600381111561205557612054613a4e565b5b02179055509050506001915050919050565b6000806018838154811061207e5761207d614130565b5b906000526020600020906008020160405180610120016040529081600082015481526020016001820160009054906101000a900473ffffffffffffffffffffffffffffffffffffffff1673ffffffffffffffffffffffffffffffffffffffff1673ffffffffffffffffffffffffffffffffffffffff16815260200160028201548152602001600382015481526020016004820154815260200160058201548152602001600682018054612130906140c8565b80601f016020809104026020016040519081016040528092919081815260200182805461215c906140c8565b80156121a95780601f1061217e576101008083540402835291602001916121a9565b820191906000526020600020905b81548152906001019060200180831161218c57829003601f168201915b505050505081526020016007820160009054906101000a900460ff1660048111156121d7576121d6613a4e565b5b60048111156121e9576121e8613a4e565b5b81526020016007820160019054906101000a900460ff16600381111561221257612211613a4e565b5b600381111561222457612223613a4e565b5b8152505090506001816101000190600381111561224457612243613a4e565b5b9081600381111561225857612257613a4e565b5b81525050806018848154811061227157612270614130565b5b90600052602060002090600802016000820151816000015560208201518160010160006101000a81548173ffffffffffffffffffffffffffffffffffffffff021916908373ffffffffffffffffffffffffffffffffffffffff16021790555060408201518160020155606082015181600301556080820151816004015560a0820151816005015560c082015181600601908161230d9190614599565b5060e08201518160070160006101000a81548160ff0219169083600481111561233957612338613a4e565b5b02179055506101008201518160070160016101000a81548160ff0219169083600381111561236a57612369613a4e565b5b02179055509050506001915050919050565b6000806018838154811061239357612392614130565b5b906000526020600020906008020160405180610120016040529081600082015481526020016001820160009054906101000a900473ffffffffffffffffffffffffffffffffffffffff1673ffffffffffffffffffffffffffffffffffffffff1673ffffffffffffffffffffffffffffffffffffffff16815260200160028201548152602001600382015481526020016004820154815260200160058201548152602001600682018054612445906140c8565b80601f0160208091040260200160405190810160405280929190818152602001828054612471906140c8565b80156124be5780601f10612493576101008083540402835291602001916124be565b820191906000526020600020905b8154815290600101906020018083116124a157829003601f168201915b505050505081526020016007820160009054906101000a900460ff1660048111156124ec576124eb613a4e565b5b60048111156124fe576124fd613a4e565b5b81526020016007820160019054906101000a900460ff16600381111561252757612526613a4e565b5b600381111561253957612538613a4e565b5b8152505090506002816101000190600381111561255957612558613a4e565b5b9081600381111561256d5761256c613a4e565b5b81525050806018848154811061258657612585614130565b5b90600052602060002090600802016000820151816000015560208201518160010160006101000a81548173ffffffffffffffffffffffffffffffffffffffff021916908373ffffffffffffffffffffffffffffffffffffffff16021790555060408201518160020155606082015181600301556080820151816004015560a0820151816005015560c08201518160060190816126229190614599565b5060e08201518160070160006101000a81548160ff0219169083600481111561264e5761264d613a4e565b5b02179055506101008201518160070160016101000a81548160ff0219169083600381111561267f5761267e613a4e565b5b02179055509050506000915050919050565b60008060048111156126a6576126a5613a4e565b5b8460048111156126b9576126b8613a4e565b5b0361271b576611c37937e08000821015612708576040517f08c379a00000000000000000000000000000000000000000000000000000000081526004016126ff906146b7565b60405180910390fd5b81836127149190614706565b90506128c0565b6001600481111561272f5761272e613a4e565b5b84600481111561274257612741613a4e565b5b036127a45766b1a2bc2ec50000821015612791576040517f08c379a0000000000000000000000000000000000000000000000000000000008152600401612788906146b7565b60405180910390fd5b818361279d9190614706565b90506128bf565b600260048111156127b8576127b7613a4e565b5b8460048111156127cb576127ca613a4e565b5b0361282e576706f05b59d3b2000082101561281b576040517f08c379a0000000000000000000000000000000000000000000000000000000008152600401612812906146b7565b60405180910390fd5b81836128279190614706565b90506128be565b6003600481111561284257612841613a4e565b5b84600481111561285557612854613a4e565b5b036128b857674563918244f400008210156128a5576040517f08c379a000000000000000000000000000000000000000000000000000000000815260040161289c906146b7565b60405180910390fd5b81836128b19190614706565b90506128bd565b600090505b5b5b5b9392505050565b6000601860405180610120016040528060175481526020013373ffffffffffffffffffffffffffffffffffffffff1681526020018a815260200189815260200188815260200187815260200186815260200185600481111561292c5761292b613a4e565b5b815260200184600381111561294457612943613a4e565b5b81525090806001815401808255809150506001900390600052602060002090600802016000909190919091506000820151816000015560208201518160010160006101000a81548173ffffffffffffffffffffffffffffffffffffffff021916908373ffffffffffffffffffffffffffffffffffffffff16021790555060408201518160020155606082015181600301556080820151816004015560a0820151816005015560c08201518160060190816129fe9190614599565b5060e08201518160070160006101000a81548160ff02191690836004811115612a2a57612a29613a4e565b5b02179055506101008201518160070160016101000a81548160ff02191690836003811115612a5b57612a5a613a4e565b5b02179055505050601860175481548110612a7857612a77614130565b5b9060005260206000209060080201601a60003373ffffffffffffffffffffffffffffffffffffffff1673ffffffffffffffffffffffffffffffffffffffff1681526020019081526020016000206000601960003373ffffffffffffffffffffffffffffffffffffffff1673ffffffffffffffffffffffffffffffffffffffff168152602001908152602001600020548152602001908152602001600020600082015481600001556001820160009054906101000a900473ffffffffffffffffffffffffffffffffffffffff168160010160006101000a81548173ffffffffffffffffffffffffffffffffffffffff021916908373ffffffffffffffffffffffffffffffffffffffff1602179055506002820154816002015560038201548160030155600482015481600401556005820154816005015560068201816006019081612bc2919061474d565b506007820160009054906101000a900460ff168160070160006101000a81548160ff02191690836004811115612bfb57612bfa613a4e565b5b02179055506007820160019054906101000a900460ff168160070160016101000a81548160ff02191690836003811115612c3857612c37613a4e565b5b0217905550905050601960003373ffffffffffffffffffffffffffffffffffffffff1673ffffffffffffffffffffffffffffffffffffffff1681526020019081526020016000206000815480929190612c9090614835565b9190505550612ca133601754613416565b60176000815480929190612cb490614835565b919050555060019050979650505050505050565b60006007821115612cd857600080fd5b60005b82811015612d0a57612cef33600b54613416565b600b6000815460010191905081905550806001019050612cdb565b50600b549050919050565b600073ffffffffffffffffffffffffffffffffffffffff168273ffffffffffffffffffffffffffffffffffffffff1603612d8657816040517f5b08ba18000000000000000000000000000000000000000000000000000000008152600401612d7d9190613948565b60405180910390fd5b80600560008573ffffffffffffffffffffffffffffffffffffffff1673ffffffffffffffffffffffffffffffffffffffff16815260200190815260200160002060008473ffffffffffffffffffffffffffffffffffffffff1673ffffffffffffffffffffffffffffffffffffffff16815260200190815260200160002060006101000a81548160ff0219169083151502179055508173ffffffffffffffffffffffffffffffffffffffff168373ffffffffffffffffffffffffffffffffffffffff167f17307eab39ab6107e8899845ad3d59bd9653f200f220920489ca2b5937696c3183604051612e7791906137d7565b60405180910390a3505050565b6000600f60009054906101000a900460ff1615600f60006101000a81548160ff0219169083151502179055905090565b60008373ffffffffffffffffffffffffffffffffffffffff163b1115613065578273ffffffffffffffffffffffffffffffffffffffff1663150b7a02612ef8611b1e565b8685856040518563ffffffff1660e01b8152600401612f1a949392919061487d565b6020604051808303816000875af1925050508015612f5657506040513d601f19601f82011682018060405250810190612f5391906148de565b60015b612fda573d8060008114612f86576040519150601f19603f3d011682016040523d82523d6000602084013e612f8b565b606091505b506000815103612fd257836040517f64a0ae92000000000000000000000000000000000000000000000000000000008152600401612fc99190613948565b60405180910390fd5b805181602001fd5b63150b7a0260e01b7bffffffffffffffffffffffffffffffffffffffffffffffffffffffff1916817bffffffffffffffffffffffffffffffffffffffffffffffffffffffff19161461306357836040517f64a0ae9200000000000000000000000000000000000000000000000000000000815260040161305a9190613948565b60405180910390fd5b505b50505050565b606060405180602001604052806000815250905090565b6060600060016130918461350f565b01905060008167ffffffffffffffff8111156130b0576130af613d11565b5b6040519080825280601f01601f1916602001820160405280156130e25781602001600182028036833780820191505090505b509050600082602001820190505b600115613145578080600190039150507f3031323334353637383961626364656600000000000000000000000000000000600a86061a8153600a8581613139576131386146d7565b5b049450600085036130f0575b819350505050919050565b60006002600083815260200190815260200160002060009054906101000a900473ffffffffffffffffffffffffffffffffffffffff169050919050565b80806131c65750600073ffffffffffffffffffffffffffffffffffffffff168273ffffffffffffffffffffffffffffffffffffffff1614155b156132fa5760006131d684611a59565b9050600073ffffffffffffffffffffffffffffffffffffffff168373ffffffffffffffffffffffffffffffffffffffff161415801561324157508273ffffffffffffffffffffffffffffffffffffffff168173ffffffffffffffffffffffffffffffffffffffff1614155b80156132545750613252818461195b565b155b1561329657826040517fa9fbf51f00000000000000000000000000000000000000000000000000000000815260040161328d9190613948565b60405180910390fd5b81156132f857838573ffffffffffffffffffffffffffffffffffffffff168273ffffffffffffffffffffffffffffffffffffffff167f8c5be1e5ebec7d5bd14f71427d1e84f3dd0314c0f7b2291e5b200ac8c7c3b92560405160405180910390a45b505b836004600085815260200190815260200160002060006101000a81548173ffffffffffffffffffffffffffffffffffffffff021916908373ffffffffffffffffffffffffffffffffffffffff16021790555050505050565b61335d838383613662565b61341157600073ffffffffffffffffffffffffffffffffffffffff168373ffffffffffffffffffffffffffffffffffffffff16036133d257806040517f7e2732890000000000000000000000000000000000000000000000000000000081526004016133c991906139de565b60405180910390fd5b81816040517f177e802f00000000000000000000000000000000000000000000000000000000815260040161340892919061490b565b60405180910390fd5b505050565b600073ffffffffffffffffffffffffffffffffffffffff168273ffffffffffffffffffffffffffffffffffffffff16036134885760006040517f64a0ae9200000000000000000000000000000000000000000000000000000000815260040161347f9190613948565b60405180910390fd5b600061349683836000611b38565b9050600073ffffffffffffffffffffffffffffffffffffffff168173ffffffffffffffffffffffffffffffffffffffff161461350a5760006040517f73c6ac6e0000000000000000000000000000000000000000000000000000000081526004016135019190613948565b60405180910390fd5b505050565b600080600090507a184f03e93ff9f4daa797ed6e38ed64bf6a1f010000000000000000831061356d577a184f03e93ff9f4daa797ed6e38ed64bf6a1f0100000000000000008381613563576135626146d7565b5b0492506040810190505b6d04ee2d6d415b85acef810000000083106135aa576d04ee2d6d415b85acef810000000083816135a05761359f6146d7565b5b0492506020810190505b662386f26fc1000083106135d957662386f26fc1000083816135cf576135ce6146d7565b5b0492506010810190505b6305f5e1008310613602576305f5e10083816135f8576135f76146d7565b5b0492506008810190505b612710831061362757612710838161361d5761361c6146d7565b5b0492506004810190505b6064831061364a57606483816136405761363f6146d7565b5b0492506002810190505b600a8310613659576001810190505b80915050919050565b60008073ffffffffffffffffffffffffffffffffffffffff168373ffffffffffffffffffffffffffffffffffffffff161415801561371a57508273ffffffffffffffffffffffffffffffffffffffff168473ffffffffffffffffffffffffffffffffffffffff1614806136db57506136da848461195b565b5b8061371957508273ffffffffffffffffffffffffffffffffffffffff1661370183611ae1565b73ffffffffffffffffffffffffffffffffffffffff16145b5b90509392505050565b6000604051905090565b600080fd5b600080fd5b60007fffffffff0000000000000000000000000000000000000000000000000000000082169050919050565b61376c81613737565b811461377757600080fd5b50565b60008135905061378981613763565b92915050565b6000602082840312156137a5576137a461372d565b5b60006137b38482850161377a565b91505092915050565b60008115159050919050565b6137d1816137bc565b82525050565b60006020820190506137ec60008301846137c8565b92915050565b600081519050919050565b600082825260208201905092915050565b60005b8381101561382c578082015181840152602081019050613811565b60008484015250505050565b6000601f19601f8301169050919050565b6000613854826137f2565b61385e81856137fd565b935061386e81856020860161380e565b61387781613838565b840191505092915050565b6000602082019050818103600083015261389c8184613849565b905092915050565b6000819050919050565b6138b7816138a4565b81146138c257600080fd5b50565b6000813590506138d4816138ae565b92915050565b6000602082840312156138f0576138ef61372d565b5b60006138fe848285016138c5565b91505092915050565b600073ffffffffffffffffffffffffffffffffffffffff82169050919050565b600061393282613907565b9050919050565b61394281613927565b82525050565b600060208201905061395d6000830184613939565b92915050565b61396c81613927565b811461397757600080fd5b50565b60008135905061398981613963565b92915050565b600080604083850312156139a6576139a561372d565b5b60006139b48582860161397a565b92505060206139c5858286016138c5565b9150509250929050565b6139d8816138a4565b82525050565b60006020820190506139f360008301846139cf565b92915050565b600081519050919050565b600082825260208201905092915050565b6000613a20826139f9565b613a2a8185613a04565b9350613a3a81856020860161380e565b613a4381613838565b840191505092915050565b7f4e487b7100000000000000000000000000000000000000000000000000000000600052602160045260246000fd5b60058110613a8e57613a8d613a4e565b5b50565b6000819050613a9f82613a7d565b919050565b6000613aaf82613a91565b9050919050565b613abf81613aa4565b82525050565b60048110613ad657613ad5613a4e565b5b50565b6000819050613ae782613ac5565b919050565b6000613af782613ad9565b9050919050565b613b0781613aec565b82525050565b600061012082019050613b23600083018c6139cf565b613b30602083018b613939565b613b3d604083018a6139cf565b613b4a60608301896139cf565b613b5760808301886139cf565b613b6460a08301876139cf565b81810360c0830152613b768186613a15565b9050613b8560e0830185613ab6565b613b93610100830184613afe565b9a9950505050505050505050565b6000819050919050565b6000613bc6613bc1613bbc84613907565b613ba1565b613907565b9050919050565b6000613bd882613bab565b9050919050565b6000613bea82613bcd565b9050919050565b613bfa81613bdf565b82525050565b6000602082019050613c156000830184613bf1565b92915050565b600080600060608486031215613c3457613c3361372d565b5b6000613c428682870161397a565b9350506020613c538682870161397a565b9250506040613c64868287016138c5565b9150509250925092565b600060208284031215613c8457613c8361372d565b5b6000613c928482850161397a565b91505092915050565b613ca4816137bc565b8114613caf57600080fd5b50565b600081359050613cc181613c9b565b92915050565b60008060408385031215613cde57613cdd61372d565b5b6000613cec858286016138c5565b9250506020613cfd85828601613cb2565b9150509250929050565b600080fd5b600080fd5b7f4e487b7100000000000000000000000000000000000000000000000000000000600052604160045260246000fd5b613d4982613838565b810181811067ffffffffffffffff82111715613d6857613d67613d11565b5b80604052505050565b6000613d7b613723565b9050613d878282613d40565b919050565b600067ffffffffffffffff821115613da757613da6613d11565b5b613db082613838565b9050602081019050919050565b82818337600083830152505050565b6000613ddf613dda84613d8c565b613d71565b905082815260208101848484011115613dfb57613dfa613d0c565b5b613e06848285613dbd565b509392505050565b600082601f830112613e2357613e22613d07565b5b8135613e33848260208601613dcc565b91505092915050565b600080600080600060a08688031215613e5857613e5761372d565b5b6000613e66888289016138c5565b9550506020613e77888289016138c5565b9450506040613e88888289016138c5565b935050606086013567ffffffffffffffff811115613ea957613ea8613732565b5b613eb588828901613e0e565b9250506080613ec6888289016138c5565b9150509295509295909350565b60006020820190508181036000830152613eed8184613a15565b905092915050565b60008060408385031215613f0c57613f0b61372d565b5b6000613f1a8582860161397a565b9250506020613f2b85828601613cb2565b9150509250929050565b600067ffffffffffffffff821115613f5057613f4f613d11565b5b613f5982613838565b9050602081019050919050565b6000613f79613f7484613f35565b613d71565b905082815260208101848484011115613f9557613f94613d0c565b5b613fa0848285613dbd565b509392505050565b600082601f830112613fbd57613fbc613d07565b5b8135613fcd848260208601613f66565b91505092915050565b60008060008060808587031215613ff057613fef61372d565b5b6000613ffe8782880161397a565b945050602061400f8782880161397a565b9350506040614020878288016138c5565b925050606085013567ffffffffffffffff81111561404157614040613732565b5b61404d87828801613fa8565b91505092959194509250565b600080604083850312156140705761406f61372d565b5b600061407e8582860161397a565b925050602061408f8582860161397a565b9150509250929050565b7f4e487b7100000000000000000000000000000000000000000000000000000000600052602260045260246000fd5b600060028204905060018216806140e057607f821691505b6020821081036140f3576140f2614099565b5b50919050565b600060608201905061410e6000830186613939565b61411b60208301856139cf565b6141286040830184613939565b949350505050565b7f4e487b7100000000000000000000000000000000000000000000000000000000600052603260045260246000fd5b7f4e487b7100000000000000000000000000000000000000000000000000000000600052601160045260246000fd5b6000614199826138a4565b91506141a4836138a4565b92508282019050808211156141bc576141bb61415f565b5b92915050565b6000815190506141d1816138ae565b92915050565b6000602082840312156141ed576141ec61372d565b5b60006141fb848285016141c2565b91505092915050565b7f3a3a20696e73756666696369656e742066756e6473203a3a0000000000000000600082015250565b600061423a6018836137fd565b915061424582614204565b602082019050919050565b600060208201905081810360008301526142698161422d565b9050919050565b7f3a3a206e6f7420656e6f75676820627564676574203a3a000000000000000000600082015250565b60006142a66017836137fd565b91506142b182614270565b602082019050919050565b600060208201905081810360008301526142d581614299565b9050919050565b60006060820190506142f16000830186613939565b6142fe6020830185613939565b61430b60408301846139cf565b949350505050565b60008151905061432281613c9b565b92915050565b60006020828403121561433e5761433d61372d565b5b600061434c84828501614313565b91505092915050565b6000614360826138a4565b915061436b836138a4565b9250828202614379816138a4565b915082820484148315176143905761438f61415f565b5b5092915050565b600081905092915050565b60006143ad826137f2565b6143b78185614397565b93506143c781856020860161380e565b80840191505092915050565b60006143df82856143a2565b91506143eb82846143a2565b91508190509392505050565b60008190508160005260206000209050919050565b60006020601f8301049050919050565b600082821b905092915050565b6000600883026144597fffffffffffffffffffffffffffffffffffffffffffffffffffffffffffffffff8261441c565b614463868361441c565b95508019841693508086168417925050509392505050565b600061449661449161448c846138a4565b613ba1565b6138a4565b9050919050565b6000819050919050565b6144b08361447b565b6144c46144bc8261449d565b848454614429565b825550505050565b600090565b6144d96144cc565b6144e48184846144a7565b505050565b5b81811015614508576144fd6000826144d1565b6001810190506144ea565b5050565b601f82111561454d5761451e816143f7565b6145278461440c565b81016020851015614536578190505b61454a6145428561440c565b8301826144e9565b50505b505050565b600082821c905092915050565b600061457060001984600802614552565b1980831691505092915050565b6000614589838361455f565b9150826002028217905092915050565b6145a2826139f9565b67ffffffffffffffff8111156145bb576145ba613d11565b5b6145c582546140c8565b6145d082828561450c565b600060209050601f83116001811461460357600084156145f1578287015190505b6145fb858261457d565b865550614663565b601f198416614611866143f7565b60005b8281101561463957848901518255600182019150602085019450602081019050614614565b868310156146565784890151614652601f89168261455f565b8355505b6001600288020188555050505b505050505050565b7f3a3a20707269636520746f6f206c6f77203a3a00000000000000000000000000600082015250565b60006146a16013836137fd565b91506146ac8261466b565b602082019050919050565b600060208201905081810360008301526146d081614694565b9050919050565b7f4e487b7100000000000000000000000000000000000000000000000000000000600052601260045260246000fd5b6000614711826138a4565b915061471c836138a4565b92508261472c5761472b6146d7565b5b828204905092915050565b600081549050614746816140c8565b9050919050565b81810361475b575050614833565b61476482614737565b67ffffffffffffffff81111561477d5761477c613d11565b5b61478782546140c8565b61479282828561450c565b6000601f8311600181146147c157600084156147af578287015490505b6147b9858261457d565b86555061482c565b601f1984166147cf876143f7565b96506147da866143f7565b60005b82811015614802578489015482556001820191506001850194506020810190506147dd565b8683101561481f578489015461481b601f89168261455f565b8355505b6001600288020188555050505b5050505050505b565b6000614840826138a4565b91507fffffffffffffffffffffffffffffffffffffffffffffffffffffffffffffffff82036148725761487161415f565b5b600182019050919050565b60006080820190506148926000830187613939565b61489f6020830186613939565b6148ac60408301856139cf565b81810360608301526148be8184613a15565b905095945050505050565b6000815190506148d881613763565b92915050565b6000602082840312156148f4576148f361372d565b5b6000614902848285016148c9565b91505092915050565b60006040820190506149206000830185613939565b61492d60208301846139cf565b939250505056fea2646970667358221220eaa75e5e0b79b01a2f29647383fda76d14810466eb41b376025492e26ec56a6164736f6c6343000817003360806040523480156200001157600080fd5b5060405162001ccc38038062001ccc8339818101604052810190620000379190620001d8565b336000806101000a81548173ffffffffffffffffffffffffffffffffffffffff021916908373ffffffffffffffffffffffffffffffffffffffff1602179055506040518060400160405280601a81526020017f4245204652455348204d5920465255495459204652454e5a202100000000000081525060039081620000bd91906200048f565b50600060018190555081600281905550620000de81620000e760201b60201c565b50505062000576565b600081600560006101000a81548173ffffffffffffffffffffffffffffffffffffffff021916908373ffffffffffffffffffffffffffffffffffffffff16021790555060019050919050565b600080fd5b6000819050919050565b6200014d8162000138565b81146200015957600080fd5b50565b6000815190506200016d8162000142565b92915050565b600073ffffffffffffffffffffffffffffffffffffffff82169050919050565b6000620001a08262000173565b9050919050565b620001b28162000193565b8114620001be57600080fd5b50565b600081519050620001d281620001a7565b92915050565b60008060408385031215620001f257620001f162000133565b5b600062000202858286016200015c565b92505060206200021585828601620001c1565b9150509250929050565b600081519050919050565b7f4e487b7100000000000000000000000000000000000000000000000000000000600052604160045260246000fd5b7f4e487b7100000000000000000000000000000000000000000000000000000000600052602260045260246000fd5b60006002820490506001821680620002a157607f821691505b602082108103620002b757620002b662000259565b5b50919050565b60008190508160005260206000209050919050565b60006020601f8301049050919050565b600082821b905092915050565b600060088302620003217fffffffffffffffffffffffffffffffffffffffffffffffffffffffffffffffff82620002e2565b6200032d8683620002e2565b95508019841693508086168417925050509392505050565b6000819050919050565b6000620003706200036a620003648462000138565b62000345565b62000138565b9050919050565b6000819050919050565b6200038c836200034f565b620003a46200039b8262000377565b848454620002ef565b825550505050565b600090565b620003bb620003ac565b620003c881848462000381565b505050565b5b81811015620003f057620003e4600082620003b1565b600181019050620003ce565b5050565b601f8211156200043f576200040981620002bd565b6200041484620002d2565b8101602085101562000424578190505b6200043c6200043385620002d2565b830182620003cd565b50505b505050565b600082821c905092915050565b6000620004646000198460080262000444565b1980831691505092915050565b60006200047f838362000451565b9150826002028217905092915050565b6200049a826200021f565b67ffffffffffffffff811115620004b657620004b56200022a565b5b620004c2825462000288565b620004cf828285620003f4565b600060209050601f831160018114620005075760008415620004f2578287015190505b620004fe858262000471565b8655506200056e565b601f1984166200051786620002bd565b60005b8281101562000541578489015182556001820191506020850194506020810190506200051a565b868310156200056157848901516200055d601f89168262000451565b8355505b6001600288020188555050505b505050505050565b61174680620005866000396000f3fe6080604052600436106100f35760003560e01c806377b3cc9a1161008a578063e21f37ce11610059578063e21f37ce14610349578063ece866b914610374578063f794062e1461039f578063f851a440146103dc576100f3565b806377b3cc9a14610286578063c4784fd4146102b1578063c85e07b9146102e1578063cc87ec5f1461030c576100f3565b8063329dd364116100c6578063329dd364146101c8578063365b98b2146101f35780633ccfd60b146102305780636ac5db191461025b576100f3565b806301c0fb4c146100f8578063161dbc14146101355780632a0c74d4146101725780632f7136551461019d575b600080fd5b34801561010457600080fd5b5061011f600480360381019061011a9190610e7d565b610407565b60405161012c9190610ec5565b60405180910390f35b34801561014157600080fd5b5061015c60048036038101906101579190611026565b610419565b6040516101699190610ec5565b60405180910390f35b34801561017e57600080fd5b506101876104c0565b60405161019491906110ee565b60405180910390f35b3480156101a957600080fd5b506101b2610552565b6040516101bf919061116f565b60405180910390f35b3480156101d457600080fd5b506101dd610578565b6040516101ea9190611236565b60405180910390f35b3480156101ff57600080fd5b5061021a60048036038101906102159190611288565b6105fb565b60405161022791906112c4565b60405180910390f35b34801561023c57600080fd5b50610245610632565b60405161025291906112ee565b60405180910390f35b34801561026757600080fd5b50610270610726565b60405161027d91906112ee565b60405180910390f35b34801561029257600080fd5b5061029b61072c565b6040516102a89190610ec5565b60405180910390f35b6102cb60048036038101906102c69190611026565b610925565b6040516102d89190610ec5565b60405180910390f35b3480156102ed57600080fd5b506102f66109d0565b60405161030391906112ee565b60405180910390f35b34801561031857600080fd5b50610333600480360381019061032e9190610e7d565b6109d6565b6040516103409190610ec5565b60405180910390f35b34801561035557600080fd5b5061035e610c19565b60405161036b91906110ee565b60405180910390f35b34801561038057600080fd5b50610389610ca7565b60405161039691906112ee565b60405180910390f35b3480156103ab57600080fd5b506103c660048036038101906103c19190610e7d565b610cad565b6040516103d39190610ec5565b60405180910390f35b3480156103e857600080fd5b506103f1610ccd565b6040516103fe91906112c4565b60405180910390f35b600061041282610cf1565b9050919050565b60003373ffffffffffffffffffffffffffffffffffffffff1660008054906101000a900473ffffffffffffffffffffffffffffffffffffffff1673ffffffffffffffffffffffffffffffffffffffff16146104a0576040517f82b4290000000000000000000000000000000000000000000000000000000000815260040160405180910390fd5b81600390816104af919061150b565b504260048190555060019050919050565b6060600380546104cf90611338565b80601f01602080910402602001604051908101604052809291908181526020018280546104fb90611338565b80156105485780601f1061051d57610100808354040283529160200191610548565b820191906000526020600020905b81548152906001019060200180831161052b57829003601f168201915b5050505050905090565b600560009054906101000a900473ffffffffffffffffffffffffffffffffffffffff1681565b610580610de7565b60076104d28060200260405190810160405280929190826104d280156105f1576020028201915b8160009054906101000a900473ffffffffffffffffffffffffffffffffffffffff1673ffffffffffffffffffffffffffffffffffffffff16815260200190600101908083116105a7575b5050505050905090565b6007816104d2811061060c57600080fd5b016000915054906101000a900473ffffffffffffffffffffffffffffffffffffffff1681565b60003373ffffffffffffffffffffffffffffffffffffffff1660008054906101000a900473ffffffffffffffffffffffffffffffffffffffff1673ffffffffffffffffffffffffffffffffffffffff16146106b9576040517f82b4290000000000000000000000000000000000000000000000000000000000815260040160405180910390fd5b60008054906101000a900473ffffffffffffffffffffffffffffffffffffffff1673ffffffffffffffffffffffffffffffffffffffff166108fc479081150290604051600060405180830381858888f1935050505015801561071f573d6000803e3d6000fd5b5047905090565b60025481565b60003360011515600660008373ffffffffffffffffffffffffffffffffffffffff1673ffffffffffffffffffffffffffffffffffffffff16815260200190815260200160002060009054906101000a900460ff161515036107b9576040517fe08ca6b000000000000000000000000000000000000000000000000000000000815260040160405180910390fd5b600254600154106107f6576040517fea5db9c500000000000000000000000000000000000000000000000000000000815260040160405180910390fd5b6001600660003373ffffffffffffffffffffffffffffffffffffffff1673ffffffffffffffffffffffffffffffffffffffff16815260200190815260200160002060006101000a81548160ff0219169083151502179055503360076001546104d28110610866576108656115dd565b5b0160006101000a81548173ffffffffffffffffffffffffffffffffffffffff021916908373ffffffffffffffffffffffffffffffffffffffff160217905550600160008154809291906108b89061163b565b9190505550600254600154036108d2576108d0610d3d565b505b600660003373ffffffffffffffffffffffffffffffffffffffff1673ffffffffffffffffffffffffffffffffffffffff16815260200190815260200160002060009054906101000a900460ff1691505090565b6000670de0b6b3a76400003411610968576040517f99956c4600000000000000000000000000000000000000000000000000000000815260040160405180910390fd5b610e106004546109789190611683565b42116109b0576040517f7cd5facc00000000000000000000000000000000000000000000000000000000815260040160405180910390fd5b81600390816109bf919061150b565b504260048190555060019050919050565b60045481565b60008160011515600660008373ffffffffffffffffffffffffffffffffffffffff1673ffffffffffffffffffffffffffffffffffffffff16815260200190815260200160002060009054906101000a900460ff16151503610a63576040517fe08ca6b000000000000000000000000000000000000000000000000000000000815260040160405180910390fd5b3373ffffffffffffffffffffffffffffffffffffffff1660008054906101000a900473ffffffffffffffffffffffffffffffffffffffff1673ffffffffffffffffffffffffffffffffffffffff1614610ae8576040517f82b4290000000000000000000000000000000000000000000000000000000000815260040160405180910390fd5b6001600660008573ffffffffffffffffffffffffffffffffffffffff1673ffffffffffffffffffffffffffffffffffffffff16815260200190815260200160002060006101000a81548160ff0219169083151502179055508260076001546104d28110610b5857610b576115dd565b5b0160006101000a81548173ffffffffffffffffffffffffffffffffffffffff021916908373ffffffffffffffffffffffffffffffffffffffff16021790555060016000815480929190610baa9061163b565b919050555060025460015403610bc457610bc2610d3d565b505b600660008473ffffffffffffffffffffffffffffffffffffffff1673ffffffffffffffffffffffffffffffffffffffff16815260200190815260200160002060009054906101000a900460ff16915050919050565b60038054610c2690611338565b80601f0160208091040260200160405190810160405280929190818152602001828054610c5290611338565b8015610c9f5780601f10610c7457610100808354040283529160200191610c9f565b820191906000526020600020905b815481529060010190602001808311610c8257829003601f168201915b505050505081565b60015481565b60066020528060005260406000206000915054906101000a900460ff1681565b60008054906101000a900473ffffffffffffffffffffffffffffffffffffffff1681565b600081600560006101000a81548173ffffffffffffffffffffffffffffffffffffffff021916908373ffffffffffffffffffffffffffffffffffffffff16021790555060019050919050565b600060025460015414610d4f57600080fd5b600560009054906101000a900473ffffffffffffffffffffffffffffffffffffffff1673ffffffffffffffffffffffffffffffffffffffff1663b524fd6f6040518163ffffffff1660e01b81526004016020604051808303816000875af1158015610dbe573d6000803e3d6000fd5b505050506040513d601f19601f82011682018060405250810190610de291906116e3565b905090565b60405180619a4001604052806104d290602082028036833780820191505090505090565b6000604051905090565b600080fd5b600080fd5b600073ffffffffffffffffffffffffffffffffffffffff82169050919050565b6000610e4a82610e1f565b9050919050565b610e5a81610e3f565b8114610e6557600080fd5b50565b600081359050610e7781610e51565b92915050565b600060208284031215610e9357610e92610e15565b5b6000610ea184828501610e68565b91505092915050565b60008115159050919050565b610ebf81610eaa565b82525050565b6000602082019050610eda6000830184610eb6565b92915050565b600080fd5b600080fd5b6000601f19601f8301169050919050565b7f4e487b7100000000000000000000000000000000000000000000000000000000600052604160045260246000fd5b610f3382610eea565b810181811067ffffffffffffffff82111715610f5257610f51610efb565b5b80604052505050565b6000610f65610e0b565b9050610f718282610f2a565b919050565b600067ffffffffffffffff821115610f9157610f90610efb565b5b610f9a82610eea565b9050602081019050919050565b82818337600083830152505050565b6000610fc9610fc484610f76565b610f5b565b905082815260208101848484011115610fe557610fe4610ee5565b5b610ff0848285610fa7565b509392505050565b600082601f83011261100d5761100c610ee0565b5b813561101d848260208601610fb6565b91505092915050565b60006020828403121561103c5761103b610e15565b5b600082013567ffffffffffffffff81111561105a57611059610e1a565b5b61106684828501610ff8565b91505092915050565b600081519050919050565b600082825260208201905092915050565b60005b838110156110a957808201518184015260208101905061108e565b60008484015250505050565b60006110c08261106f565b6110ca818561107a565b93506110da81856020860161108b565b6110e381610eea565b840191505092915050565b6000602082019050818103600083015261110881846110b5565b905092915050565b6000819050919050565b600061113561113061112b84610e1f565b611110565b610e1f565b9050919050565b60006111478261111a565b9050919050565b60006111598261113c565b9050919050565b6111698161114e565b82525050565b60006020820190506111846000830184611160565b92915050565b60006104d29050919050565b600081905092915050565b6000819050919050565b6111b481610e3f565b82525050565b60006111c683836111ab565b60208301905092915050565b6000602082019050919050565b6111e88161118a565b6111f28184611196565b92506111fd826111a1565b8060005b8381101561122e57815161121587826111ba565b9650611220836111d2565b925050600181019050611201565b505050505050565b6000619a408201905061124c60008301846111df565b92915050565b6000819050919050565b61126581611252565b811461127057600080fd5b50565b6000813590506112828161125c565b92915050565b60006020828403121561129e5761129d610e15565b5b60006112ac84828501611273565b91505092915050565b6112be81610e3f565b82525050565b60006020820190506112d960008301846112b5565b92915050565b6112e881611252565b82525050565b600060208201905061130360008301846112df565b92915050565b7f4e487b7100000000000000000000000000000000000000000000000000000000600052602260045260246000fd5b6000600282049050600182168061135057607f821691505b60208210810361136357611362611309565b5b50919050565b60008190508160005260206000209050919050565b60006020601f8301049050919050565b600082821b905092915050565b6000600883026113cb7fffffffffffffffffffffffffffffffffffffffffffffffffffffffffffffffff8261138e565b6113d5868361138e565b95508019841693508086168417925050509392505050565b60006114086114036113fe84611252565b611110565b611252565b9050919050565b6000819050919050565b611422836113ed565b61143661142e8261140f565b84845461139b565b825550505050565b600090565b61144b61143e565b611456818484611419565b505050565b5b8181101561147a5761146f600082611443565b60018101905061145c565b5050565b601f8211156114bf5761149081611369565b6114998461137e565b810160208510156114a8578190505b6114bc6114b48561137e565b83018261145b565b50505b505050565b600082821c905092915050565b60006114e2600019846008026114c4565b1980831691505092915050565b60006114fb83836114d1565b9150826002028217905092915050565b6115148261106f565b67ffffffffffffffff81111561152d5761152c610efb565b5b6115378254611338565b61154282828561147e565b600060209050601f8311600181146115755760008415611563578287015190505b61156d85826114ef565b8655506115d5565b601f19841661158386611369565b60005b828110156115ab57848901518255600182019150602085019450602081019050611586565b868310156115c857848901516115c4601f8916826114d1565b8355505b6001600288020188555050505b505050505050565b7f4e487b7100000000000000000000000000000000000000000000000000000000600052603260045260246000fd5b7f4e487b7100000000000000000000000000000000000000000000000000000000600052601160045260246000fd5b600061164682611252565b91507fffffffffffffffffffffffffffffffffffffffffffffffffffffffffffffffff82036116785761167761160c565b5b600182019050919050565b600061168e82611252565b915061169983611252565b92508282019050808211156116b1576116b061160c565b5b92915050565b6116c081610eaa565b81146116cb57600080fd5b50565b6000815190506116dd816116b7565b92915050565b6000602082840312156116f9576116f8610e15565b5b6000611707848285016116ce565b9150509291505056fea2646970667358221220de39d3b641414aca1825d463d302c3cedb8d622f68ce25a6c465a15c7e9a352c64736f6c63430008170033",
  "immutableReferences": {},
  "source": "// SPDX-License-Identifier: GPL-3.0\n// // // // // // // // // // // // // // // // // // // // // // // // // // // // // // // // // // // // // // // // // // // // // // // // // // // // // // // // // // // // //\n//\n//      WWWWWWWWWWWWWWWWWWWWWWWWWWWWWWWWWWWWWWWWWWWWWWWWWWWWWWWWWWWWWWWWWWWWWNXK0OOOOO0KXNWWWWWWWWWWWWWWWWWW\n//      WWWWWWWWWWWWWWWWWWWWWWWWWWWWWWWWWWWWWWWWWWWWWWWWWWWWWWWWWWWWWWWWXOdl;'...........,:oOXWWWWWWWWWWWWWW\n//      WWWWWWWWWWWWWWWWWWWWWWWWWWWWWWWWWWWWWWWWWWWWWWWWWWWWWWWWWWWWWXkc'. .';:clooooolc:,. .,oKWWWWWWWWWWWW\n//      WWWWWWWWWWWWWWWWWWWWWWWWWWWWWWWWWWWWWWWWWNKK0000KXXXNNNNNWWKo' .'cdk00KKKKKKKKKK00Od;. .dNWWWWWWWWWW\n//      WWWWWWWWWWWWWWWWWWWWWWWWWWWWWWWWWWWWWNOo;'.........'',,,:kx' .;dO0K0Oxlc:;;:cdk0K00K0x, .dNWWWWWWWWW\n//      WWWWWWWWWWWWWWWWWWWWWWWWWWWWWWWWWWWWO:.    .....        .,. 'd000KOo,. .'',.. .lOKK00Kd. ,KWWWWWWWWW\n//      WWWWWWWWWWWWWWWWWWWWWWWWWWWWWWWWWWW0,     :OXXX0:       .. 'xKK000l. ,xKXNNXx' .dKKK0Kx' '0WWWWWWWWW\n//      WWWWWWWWWWWWWWX0kxdooooodk0NWWWXOOx;     .oOOXWWo       .  c000000:  lXNWNX0l. ,kK00K0l. cXWWWWWWWWW\n//      WWWWWWWWWWWNOc'.          .,xXO,.            :KX:      ';. :000KK0x,  .,;,'. .:x000KOl. ,OWWWWWWWWWW\n//      WWWWWWWWWWNo.     .::'      .kx'..       ...'dNk.      lO; .:x00000Odc;,,,;cok000Oxc' .:0WWWWWWWWWWW\n//      WWWWWWWWWWK;     .dNWK;     .xWXKd.     ;OKKXWNl      .kW0;  .'cx00KKKK0000KK0kl;.  .:kNWWWWWWWWWWWW\n//      WWWWWWWWWWWOl;,;ckKKkc.     ,KWWWd.    .xWWWWW0,      :Od;. .';lx000OOkkOO0000Od:,. .c0WWWWWWWWWWWWW\n//      WWWWWWWWWWNKkoc:;,..        lNWWX:     ;KWWWWWx.      .. .,lxO00xl;'......,:dO0K00xc. .xNWWWWWWWWWWW\n//      WWWWWWWWNk;.        .      .kWWWk.     oNWWWWX:        .:x000Oo,. .;clool:'  ,x0K000d. 'OWWWWWWWWWWW\n//      WWWWWWWXl.     'cdkOo.     :XWWNl     'OWWWWWO.       .o0KKKOc. ,xKNWWWWWWXo. ,kK00K0c .oWWWWWWWWWWW\n//      WWWWWWWx.     ,ONNKx'      lKXKk'     ,OXWWX0:        ;xO0KKd. ;KWWWWWWWWWWx. ,kKK00O: .dWWWWWWWWWWW\n//      WWWWWWWd.      .,'.        .....       .cKd'.          .l0KKd. 'kNWWWWWWXOl. .d00KK0d. ,0WWWWWWWWWWW\n//      WWWWWWW0;          .,.                 .o0;            'x00K0o. .';ccc:;.. .:x0KKK0d' .xWWWWWWWWWWWW\n//      WWWWWWWWXxc;,'',:lx0N0l;,,:clooddxxddooONNOdodxxxdo;  .d000KK0Oo:,'...',;cok0KKK0x:. 'kNWWWWWWWWWWWW\n//      WWWWWWWWWWWWNNNNWWWWWWWWNNWWWWWWWWWWWWWWWWWWWWWWWWWKc  ,oO0KKK0K000OO0000K0KK0ko;. .lKWWWWWWWWWWWWWW\n//      WWWWWWWWWWWWWWWWWWWWWWWWWWWWWWWWWWWWWWWWWWWWWWWWWWWWXx,. .:ldkO00000000OOxdl:'. .;dKWWWWWWWWWWWWWWWW\n//      WWWWWWWWWWWWWWWWWWWWWWWWWWWWWWWWWWWWWWWWWWWWWWWWWWWWWWXOl,......',,,,,'......,cd0NWWWWWWWWWWWWWWWWWW\n//      WWWWWWWWWWWWWWWWWWWWWWWWWWWWWWWWWWWWWWWWWWWWWWWWWWWWWWWWWNKOxoc::;;;;;:cloxOKNWWWWWWWWWWWWWWWWWWWWWW\n//      WWWWWWWWWWWWWWWWWWWWWWWWWWWWWWWWWWWWWWWWWWWWWWWWWWWWWWWWWWWWWWWWWWWWWWWWWWWWWWWWWWWWWWWWWWWWWWWWWWWW\n//\n// // // // // // // // // // // // // // // // // // // // // // // // // // // // // // // // // // // // // // // // // // // // // // // // // // // // // // // // // // // // //\n//                                                                                                                                                                                  //\n//      @dev            ::              Aron Mauritala Ayuk                                                                                                                                          //\n//      @msg            ::              stereo@iii6.xyz                                                                                                                                   //\n//      @github         ::              @stereoIII6\n//      @twitter        ::              @stereoIII6                                                                                                                                              //\n//                                                                                                                                                                                  //\n// // // // // // // // // // // // // // // // // // // // // // // // // // // // // // // // // // // // // // // // // // // // // // // // // // // // // // // // // // // // //\n//                                                                                                                                                                                  //\n//      @dev            ::              Juan Xavier Valverde                                                                                                                                    //\n//      @msg            ::              juanxavier@iii6.xyz                                                                                                                               //\n//      @twitter        ::              @JuanXavier                                                                                                                                             //\n//      @github         ::              @JuanXavier                                                                                                                                             //\n//                                                                                                                                                                                  //                                                                                                                                                                                 //\n// // // // // // // // // // // // // // // // // // // // // // // // // // // // // // // // // // // // // // // // // // // // // // // // // // // // // // // // // // // // //\n//  *   *   *   *   *   *   *   *   *   *   *   *   *   *   *   *   *   *   *   *   *   *   *   *   *   *   *   *   *   *   *   *   *   *   *   *   *   *   *   *   *   *   *   *   //\n// // // // // // // // // // // // // // // // // // // // // // // // // // // // // // // // // // // // // // // // // // // // // // // // // // // // // // // // // // // // //\n//                                                                                                                                                                                  //\n//      @company        ::              Fractio Holding                                                                                                                                                                       //\n//      @title          ::              iii6 Coin Model                                                                                                                            //\n//      @description    ::              ERC20 Model Preset Contract                                                                                                                           //\n//      @version        ::              0.0.1                                                                                                                                       //\n//      @purpose        ::              ERC20 Model Preset                                                                                                          //\n//                                                                                                                                                                                  //\n//                                                                                                                                                                                  //\n//                                                                                                                                                                                  //\n//                                                                                                                                                                                  //\n//                                                                                                                                                                                  //\n// // // // // // // // // // // // // // // // // // // // // // // // // // // // // // // // // // // // // // // // // // // // // // // // // // // // // // // // // // // // //\n//  *   *   *   *   *   *   *   *   *   *   *   *   *   *   *   *   *   *   *   *   *   *   *   *   *   *   *   *   *   *   *   *   *   *   *   *   *   *   *   *   *   *   *   *   //\n// // // // // // // // // // // // // // // // // // // // // // // // // // // // // // // // // // // // // // // // // // // // // // // // // // // // // // // // // // // // //\n\npragma solidity ^0.8.7;\n\nimport \"../iii6utils/Assets/iii6CoinModel.sol\";\nimport \"../iii6utils/Assets/iii6DiaModel.sol\";\nimport \"../iii6utils/Misc/iii6Misc.sol\";\n\ncontract AFL8_CampaignModel is iii6DiaModel, iii6Misc {\n    iii6CoinModel public afl8;\n    uint256 FEE;\n    struct Campaign {\n        uint256 id;\n        address author;\n        uint256 start;\n        uint256 budget;\n        uint256 price;\n        uint256 actions;\n        bytes dias;\n        CampaignType ctype;\n        Status state;\n    }\n    uint256 public C_ID;\n    Campaign[] public campaigns;\n    mapping(address => uint256) campaignCount;\n    mapping(address => mapping(uint256 => Campaign)) public campaignShow;\n    mapping(uint256 => uint256) public campaignSafe;\n\n    // initialises the contract at deployment\n    constructor()\n        iii6DiaModel(msg.sender, \"Affiliate Campaign Asset\", \"AFL8\", 0, 0, 0)\n    {\n        // afl8 = iii6CoinModel();\n    }\n\n    // function takes (campaign type , budget , price) and returns (actions)=>{Views,Clicks,Leads,Sales}\n    function _calcActions(\n        CampaignType _ctype,\n        uint256 _budget,\n        uint256 _price\n    ) internal pure returns (uint256 actions) {\n        if (_ctype == CampaignType.View) {\n            // VIEW CAMPAIGNS\n            require(_price >= 5 * 10**15, \":: price too low ::\");\n            actions = _budget / _price;\n        } else if (_ctype == CampaignType.Click) {\n            // CLICK CAMPAIGNS\n            require(_price >= 5 * 10**16, \":: price too low ::\");\n            actions = _budget / _price;\n        } else if (_ctype == CampaignType.Lead) {\n            // LEAD CAMPAIGNS\n            require(_price >= 5 * 10**17, \":: price too low ::\");\n            actions = _budget / _price;\n        } else if (_ctype == CampaignType.Sale) {\n            // SALE CAMPAIGNS\n            require(_price >= 5 * 10**18, \":: price too low ::\");\n            actions = _budget / _price;\n        } else {\n            // ERROR FALLBACK\n            actions = 0;\n        }\n    }\n\n    // function makes a new Campaign from input() and mints a campaign token\n    function _makeCampaign(\n        uint256 _start,\n        uint256 _budget,\n        uint256 _price,\n        uint256 _actions,\n        string memory _dias,\n        CampaignType _ctype,\n        Status _state\n    ) internal returns (bool) {\n        // Write Struct to Array & Mapping\n        campaigns.push(\n            Campaign(\n                C_ID,\n                msg.sender,\n                _start,\n                _budget,\n                _price,\n                _actions,\n                bytes(_dias),\n                _ctype,\n                _state\n            )\n        );\n        campaignShow[msg.sender][campaignCount[msg.sender]] = campaigns[C_ID];\n        // Iterate\n        campaignCount[msg.sender]++;\n        _mint(msg.sender, C_ID);\n        C_ID++;\n        // Exit\n        return true;\n    }\n\n    // function pauses campaign\n    function _pauseCampaign(uint256 _cid) internal returns (bool) {\n        // get campaign data\n        Campaign memory campaign = campaigns[_cid];\n        // set campaign status\n        campaign.state = Status.Paused;\n        // write new state to campaign\n        campaigns[_cid] = campaign;\n        // exit with bool\n        return false;\n    }\n\n    // function starts campaign\n    function _startCampaign(uint256 _cid) internal returns (bool) {\n        // get campaign data\n        Campaign memory campaign = campaigns[_cid];\n        // set campaign status\n        campaign.state = Status.Active;\n        // write new state to campaign\n        campaigns[_cid] = campaign;\n        // exit with bool\n        return true;\n    }\n\n    // function starts campaign\n    function _endCampaign(uint256 _cid) internal returns (bool) {\n        // get campaign data\n        Campaign memory campaign = campaigns[_cid];\n        // set campaign status\n        campaign.state = Status.Ended;\n        // write new state to campaign\n        campaigns[_cid] = campaign;\n        // exit with bool\n        return true;\n    }\n\n    // function handles payment and calls make campaign\n    function createCampaign(\n        uint256 _start,\n        uint256 _budget,\n        uint256 _price,\n        string memory _dias,\n        uint256 _ctype\n    ) external returns (bool) {\n        // check fund availability\n        uint256 checksum = (5 * 10**18) + _budget;\n        require(\n            afl8.balanceOf(msg.sender) >= checksum,\n            \":: insufficient funds ::\"\n        );\n        // Translate Campaign Type to ENUM\n        CampaignType ctyp;\n        if (_ctype == 0) {\n            ctyp = CampaignType.View;\n        } else if (_ctype == 1) {\n            ctyp = CampaignType.Click;\n        } else if (_ctype == 2) {\n            ctyp = CampaignType.Lead;\n        } else if (_ctype == 3) {\n            ctyp = CampaignType.Sale;\n        } else {\n            ctyp = CampaignType.Inactive;\n        }\n        // Calculate Action Count from Input\n        uint256 actions = _calcActions(ctyp, _budget, _price);\n        require(actions != 0, \":: not enough budget ::\");\n        // Check Timing & Set Status ENUM\n        Status stat = Status.Pending;\n        if (_start < block.timestamp) {\n            stat = Status.Active;\n        }\n        // Transfer funds from user to contract\n        afl8.transferFrom(msg.sender, address(this), checksum);\n        // create Campaign Token\n        return\n            _makeCampaign(_start, _budget, _price, actions, _dias, ctyp, stat);\n    }\n\n    // function changes campaign state\n    function changeState(uint256 _cid, bool _quit) external returns (bool) {\n        // get campaign data\n        Campaign memory campaign = campaigns[_cid];\n        // check if campaign is started or ended\n        if (_quit) {\n            return _endCampaign(_cid);\n        }\n        if (\n            campaign.start < block.timestamp && campaign.state != Status.Ended\n        ) {\n            // check campaign state\n            if (\n                campaign.state == Status.Pending ||\n                campaign.state == Status.Paused\n            ) {\n                // exit set to active\n                return _startCampaign(_cid);\n            } else {\n                // exit set to paused\n                return _pauseCampaign(_cid);\n            }\n        }\n        // exit with bool\n        else return false;\n    }\n}\n",
  "sourcePath": "/Users/iii6/Documents/GitHub/iii6v2/iii6v2/contracts/afl8Projects/afl8ProjectModel.sol",
  "compiler": {
    "name": "solc",
    "version": "0.8.23+commit.f704f362.Emscripten.clang"
  },
  "schemaVersion": "3.4.16",
  "updatedAt": "2023-12-05T23:55:20.092Z",
  "devdoc": {
    "errors": {
      "ERC721IncorrectOwner(address,uint256,address)": [
        {
          "details": "Indicates an error related to the ownership over a particular token. Used in transfers.",
          "params": {
            "owner": "Address of the current owner of a token.",
            "sender": "Address whose tokens are being transferred.",
            "tokenId": "Identifier number of a token."
          }
        }
      ],
      "ERC721InsufficientApproval(address,uint256)": [
        {
          "details": "Indicates a failure with the `operator`s approval. Used in transfers.",
          "params": {
            "operator": "Address that may be allowed to operate on tokens without being their owner.",
            "tokenId": "Identifier number of a token."
          }
        }
      ],
      "ERC721InvalidApprover(address)": [
        {
          "details": "Indicates a failure with the `approver` of a token to be approved. Used in approvals.",
          "params": {
            "approver": "Address initiating an approval operation."
          }
        }
      ],
      "ERC721InvalidOperator(address)": [
        {
          "details": "Indicates a failure with the `operator` to be approved. Used in approvals.",
          "params": {
            "operator": "Address that may be allowed to operate on tokens without being their owner."
          }
        }
      ],
      "ERC721InvalidOwner(address)": [
        {
          "details": "Indicates that an address can't be an owner. For example, `address(0)` is a forbidden owner in EIP-20. Used in balance queries.",
          "params": {
            "owner": "Address of the current owner of a token."
          }
        }
      ],
      "ERC721InvalidReceiver(address)": [
        {
          "details": "Indicates a failure with the token `receiver`. Used in transfers.",
          "params": {
            "receiver": "Address to which tokens are being transferred."
          }
        }
      ],
      "ERC721InvalidSender(address)": [
        {
          "details": "Indicates a failure with the token `sender`. Used in transfers.",
          "params": {
            "sender": "Address whose tokens are being transferred."
          }
        }
      ],
      "ERC721NonexistentToken(uint256)": [
        {
          "details": "Indicates a `tokenId` whose `owner` is the zero address.",
          "params": {
            "tokenId": "Identifier number of a token."
          }
        }
      ]
    },
    "events": {
      "ACTION_Log(uint256,address,string,address,uint256)": {
        "details": "this event logs important events"
      },
      "Approval(address,address,uint256)": {
        "details": "Emitted when `owner` enables `approved` to manage the `tokenId` token."
      },
      "ApprovalForAll(address,address,bool)": {
        "details": "Emitted when `owner` enables or disables (`approved`) `operator` to manage all of its assets."
      },
      "ERR_Log(uint256,address,string,uint256)": {
        "details": "this event logs all errors"
      },
      "TX_Log(uint256,address,uint256,uint256)": {
        "details": "this event logs all transactions"
      },
      "Transfer(address,address,uint256)": {
        "details": "Emitted when `tokenId` token is transferred from `from` to `to`."
      }
    },
    "kind": "dev",
    "methods": {
      "approve(address,uint256)": {
        "details": "See {IERC721-approve}."
      },
      "balanceOf(address)": {
        "details": "See {IERC721-balanceOf}."
      },
      "getApproved(uint256)": {
        "details": "See {IERC721-getApproved}."
      },
      "isApprovedForAll(address,address)": {
        "details": "See {IERC721-isApprovedForAll}."
      },
      "name()": {
        "details": "See {IERC721Metadata-name}."
      },
      "ownerOf(uint256)": {
        "details": "See {IERC721-ownerOf}."
      },
      "safeTransferFrom(address,address,uint256)": {
        "details": "See {IERC721-safeTransferFrom}."
      },
      "safeTransferFrom(address,address,uint256,bytes)": {
        "details": "See {IERC721-safeTransferFrom}."
      },
      "setApprovalForAll(address,bool)": {
        "details": "See {IERC721-setApprovalForAll}."
      },
      "supportsInterface(bytes4)": {
        "details": "See {IERC165-supportsInterface}."
      },
      "symbol()": {
        "details": "See {IERC721Metadata-symbol}."
      },
      "tokenURI(uint256)": {
        "details": "See {IERC721Metadata-tokenURI}."
      },
      "transferFrom(address,address,uint256)": {
        "details": "See {IERC721-transferFrom}."
      }
    },
    "version": 1
  },
  "userdoc": {
    "kind": "user",
    "methods": {},
    "version": 1
  }
}