{
  "contractName": "Client",
  "abi": [
    {
      "inputs": [],
      "name": "EVM_EXTRA_ARGS_V1_TAG",
      "outputs": [
        {
          "internalType": "bytes4",
          "name": "",
          "type": "bytes4"
        }
      ],
      "stateMutability": "view",
      "type": "function"
    }
  ],
  "bytecode": "0x60e5610052600b82828239805160001a607314610045577f4e487b7100000000000000000000000000000000000000000000000000000000600052600060045260246000fd5b30600052607381538281f3fe730000000000000000000000000000000000000000301460806040526004361060335760003560e01c80633ab8c0d0146038575b600080fd5b603e6052565b604051604991906096565b60405180910390f35b6397a657c960e01b81565b60007fffffffff0000000000000000000000000000000000000000000000000000000082169050919050565b609081605d565b82525050565b600060208201905060a960008301846089565b9291505056fea2646970667358221220309b099ab93394307e1a49d827dc929b2717f69acbee8f33ef70a7a1b551acd164736f6c63430008170033",
  "immutableReferences": {},
  "source": "// SPDX-License-Identifier: MIT\npragma solidity ^0.8.0;\n\n// End consumer library.\nlibrary Client {\n  struct EVMTokenAmount {\n    address token; // token address on the local chain.\n    uint256 amount; // Amount of tokens.\n  }\n\n  struct Any2EVMMessage {\n    bytes32 messageId; // MessageId corresponding to ccipSend on source.\n    uint64 sourceChainSelector; // Source chain selector.\n    bytes sender; // abi.decode(sender) if coming from an EVM chain.\n    bytes data; // payload sent in original message.\n    EVMTokenAmount[] destTokenAmounts; // Tokens and their amounts in their destination chain representation.\n  }\n\n  // If extraArgs is empty bytes, the default is 200k gas limit and strict = false.\n  struct EVM2AnyMessage {\n    bytes receiver; // abi.encode(receiver address) for dest EVM chains\n    bytes data; // Data payload\n    EVMTokenAmount[] tokenAmounts; // Token transfers\n    address feeToken; // Address of feeToken. address(0) means you will send msg.value.\n    bytes extraArgs; // Populate this with _argsToBytes(EVMExtraArgsV1)\n  }\n\n  // extraArgs will evolve to support new features\n  // bytes4(keccak256(\"CCIP EVMExtraArgsV1\"));\n  bytes4 public constant EVM_EXTRA_ARGS_V1_TAG = 0x97a657c9;\n  struct EVMExtraArgsV1 {\n    uint256 gasLimit; // ATTENTION!!! MAX GAS LIMIT 4M FOR BETA TESTING\n    bool strict; // See strict sequencing details below.\n  }\n\n  function _argsToBytes(EVMExtraArgsV1 memory extraArgs) internal pure returns (bytes memory bts) {\n    return abi.encodeWithSelector(EVM_EXTRA_ARGS_V1_TAG, extraArgs);\n  }\n}\n",
  "sourcePath": "@chainlink/contracts-ccip/src/v0.8/ccip/libraries/Client.sol",
  "compiler": {
    "name": "solc",
    "version": "0.8.23+commit.f704f362.Emscripten.clang"
  },
  "schemaVersion": "3.4.16",
  "updatedAt": "2023-12-05T23:55:20.057Z",
  "devdoc": {
    "kind": "dev",
    "methods": {},
    "version": 1
  },
  "userdoc": {
    "kind": "user",
    "methods": {},
    "version": 1
  }
}