{
  "contractName": "iii6CoinFactory",
  "abi": [
    {
      "inputs": [],
      "stateMutability": "nonpayable",
      "type": "constructor"
    },
    {
      "inputs": [],
      "name": "COIN_USD",
      "outputs": [
        {
          "internalType": "uint256",
          "name": "",
          "type": "uint256"
        }
      ],
      "stateMutability": "view",
      "type": "function"
    },
    {
      "inputs": [],
      "name": "ETH_USD",
      "outputs": [
        {
          "internalType": "uint256",
          "name": "",
          "type": "uint256"
        }
      ],
      "stateMutability": "view",
      "type": "function"
    },
    {
      "inputs": [],
      "name": "X_USD",
      "outputs": [
        {
          "internalType": "uint256",
          "name": "",
          "type": "uint256"
        }
      ],
      "stateMutability": "view",
      "type": "function"
    },
    {
      "inputs": [],
      "name": "Y_USD",
      "outputs": [
        {
          "internalType": "uint256",
          "name": "",
          "type": "uint256"
        }
      ],
      "stateMutability": "view",
      "type": "function"
    },
    {
      "inputs": [
        {
          "internalType": "uint256",
          "name": "_amt",
          "type": "uint256"
        }
      ],
      "name": "coinPriceOfEth",
      "outputs": [
        {
          "internalType": "uint256",
          "name": "",
          "type": "uint256"
        }
      ],
      "stateMutability": "view",
      "type": "function"
    },
    {
      "inputs": [
        {
          "internalType": "uint256",
          "name": "_amt",
          "type": "uint256"
        }
      ],
      "name": "coinPriceOfUSD",
      "outputs": [
        {
          "internalType": "uint256",
          "name": "",
          "type": "uint256"
        }
      ],
      "stateMutability": "view",
      "type": "function"
    },
    {
      "inputs": [
        {
          "internalType": "uint256",
          "name": "_amt",
          "type": "uint256"
        }
      ],
      "name": "coinPriceOfX",
      "outputs": [
        {
          "internalType": "uint256",
          "name": "",
          "type": "uint256"
        }
      ],
      "stateMutability": "view",
      "type": "function"
    },
    {
      "inputs": [
        {
          "internalType": "uint256",
          "name": "_amt",
          "type": "uint256"
        }
      ],
      "name": "coinPriceOfY",
      "outputs": [
        {
          "internalType": "uint256",
          "name": "",
          "type": "uint256"
        }
      ],
      "stateMutability": "view",
      "type": "function"
    },
    {
      "inputs": [
        {
          "internalType": "uint256",
          "name": "_amt",
          "type": "uint256"
        }
      ],
      "name": "ethPriceOfUSD",
      "outputs": [
        {
          "internalType": "uint256",
          "name": "",
          "type": "uint256"
        }
      ],
      "stateMutability": "view",
      "type": "function"
    },
    {
      "inputs": [],
      "name": "getCoinPriceInEth",
      "outputs": [
        {
          "internalType": "uint256",
          "name": "coinPriceEth",
          "type": "uint256"
        }
      ],
      "stateMutability": "view",
      "type": "function"
    },
    {
      "inputs": [],
      "name": "getCoinPriceInX",
      "outputs": [
        {
          "internalType": "uint256",
          "name": "coinPriceX",
          "type": "uint256"
        }
      ],
      "stateMutability": "view",
      "type": "function"
    },
    {
      "inputs": [],
      "name": "getCoinPriceInY",
      "outputs": [
        {
          "internalType": "uint256",
          "name": "coinPriceY",
          "type": "uint256"
        }
      ],
      "stateMutability": "view",
      "type": "function"
    },
    {
      "inputs": [],
      "name": "getEthPriceInCoin",
      "outputs": [
        {
          "internalType": "uint256",
          "name": "ethPriceCoin",
          "type": "uint256"
        }
      ],
      "stateMutability": "view",
      "type": "function"
    },
    {
      "inputs": [],
      "name": "getEthPriceInX",
      "outputs": [
        {
          "internalType": "uint256",
          "name": "ethPriceX",
          "type": "uint256"
        }
      ],
      "stateMutability": "view",
      "type": "function"
    },
    {
      "inputs": [],
      "name": "getEthPriceInY",
      "outputs": [
        {
          "internalType": "uint256",
          "name": "ethPriceY",
          "type": "uint256"
        }
      ],
      "stateMutability": "view",
      "type": "function"
    },
    {
      "inputs": [],
      "name": "getXPriceInCoin",
      "outputs": [
        {
          "internalType": "uint256",
          "name": "xPriceCoin",
          "type": "uint256"
        }
      ],
      "stateMutability": "view",
      "type": "function"
    },
    {
      "inputs": [],
      "name": "getXPriceInEth",
      "outputs": [
        {
          "internalType": "uint256",
          "name": "xPriceEth",
          "type": "uint256"
        }
      ],
      "stateMutability": "view",
      "type": "function"
    },
    {
      "inputs": [],
      "name": "getXPriceInY",
      "outputs": [
        {
          "internalType": "uint256",
          "name": "xPriceY",
          "type": "uint256"
        }
      ],
      "stateMutability": "view",
      "type": "function"
    },
    {
      "inputs": [],
      "name": "getYPriceInCoin",
      "outputs": [
        {
          "internalType": "uint256",
          "name": "yPriceCoin",
          "type": "uint256"
        }
      ],
      "stateMutability": "view",
      "type": "function"
    },
    {
      "inputs": [],
      "name": "getYPriceInEth",
      "outputs": [
        {
          "internalType": "uint256",
          "name": "yPriceEth",
          "type": "uint256"
        }
      ],
      "stateMutability": "view",
      "type": "function"
    },
    {
      "inputs": [],
      "name": "getYPriceInX",
      "outputs": [
        {
          "internalType": "uint256",
          "name": "yPriceX",
          "type": "uint256"
        }
      ],
      "stateMutability": "view",
      "type": "function"
    },
    {
      "inputs": [
        {
          "internalType": "address",
          "name": "",
          "type": "address"
        }
      ],
      "name": "mp",
      "outputs": [
        {
          "internalType": "uint256",
          "name": "",
          "type": "uint256"
        }
      ],
      "stateMutability": "view",
      "type": "function"
    },
    {
      "inputs": [
        {
          "internalType": "address",
          "name": "",
          "type": "address"
        },
        {
          "internalType": "uint256",
          "name": "",
          "type": "uint256"
        }
      ],
      "name": "myProjects",
      "outputs": [
        {
          "internalType": "address",
          "name": "",
          "type": "address"
        }
      ],
      "stateMutability": "view",
      "type": "function"
    },
    {
      "inputs": [],
      "name": "p",
      "outputs": [
        {
          "internalType": "uint256",
          "name": "",
          "type": "uint256"
        }
      ],
      "stateMutability": "view",
      "type": "function"
    },
    {
      "inputs": [
        {
          "internalType": "uint256",
          "name": "",
          "type": "uint256"
        }
      ],
      "name": "projects",
      "outputs": [
        {
          "internalType": "address",
          "name": "",
          "type": "address"
        }
      ],
      "stateMutability": "view",
      "type": "function"
    },
    {
      "inputs": [
        {
          "internalType": "address",
          "name": "_oracle",
          "type": "address"
        },
        {
          "internalType": "uint256",
          "name": "_digits",
          "type": "uint256"
        }
      ],
      "name": "setX",
      "outputs": [
        {
          "internalType": "bool",
          "name": "",
          "type": "bool"
        }
      ],
      "stateMutability": "nonpayable",
      "type": "function"
    },
    {
      "inputs": [
        {
          "internalType": "address",
          "name": "_oracle",
          "type": "address"
        },
        {
          "internalType": "uint256",
          "name": "_digits",
          "type": "uint256"
        }
      ],
      "name": "setY",
      "outputs": [
        {
          "internalType": "bool",
          "name": "",
          "type": "bool"
        }
      ],
      "stateMutability": "nonpayable",
      "type": "function"
    },
    {
      "inputs": [
        {
          "internalType": "uint256",
          "name": "_amt",
          "type": "uint256"
        }
      ],
      "name": "xPriceOfUSD",
      "outputs": [
        {
          "internalType": "uint256",
          "name": "",
          "type": "uint256"
        }
      ],
      "stateMutability": "view",
      "type": "function"
    },
    {
      "inputs": [
        {
          "internalType": "uint256",
          "name": "_amt",
          "type": "uint256"
        }
      ],
      "name": "yPriceOfUSD",
      "outputs": [
        {
          "internalType": "uint256",
          "name": "",
          "type": "uint256"
        }
      ],
      "stateMutability": "view",
      "type": "function"
    },
    {
      "inputs": [
        {
          "internalType": "string",
          "name": "_name",
          "type": "string"
        },
        {
          "internalType": "string",
          "name": "_sym",
          "type": "string"
        },
        {
          "internalType": "uint256",
          "name": "_rate",
          "type": "uint256"
        },
        {
          "internalType": "uint256",
          "name": "_supply",
          "type": "uint256"
        },
        {
          "internalType": "bool",
          "name": "_burn",
          "type": "bool"
        },
        {
          "internalType": "bool",
          "name": "_pause",
          "type": "bool"
        }
      ],
      "name": "buildERC20Token",
      "outputs": [
        {
          "internalType": "address",
          "name": "",
          "type": "address"
        }
      ],
      "stateMutability": "payable",
      "type": "function"
    }
  ],
  "bytecode": "0x608060405234801561001057600080fd5b50600146036100725773e47da91495c75e1d48569f343938380d8303b1f26000806101000a81548173ffffffffffffffffffffffffffffffffffffffff021916908373ffffffffffffffffffffffffffffffffffffffff160217905550610196565b600546036100d35773e47da91495c75e1d48569f343938380d8303b1f26000806101000a81548173ffffffffffffffffffffffffffffffffffffffff021916908373ffffffffffffffffffffffffffffffffffffffff160217905550610195565b608946036101345773e47da91495c75e1d48569f343938380d8303b1f26000806101000a81548173ffffffffffffffffffffffffffffffffffffffff021916908373ffffffffffffffffffffffffffffffffffffffff160217905550610194565b6201388146036101935773e47da91495c75e1d48569f343938380d8303b1f26000806101000a81548173ffffffffffffffffffffffffffffffffffffffff021916908373ffffffffffffffffffffffffffffffffffffffff1602179055505b5b5b5b652d79883d2000600381905550613ebd80620001b36000396000f3fe608060405260043610620001fa5760003560e01c80637d670117116200010f578063bec9908e11620000a3578063e12ef5ed116200006d578063e12ef5ed14620007ad578063e2ab781314620007dd578063e9f38fc51462000821578063f42fff01146200086557620001fa565b8063bec9908e14620006d9578063d1381f4e1462000709578063d21b8720146200074d578063e04777af146200077d57620001fa565b80638dff74a711620000e55780638dff74a7146200061357806392c49086146200064357806396af428a14620006795780639ae8886a14620006a957620001fa565b80637d670117146200055b57806387434dcd146200058b5780638d4a8ffe14620005cf57620001fa565b80634459194611620001935780636260f55b116200015d5780636260f55b14620004875780636a443b5914620004b757806379d79fcc14620004e75780637afcc7a4146200051757620001fa565b806344591946146200039f57806348cf734d14620003cf5780634a2ad99f14620003ff57806352da887a146200044357620001fa565b8063106581aa11620001d5578063106581aa14620002b7578063107046bd14620002fb578063287ead9e146200033f57806329d7a0bd146200036f57620001fa565b8063033a7a0214620001ff578063054dca2a14620002435780630b4185ea1462000273575b600080fd5b3480156200020c57600080fd5b506200022b600480360381019062000225919062001473565b62000895565b6040516200023a9190620014b6565b60405180910390f35b3480156200025057600080fd5b506200025b620008e6565b6040516200026a9190620014b6565b60405180910390f35b3480156200028057600080fd5b506200029f600480360381019062000299919062001473565b6200092b565b604051620002ae9190620014b6565b60405180910390f35b348015620002c457600080fd5b50620002e36004803603810190620002dd919062001538565b6200097c565b604051620002f29190620014b6565b60405180910390f35b3480156200030857600080fd5b5062000327600480360381019062000321919062001473565b62000994565b6040516200033691906200157b565b60405180910390f35b3480156200034c57600080fd5b5062000357620009c7565b604051620003669190620014b6565b60405180910390f35b3480156200037c57600080fd5b506200038762000a0c565b604051620003969190620014b6565b60405180910390f35b348015620003ac57600080fd5b50620003b762000a51565b604051620003c69190620014b6565b60405180910390f35b348015620003dc57600080fd5b50620003e762000a62565b604051620003f69190620014b6565b60405180910390f35b3480156200040c57600080fd5b506200042b600480360381019062000425919062001598565b62000aa7565b6040516200043a9190620015fc565b60405180910390f35b3480156200045057600080fd5b506200046f600480360381019062000469919062001598565b62000b55565b6040516200047e91906200157b565b60405180910390f35b3480156200049457600080fd5b506200049f62000b97565b604051620004ae9190620014b6565b60405180910390f35b348015620004c457600080fd5b50620004cf62000ba8565b604051620004de9190620014b6565b60405180910390f35b348015620004f457600080fd5b50620004ff62000bb9565b6040516200050e9190620014b6565b60405180910390f35b3480156200052457600080fd5b506200054360048036038101906200053d919062001473565b62000bca565b604051620005529190620014b6565b60405180910390f35b3480156200056857600080fd5b506200057362000c1c565b604051620005829190620014b6565b60405180910390f35b3480156200059857600080fd5b50620005b76004803603810190620005b1919062001473565b62000c2d565b604051620005c69190620014b6565b60405180910390f35b348015620005dc57600080fd5b50620005fb6004803603810190620005f5919062001473565b62000c7f565b6040516200060a9190620014b6565b60405180910390f35b3480156200062057600080fd5b506200062b62000cd1565b6040516200063a9190620014b6565b60405180910390f35b6200066160048036038101906200065b9190620016b8565b62000d16565b6040516200067091906200157b565b60405180910390f35b3480156200068657600080fd5b506200069162000dbe565b604051620006a09190620014b6565b60405180910390f35b348015620006b657600080fd5b50620006c162000dcf565b604051620006d09190620014b6565b60405180910390f35b348015620006e657600080fd5b50620006f162000dd5565b604051620007009190620014b6565b60405180910390f35b3480156200071657600080fd5b506200073560048036038101906200072f919062001473565b62000e1a565b604051620007449190620014b6565b60405180910390f35b3480156200075a57600080fd5b506200076562000e6c565b604051620007749190620014b6565b60405180910390f35b3480156200078a57600080fd5b506200079562000eb1565b604051620007a49190620014b6565b60405180910390f35b348015620007ba57600080fd5b50620007c562000ec2565b604051620007d49190620014b6565b60405180910390f35b348015620007ea57600080fd5b5062000809600480360381019062000803919062001473565b62000f07565b604051620008189190620014b6565b60405180910390f35b3480156200082e57600080fd5b506200084d600480360381019062000847919062001598565b62000f59565b6040516200085c9190620015fc565b60405180910390f35b3480156200087257600080fd5b506200087d62001007565b6040516200088c9190620014b6565b60405180910390f35b6000806509184e72a00083620008ac9190620017cb565b90506000620008ba6200104c565b9050620008dd670de0b6b3a764000083620008d69190620017cb565b82620010ea565b92505050919050565b600080620008f362001121565b90506000620009016200104c565b905062000924670de0b6b3a7640000836200091d9190620017cb565b82620010ea565b9250505090565b6000806509184e72a00083620009429190620017cb565b905060006200095062001121565b905062000973670de0b6b3a7640000836200096c9190620017cb565b82620010ea565b92505050919050565b60066020528060005260406000206000915090505481565b60056020528060005260406000206000915054906101000a900473ffffffffffffffffffffffffffffffffffffffff1681565b600080620009d46200104c565b90506000620009e2620011bf565b905062000a05670de0b6b3a764000083620009fe9190620017cb565b82620010ea565b9250505090565b60008062000a1962001121565b9050600062000a276200125d565b905062000a4a670de0b6b3a76400008362000a439190620017cb565b82620010ea565b9250505090565b600062000a5d6200104c565b905090565b60008062000a6f62001121565b9050600062000a7d620011bf565b905062000aa0670de0b6b3a76400008362000a999190620017cb565b82620010ea565b9250505090565b60008060009054906101000a900473ffffffffffffffffffffffffffffffffffffffff1673ffffffffffffffffffffffffffffffffffffffff16634a2ad99f84846040518363ffffffff1660e01b815260040162000b0792919062001816565b6020604051808303816000875af115801562000b27573d6000803e3d6000fd5b505050506040513d601f19601f8201168201806040525081019062000b4d91906200185a565b905092915050565b60076020528160005260406000206020528060005260406000206000915091509054906101000a900473ffffffffffffffffffffffffffffffffffffffff1681565b600062000ba362001121565b905090565b600062000bb4620012fb565b905090565b600062000bc562001340565b905090565b600080662386f26fc100008362000be29190620017cb565b9050600062000bf062001340565b905062000c13670de0b6b3a76400008362000c0c9190620017cb565b82620010ea565b92505050919050565b600062000c2862001385565b905090565b600080662386f26fc100008362000c459190620017cb565b9050600062000c53620012fb565b905062000c76670de0b6b3a76400008362000c6f9190620017cb565b82620010ea565b92505050919050565b600080662386f26fc100008362000c979190620017cb565b9050600062000ca562001385565b905062000cc8670de0b6b3a76400008362000cc19190620017cb565b82620010ea565b92505050919050565b60008062000cde6200125d565b9050600062000cec620011bf565b905062000d0f670de0b6b3a76400008262000d089190620017cb565b83620010ea565b9250505090565b600062000db089898080601f016020809104026020016040519081016040528093929190818152602001838380828437600081840152601f19601f8201169050808301925050505050505088888080601f016020809104026020016040519081016040528093929190818152602001838380828437600081840152601f19601f8201169050808301925050505050505087878787620013ca565b905098975050505050505050565b600062000dca620011bf565b905090565b60045481565b60008062000de262001121565b9050600062000df0620011bf565b905062000e13670de0b6b3a76400008262000e0c9190620017cb565b83620010ea565b9250505090565b600080662386f26fc100008362000e329190620017cb565b9050600062000e406200125d565b905062000e63670de0b6b3a76400008362000e5c9190620017cb565b82620010ea565b92505050919050565b60008062000e796200125d565b9050600062000e876200104c565b905062000eaa670de0b6b3a76400008262000ea39190620017cb565b83620010ea565b9250505090565b600062000ebd6200125d565b905090565b60008062000ecf6200104c565b9050600062000edd620011bf565b905062000f00670de0b6b3a76400008262000ef99190620017cb565b83620010ea565b9250505090565b600080662386f26fc100008362000f1f9190620017cb565b9050600062000f2d620011bf565b905062000f50670de0b6b3a76400008362000f499190620017cb565b82620010ea565b92505050919050565b60008060009054906101000a900473ffffffffffffffffffffffffffffffffffffffff1673ffffffffffffffffffffffffffffffffffffffff1663e9f38fc584846040518363ffffffff1660e01b815260040162000fb992919062001816565b6020604051808303816000875af115801562000fd9573d6000803e3d6000fd5b505050506040513d601f19601f8201168201806040525081019062000fff91906200185a565b905092915050565b6000806200101462001121565b90506000620010226200104c565b905062001045670de0b6b3a7640000826200103e9190620017cb565b83620010ea565b9250505090565b60008060008054906101000a900473ffffffffffffffffffffffffffffffffffffffff1673ffffffffffffffffffffffffffffffffffffffff166396722fe56040518163ffffffff1660e01b8152600401602060405180830381865afa158015620010bb573d6000803e3d6000fd5b505050506040513d601f19601f82011682018060405250810190620010e19190620018c7565b90508091505090565b6000808284620010fb919062001928565b90508281856200110c919062001960565b6200111891906200199b565b91505092915050565b60008060008054906101000a900473ffffffffffffffffffffffffffffffffffffffff1673ffffffffffffffffffffffffffffffffffffffff16639a18c7956040518163ffffffff1660e01b8152600401602060405180830381865afa15801562001190573d6000803e3d6000fd5b505050506040513d601f19601f82011682018060405250810190620011b69190620018c7565b90508091505090565b60008060008054906101000a900473ffffffffffffffffffffffffffffffffffffffff1673ffffffffffffffffffffffffffffffffffffffff1663414641df6040518163ffffffff1660e01b8152600401602060405180830381865afa1580156200122e573d6000803e3d6000fd5b505050506040513d601f19601f82011682018060405250810190620012549190620018c7565b90508091505090565b60008060008054906101000a900473ffffffffffffffffffffffffffffffffffffffff1673ffffffffffffffffffffffffffffffffffffffff1663f2e9bd7a6040518163ffffffff1660e01b8152600401602060405180830381865afa158015620012cc573d6000803e3d6000fd5b505050506040513d601f19601f82011682018060405250810190620012f29190620018c7565b90508091505090565b600080620013086200125d565b90506000620013166200104c565b905062001339670de0b6b3a764000083620013329190620017cb565b82620010ea565b9250505090565b6000806200134d6200125d565b905060006200135b620011bf565b90506200137e670de0b6b3a764000083620013779190620017cb565b82620010ea565b9250505090565b600080620013926200125d565b90506000620013a062001121565b9050620013c3670de0b6b3a764000083620013bc9190620017cb565b82620010ea565b9250505090565b600080878787878787604051620013e19062001420565b620013f29695949392919062001a6d565b604051809103906000f0801580156200140f573d6000803e3d6000fd5b509050809150509695505050505050565b61239f8062001ae983390190565b600080fd5b600080fd5b6000819050919050565b6200144d8162001438565b81146200145957600080fd5b50565b6000813590506200146d8162001442565b92915050565b6000602082840312156200148c576200148b6200142e565b5b60006200149c848285016200145c565b91505092915050565b620014b08162001438565b82525050565b6000602082019050620014cd6000830184620014a5565b92915050565b600073ffffffffffffffffffffffffffffffffffffffff82169050919050565b60006200150082620014d3565b9050919050565b6200151281620014f3565b81146200151e57600080fd5b50565b600081359050620015328162001507565b92915050565b6000602082840312156200155157620015506200142e565b5b6000620015618482850162001521565b91505092915050565b6200157581620014f3565b82525050565b60006020820190506200159260008301846200156a565b92915050565b60008060408385031215620015b257620015b16200142e565b5b6000620015c28582860162001521565b9250506020620015d5858286016200145c565b9150509250929050565b60008115159050919050565b620015f681620015df565b82525050565b6000602082019050620016136000830184620015eb565b92915050565b600080fd5b600080fd5b600080fd5b60008083601f84011262001641576200164062001619565b5b8235905067ffffffffffffffff8111156200166157620016606200161e565b5b60208301915083600182028301111562001680576200167f62001623565b5b9250929050565b6200169281620015df565b81146200169e57600080fd5b50565b600081359050620016b28162001687565b92915050565b60008060008060008060008060c0898b031215620016db57620016da6200142e565b5b600089013567ffffffffffffffff811115620016fc57620016fb62001433565b5b6200170a8b828c0162001628565b9850985050602089013567ffffffffffffffff81111562001730576200172f62001433565b5b6200173e8b828c0162001628565b96509650506040620017538b828c016200145c565b9450506060620017668b828c016200145c565b9350506080620017798b828c01620016a1565b92505060a06200178c8b828c01620016a1565b9150509295985092959890939650565b7f4e487b7100000000000000000000000000000000000000000000000000000000600052601160045260246000fd5b6000620017d88262001438565b9150620017e58362001438565b9250828202620017f58162001438565b915082820484148315176200180f576200180e6200179c565b5b5092915050565b60006040820190506200182d60008301856200156a565b6200183c6020830184620014a5565b9392505050565b600081519050620018548162001687565b92915050565b6000602082840312156200187357620018726200142e565b5b6000620018838482850162001843565b91505092915050565b6000819050919050565b620018a1816200188c565b8114620018ad57600080fd5b50565b600081519050620018c18162001896565b92915050565b600060208284031215620018e057620018df6200142e565b5b6000620018f084828501620018b0565b91505092915050565b7f4e487b7100000000000000000000000000000000000000000000000000000000600052601260045260246000fd5b6000620019358262001438565b9150620019428362001438565b925082620019555762001954620018f9565b5b828206905092915050565b60006200196d8262001438565b91506200197a8362001438565b92508282039050818111156200199557620019946200179c565b5b92915050565b6000620019a88262001438565b9150620019b58362001438565b925082620019c857620019c7620018f9565b5b828204905092915050565b600081519050919050565b600082825260208201905092915050565b60005b8381101562001a0f578082015181840152602081019050620019f2565b60008484015250505050565b6000601f19601f8301169050919050565b600062001a3982620019d3565b62001a458185620019de565b935062001a57818560208601620019ef565b62001a628162001a1b565b840191505092915050565b600060c082019050818103600083015262001a89818962001a2c565b9050818103602083015262001a9f818862001a2c565b905062001ab06040830187620014a5565b62001abf6060830186620014a5565b62001ace6080830185620015eb565b62001add60a0830184620015eb565b97965050505050505056fe60806040523480156200001157600080fd5b506040516200239f3803806200239f833981810160405281019062000037919062000468565b33868681600390816200004b919062000783565b5080600490816200005d919062000783565b5050506000600560006101000a81548160ff021916908315150217905550600073ffffffffffffffffffffffffffffffffffffffff168173ffffffffffffffffffffffffffffffffffffffff1603620000f05760006040517f1e4fbdf7000000000000000000000000000000000000000000000000000000008152600401620000e79190620008af565b60405180910390fd5b62000101816200017460201b60201c565b5062000113846200023a60201b60201c565b508260088190555085600a90816200012c919062000783565b5081600960006101000a81548160ff02191690831515021790555080600960016101000a81548160ff02191690831515021790555083600681905550505050505050620008cc565b6000600560019054906101000a900473ffffffffffffffffffffffffffffffffffffffff16905081600560016101000a81548173ffffffffffffffffffffffffffffffffffffffff021916908373ffffffffffffffffffffffffffffffffffffffff1602179055508173ffffffffffffffffffffffffffffffffffffffff168173ffffffffffffffffffffffffffffffffffffffff167f8be0079c531659141344cd1fd0a4f28419497f9722a3daafe3b4186f6b6457e060405160405180910390a35050565b60008082905060008110156200024f57600080fd5b806006819055915050919050565b6000604051905090565b600080fd5b600080fd5b600080fd5b600080fd5b6000601f19601f8301169050919050565b7f4e487b7100000000000000000000000000000000000000000000000000000000600052604160045260246000fd5b620002c6826200027b565b810181811067ffffffffffffffff82111715620002e857620002e76200028c565b5b80604052505050565b6000620002fd6200025d565b90506200030b8282620002bb565b919050565b600067ffffffffffffffff8211156200032e576200032d6200028c565b5b62000339826200027b565b9050602081019050919050565b60005b838110156200036657808201518184015260208101905062000349565b60008484015250505050565b600062000389620003838462000310565b620002f1565b905082815260208101848484011115620003a857620003a762000276565b5b620003b584828562000346565b509392505050565b600082601f830112620003d557620003d462000271565b5b8151620003e784826020860162000372565b91505092915050565b6000819050919050565b6200040581620003f0565b81146200041157600080fd5b50565b6000815190506200042581620003fa565b92915050565b60008115159050919050565b62000442816200042b565b81146200044e57600080fd5b50565b600081519050620004628162000437565b92915050565b60008060008060008060c0878903121562000488576200048762000267565b5b600087015167ffffffffffffffff811115620004a957620004a86200026c565b5b620004b789828a01620003bd565b965050602087015167ffffffffffffffff811115620004db57620004da6200026c565b5b620004e989828a01620003bd565b9550506040620004fc89828a0162000414565b94505060606200050f89828a0162000414565b93505060806200052289828a0162000451565b92505060a06200053589828a0162000451565b9150509295509295509295565b600081519050919050565b7f4e487b7100000000000000000000000000000000000000000000000000000000600052602260045260246000fd5b600060028204905060018216806200059557607f821691505b602082108103620005ab57620005aa6200054d565b5b50919050565b60008190508160005260206000209050919050565b60006020601f8301049050919050565b600082821b905092915050565b600060088302620006157fffffffffffffffffffffffffffffffffffffffffffffffffffffffffffffffff82620005d6565b620006218683620005d6565b95508019841693508086168417925050509392505050565b6000819050919050565b6000620006646200065e6200065884620003f0565b62000639565b620003f0565b9050919050565b6000819050919050565b620006808362000643565b620006986200068f826200066b565b848454620005e3565b825550505050565b600090565b620006af620006a0565b620006bc81848462000675565b505050565b5b81811015620006e457620006d8600082620006a5565b600181019050620006c2565b5050565b601f8211156200073357620006fd81620005b1565b6200070884620005c6565b8101602085101562000718578190505b620007306200072785620005c6565b830182620006c1565b50505b505050565b600082821c905092915050565b6000620007586000198460080262000738565b1980831691505092915050565b600062000773838362000745565b9150826002028217905092915050565b6200078e8262000542565b67ffffffffffffffff811115620007aa57620007a96200028c565b5b620007b682546200057c565b620007c3828285620006e8565b600060209050601f831160018114620007fb5760008415620007e6578287015190505b620007f2858262000765565b86555062000862565b601f1984166200080b86620005b1565b60005b8281101562000835578489015182556001820191506020850194506020810190506200080e565b8683101562000855578489015162000851601f89168262000745565b8355505b6001600288020188555050505b505050505050565b600073ffffffffffffffffffffffffffffffffffffffff82169050919050565b600062000897826200086a565b9050919050565b620008a9816200088a565b82525050565b6000602082019050620008c660008301846200089e565b92915050565b611ac380620008dc6000396000f3fe60806040526004361061016a5760003560e01c80635c975abb116100d15780638da5cb5b1161008a578063c4ae316811610064578063c4ae31681461055b578063d37e510414610586578063dd62ed3e146105b1578063f2fde38b146105ee57610179565b80638da5cb5b146104c857806395d89b41146104f3578063a9059cbb1461051e57610179565b80635c975abb146103b85780636f8b44b0146103e357806370a0823114610420578063715018a61461045d578063778a56ce1461047457806379cc67901461049f57610179565b8063313ce56711610123578063313ce567146102a157806332cb6b0c146102cc57806334fcf437146102f75780633610724e1461033457806342966c68146103645780634a79d50c1461038d57610179565b806306fdde031461017b578063095ea7b3146101a657806318160ddd146101e3578063201a49d61461020e57806323b872dd146102395780632c4e722e1461027657610179565b3661017957610177610617565b005b005b34801561018757600080fd5b50610190610636565b60405161019d9190611614565b60405180910390f35b3480156101b257600080fd5b506101cd60048036038101906101c891906116cf565b6106c8565b6040516101da919061172a565b60405180910390f35b3480156101ef57600080fd5b506101f86106eb565b6040516102059190611754565b60405180910390f35b34801561021a57600080fd5b506102236106f5565b6040516102309190611754565b60405180910390f35b34801561024557600080fd5b50610260600480360381019061025b919061176f565b6106fb565b60405161026d919061172a565b60405180910390f35b34801561028257600080fd5b5061028b61072a565b6040516102989190611754565b60405180910390f35b3480156102ad57600080fd5b506102b6610730565b6040516102c391906117de565b60405180910390f35b3480156102d857600080fd5b506102e1610739565b6040516102ee9190611754565b60405180910390f35b34801561030357600080fd5b5061031e600480360381019061031991906117f9565b61073f565b60405161032b9190611754565b60405180910390f35b61034e600480360381019061034991906117f9565b610759565b60405161035b9190611754565b60405180910390f35b34801561037057600080fd5b5061038b600480360381019061038691906117f9565b6107e1565b005b34801561039957600080fd5b506103a261080e565b6040516103af9190611614565b60405180910390f35b3480156103c457600080fd5b506103cd61089c565b6040516103da919061172a565b60405180910390f35b3480156103ef57600080fd5b5061040a600480360381019061040591906117f9565b6108b3565b6040516104179190611754565b60405180910390f35b34801561042c57600080fd5b5061044760048036038101906104429190611826565b6108ca565b6040516104549190611754565b60405180910390f35b34801561046957600080fd5b50610472610912565b005b34801561048057600080fd5b50610489610926565b604051610496919061172a565b60405180910390f35b3480156104ab57600080fd5b506104c660048036038101906104c191906116cf565b61095e565b005b3480156104d457600080fd5b506104dd61097e565b6040516104ea9190611862565b60405180910390f35b3480156104ff57600080fd5b506105086109a8565b6040516105159190611614565b60405180910390f35b34801561052a57600080fd5b50610545600480360381019061054091906116cf565b610a3a565b604051610552919061172a565b60405180910390f35b34801561056757600080fd5b50610570610a5d565b60405161057d919061172a565b60405180910390f35b34801561059257600080fd5b5061059b610a95565b6040516105a8919061172a565b60405180910390f35b3480156105bd57600080fd5b506105d860048036038101906105d3919061187d565b610aef565b6040516105e59190611754565b60405180910390f35b3480156105fa57600080fd5b5061061560048036038101906106109190611826565b610b76565b005b600060065434610627919061191b565b90506106333382610bfc565b50565b6060600380546106459061197b565b80601f01602080910402602001604051908101604052809291908181526020018280546106719061197b565b80156106be5780601f10610693576101008083540402835291602001916106be565b820191906000526020600020905b8154815290600101906020018083116106a157829003601f168201915b5050505050905090565b6000806106d3610c7e565b90506106e0818585610c86565b600191505092915050565b6000600254905090565b60075481565b600080610706610c7e565b9050610713858285610c98565b61071e858585610d2c565b60019150509392505050565b60065481565b60006012905090565b60085481565b6000610749610e20565b61075282610ea7565b9050919050565b60006006548261076991906119ac565b341161077457600080fd5b6000670de0b6b3a76400008361078a91906119ac565b60075460085461079a91906119ee565b6107a491906119ee565b10156107af57600080fd5b6107cc33670de0b6b3a7640000846107c791906119ac565b610bfc565b600654826107da91906119ac565b9050919050565b60001515600960009054906101000a900460ff1615150361080157600080fd5b61080b3382610ec9565b50565b600a805461081b9061197b565b80601f01602080910402602001604051908101604052809291908181526020018280546108479061197b565b80156108945780601f1061086957610100808354040283529160200191610894565b820191906000526020600020905b81548152906001019060200180831161087757829003601f168201915b505050505081565b6000600560009054906101000a900460ff16905090565b60006108bd610e20565b8160088190559050919050565b60008060008373ffffffffffffffffffffffffffffffffffffffff1673ffffffffffffffffffffffffffffffffffffffff168152602001908152602001600020549050919050565b61091a610e20565b6109246000610f4b565b565b6000610930610e20565b600960009054906101000a900460ff1615600960006101000a81548160ff0219169083151502179055905090565b6109708261096a610c7e565b83610c98565b61097a8282610ec9565b5050565b6000600560019054906101000a900473ffffffffffffffffffffffffffffffffffffffff16905090565b6060600480546109b79061197b565b80601f01602080910402602001604051908101604052809291908181526020018280546109e39061197b565b8015610a305780601f10610a0557610100808354040283529160200191610a30565b820191906000526020600020905b815481529060010190602001808311610a1357829003601f168201915b5050505050905090565b600080610a45610c7e565b9050610a52818585610d2c565b600191505092915050565b6000610a67610e20565b600960019054906101000a900460ff1615600960016101000a81548160ff0219169083151502179055905090565b6000610a9f610e20565b60001515600960019054906101000a900460ff16151503610abf57600080fd5b610ac761089c565b15610ad957610ad4611011565b610ae2565b610ae1611074565b5b610aea61089c565b905090565b6000600160008473ffffffffffffffffffffffffffffffffffffffff1673ffffffffffffffffffffffffffffffffffffffff16815260200190815260200160002060008373ffffffffffffffffffffffffffffffffffffffff1673ffffffffffffffffffffffffffffffffffffffff16815260200190815260200160002054905092915050565b610b7e610e20565b600073ffffffffffffffffffffffffffffffffffffffff168173ffffffffffffffffffffffffffffffffffffffff1603610bf05760006040517f1e4fbdf7000000000000000000000000000000000000000000000000000000008152600401610be79190611862565b60405180910390fd5b610bf981610f4b565b50565b600073ffffffffffffffffffffffffffffffffffffffff168273ffffffffffffffffffffffffffffffffffffffff1603610c6e5760006040517fec442f05000000000000000000000000000000000000000000000000000000008152600401610c659190611862565b60405180910390fd5b610c7a600083836110d7565b5050565b600033905090565b610c9383838360016110ef565b505050565b6000610ca48484610aef565b90507fffffffffffffffffffffffffffffffffffffffffffffffffffffffffffffffff8114610d265781811015610d16578281836040517ffb8f41b2000000000000000000000000000000000000000000000000000000008152600401610d0d93929190611a22565b60405180910390fd5b610d25848484840360006110ef565b5b50505050565b600073ffffffffffffffffffffffffffffffffffffffff168373ffffffffffffffffffffffffffffffffffffffff1603610d9e5760006040517f96c6fd1e000000000000000000000000000000000000000000000000000000008152600401610d959190611862565b60405180910390fd5b600073ffffffffffffffffffffffffffffffffffffffff168273ffffffffffffffffffffffffffffffffffffffff1603610e105760006040517fec442f05000000000000000000000000000000000000000000000000000000008152600401610e079190611862565b60405180910390fd5b610e1b8383836110d7565b505050565b610e28610c7e565b73ffffffffffffffffffffffffffffffffffffffff16610e4661097e565b73ffffffffffffffffffffffffffffffffffffffff1614610ea557610e69610c7e565b6040517f118cdaa7000000000000000000000000000000000000000000000000000000008152600401610e9c9190611862565b60405180910390fd5b565b6000808290506000811015610ebb57600080fd5b806006819055915050919050565b600073ffffffffffffffffffffffffffffffffffffffff168273ffffffffffffffffffffffffffffffffffffffff1603610f3b5760006040517f96c6fd1e000000000000000000000000000000000000000000000000000000008152600401610f329190611862565b60405180910390fd5b610f47826000836110d7565b5050565b6000600560019054906101000a900473ffffffffffffffffffffffffffffffffffffffff16905081600560016101000a81548173ffffffffffffffffffffffffffffffffffffffff021916908373ffffffffffffffffffffffffffffffffffffffff1602179055508173ffffffffffffffffffffffffffffffffffffffff168173ffffffffffffffffffffffffffffffffffffffff167f8be0079c531659141344cd1fd0a4f28419497f9722a3daafe3b4186f6b6457e060405160405180910390a35050565b6110196112c6565b6000600560006101000a81548160ff0219169083151502179055507f5db9ee0a495bf2e6ff9c91a7834c1ba4fdd244a5e8aa4e537bd38aeae4b073aa61105d610c7e565b60405161106a9190611862565b60405180910390a1565b61107c611306565b6001600560006101000a81548160ff0219169083151502179055507f62e78cea01bee320cd4e420270b5ea74000d11b0c9f74754ebdbfc544b05a2586110c0610c7e565b6040516110cd9190611862565b60405180910390a1565b6110df611306565b6110ea838383611347565b505050565b600073ffffffffffffffffffffffffffffffffffffffff168473ffffffffffffffffffffffffffffffffffffffff16036111615760006040517fe602df050000000000000000000000000000000000000000000000000000000081526004016111589190611862565b60405180910390fd5b600073ffffffffffffffffffffffffffffffffffffffff168373ffffffffffffffffffffffffffffffffffffffff16036111d35760006040517f94280d620000000000000000000000000000000000000000000000000000000081526004016111ca9190611862565b60405180910390fd5b81600160008673ffffffffffffffffffffffffffffffffffffffff1673ffffffffffffffffffffffffffffffffffffffff16815260200190815260200160002060008573ffffffffffffffffffffffffffffffffffffffff1673ffffffffffffffffffffffffffffffffffffffff1681526020019081526020016000208190555080156112c0578273ffffffffffffffffffffffffffffffffffffffff168473ffffffffffffffffffffffffffffffffffffffff167f8c5be1e5ebec7d5bd14f71427d1e84f3dd0314c0f7b2291e5b200ac8c7c3b925846040516112b79190611754565b60405180910390a35b50505050565b6112ce61089c565b611304576040517f8dfc202b00000000000000000000000000000000000000000000000000000000815260040160405180910390fd5b565b61130e61089c565b15611345576040517fd93c066500000000000000000000000000000000000000000000000000000000815260040160405180910390fd5b565b61134f611306565b61135a83838361135f565b505050565b600073ffffffffffffffffffffffffffffffffffffffff168373ffffffffffffffffffffffffffffffffffffffff16036113b15780600260008282546113a59190611a59565b92505081905550611484565b60008060008573ffffffffffffffffffffffffffffffffffffffff1673ffffffffffffffffffffffffffffffffffffffff1681526020019081526020016000205490508181101561143d578381836040517fe450d38c00000000000000000000000000000000000000000000000000000000815260040161143493929190611a22565b60405180910390fd5b8181036000808673ffffffffffffffffffffffffffffffffffffffff1673ffffffffffffffffffffffffffffffffffffffff16815260200190815260200160002081905550505b600073ffffffffffffffffffffffffffffffffffffffff168273ffffffffffffffffffffffffffffffffffffffff16036114cd578060026000828254039250508190555061151a565b806000808473ffffffffffffffffffffffffffffffffffffffff1673ffffffffffffffffffffffffffffffffffffffff168152602001908152602001600020600082825401925050819055505b8173ffffffffffffffffffffffffffffffffffffffff168373ffffffffffffffffffffffffffffffffffffffff167fddf252ad1be2c89b69c2b068fc378daa952ba7f163c4a11628f55a4df523b3ef836040516115779190611754565b60405180910390a3505050565b600081519050919050565b600082825260208201905092915050565b60005b838110156115be5780820151818401526020810190506115a3565b60008484015250505050565b6000601f19601f8301169050919050565b60006115e682611584565b6115f0818561158f565b93506116008185602086016115a0565b611609816115ca565b840191505092915050565b6000602082019050818103600083015261162e81846115db565b905092915050565b600080fd5b600073ffffffffffffffffffffffffffffffffffffffff82169050919050565b60006116668261163b565b9050919050565b6116768161165b565b811461168157600080fd5b50565b6000813590506116938161166d565b92915050565b6000819050919050565b6116ac81611699565b81146116b757600080fd5b50565b6000813590506116c9816116a3565b92915050565b600080604083850312156116e6576116e5611636565b5b60006116f485828601611684565b9250506020611705858286016116ba565b9150509250929050565b60008115159050919050565b6117248161170f565b82525050565b600060208201905061173f600083018461171b565b92915050565b61174e81611699565b82525050565b60006020820190506117696000830184611745565b92915050565b60008060006060848603121561178857611787611636565b5b600061179686828701611684565b93505060206117a786828701611684565b92505060406117b8868287016116ba565b9150509250925092565b600060ff82169050919050565b6117d8816117c2565b82525050565b60006020820190506117f360008301846117cf565b92915050565b60006020828403121561180f5761180e611636565b5b600061181d848285016116ba565b91505092915050565b60006020828403121561183c5761183b611636565b5b600061184a84828501611684565b91505092915050565b61185c8161165b565b82525050565b60006020820190506118776000830184611853565b92915050565b6000806040838503121561189457611893611636565b5b60006118a285828601611684565b92505060206118b385828601611684565b9150509250929050565b7f4e487b7100000000000000000000000000000000000000000000000000000000600052601260045260246000fd5b7f4e487b7100000000000000000000000000000000000000000000000000000000600052601160045260246000fd5b600061192682611699565b915061193183611699565b925082611941576119406118bd565b5b828204905092915050565b7f4e487b7100000000000000000000000000000000000000000000000000000000600052602260045260246000fd5b6000600282049050600182168061199357607f821691505b6020821081036119a6576119a561194c565b5b50919050565b60006119b782611699565b91506119c283611699565b92508282026119d081611699565b915082820484148315176119e7576119e66118ec565b5b5092915050565b60006119f982611699565b9150611a0483611699565b9250828203905081811115611a1c57611a1b6118ec565b5b92915050565b6000606082019050611a376000830186611853565b611a446020830185611745565b611a516040830184611745565b949350505050565b6000611a6482611699565b9150611a6f83611699565b9250828201905080821115611a8757611a866118ec565b5b9291505056fea26469706673582212207c3935849d32e4541e164919e35cbf89eca549eaebf0f372486c476f657bf67b64736f6c63430008170033a26469706673582212202679408ce366e6a07c7cf19235505b97c41ec3d9aa489162ed60060e10d85ef964736f6c63430008170033",
  "immutableReferences": {},
  "source": "// SPDX-License-Identifier: GPL-3.0\n// // // // // // // // // // // // // // // // // // // // // // // // // // // // // // // // // // // // // // // // // // // // // // // // // // // // // // // // // // // // //\n//\n//      MMWKd:..                                                                                    ..:dKWMM\n//      MKl.                                                                                            .lKW\n//      O'       ..''''''''''''.     .''''''.     .'''''.      .''''''''''''''.     .''''''''''''..       'O\n//      '     .ckKNNWNWWWWWWWWWk.   .xNWWNWNl    ,0WWWWW0,     lNWWWWWWWWWNWNk'    ;0NNNWWWWWWWWNNKkc.     '\n//           ,OWMMMMMMMMMMMMMMMO.   .kMMMMMWl    ,KMMMMMK,     lWMMMMMMMMMMM0,    ;KMMMMMMMMMMMMMMMMWO,\n//          .kMMMMMMMMMMMMMMMMMO.   .kMMMMMWl    ,KMMMMMK,     lWMMMMMMMMMM0,    ;KMMMMMMMMMMMMMMMMMMMk.\n//          '0MMMMMMMMMMMMMMMMMO.   .kMMMMMWl    ,KMMMMMK,     lWMMMMMMMMM0,    :KMMMMMMMMMMMMMMMMMMMM0'\n//          '0MMMMMMMMMMMMMMMMMO.   .kMMMMMWl    ,KMMMMMK,     lWMMMMMMMM0,    :KMMMMMMMMMMMMMMMMMMMMM0'\n//          '0MMMMMMMMMMMMMMMMMO.   .kMMMMMWl    ,KMMMMMK,     lWMMMMMMM0,    ;0NNWWMMMMMMMMMMMMMMMMMM0'\n//          '0MMMMMMMMMMMMMMMMMO.   .kMMMMMWl    ,KMMMMMK,     lWMMMMMM0,     .'.',;lkNMMMMMMMMMMMMMMM0'\n//          '0MMMMMMMMMMMMMMMMMO.   .kMMMMMWl    ,KMMMMMK,     lWMMMMMK;              ,kWMMMMMMMMMMMMM0'\n//          '0MMMMMMMMMMMMMMMMMO.   .kMMMMMWl    ,KMMMMMK,     lWMMMMX:    .:oxxdc'    .dWMMMMMMMMMMMM0'\n//          '0MMMMMMMMMMMMMMMMMO.   .kMMMMMWl    ,KMMMMMK,     lWMMMWd.   ,OWMMMMMXl.   '0MMMMMMMMMMMM0'\n//          '0MMMMMMMMMMMMMMMMMO.   .kMMMMMWl    ,KMMMMMK,     lWMMMX;   .kMMMMMMMMK,   .xMMMMMMMMMMMM0'\n//          '0MMMMMMMMMMMMMMMMMO.   .kMMMMMWl    ,KMMMMMK,     lWMMM0'   .OMMMMMMMMX;   .xMMMMMMMMMMMM0'\n//          .OMMMMMMMMMMMMMMMMMO.   .kMMMMMWl    ,KMMMMMK,     lWMMMK,    lNMMMMMMWx.   '0MMMMMMMMMMMMO.\n//           lNMMMMMMMMMMMMMMMMO.   .kMMMMMWl    ,KMMMMMK,     lWMMMWd.   .:x0KKKkc.   .dWMMMMMMMMMMMNl\n//      .    .c0WMMMMMMMMMMMMMMO.   .kMMMMMWo    ,KMMMMMK,     lWMMMMNd.     ....     .xNMMMMMMMMMMW0c.    .\n//      l      .,lddxxxxxxxxxxxc.    :xxxxxd,    .lxxxxxl.     ,dxxxxxd:.            .cdxxxxxxxxddl,.      l\n//      No.                                                                                              .oN\n//      MW0l'                                                                                          'l0WM\n//      MMMWKd;.                                                                                    .;dKWMMM\n//\n// // // // // // // // // // // // // // // // // // // // // // // // // // // // // // // // // // // // // // // // // // // // // // // // // // // // // // // // // // // // //\n//                                                                                                                                                                                  //\n//      @dev            ::              Aron Mauritala Ayuk                                                                                                                                          //\n//      @msg            ::              stereo@iii6.xyz                                                                                                                                   //\n//      @github         ::              @stereoIII6\n//      @twitter        ::              @stereoIII6                                                                                                                                              //\n//                                                                                                                                                                                  //\n// // // // // // // // // // // // // // // // // // // // // // // // // // // // // // // // // // // // // // // // // // // // // // // // // // // // // // // // // // // // //\n//                                                                                                                                                                                  //\n//      @dev            ::              Juan Xavier Valverde                                                                                                                                    //\n//      @msg            ::              juanxavier@iii6.xyz                                                                                                                               //\n//      @twitter        ::              @JuanXavier                                                                                                                                             //\n//      @github         ::              @JuanXavier                                                                                                                                             //\n//                                                                                                                                                                                  //                                                                                                                                                                                 //\n// // // // // // // // // // // // // // // // // // // // // // // // // // // // // // // // // // // // // // // // // // // // // // // // // // // // // // // // // // // // //\n//  *   *   *   *   *   *   *   *   *   *   *   *   *   *   *   *   *   *   *   *   *   *   *   *   *   *   *   *   *   *   *   *   *   *   *   *   *   *   *   *   *   *   *   *   //\n// // // // // // // // // // // // // // // // // // // // // // // // // // // // // // // // // // // // // // // // // // // // // // // // // // // // // // // // // // // // //\n//                                                                                                                                                                                  //\n//      @company        ::              Fractio Holding                                                                                                                                                                       //\n//      @title          ::              iii6 Coin Factory                                                                                                                            //\n//      @description    ::              ERC721 DIA Factory Contract                                                                                                                           //\n//      @version        ::              0.0.1                                                                                                                                       //\n//      @purpose        ::              ERC721 DIA Factory                                                                                                          //\n//                                                                                                                                                                                  //\n//                                                                                                                                                                                  //\n//                                                                                                                                                                                  //\n//                                                                                                                                                                                  //\n//                                                                                                                                                                                  //\n// // // // // // // // // // // // // // // // // // // // // // // // // // // // // // // // // // // // // // // // // // // // // // // // // // // // // // // // // // // // //\n//  *   *   *   *   *   *   *   *   *   *   *   *   *   *   *   *   *   *   *   *   *   *   *   *   *   *   *   *   *   *   *   *   *   *   *   *   *   *   *   *   *   *   *   *   //\n// // // // // // // // // // // // // // // // // // // // // // // // // // // // // // // // // // // // // // // // // // // // // // // // // // // // // // // // // // // // //\n\n/////////////////////////////////////////////////////////////////////////////////////////////////////////////////////\n\n/////////////////////////////////////////////////////////////////////////////////////////////////////////////////////\n\npragma solidity ^0.8.7;\n\nimport \"./iii6CoinModel.sol\";\nimport \"../Math/iii6PriceMath.sol\";\n\ncontract iii6CoinFactory is iii6PriceMath {\n    /**\n     * @dev this contract is a model contract to be deployed through the iii6AssetFactory\n     */\n    // \n    // \n    // \n    // \n    // \n    // \n    address VRF;\n    address FEED;\n    uint256 gasSafe;\n    uint256 public p;\n    mapping(uint256 => address) public projects;\n    mapping(address => uint256) public mp;\n    mapping(address => mapping(uint256 => address)) public myProjects;\n\n    /*\n     * @dev this constructor creates a Dia NFT Token Contract\n     * @param _owner contract admin\n     * @param _name dia token name\n     * @param _max amount of tokens 0 = infinte\n     * @param _price amount of gascoin for token\n     * @param _cName name of related ERC20 token\n     * @param _cSym symbol of related ERC20 token\n     * @param _c bool if related coin exists\n     * @param _cs max supply of related ERC20 token 0 = infinite\n     * @param _rate price of related ERC20 token in gascoin\n     */\n    constructor() {\n        gasSafe = 5 * 10**13;\n    }\n\n    // function creates a ERC20 Token Contract\n    function _makeERC20Asset(\n        string memory _name,\n        string memory _sym,\n        uint256 _rate,\n        uint256 _supply,\n        bool _burn,\n        bool _pause\n    ) internal returns (address) {\n        // chose token model\n        iii6CoinModel token;\n        /**\n         * @dev creates an instance of iii6CoinModel\n         * @param _name token name\n         * @param _sym token symbol\n         * @param _rate token rate\n         * @param _supply max token supply // if 0-infinte\n         * @param _burn bool burnable\n         * @param _pause bool pauseble\n         * @return contract address\n         */\n        token = new iii6CoinModel(_name, _sym, _rate, _supply, _burn, _pause);\n        // exit with address\n        return address(token);\n    }\n\n    /**\n     * @dev creates an instance of iii6CoinModel\n     * @param _name token name\n     * @param _sym token symbol\n     * @param _rate token rate\n     * @param _supply max token supply // if 0-infinte\n     * @param _burn bool burnable\n     * @param _pause bool pauseble\n     * @return contract address\n     */\n    function buildERC20Token(\n        string calldata _name,\n        string calldata _sym,\n        uint256 _rate,\n        uint256 _supply,\n        bool _burn,\n        bool _pause\n    ) external payable returns (address) {\n        // check msg.value\n\n        // mint license\n        // make asset & exit with address\n        if (msg.value > 10**14) {\n            // address(this).transfer(safe, msg.value - gasSafe);\n        }\n        return _makeERC20Asset(_name, _sym, _rate, _supply, _burn, _pause);\n    }\n}\n",
  "sourcePath": "/Users/iii6/Documents/GitHub/iii6v2/iii6v2/contracts/iii6utils/Assets/iii6CoinFactory.sol",
  "compiler": {
    "name": "solc",
    "version": "0.8.23+commit.f704f362.Emscripten.clang"
  },
  "schemaVersion": "3.4.16",
  "updatedAt": "2023-12-05T23:55:20.102Z",
  "devdoc": {
    "kind": "dev",
    "methods": {
      "COIN_USD()": {
        "details": "gets value of gascoin derived from iii6PriceConsumer => _get[...]Usdc()",
        "params": {
          "": "// EXTERNAL"
        },
        "returns": {
          "_0": "uint256 gascoin price in usdc"
        }
      },
      "ETH_USD()": {
        "details": "gets value of eth derived from INTERNAL => _get[...]Usdc()",
        "params": {
          "": "// EXTERNAL"
        },
        "returns": {
          "_0": "uint256 eth price in usdc"
        }
      },
      "X_USD()": {
        "details": "gets value of custon token x derived from iii6PriceConsumer => _get[...]Usdc()",
        "params": {
          "": "// EXTERNAL"
        },
        "returns": {
          "_0": "uint256 custon token x price in usdc"
        }
      },
      "Y_USD()": {
        "details": "gets value of custon token y derived from iii6PriceConsumer => _get[...]Usdc()",
        "params": {
          "": "// EXTERNAL"
        },
        "returns": {
          "_0": "uint256 custon token y price in usdc"
        }
      },
      "buildERC20Token(string,string,uint256,uint256,bool,bool)": {
        "details": "creates an instance of iii6CoinModel",
        "params": {
          "_burn": "bool burnable",
          "_name": "token name",
          "_pause": "bool pauseble",
          "_rate": "token rate",
          "_supply": "max token supply // if 0-infinte",
          "_sym": "token symbol"
        },
        "returns": {
          "_0": "contract address"
        }
      },
      "coinPriceOfEth(uint256)": {
        "details": "Returns price for input amount in chosen currency",
        "params": {
          "_amt": "uint256 amount of usd"
        },
        "returns": {
          "_0": "Result of division"
        }
      },
      "coinPriceOfUSD(uint256)": {
        "details": "Returns price for input amount in chosen currency",
        "params": {
          "_amt": "uint256 amount of usd"
        },
        "returns": {
          "_0": "Result of division"
        }
      },
      "coinPriceOfX(uint256)": {
        "details": "Returns price for input amount in chosen currency",
        "params": {
          "_amt": "uint256 amount of usd"
        },
        "returns": {
          "_0": "Result of division"
        }
      },
      "coinPriceOfY(uint256)": {
        "details": "Returns price for input amount in chosen currency",
        "params": {
          "_amt": "uint256 amount of usd"
        },
        "returns": {
          "_0": "Result of division"
        }
      },
      "ethPriceOfUSD(uint256)": {
        "details": "Returns price for input amount in chosen currency",
        "params": {
          "_amt": "uint256 amount of usd"
        },
        "returns": {
          "_0": "Result of division"
        }
      },
      "getCoinPriceInEth()": {
        "details": "gets value of gascoin denominated in eth derived from _get[...]Usdc()",
        "returns": {
          "coinPriceEth": "uint256 price of gascoin denominated in eth"
        }
      },
      "getCoinPriceInX()": {
        "details": "gets value of gascoin denominated in eth derived from _get[...]Usdc()",
        "returns": {
          "coinPriceX": "uint256 price of gascoin denominated in eth"
        }
      },
      "getCoinPriceInY()": {
        "details": "gets value of gascoin denominated in eth derived from _get[...]Usdc()",
        "returns": {
          "coinPriceY": "uint256 price of gascoin denominated in eth"
        }
      },
      "getEthPriceInCoin()": {
        "details": "gets value of eth denominated in gascoin derived from _get[...]Usdc()",
        "returns": {
          "ethPriceCoin": "uint256 price of eth denominated in gascoin"
        }
      },
      "getEthPriceInX()": {
        "details": "gets value of eth denominated in custom token x derived from _get[...]Usdc()",
        "returns": {
          "ethPriceX": "uint256 price of eth denominated in custom token x"
        }
      },
      "getEthPriceInY()": {
        "details": "gets value of eth denominated in custom token y derived from _get[...]Usdc()",
        "returns": {
          "ethPriceY": "uint256 price of eth denominated in custom token y"
        }
      },
      "getXPriceInCoin()": {
        "details": "gets value of gascoin denominated in eth derived from _get[...]Usdc()",
        "returns": {
          "xPriceCoin": "uint256 price of gascoin denominated in eth"
        }
      },
      "getXPriceInEth()": {
        "details": "gets value of gascoin denominated in eth derived from _get[...]Usdc()",
        "returns": {
          "xPriceEth": "uint256 price of gascoin denominated in eth"
        }
      },
      "getXPriceInY()": {
        "details": "gets value of gascoin denominated in eth derived from _get[...]Usdc()",
        "returns": {
          "xPriceY": "uint256 price of gascoin denominated in eth"
        }
      },
      "getYPriceInCoin()": {
        "details": "gets value of gascoin denominated in eth derived from _get[...]Usdc()",
        "returns": {
          "yPriceCoin": "uint256 price of gascoin denominated in eth"
        }
      },
      "getYPriceInEth()": {
        "details": "gets value of gascoin denominated in eth derived from _get[...]Usdc()",
        "returns": {
          "yPriceEth": "uint256 price of gascoin denominated in eth"
        }
      },
      "getYPriceInX()": {
        "details": "gets value of gascoin denominated in eth derived from _get[...]Usdc()",
        "returns": {
          "yPriceX": "uint256 price of gascoin denominated in eth"
        }
      },
      "setX(address,uint256)": {
        "details": "sets the oracle for custom token x and adapts digit length",
        "params": {
          "": "// EXTERNAL",
          "_digits": "number of decimals passed by oracle",
          "_oracle": "address of the chainlink pricefeed oracle contract"
        },
        "returns": {
          "_0": "bool success"
        }
      },
      "setY(address,uint256)": {
        "details": "sets the oracle for custom token y and adapts digit length",
        "params": {
          "": "// EXTERNAL",
          "_digits": "number of decimals passed by oracle",
          "_oracle": "address of the chainlink pricefeed oracle contract"
        },
        "returns": {
          "_0": "bool success"
        }
      },
      "xPriceOfUSD(uint256)": {
        "details": "Returns price for input amount in chosen currency",
        "params": {
          "_amt": "uint256 amount of usd"
        },
        "returns": {
          "_0": "Result of division"
        }
      },
      "yPriceOfUSD(uint256)": {
        "details": "Returns price for input amount in chosen currency",
        "params": {
          "_amt": "uint256 amount of usd"
        },
        "returns": {
          "_0": "Result of division"
        }
      }
    },
    "stateVariables": {
      "VRF": {
        "details": "this contract is a model contract to be deployed through the iii6AssetFactory"
      }
    },
    "version": 1
  },
  "userdoc": {
    "kind": "user",
    "methods": {},
    "version": 1
  }
}