{
  "contractName": "iii6CoinModel",
  "abi": [
    {
      "inputs": [
        {
          "internalType": "string",
          "name": "_name",
          "type": "string"
        },
        {
          "internalType": "string",
          "name": "_sym",
          "type": "string"
        },
        {
          "internalType": "uint256",
          "name": "_rate",
          "type": "uint256"
        },
        {
          "internalType": "uint256",
          "name": "_supply",
          "type": "uint256"
        },
        {
          "internalType": "bool",
          "name": "_burn",
          "type": "bool"
        },
        {
          "internalType": "bool",
          "name": "_pause",
          "type": "bool"
        }
      ],
      "stateMutability": "nonpayable",
      "type": "constructor"
    },
    {
      "inputs": [
        {
          "internalType": "address",
          "name": "spender",
          "type": "address"
        },
        {
          "internalType": "uint256",
          "name": "allowance",
          "type": "uint256"
        },
        {
          "internalType": "uint256",
          "name": "needed",
          "type": "uint256"
        }
      ],
      "name": "ERC20InsufficientAllowance",
      "type": "error"
    },
    {
      "inputs": [
        {
          "internalType": "address",
          "name": "sender",
          "type": "address"
        },
        {
          "internalType": "uint256",
          "name": "balance",
          "type": "uint256"
        },
        {
          "internalType": "uint256",
          "name": "needed",
          "type": "uint256"
        }
      ],
      "name": "ERC20InsufficientBalance",
      "type": "error"
    },
    {
      "inputs": [
        {
          "internalType": "address",
          "name": "approver",
          "type": "address"
        }
      ],
      "name": "ERC20InvalidApprover",
      "type": "error"
    },
    {
      "inputs": [
        {
          "internalType": "address",
          "name": "receiver",
          "type": "address"
        }
      ],
      "name": "ERC20InvalidReceiver",
      "type": "error"
    },
    {
      "inputs": [
        {
          "internalType": "address",
          "name": "sender",
          "type": "address"
        }
      ],
      "name": "ERC20InvalidSender",
      "type": "error"
    },
    {
      "inputs": [
        {
          "internalType": "address",
          "name": "spender",
          "type": "address"
        }
      ],
      "name": "ERC20InvalidSpender",
      "type": "error"
    },
    {
      "inputs": [],
      "name": "EnforcedPause",
      "type": "error"
    },
    {
      "inputs": [],
      "name": "ExpectedPause",
      "type": "error"
    },
    {
      "inputs": [
        {
          "internalType": "address",
          "name": "owner",
          "type": "address"
        }
      ],
      "name": "OwnableInvalidOwner",
      "type": "error"
    },
    {
      "inputs": [
        {
          "internalType": "address",
          "name": "account",
          "type": "address"
        }
      ],
      "name": "OwnableUnauthorizedAccount",
      "type": "error"
    },
    {
      "anonymous": false,
      "inputs": [
        {
          "indexed": true,
          "internalType": "address",
          "name": "owner",
          "type": "address"
        },
        {
          "indexed": true,
          "internalType": "address",
          "name": "spender",
          "type": "address"
        },
        {
          "indexed": false,
          "internalType": "uint256",
          "name": "value",
          "type": "uint256"
        }
      ],
      "name": "Approval",
      "type": "event"
    },
    {
      "anonymous": false,
      "inputs": [
        {
          "indexed": true,
          "internalType": "address",
          "name": "previousOwner",
          "type": "address"
        },
        {
          "indexed": true,
          "internalType": "address",
          "name": "newOwner",
          "type": "address"
        }
      ],
      "name": "OwnershipTransferred",
      "type": "event"
    },
    {
      "anonymous": false,
      "inputs": [
        {
          "indexed": false,
          "internalType": "address",
          "name": "account",
          "type": "address"
        }
      ],
      "name": "Paused",
      "type": "event"
    },
    {
      "anonymous": false,
      "inputs": [
        {
          "indexed": true,
          "internalType": "address",
          "name": "from",
          "type": "address"
        },
        {
          "indexed": true,
          "internalType": "address",
          "name": "to",
          "type": "address"
        },
        {
          "indexed": false,
          "internalType": "uint256",
          "name": "value",
          "type": "uint256"
        }
      ],
      "name": "Transfer",
      "type": "event"
    },
    {
      "anonymous": false,
      "inputs": [
        {
          "indexed": false,
          "internalType": "address",
          "name": "account",
          "type": "address"
        }
      ],
      "name": "Unpaused",
      "type": "event"
    },
    {
      "stateMutability": "payable",
      "type": "fallback"
    },
    {
      "inputs": [],
      "name": "MAX_SUPPLY",
      "outputs": [
        {
          "internalType": "uint256",
          "name": "",
          "type": "uint256"
        }
      ],
      "stateMutability": "view",
      "type": "function"
    },
    {
      "inputs": [],
      "name": "PUB_SUPPLY",
      "outputs": [
        {
          "internalType": "uint256",
          "name": "",
          "type": "uint256"
        }
      ],
      "stateMutability": "view",
      "type": "function"
    },
    {
      "inputs": [
        {
          "internalType": "address",
          "name": "owner",
          "type": "address"
        },
        {
          "internalType": "address",
          "name": "spender",
          "type": "address"
        }
      ],
      "name": "allowance",
      "outputs": [
        {
          "internalType": "uint256",
          "name": "",
          "type": "uint256"
        }
      ],
      "stateMutability": "view",
      "type": "function"
    },
    {
      "inputs": [
        {
          "internalType": "address",
          "name": "spender",
          "type": "address"
        },
        {
          "internalType": "uint256",
          "name": "value",
          "type": "uint256"
        }
      ],
      "name": "approve",
      "outputs": [
        {
          "internalType": "bool",
          "name": "",
          "type": "bool"
        }
      ],
      "stateMutability": "nonpayable",
      "type": "function"
    },
    {
      "inputs": [
        {
          "internalType": "address",
          "name": "account",
          "type": "address"
        }
      ],
      "name": "balanceOf",
      "outputs": [
        {
          "internalType": "uint256",
          "name": "",
          "type": "uint256"
        }
      ],
      "stateMutability": "view",
      "type": "function"
    },
    {
      "inputs": [
        {
          "internalType": "address",
          "name": "account",
          "type": "address"
        },
        {
          "internalType": "uint256",
          "name": "value",
          "type": "uint256"
        }
      ],
      "name": "burnFrom",
      "outputs": [],
      "stateMutability": "nonpayable",
      "type": "function"
    },
    {
      "inputs": [],
      "name": "decimals",
      "outputs": [
        {
          "internalType": "uint8",
          "name": "",
          "type": "uint8"
        }
      ],
      "stateMutability": "view",
      "type": "function"
    },
    {
      "inputs": [],
      "name": "name",
      "outputs": [
        {
          "internalType": "string",
          "name": "",
          "type": "string"
        }
      ],
      "stateMutability": "view",
      "type": "function"
    },
    {
      "inputs": [],
      "name": "owner",
      "outputs": [
        {
          "internalType": "address",
          "name": "",
          "type": "address"
        }
      ],
      "stateMutability": "view",
      "type": "function"
    },
    {
      "inputs": [],
      "name": "paused",
      "outputs": [
        {
          "internalType": "bool",
          "name": "",
          "type": "bool"
        }
      ],
      "stateMutability": "view",
      "type": "function"
    },
    {
      "inputs": [],
      "name": "rate",
      "outputs": [
        {
          "internalType": "uint256",
          "name": "",
          "type": "uint256"
        }
      ],
      "stateMutability": "view",
      "type": "function"
    },
    {
      "inputs": [],
      "name": "renounceOwnership",
      "outputs": [],
      "stateMutability": "nonpayable",
      "type": "function"
    },
    {
      "inputs": [],
      "name": "symbol",
      "outputs": [
        {
          "internalType": "string",
          "name": "",
          "type": "string"
        }
      ],
      "stateMutability": "view",
      "type": "function"
    },
    {
      "inputs": [],
      "name": "title",
      "outputs": [
        {
          "internalType": "string",
          "name": "",
          "type": "string"
        }
      ],
      "stateMutability": "view",
      "type": "function"
    },
    {
      "inputs": [],
      "name": "totalSupply",
      "outputs": [
        {
          "internalType": "uint256",
          "name": "",
          "type": "uint256"
        }
      ],
      "stateMutability": "view",
      "type": "function"
    },
    {
      "inputs": [
        {
          "internalType": "address",
          "name": "to",
          "type": "address"
        },
        {
          "internalType": "uint256",
          "name": "value",
          "type": "uint256"
        }
      ],
      "name": "transfer",
      "outputs": [
        {
          "internalType": "bool",
          "name": "",
          "type": "bool"
        }
      ],
      "stateMutability": "nonpayable",
      "type": "function"
    },
    {
      "inputs": [
        {
          "internalType": "address",
          "name": "from",
          "type": "address"
        },
        {
          "internalType": "address",
          "name": "to",
          "type": "address"
        },
        {
          "internalType": "uint256",
          "name": "value",
          "type": "uint256"
        }
      ],
      "name": "transferFrom",
      "outputs": [
        {
          "internalType": "bool",
          "name": "",
          "type": "bool"
        }
      ],
      "stateMutability": "nonpayable",
      "type": "function"
    },
    {
      "inputs": [
        {
          "internalType": "address",
          "name": "newOwner",
          "type": "address"
        }
      ],
      "name": "transferOwnership",
      "outputs": [],
      "stateMutability": "nonpayable",
      "type": "function"
    },
    {
      "stateMutability": "payable",
      "type": "receive"
    },
    {
      "inputs": [
        {
          "internalType": "uint256",
          "name": "_rate",
          "type": "uint256"
        }
      ],
      "name": "setRate",
      "outputs": [
        {
          "internalType": "uint256",
          "name": "",
          "type": "uint256"
        }
      ],
      "stateMutability": "nonpayable",
      "type": "function"
    },
    {
      "inputs": [
        {
          "internalType": "uint256",
          "name": "_newSupply",
          "type": "uint256"
        }
      ],
      "name": "setMaxSupply",
      "outputs": [
        {
          "internalType": "uint256",
          "name": "",
          "type": "uint256"
        }
      ],
      "stateMutability": "nonpayable",
      "type": "function"
    },
    {
      "inputs": [
        {
          "internalType": "uint256",
          "name": "_amount",
          "type": "uint256"
        }
      ],
      "name": "burn",
      "outputs": [],
      "stateMutability": "nonpayable",
      "type": "function"
    },
    {
      "inputs": [],
      "name": "togglePause",
      "outputs": [
        {
          "internalType": "bool",
          "name": "",
          "type": "bool"
        }
      ],
      "stateMutability": "nonpayable",
      "type": "function"
    },
    {
      "inputs": [],
      "name": "toggleBurn",
      "outputs": [
        {
          "internalType": "bool",
          "name": "",
          "type": "bool"
        }
      ],
      "stateMutability": "nonpayable",
      "type": "function"
    },
    {
      "inputs": [],
      "name": "toggleState",
      "outputs": [
        {
          "internalType": "bool",
          "name": "",
          "type": "bool"
        }
      ],
      "stateMutability": "nonpayable",
      "type": "function"
    },
    {
      "inputs": [
        {
          "internalType": "uint256",
          "name": "_amount",
          "type": "uint256"
        }
      ],
      "name": "buyTokens",
      "outputs": [
        {
          "internalType": "uint256",
          "name": "",
          "type": "uint256"
        }
      ],
      "stateMutability": "payable",
      "type": "function"
    }
  ],
  "bytecode": "0x60806040523480156200001157600080fd5b506040516200239f3803806200239f833981810160405281019062000037919062000468565b33868681600390816200004b919062000783565b5080600490816200005d919062000783565b5050506000600560006101000a81548160ff021916908315150217905550600073ffffffffffffffffffffffffffffffffffffffff168173ffffffffffffffffffffffffffffffffffffffff1603620000f05760006040517f1e4fbdf7000000000000000000000000000000000000000000000000000000008152600401620000e79190620008af565b60405180910390fd5b62000101816200017460201b60201c565b5062000113846200023a60201b60201c565b508260088190555085600a90816200012c919062000783565b5081600960006101000a81548160ff02191690831515021790555080600960016101000a81548160ff02191690831515021790555083600681905550505050505050620008cc565b6000600560019054906101000a900473ffffffffffffffffffffffffffffffffffffffff16905081600560016101000a81548173ffffffffffffffffffffffffffffffffffffffff021916908373ffffffffffffffffffffffffffffffffffffffff1602179055508173ffffffffffffffffffffffffffffffffffffffff168173ffffffffffffffffffffffffffffffffffffffff167f8be0079c531659141344cd1fd0a4f28419497f9722a3daafe3b4186f6b6457e060405160405180910390a35050565b60008082905060008110156200024f57600080fd5b806006819055915050919050565b6000604051905090565b600080fd5b600080fd5b600080fd5b600080fd5b6000601f19601f8301169050919050565b7f4e487b7100000000000000000000000000000000000000000000000000000000600052604160045260246000fd5b620002c6826200027b565b810181811067ffffffffffffffff82111715620002e857620002e76200028c565b5b80604052505050565b6000620002fd6200025d565b90506200030b8282620002bb565b919050565b600067ffffffffffffffff8211156200032e576200032d6200028c565b5b62000339826200027b565b9050602081019050919050565b60005b838110156200036657808201518184015260208101905062000349565b60008484015250505050565b600062000389620003838462000310565b620002f1565b905082815260208101848484011115620003a857620003a762000276565b5b620003b584828562000346565b509392505050565b600082601f830112620003d557620003d462000271565b5b8151620003e784826020860162000372565b91505092915050565b6000819050919050565b6200040581620003f0565b81146200041157600080fd5b50565b6000815190506200042581620003fa565b92915050565b60008115159050919050565b62000442816200042b565b81146200044e57600080fd5b50565b600081519050620004628162000437565b92915050565b60008060008060008060c0878903121562000488576200048762000267565b5b600087015167ffffffffffffffff811115620004a957620004a86200026c565b5b620004b789828a01620003bd565b965050602087015167ffffffffffffffff811115620004db57620004da6200026c565b5b620004e989828a01620003bd565b9550506040620004fc89828a0162000414565b94505060606200050f89828a0162000414565b93505060806200052289828a0162000451565b92505060a06200053589828a0162000451565b9150509295509295509295565b600081519050919050565b7f4e487b7100000000000000000000000000000000000000000000000000000000600052602260045260246000fd5b600060028204905060018216806200059557607f821691505b602082108103620005ab57620005aa6200054d565b5b50919050565b60008190508160005260206000209050919050565b60006020601f8301049050919050565b600082821b905092915050565b600060088302620006157fffffffffffffffffffffffffffffffffffffffffffffffffffffffffffffffff82620005d6565b620006218683620005d6565b95508019841693508086168417925050509392505050565b6000819050919050565b6000620006646200065e6200065884620003f0565b62000639565b620003f0565b9050919050565b6000819050919050565b620006808362000643565b620006986200068f826200066b565b848454620005e3565b825550505050565b600090565b620006af620006a0565b620006bc81848462000675565b505050565b5b81811015620006e457620006d8600082620006a5565b600181019050620006c2565b5050565b601f8211156200073357620006fd81620005b1565b6200070884620005c6565b8101602085101562000718578190505b620007306200072785620005c6565b830182620006c1565b50505b505050565b600082821c905092915050565b6000620007586000198460080262000738565b1980831691505092915050565b600062000773838362000745565b9150826002028217905092915050565b6200078e8262000542565b67ffffffffffffffff811115620007aa57620007a96200028c565b5b620007b682546200057c565b620007c3828285620006e8565b600060209050601f831160018114620007fb5760008415620007e6578287015190505b620007f2858262000765565b86555062000862565b601f1984166200080b86620005b1565b60005b8281101562000835578489015182556001820191506020850194506020810190506200080e565b8683101562000855578489015162000851601f89168262000745565b8355505b6001600288020188555050505b505050505050565b600073ffffffffffffffffffffffffffffffffffffffff82169050919050565b600062000897826200086a565b9050919050565b620008a9816200088a565b82525050565b6000602082019050620008c660008301846200089e565b92915050565b611ac380620008dc6000396000f3fe60806040526004361061016a5760003560e01c80635c975abb116100d15780638da5cb5b1161008a578063c4ae316811610064578063c4ae31681461055b578063d37e510414610586578063dd62ed3e146105b1578063f2fde38b146105ee57610179565b80638da5cb5b146104c857806395d89b41146104f3578063a9059cbb1461051e57610179565b80635c975abb146103b85780636f8b44b0146103e357806370a0823114610420578063715018a61461045d578063778a56ce1461047457806379cc67901461049f57610179565b8063313ce56711610123578063313ce567146102a157806332cb6b0c146102cc57806334fcf437146102f75780633610724e1461033457806342966c68146103645780634a79d50c1461038d57610179565b806306fdde031461017b578063095ea7b3146101a657806318160ddd146101e3578063201a49d61461020e57806323b872dd146102395780632c4e722e1461027657610179565b3661017957610177610617565b005b005b34801561018757600080fd5b50610190610636565b60405161019d9190611614565b60405180910390f35b3480156101b257600080fd5b506101cd60048036038101906101c891906116cf565b6106c8565b6040516101da919061172a565b60405180910390f35b3480156101ef57600080fd5b506101f86106eb565b6040516102059190611754565b60405180910390f35b34801561021a57600080fd5b506102236106f5565b6040516102309190611754565b60405180910390f35b34801561024557600080fd5b50610260600480360381019061025b919061176f565b6106fb565b60405161026d919061172a565b60405180910390f35b34801561028257600080fd5b5061028b61072a565b6040516102989190611754565b60405180910390f35b3480156102ad57600080fd5b506102b6610730565b6040516102c391906117de565b60405180910390f35b3480156102d857600080fd5b506102e1610739565b6040516102ee9190611754565b60405180910390f35b34801561030357600080fd5b5061031e600480360381019061031991906117f9565b61073f565b60405161032b9190611754565b60405180910390f35b61034e600480360381019061034991906117f9565b610759565b60405161035b9190611754565b60405180910390f35b34801561037057600080fd5b5061038b600480360381019061038691906117f9565b6107e1565b005b34801561039957600080fd5b506103a261080e565b6040516103af9190611614565b60405180910390f35b3480156103c457600080fd5b506103cd61089c565b6040516103da919061172a565b60405180910390f35b3480156103ef57600080fd5b5061040a600480360381019061040591906117f9565b6108b3565b6040516104179190611754565b60405180910390f35b34801561042c57600080fd5b5061044760048036038101906104429190611826565b6108ca565b6040516104549190611754565b60405180910390f35b34801561046957600080fd5b50610472610912565b005b34801561048057600080fd5b50610489610926565b604051610496919061172a565b60405180910390f35b3480156104ab57600080fd5b506104c660048036038101906104c191906116cf565b61095e565b005b3480156104d457600080fd5b506104dd61097e565b6040516104ea9190611862565b60405180910390f35b3480156104ff57600080fd5b506105086109a8565b6040516105159190611614565b60405180910390f35b34801561052a57600080fd5b50610545600480360381019061054091906116cf565b610a3a565b604051610552919061172a565b60405180910390f35b34801561056757600080fd5b50610570610a5d565b60405161057d919061172a565b60405180910390f35b34801561059257600080fd5b5061059b610a95565b6040516105a8919061172a565b60405180910390f35b3480156105bd57600080fd5b506105d860048036038101906105d3919061187d565b610aef565b6040516105e59190611754565b60405180910390f35b3480156105fa57600080fd5b5061061560048036038101906106109190611826565b610b76565b005b600060065434610627919061191b565b90506106333382610bfc565b50565b6060600380546106459061197b565b80601f01602080910402602001604051908101604052809291908181526020018280546106719061197b565b80156106be5780601f10610693576101008083540402835291602001916106be565b820191906000526020600020905b8154815290600101906020018083116106a157829003601f168201915b5050505050905090565b6000806106d3610c7e565b90506106e0818585610c86565b600191505092915050565b6000600254905090565b60075481565b600080610706610c7e565b9050610713858285610c98565b61071e858585610d2c565b60019150509392505050565b60065481565b60006012905090565b60085481565b6000610749610e20565b61075282610ea7565b9050919050565b60006006548261076991906119ac565b341161077457600080fd5b6000670de0b6b3a76400008361078a91906119ac565b60075460085461079a91906119ee565b6107a491906119ee565b10156107af57600080fd5b6107cc33670de0b6b3a7640000846107c791906119ac565b610bfc565b600654826107da91906119ac565b9050919050565b60001515600960009054906101000a900460ff1615150361080157600080fd5b61080b3382610ec9565b50565b600a805461081b9061197b565b80601f01602080910402602001604051908101604052809291908181526020018280546108479061197b565b80156108945780601f1061086957610100808354040283529160200191610894565b820191906000526020600020905b81548152906001019060200180831161087757829003601f168201915b505050505081565b6000600560009054906101000a900460ff16905090565b60006108bd610e20565b8160088190559050919050565b60008060008373ffffffffffffffffffffffffffffffffffffffff1673ffffffffffffffffffffffffffffffffffffffff168152602001908152602001600020549050919050565b61091a610e20565b6109246000610f4b565b565b6000610930610e20565b600960009054906101000a900460ff1615600960006101000a81548160ff0219169083151502179055905090565b6109708261096a610c7e565b83610c98565b61097a8282610ec9565b5050565b6000600560019054906101000a900473ffffffffffffffffffffffffffffffffffffffff16905090565b6060600480546109b79061197b565b80601f01602080910402602001604051908101604052809291908181526020018280546109e39061197b565b8015610a305780601f10610a0557610100808354040283529160200191610a30565b820191906000526020600020905b815481529060010190602001808311610a1357829003601f168201915b5050505050905090565b600080610a45610c7e565b9050610a52818585610d2c565b600191505092915050565b6000610a67610e20565b600960019054906101000a900460ff1615600960016101000a81548160ff0219169083151502179055905090565b6000610a9f610e20565b60001515600960019054906101000a900460ff16151503610abf57600080fd5b610ac761089c565b15610ad957610ad4611011565b610ae2565b610ae1611074565b5b610aea61089c565b905090565b6000600160008473ffffffffffffffffffffffffffffffffffffffff1673ffffffffffffffffffffffffffffffffffffffff16815260200190815260200160002060008373ffffffffffffffffffffffffffffffffffffffff1673ffffffffffffffffffffffffffffffffffffffff16815260200190815260200160002054905092915050565b610b7e610e20565b600073ffffffffffffffffffffffffffffffffffffffff168173ffffffffffffffffffffffffffffffffffffffff1603610bf05760006040517f1e4fbdf7000000000000000000000000000000000000000000000000000000008152600401610be79190611862565b60405180910390fd5b610bf981610f4b565b50565b600073ffffffffffffffffffffffffffffffffffffffff168273ffffffffffffffffffffffffffffffffffffffff1603610c6e5760006040517fec442f05000000000000000000000000000000000000000000000000000000008152600401610c659190611862565b60405180910390fd5b610c7a600083836110d7565b5050565b600033905090565b610c9383838360016110ef565b505050565b6000610ca48484610aef565b90507fffffffffffffffffffffffffffffffffffffffffffffffffffffffffffffffff8114610d265781811015610d16578281836040517ffb8f41b2000000000000000000000000000000000000000000000000000000008152600401610d0d93929190611a22565b60405180910390fd5b610d25848484840360006110ef565b5b50505050565b600073ffffffffffffffffffffffffffffffffffffffff168373ffffffffffffffffffffffffffffffffffffffff1603610d9e5760006040517f96c6fd1e000000000000000000000000000000000000000000000000000000008152600401610d959190611862565b60405180910390fd5b600073ffffffffffffffffffffffffffffffffffffffff168273ffffffffffffffffffffffffffffffffffffffff1603610e105760006040517fec442f05000000000000000000000000000000000000000000000000000000008152600401610e079190611862565b60405180910390fd5b610e1b8383836110d7565b505050565b610e28610c7e565b73ffffffffffffffffffffffffffffffffffffffff16610e4661097e565b73ffffffffffffffffffffffffffffffffffffffff1614610ea557610e69610c7e565b6040517f118cdaa7000000000000000000000000000000000000000000000000000000008152600401610e9c9190611862565b60405180910390fd5b565b6000808290506000811015610ebb57600080fd5b806006819055915050919050565b600073ffffffffffffffffffffffffffffffffffffffff168273ffffffffffffffffffffffffffffffffffffffff1603610f3b5760006040517f96c6fd1e000000000000000000000000000000000000000000000000000000008152600401610f329190611862565b60405180910390fd5b610f47826000836110d7565b5050565b6000600560019054906101000a900473ffffffffffffffffffffffffffffffffffffffff16905081600560016101000a81548173ffffffffffffffffffffffffffffffffffffffff021916908373ffffffffffffffffffffffffffffffffffffffff1602179055508173ffffffffffffffffffffffffffffffffffffffff168173ffffffffffffffffffffffffffffffffffffffff167f8be0079c531659141344cd1fd0a4f28419497f9722a3daafe3b4186f6b6457e060405160405180910390a35050565b6110196112c6565b6000600560006101000a81548160ff0219169083151502179055507f5db9ee0a495bf2e6ff9c91a7834c1ba4fdd244a5e8aa4e537bd38aeae4b073aa61105d610c7e565b60405161106a9190611862565b60405180910390a1565b61107c611306565b6001600560006101000a81548160ff0219169083151502179055507f62e78cea01bee320cd4e420270b5ea74000d11b0c9f74754ebdbfc544b05a2586110c0610c7e565b6040516110cd9190611862565b60405180910390a1565b6110df611306565b6110ea838383611347565b505050565b600073ffffffffffffffffffffffffffffffffffffffff168473ffffffffffffffffffffffffffffffffffffffff16036111615760006040517fe602df050000000000000000000000000000000000000000000000000000000081526004016111589190611862565b60405180910390fd5b600073ffffffffffffffffffffffffffffffffffffffff168373ffffffffffffffffffffffffffffffffffffffff16036111d35760006040517f94280d620000000000000000000000000000000000000000000000000000000081526004016111ca9190611862565b60405180910390fd5b81600160008673ffffffffffffffffffffffffffffffffffffffff1673ffffffffffffffffffffffffffffffffffffffff16815260200190815260200160002060008573ffffffffffffffffffffffffffffffffffffffff1673ffffffffffffffffffffffffffffffffffffffff1681526020019081526020016000208190555080156112c0578273ffffffffffffffffffffffffffffffffffffffff168473ffffffffffffffffffffffffffffffffffffffff167f8c5be1e5ebec7d5bd14f71427d1e84f3dd0314c0f7b2291e5b200ac8c7c3b925846040516112b79190611754565b60405180910390a35b50505050565b6112ce61089c565b611304576040517f8dfc202b00000000000000000000000000000000000000000000000000000000815260040160405180910390fd5b565b61130e61089c565b15611345576040517fd93c066500000000000000000000000000000000000000000000000000000000815260040160405180910390fd5b565b61134f611306565b61135a83838361135f565b505050565b600073ffffffffffffffffffffffffffffffffffffffff168373ffffffffffffffffffffffffffffffffffffffff16036113b15780600260008282546113a59190611a59565b92505081905550611484565b60008060008573ffffffffffffffffffffffffffffffffffffffff1673ffffffffffffffffffffffffffffffffffffffff1681526020019081526020016000205490508181101561143d578381836040517fe450d38c00000000000000000000000000000000000000000000000000000000815260040161143493929190611a22565b60405180910390fd5b8181036000808673ffffffffffffffffffffffffffffffffffffffff1673ffffffffffffffffffffffffffffffffffffffff16815260200190815260200160002081905550505b600073ffffffffffffffffffffffffffffffffffffffff168273ffffffffffffffffffffffffffffffffffffffff16036114cd578060026000828254039250508190555061151a565b806000808473ffffffffffffffffffffffffffffffffffffffff1673ffffffffffffffffffffffffffffffffffffffff168152602001908152602001600020600082825401925050819055505b8173ffffffffffffffffffffffffffffffffffffffff168373ffffffffffffffffffffffffffffffffffffffff167fddf252ad1be2c89b69c2b068fc378daa952ba7f163c4a11628f55a4df523b3ef836040516115779190611754565b60405180910390a3505050565b600081519050919050565b600082825260208201905092915050565b60005b838110156115be5780820151818401526020810190506115a3565b60008484015250505050565b6000601f19601f8301169050919050565b60006115e682611584565b6115f0818561158f565b93506116008185602086016115a0565b611609816115ca565b840191505092915050565b6000602082019050818103600083015261162e81846115db565b905092915050565b600080fd5b600073ffffffffffffffffffffffffffffffffffffffff82169050919050565b60006116668261163b565b9050919050565b6116768161165b565b811461168157600080fd5b50565b6000813590506116938161166d565b92915050565b6000819050919050565b6116ac81611699565b81146116b757600080fd5b50565b6000813590506116c9816116a3565b92915050565b600080604083850312156116e6576116e5611636565b5b60006116f485828601611684565b9250506020611705858286016116ba565b9150509250929050565b60008115159050919050565b6117248161170f565b82525050565b600060208201905061173f600083018461171b565b92915050565b61174e81611699565b82525050565b60006020820190506117696000830184611745565b92915050565b60008060006060848603121561178857611787611636565b5b600061179686828701611684565b93505060206117a786828701611684565b92505060406117b8868287016116ba565b9150509250925092565b600060ff82169050919050565b6117d8816117c2565b82525050565b60006020820190506117f360008301846117cf565b92915050565b60006020828403121561180f5761180e611636565b5b600061181d848285016116ba565b91505092915050565b60006020828403121561183c5761183b611636565b5b600061184a84828501611684565b91505092915050565b61185c8161165b565b82525050565b60006020820190506118776000830184611853565b92915050565b6000806040838503121561189457611893611636565b5b60006118a285828601611684565b92505060206118b385828601611684565b9150509250929050565b7f4e487b7100000000000000000000000000000000000000000000000000000000600052601260045260246000fd5b7f4e487b7100000000000000000000000000000000000000000000000000000000600052601160045260246000fd5b600061192682611699565b915061193183611699565b925082611941576119406118bd565b5b828204905092915050565b7f4e487b7100000000000000000000000000000000000000000000000000000000600052602260045260246000fd5b6000600282049050600182168061199357607f821691505b6020821081036119a6576119a561194c565b5b50919050565b60006119b782611699565b91506119c283611699565b92508282026119d081611699565b915082820484148315176119e7576119e66118ec565b5b5092915050565b60006119f982611699565b9150611a0483611699565b9250828203905081811115611a1c57611a1b6118ec565b5b92915050565b6000606082019050611a376000830186611853565b611a446020830185611745565b611a516040830184611745565b949350505050565b6000611a6482611699565b9150611a6f83611699565b9250828201905080821115611a8757611a866118ec565b5b9291505056fea26469706673582212207c3935849d32e4541e164919e35cbf89eca549eaebf0f372486c476f657bf67b64736f6c63430008170033",
  "immutableReferences": {},
  "source": "// SPDX-License-Identifier: GPL-3.0\n// // // // // // // // // // // // // // // // // // // // // // // // // // // // // // // // // // // // // // // // // // // // // // // // // // // // // // // // // // // // //\n//\n//      MMWKd:..                                                                                    ..:dKWMM\n//      MKl.                                                                                            .lKW\n//      O'       ..''''''''''''.     .''''''.     .'''''.      .''''''''''''''.     .''''''''''''..       'O\n//      '     .ckKNNWNWWWWWWWWWk.   .xNWWNWNl    ,0WWWWW0,     lNWWWWWWWWWNWNk'    ;0NNNWWWWWWWWNNKkc.     '\n//           ,OWMMMMMMMMMMMMMMMO.   .kMMMMMWl    ,KMMMMMK,     lWMMMMMMMMMMM0,    ;KMMMMMMMMMMMMMMMMWO,\n//          .kMMMMMMMMMMMMMMMMMO.   .kMMMMMWl    ,KMMMMMK,     lWMMMMMMMMMM0,    ;KMMMMMMMMMMMMMMMMMMMk.\n//          '0MMMMMMMMMMMMMMMMMO.   .kMMMMMWl    ,KMMMMMK,     lWMMMMMMMMM0,    :KMMMMMMMMMMMMMMMMMMMM0'\n//          '0MMMMMMMMMMMMMMMMMO.   .kMMMMMWl    ,KMMMMMK,     lWMMMMMMMM0,    :KMMMMMMMMMMMMMMMMMMMMM0'\n//          '0MMMMMMMMMMMMMMMMMO.   .kMMMMMWl    ,KMMMMMK,     lWMMMMMMM0,    ;0NNWWMMMMMMMMMMMMMMMMMM0'\n//          '0MMMMMMMMMMMMMMMMMO.   .kMMMMMWl    ,KMMMMMK,     lWMMMMMM0,     .'.',;lkNMMMMMMMMMMMMMMM0'\n//          '0MMMMMMMMMMMMMMMMMO.   .kMMMMMWl    ,KMMMMMK,     lWMMMMMK;              ,kWMMMMMMMMMMMMM0'\n//          '0MMMMMMMMMMMMMMMMMO.   .kMMMMMWl    ,KMMMMMK,     lWMMMMX:    .:oxxdc'    .dWMMMMMMMMMMMM0'\n//          '0MMMMMMMMMMMMMMMMMO.   .kMMMMMWl    ,KMMMMMK,     lWMMMWd.   ,OWMMMMMXl.   '0MMMMMMMMMMMM0'\n//          '0MMMMMMMMMMMMMMMMMO.   .kMMMMMWl    ,KMMMMMK,     lWMMMX;   .kMMMMMMMMK,   .xMMMMMMMMMMMM0'\n//          '0MMMMMMMMMMMMMMMMMO.   .kMMMMMWl    ,KMMMMMK,     lWMMM0'   .OMMMMMMMMX;   .xMMMMMMMMMMMM0'\n//          .OMMMMMMMMMMMMMMMMMO.   .kMMMMMWl    ,KMMMMMK,     lWMMMK,    lNMMMMMMWx.   '0MMMMMMMMMMMMO.\n//           lNMMMMMMMMMMMMMMMMO.   .kMMMMMWl    ,KMMMMMK,     lWMMMWd.   .:x0KKKkc.   .dWMMMMMMMMMMMNl\n//      .    .c0WMMMMMMMMMMMMMMO.   .kMMMMMWo    ,KMMMMMK,     lWMMMMNd.     ....     .xNMMMMMMMMMMW0c.    .\n//      l      .,lddxxxxxxxxxxxc.    :xxxxxd,    .lxxxxxl.     ,dxxxxxd:.            .cdxxxxxxxxddl,.      l\n//      No.                                                                                              .oN\n//      MW0l'                                                                                          'l0WM\n//      MMMWKd;.                                                                                    .;dKWMMM\n//\n// // // // // // // // // // // // // // // // // // // // // // // // // // // // // // // // // // // // // // // // // // // // // // // // // // // // // // // // // // // // //\n//                                                                                                                                                                                  //\n//      @dev            ::              Aron Mauritala Ayuk                                                                                                                                          //\n//      @msg            ::              stereo@iii6.xyz                                                                                                                                   //\n//      @github         ::              @stereoIII6\n//      @twitter        ::              @stereoIII6                                                                                                                                              //\n//                                                                                                                                                                                  //\n// // // // // // // // // // // // // // // // // // // // // // // // // // // // // // // // // // // // // // // // // // // // // // // // // // // // // // // // // // // // //\n//                                                                                                                                                                                  //\n//      @dev            ::              Juan Xavier Valverde                                                                                                                                    //\n//      @msg            ::              juanxavier@iii6.xyz                                                                                                                               //\n//      @twitter        ::              @JuanXavier                                                                                                                                             //\n//      @github         ::              @JuanXavier                                                                                                                                             //\n//                                                                                                                                                                                  //                                                                                                                                                                                 //\n// // // // // // // // // // // // // // // // // // // // // // // // // // // // // // // // // // // // // // // // // // // // // // // // // // // // // // // // // // // // //\n//  *   *   *   *   *   *   *   *   *   *   *   *   *   *   *   *   *   *   *   *   *   *   *   *   *   *   *   *   *   *   *   *   *   *   *   *   *   *   *   *   *   *   *   *   //\n// // // // // // // // // // // // // // // // // // // // // // // // // // // // // // // // // // // // // // // // // // // // // // // // // // // // // // // // // // // // //\n//                                                                                                                                                                                  //\n//      @company        ::              Fractio Holding                                                                                                                                                                       //\n//      @title          ::              iii6 Coin Model                                                                                                                            //\n//      @description    ::              ERC20 Model Preset Contract                                                                                                                           //\n//      @version        ::              0.0.1                                                                                                                                       //\n//      @purpose        ::              ERC20 Model Preset                                                                                                          //\n//                                                                                                                                                                                  //\n//                                                                                                                                                                                  //\n//                                                                                                                                                                                  //\n//                                                                                                                                                                                  //\n//                                                                                                                                                                                  //\n// // // // // // // // // // // // // // // // // // // // // // // // // // // // // // // // // // // // // // // // // // // // // // // // // // // // // // // // // // // // //\n//  *   *   *   *   *   *   *   *   *   *   *   *   *   *   *   *   *   *   *   *   *   *   *   *   *   *   *   *   *   *   *   *   *   *   *   *   *   *   *   *   *   *   *   *   //\n// // // // // // // // // // // // // // // // // // // // // // // // // // // // // // // // // // // // // // // // // // // // // // // // // // // // // // // // // // // // //\n\n/////////////////////////////////////////////////////////////////////////////////////////////////////////////////////\n\n/////////////////////////////////////////////////////////////////////////////////////////////////////////////////////\n\npragma solidity ^0.8.7;\n\nimport \"@openzeppelin/contracts/token/ERC20/ERC20.sol\";\nimport \"@openzeppelin/contracts/access/Ownable.sol\";\nimport \"@openzeppelin/contracts/token/ERC20/extensions/ERC20Burnable.sol\";\nimport \"@openzeppelin/contracts/token/ERC20/extensions/ERC20Pausable.sol\";\nimport \"../Oracles/iii6PriceConsumer.sol\";\nimport \"../Math/iii6PriceMath.sol\";\nimport \"../Wallets/iii6Safes.sol\";\nimport \"../Misc/iii6Misc.sol\";\n\ncontract iii6CoinModel is\n    ERC20,\n    ERC20Pausable,\n    ERC20Burnable,\n    Ownable,\n    iii6Misc\n{\n    /**\n     * @dev this contract is a factory contract to deploy iii6CoinModel & iii6DiaModel\n     */\n    // \n    // \n    // \n    // \n    // \n    // \n    /**\n     * @dev declaration of storage vars\n     */\n    uint256 public rate;\n    uint256 public PUB_SUPPLY;\n    uint256 public MAX_SUPPLY;\n    bool private burns;\n    bool private pauses;\n    string public title;\n\n    /**\n     * @dev declaration of enums structs and arrays\n     */\n\n    /**\n     * @dev creates an instance of iii6CoinModel\n     * @param _name token name\n     * @param _sym token symbol\n     * @param _rate token rate\n     * @param _supply max token supply // if 0-infinte\n     * @param _burn bool burnable\n     * @param _pause bool pauseble\n     */\n    constructor(\n        string memory _name, // Token Name\n        string memory _sym, // Token Symbol\n        uint256 _rate, // Token Price in USD // 100 == 1 usd // 100000 = 1ETH\n        uint256 _supply, // Token Max Supply\n        bool _burn, // Burnable Option\n        bool _pause\n    ) ERC20(_name, _sym) Ownable(msg.sender) {\n        _setRate(_rate); /** @dev see _setRate() :: line138 */\n        MAX_SUPPLY = _supply;\n        title = _name;\n        burns = _burn;\n        pauses = _pause;\n        rate = _rate; /** @dev see Rates{} :: line97 */\n    }\n\n    // \n    // \n    // \n    // \n    // \n    // \n\n    /**\n     * @dev sets token price in denomination currency ocoin\n     * @param _newRate token price in $ocoin (denomination currency)\n     * denomination currency can be set in setCurr()\n     * @return uint256 rate in gascoin\n     */\n    function _setRate(uint256 _newRate) internal returns (uint256) {\n        uint256 gP = _newRate;\n        if (gP < 0) revert();\n        return rate = gP;\n    }\n\n    /**\n     * @dev overrides ERC20 & ERC20Pausable\n     */\n    function _update(address from, address to, uint256 value) internal virtual override(ERC20Pausable, ERC20) whenNotPaused {\n        super._update(from, to, value);\n    }\n\n    // \n    // \n    // \n    // \n    // \n    // \n\n    /**\n     * @dev sets the rate of currency in denomination currency\n     * @dev check the ocoin for its state to determine what value to type in\n     * @param // EXTERNAL\n     * @param _rate  ocoin (denomination currency) // 0-eth 1-gascoin 2-xCur 2-yCur >4-usdc\n     * denomination currency can be set in setCurr()\n     * @return _setRate // ocoin name as enum Coins\n     */\n    function setRate(uint256 _rate) external onlyOwner returns (uint256) {\n        return _setRate(_rate);\n    }\n\n    /**\n     * @dev sets the max supply\n     * @param // EXTERNAL only owner\n     * @param _newSupply  ocoin (denomination currency) // 0-eth 1-gascoin 2-xCur 2-yCur >4-usdc\n     * denomination currency can be set in setCurr()\n     * @return Max Supply\n     */\n    function setMaxSupply(uint256 _newSupply)\n        external\n        onlyOwner\n        returns (uint256)\n    {\n        return MAX_SUPPLY = _newSupply;\n    }\n\n    /**\n     * @dev burn function for token holders only for burnable contracts\n     * @param _amount of tokens to burn // EXTERNAL\n     */\n    function burn(uint256 _amount) public override {\n        if (burns == false) revert();\n        _burn(msg.sender, _amount);\n    }\n\n    /**\n     * @dev toggle the pausable functionality on the contract\n     * @return pausable state of contract\n     */\n    function togglePause() public onlyOwner returns (bool) {\n        return pauses = !pauses;\n    }\n\n    /**\n     * @dev toggle the burnable functionality on the contract\n     * @return burnable state of contract\n     */\n    function toggleBurn() public onlyOwner returns (bool) {\n        return burns = !burns;\n    }\n\n    /**\n     * @dev if contract pauses the state get checked and toggled via condition to opposite state\n     * @return active state of contract (true = paused / false = active)\n     */\n    function toggleState() public onlyOwner returns (bool) {\n        if (pauses == false) revert();\n        if (paused()) _unpause();\n        else _pause();\n        return paused();\n    }\n\n    /**\n     * @dev buy function for token holders\n     * @param _amount of tokens to mint // EXTERNAL\n     * @return uint total price\n     */\n    function buyTokens(uint256 _amount) external payable returns (uint256) {\n        if (msg.value <= _amount * rate) revert();\n        if ((MAX_SUPPLY - PUB_SUPPLY) - (_amount * 10**18) < 0) revert();\n        _mint(msg.sender, _amount * 10**18);\n        return _amount * rate;\n    }\n\n    /**\n     * @dev recieve function returns tokens on gascoin transfer to contract\n     */\n\n    receive() external payable {\n        // condition\n        _rcMint();\n    }\n\n    /**\n     * @dev recieve function returns tokens on gascoin and/or tokens transfer to contract\n     */\n    fallback() external payable {\n        // condition\n        // _rcMint();\n    }\n\n    /**\n     * @dev does mint  in exchange for gascoin action on recieve() and fallback()\n     */\n    function _rcMint() internal {\n        uint256 amount = msg.value / rate;\n        _mint(msg.sender, amount);\n    }\n}\n\nabstract contract iii6CoinModelDrop is iii6CoinModel {\n    /**\n     * @dev creates an instance of iii6CoinModel\n     * @param _name token name\n     * @param _sym token symbol\n     * @param _rate token rate\n     * @param _supply max token supply // if 0-infinte\n     * @param _burn bool burnable\n     * @param _pause bool pauseble\n     * @param _curr denomintaor currency // 0-eth 1-gascoin 2-xCur 2-yCur >4-usdc\n     */\n    constructor(\n        string memory _name,\n        string memory _sym,\n        uint256 _rate,\n        uint256 _supply,\n        bool _burn,\n        bool _pause,\n        uint256 _curr\n    ) iii6CoinModel(_name, _sym, _rate, _supply, _burn, _pause) {}\n\n    /**\n     * @dev Drops users 100 Full Tokens For testnets only\n     */\n    function dropToken() external {\n        _mint(msg.sender, 100 * 10**18);\n    }\n}\n// // // // // // // // // // // // // // // // // // // // // // // // // // // // // // // // // // // // // // // // // // // // // // // // // // // // // // // // // // // // //\n//\n//      MMWKd:..                                                                                    ..:dKWMM\n//      MKl.                                                                                            .lKW\n//      O'       ..''''''''''''.     .''''''.     .'''''.      .''''''''''''''.     .''''''''''''..       'O\n//      '     .ckKNNWNWWWWWWWWWk.   .xNWWNWNl    ,0WWWWW0,     lNWWWWWWWWWNWNk'    ;0NNNWWWWWWWWNNKkc.     '\n//           ,OWMMMMMMMMMMMMMMMO.   .kMMMMMWl    ,KMMMMMK,     lWMMMMMMMMMMM0,    ;KMMMMMMMMMMMMMMMMWO,\n//          .kMMMMMMMMMMMMMMMMMO.   .kMMMMMWl    ,KMMMMMK,     lWMMMMMMMMMM0,    ;KMMMMMMMMMMMMMMMMMMMk.\n//          '0MMMMMMMMMMMMMMMMMO.   .kMMMMMWl    ,KMMMMMK,     lWMMMMMMMMM0,    :KMMMMMMMMMMMMMMMMMMMM0'\n//          '0MMMMMMMMMMMMMMMMMO.   .kMMMMMWl    ,KMMMMMK,     lWMMMMMMMM0,    :KMMMMMMMMMMMMMMMMMMMMM0'\n//          '0MMMMMMMMMMMMMMMMMO.   .kMMMMMWl    ,KMMMMMK,     lWMMMMMMM0,    ;0NNWWMMMMMMMMMMMMMMMMMM0'\n//          '0MMMMMMMMMMMMMMMMMO.   .kMMMMMWl    ,KMMMMMK,     lWMMMMMM0,     .'.',;lkNMMMMMMMMMMMMMMM0'\n//          '0MMMMMMMMMMMMMMMMMO.   .kMMMMMWl    ,KMMMMMK,     lWMMMMMK;              ,kWMMMMMMMMMMMMM0'\n//          '0MMMMMMMMMMMMMMMMMO.   .kMMMMMWl    ,KMMMMMK,     lWMMMMX:    .:oxxdc'    .dWMMMMMMMMMMMM0'\n//          '0MMMMMMMMMMMMMMMMMO.   .kMMMMMWl    ,KMMMMMK,     lWMMMWd.   ,OWMMMMMXl.   '0MMMMMMMMMMMM0'\n//          '0MMMMMMMMMMMMMMMMMO.   .kMMMMMWl    ,KMMMMMK,     lWMMMX;   .kMMMMMMMMK,   .xMMMMMMMMMMMM0'\n//          '0MMMMMMMMMMMMMMMMMO.   .kMMMMMWl    ,KMMMMMK,     lWMMM0'   .OMMMMMMMMX;   .xMMMMMMMMMMMM0'\n//          .OMMMMMMMMMMMMMMMMMO.   .kMMMMMWl    ,KMMMMMK,     lWMMMK,    lNMMMMMMWx.   '0MMMMMMMMMMMMO.\n//           lNMMMMMMMMMMMMMMMMO.   .kMMMMMWl    ,KMMMMMK,     lWMMMWd.   .:x0KKKkc.   .dWMMMMMMMMMMMNl\n//      .    .c0WMMMMMMMMMMMMMMO.   .kMMMMMWo    ,KMMMMMK,     lWMMMMNd.     ....     .xNMMMMMMMMMMW0c.    .\n//      l      .,lddxxxxxxxxxxxc.    :xxxxxd,    .lxxxxxl.     ,dxxxxxd:.            .cdxxxxxxxxddl,.      l\n//      No.                                                                                              .oN\n//      MW0l'                                                                                          'l0WM\n//      MMMWKd;.                                                                                    .;dKWMMM\n//\n// // // // // // // // // // // // // // // // // // // // // // // // // // // // // // // // // // // // // // // // // // // // // // // // // // // // // // // // // // // // //\n",
  "sourcePath": "/Users/iii6/Documents/GitHub/iii6v2/iii6v2/contracts/iii6utils/Assets/iii6CoinModel.sol",
  "compiler": {
    "name": "solc",
    "version": "0.8.23+commit.f704f362.Emscripten.clang"
  },
  "schemaVersion": "3.4.16",
  "updatedAt": "2023-12-05T23:55:20.104Z",
  "devdoc": {
    "errors": {
      "ERC20InsufficientAllowance(address,uint256,uint256)": [
        {
          "details": "Indicates a failure with the `spender`s `allowance`. Used in transfers.",
          "params": {
            "allowance": "Amount of tokens a `spender` is allowed to operate with.",
            "needed": "Minimum amount required to perform a transfer.",
            "spender": "Address that may be allowed to operate on tokens without being their owner."
          }
        }
      ],
      "ERC20InsufficientBalance(address,uint256,uint256)": [
        {
          "details": "Indicates an error related to the current `balance` of a `sender`. Used in transfers.",
          "params": {
            "balance": "Current balance for the interacting account.",
            "needed": "Minimum amount required to perform a transfer.",
            "sender": "Address whose tokens are being transferred."
          }
        }
      ],
      "ERC20InvalidApprover(address)": [
        {
          "details": "Indicates a failure with the `approver` of a token to be approved. Used in approvals.",
          "params": {
            "approver": "Address initiating an approval operation."
          }
        }
      ],
      "ERC20InvalidReceiver(address)": [
        {
          "details": "Indicates a failure with the token `receiver`. Used in transfers.",
          "params": {
            "receiver": "Address to which tokens are being transferred."
          }
        }
      ],
      "ERC20InvalidSender(address)": [
        {
          "details": "Indicates a failure with the token `sender`. Used in transfers.",
          "params": {
            "sender": "Address whose tokens are being transferred."
          }
        }
      ],
      "ERC20InvalidSpender(address)": [
        {
          "details": "Indicates a failure with the `spender` to be approved. Used in approvals.",
          "params": {
            "spender": "Address that may be allowed to operate on tokens without being their owner."
          }
        }
      ],
      "EnforcedPause()": [
        {
          "details": "The operation failed because the contract is paused."
        }
      ],
      "ExpectedPause()": [
        {
          "details": "The operation failed because the contract is not paused."
        }
      ],
      "OwnableInvalidOwner(address)": [
        {
          "details": "The owner is not a valid owner account. (eg. `address(0)`)"
        }
      ],
      "OwnableUnauthorizedAccount(address)": [
        {
          "details": "The caller account is not authorized to perform an operation."
        }
      ]
    },
    "events": {
      "Approval(address,address,uint256)": {
        "details": "Emitted when the allowance of a `spender` for an `owner` is set by a call to {approve}. `value` is the new allowance."
      },
      "Paused(address)": {
        "details": "Emitted when the pause is triggered by `account`."
      },
      "Transfer(address,address,uint256)": {
        "details": "Emitted when `value` tokens are moved from one account (`from`) to another (`to`). Note that `value` may be zero."
      },
      "Unpaused(address)": {
        "details": "Emitted when the pause is lifted by `account`."
      }
    },
    "kind": "dev",
    "methods": {
      "allowance(address,address)": {
        "details": "See {IERC20-allowance}."
      },
      "approve(address,uint256)": {
        "details": "See {IERC20-approve}. NOTE: If `value` is the maximum `uint256`, the allowance is not updated on `transferFrom`. This is semantically equivalent to an infinite approval. Requirements: - `spender` cannot be the zero address."
      },
      "balanceOf(address)": {
        "details": "See {IERC20-balanceOf}."
      },
      "burn(uint256)": {
        "details": "burn function for token holders only for burnable contracts",
        "params": {
          "_amount": "of tokens to burn // EXTERNAL"
        }
      },
      "burnFrom(address,uint256)": {
        "details": "Destroys a `value` amount of tokens from `account`, deducting from the caller's allowance. See {ERC20-_burn} and {ERC20-allowance}. Requirements: - the caller must have allowance for ``accounts``'s tokens of at least `value`."
      },
      "buyTokens(uint256)": {
        "details": "buy function for token holders",
        "params": {
          "_amount": "of tokens to mint // EXTERNAL"
        },
        "returns": {
          "_0": "uint total price"
        }
      },
      "constructor": {
        "details": "creates an instance of iii6CoinModel",
        "params": {
          "_burn": "bool burnable",
          "_name": "token name",
          "_pause": "bool pauseble",
          "_rate": "token rate",
          "_supply": "max token supply // if 0-infinte",
          "_sym": "token symbol"
        }
      },
      "decimals()": {
        "details": "Returns the number of decimals used to get its user representation. For example, if `decimals` equals `2`, a balance of `505` tokens should be displayed to a user as `5.05` (`505 / 10 ** 2`). Tokens usually opt for a value of 18, imitating the relationship between Ether and Wei. This is the default value returned by this function, unless it's overridden. NOTE: This information is only used for _display_ purposes: it in no way affects any of the arithmetic of the contract, including {IERC20-balanceOf} and {IERC20-transfer}."
      },
      "name()": {
        "details": "Returns the name of the token."
      },
      "owner()": {
        "details": "Returns the address of the current owner."
      },
      "paused()": {
        "details": "Returns true if the contract is paused, and false otherwise."
      },
      "renounceOwnership()": {
        "details": "Leaves the contract without owner. It will not be possible to call `onlyOwner` functions. Can only be called by the current owner. NOTE: Renouncing ownership will leave the contract without an owner, thereby disabling any functionality that is only available to the owner."
      },
      "setMaxSupply(uint256)": {
        "details": "sets the max supply",
        "params": {
          "": "// EXTERNAL only owner",
          "_newSupply": "ocoin (denomination currency) // 0-eth 1-gascoin 2-xCur 2-yCur >4-usdc denomination currency can be set in setCurr()"
        },
        "returns": {
          "_0": "Max Supply"
        }
      },
      "setRate(uint256)": {
        "details": "sets the rate of currency in denomination currencycheck the ocoin for its state to determine what value to type in",
        "params": {
          "": "// EXTERNAL",
          "_rate": "ocoin (denomination currency) // 0-eth 1-gascoin 2-xCur 2-yCur >4-usdc denomination currency can be set in setCurr()"
        },
        "returns": {
          "_0": "_setRate // ocoin name as enum Coins"
        }
      },
      "symbol()": {
        "details": "Returns the symbol of the token, usually a shorter version of the name."
      },
      "toggleBurn()": {
        "details": "toggle the burnable functionality on the contract",
        "returns": {
          "_0": "burnable state of contract"
        }
      },
      "togglePause()": {
        "details": "toggle the pausable functionality on the contract",
        "returns": {
          "_0": "pausable state of contract"
        }
      },
      "toggleState()": {
        "details": "if contract pauses the state get checked and toggled via condition to opposite state",
        "returns": {
          "_0": "active state of contract (true = paused / false = active)"
        }
      },
      "totalSupply()": {
        "details": "See {IERC20-totalSupply}."
      },
      "transfer(address,uint256)": {
        "details": "See {IERC20-transfer}. Requirements: - `to` cannot be the zero address. - the caller must have a balance of at least `value`."
      },
      "transferFrom(address,address,uint256)": {
        "details": "See {IERC20-transferFrom}. Emits an {Approval} event indicating the updated allowance. This is not required by the EIP. See the note at the beginning of {ERC20}. NOTE: Does not update the allowance if the current allowance is the maximum `uint256`. Requirements: - `from` and `to` cannot be the zero address. - `from` must have a balance of at least `value`. - the caller must have allowance for ``from``'s tokens of at least `value`."
      },
      "transferOwnership(address)": {
        "details": "Transfers ownership of the contract to a new account (`newOwner`). Can only be called by the current owner."
      }
    },
    "stateVariables": {
      "rate": {
        "details": "declaration of storage vars"
      }
    },
    "version": 1
  },
  "userdoc": {
    "kind": "user",
    "methods": {},
    "version": 1
  }
}