{
  "contractName": "iii6AssetFactory",
  "abi": [
    {
      "inputs": [],
      "stateMutability": "nonpayable",
      "type": "constructor"
    },
    {
      "inputs": [
        {
          "internalType": "string",
          "name": "_name",
          "type": "string"
        },
        {
          "internalType": "string",
          "name": "_sym",
          "type": "string"
        },
        {
          "internalType": "uint256",
          "name": "_max",
          "type": "uint256"
        },
        {
          "internalType": "uint256",
          "name": "_price",
          "type": "uint256"
        },
        {
          "internalType": "uint256",
          "name": "_g",
          "type": "uint256"
        }
      ],
      "name": "buildERC721Token",
      "outputs": [
        {
          "internalType": "address",
          "name": "",
          "type": "address"
        }
      ],
      "stateMutability": "payable",
      "type": "function",
      "payable": true
    }
  ],
  "bytecode": "0x608060405234801561001057600080fd5b50615140806100206000396000f3fe608060405260043610620000205760003560e01c806392a13fde1462000025575b600080fd5b6200004360048036038101906200003d919062000217565b6200005b565b6040516200005291906200032b565b60405180910390f35b6000620000f488888080601f016020809104026020016040519081016040528093929190818152602001838380828437600081840152601f19601f8201169050808301925050505050505087878080601f016020809104026020016040519081016040528093929190818152602001838380828437600081840152601f19601f8201169050808301925050505050505086868662000101565b9050979650505050505050565b600080338787878787604051620001189062000156565b6200012996959493929190620003f3565b604051809103906000f08015801562000146573d6000803e3d6000fd5b5090508091505095945050505050565b614c9c806200046f83390190565b600080fd5b600080fd5b600080fd5b600080fd5b600080fd5b60008083601f8401126200019657620001956200016e565b5b8235905067ffffffffffffffff811115620001b657620001b562000173565b5b602083019150836001820283011115620001d557620001d462000178565b5b9250929050565b6000819050919050565b620001f181620001dc565b8114620001fd57600080fd5b50565b6000813590506200021181620001e6565b92915050565b600080600080600080600060a0888a03121562000239576200023862000164565b5b600088013567ffffffffffffffff8111156200025a576200025962000169565b5b620002688a828b016200017d565b9750975050602088013567ffffffffffffffff8111156200028e576200028d62000169565b5b6200029c8a828b016200017d565b95509550506040620002b18a828b0162000200565b9350506060620002c48a828b0162000200565b9250506080620002d78a828b0162000200565b91505092959891949750929550565b600073ffffffffffffffffffffffffffffffffffffffff82169050919050565b60006200031382620002e6565b9050919050565b620003258162000306565b82525050565b60006020820190506200034260008301846200031a565b92915050565b600081519050919050565b600082825260208201905092915050565b60005b838110156200038457808201518184015260208101905062000367565b60008484015250505050565b6000601f19601f8301169050919050565b6000620003ae8262000348565b620003ba818562000353565b9350620003cc81856020860162000364565b620003d78162000390565b840191505092915050565b620003ed81620001dc565b82525050565b600060c0820190506200040a60008301896200031a565b81810360208301526200041e8188620003a1565b90508181036040830152620004348187620003a1565b9050620004456060830186620003e2565b620004546080830185620003e2565b6200046360a0830184620003e2565b97965050505050505056fe60806040523480156200001157600080fd5b5060405162004c9c38038062004c9c8339818101604052810190620000379190620003d9565b848481600090816200004a9190620006f4565b5080600190816200005c9190620006f4565b505050600060068190555060006007819055506000600881905550600060098190555085600a60006101000a81548173ffffffffffffffffffffffffffffffffffffffff021916908373ffffffffffffffffffffffffffffffffffffffff16021790555084600d9081620000d19190620006f4565b5083600e9081620000e39190620006f4565b5082600c8190555066038d7ea4c68000826200010091906200080a565b60108190555060008111156200018c578030604051620001209062000198565b6200012d92919062000877565b604051809103906000f0801580156200014a573d6000803e3d6000fd5b50601460006101000a81548173ffffffffffffffffffffffffffffffffffffffff021916908373ffffffffffffffffffffffffffffffffffffffff1602179055505b505050505050620008a4565b611ccc8062002fd083390190565b6000604051905090565b600080fd5b600080fd5b600073ffffffffffffffffffffffffffffffffffffffff82169050919050565b6000620001e782620001ba565b9050919050565b620001f981620001da565b81146200020557600080fd5b50565b6000815190506200021981620001ee565b92915050565b600080fd5b600080fd5b6000601f19601f8301169050919050565b7f4e487b7100000000000000000000000000000000000000000000000000000000600052604160045260246000fd5b620002748262000229565b810181811067ffffffffffffffff821117156200029657620002956200023a565b5b80604052505050565b6000620002ab620001a6565b9050620002b9828262000269565b919050565b600067ffffffffffffffff821115620002dc57620002db6200023a565b5b620002e78262000229565b9050602081019050919050565b60005b8381101562000314578082015181840152602081019050620002f7565b60008484015250505050565b6000620003376200033184620002be565b6200029f565b90508281526020810184848401111562000356576200035562000224565b5b62000363848285620002f4565b509392505050565b600082601f8301126200038357620003826200021f565b5b81516200039584826020860162000320565b91505092915050565b6000819050919050565b620003b3816200039e565b8114620003bf57600080fd5b50565b600081519050620003d381620003a8565b92915050565b60008060008060008060c08789031215620003f957620003f8620001b0565b5b60006200040989828a0162000208565b965050602087015167ffffffffffffffff8111156200042d576200042c620001b5565b5b6200043b89828a016200036b565b955050604087015167ffffffffffffffff8111156200045f576200045e620001b5565b5b6200046d89828a016200036b565b94505060606200048089828a01620003c2565b93505060806200049389828a01620003c2565b92505060a0620004a689828a01620003c2565b9150509295509295509295565b600081519050919050565b7f4e487b7100000000000000000000000000000000000000000000000000000000600052602260045260246000fd5b600060028204905060018216806200050657607f821691505b6020821081036200051c576200051b620004be565b5b50919050565b60008190508160005260206000209050919050565b60006020601f8301049050919050565b600082821b905092915050565b600060088302620005867fffffffffffffffffffffffffffffffffffffffffffffffffffffffffffffffff8262000547565b62000592868362000547565b95508019841693508086168417925050509392505050565b6000819050919050565b6000620005d5620005cf620005c9846200039e565b620005aa565b6200039e565b9050919050565b6000819050919050565b620005f183620005b4565b620006096200060082620005dc565b84845462000554565b825550505050565b600090565b6200062062000611565b6200062d818484620005e6565b505050565b5b8181101562000655576200064960008262000616565b60018101905062000633565b5050565b601f821115620006a4576200066e8162000522565b620006798462000537565b8101602085101562000689578190505b620006a1620006988562000537565b83018262000632565b50505b505050565b600082821c905092915050565b6000620006c960001984600802620006a9565b1980831691505092915050565b6000620006e48383620006b6565b9150826002028217905092915050565b620006ff82620004b3565b67ffffffffffffffff8111156200071b576200071a6200023a565b5b620007278254620004ed565b6200073482828562000659565b600060209050601f8311600181146200076c576000841562000757578287015190505b620007638582620006d6565b865550620007d3565b601f1984166200077c8662000522565b60005b82811015620007a6578489015182556001820191506020850194506020810190506200077f565b86831015620007c65784890151620007c2601f891682620006b6565b8355505b6001600288020188555050505b505050505050565b7f4e487b7100000000000000000000000000000000000000000000000000000000600052601160045260246000fd5b600062000817826200039e565b915062000824836200039e565b925082820262000834816200039e565b915082820484148315176200084e576200084d620007db565b5b5092915050565b62000860816200039e565b82525050565b6200087181620001da565b82525050565b60006040820190506200088e600083018562000855565b6200089d602083018462000866565b9392505050565b61271c80620008b46000396000f3fe6080604052600436106101b75760003560e01c806395d89b41116100ec578063b524fd6f1161008a578063be9a655511610064578063be9a655514610661578063c87b56dd1461068c578063c971ebb3146106c9578063e985e9c514610706576101b7565b8063b524fd6f146105d0578063b88d4fde146105fb578063ba899a2e14610624576101b7565b8063a035b1fe116100c6578063a035b1fe1461050f578063a0712d681461053a578063a22cb4651461056a578063aba4759f14610593576101b7565b806395d89b411461047c5780639af9bec0146104a75780639b4f589f146104d2576101b7565b806342842e0e116101595780636ac5db19116101335780636ac5db19146103be57806370a08231146103e957806383813a28146104265780638da5cb5b14610451576101b7565b806342842e0e1461032d5780634f02c420146103565780636352211e14610381576101b7565b8063095ea7b311610195578063095ea7b3146102615780630f4c01341461028a57806323b872dd146102c75780632f54bf6e146102f0576101b7565b806301ffc9a7146101bc57806306fdde03146101f9578063081812fc14610224575b600080fd5b3480156101c857600080fd5b506101e360048036038101906101de9190611e9f565b610743565b6040516101f09190611ee7565b60405180910390f35b34801561020557600080fd5b5061020e610825565b60405161021b9190611f92565b60405180910390f35b34801561023057600080fd5b5061024b60048036038101906102469190611fea565b6108b7565b6040516102589190612058565b60405180910390f35b34801561026d57600080fd5b506102886004803603810190610283919061209f565b6108d3565b005b34801561029657600080fd5b506102b160048036038101906102ac919061209f565b6108e9565b6040516102be91906120ee565b60405180910390f35b3480156102d357600080fd5b506102ee60048036038101906102e99190612109565b61090e565b005b3480156102fc57600080fd5b506103176004803603810190610312919061215c565b610a10565b6040516103249190611ee7565b60405180910390f35b34801561033957600080fd5b50610354600480360381019061034f9190612109565b610a78565b005b34801561036257600080fd5b5061036b610a98565b60405161037891906120ee565b60405180910390f35b34801561038d57600080fd5b506103a860048036038101906103a39190611fea565b610a9e565b6040516103b59190612058565b60405180910390f35b3480156103ca57600080fd5b506103d3610ab0565b6040516103e091906120ee565b60405180910390f35b3480156103f557600080fd5b50610410600480360381019061040b919061215c565b610ab6565b60405161041d91906120ee565b60405180910390f35b34801561043257600080fd5b5061043b610b70565b6040516104489190611f92565b60405180910390f35b34801561045d57600080fd5b50610466610bfe565b6040516104739190612058565b60405180910390f35b34801561048857600080fd5b50610491610c24565b60405161049e9190611f92565b60405180910390f35b3480156104b357600080fd5b506104bc610cb6565b6040516104c99190611f92565b60405180910390f35b3480156104de57600080fd5b506104f960048036038101906104f49190611fea565b610d44565b60405161050691906121de565b60405180910390f35b34801561051b57600080fd5b50610524610de4565b60405161053191906120ee565b60405180910390f35b610554600480360381019061054f9190611fea565b610dea565b60405161056191906120ee565b60405180910390f35b34801561057657600080fd5b50610591600480360381019061058c919061222c565b610e9f565b005b34801561059f57600080fd5b506105ba60048036038101906105b59190611fea565b610eb5565b6040516105c791906120ee565b60405180910390f35b3480156105dc57600080fd5b506105e5610f0f565b6040516105f29190611ee7565b60405180910390f35b34801561060757600080fd5b50610622600480360381019061061d91906123a1565b610f1e565b005b34801561063057600080fd5b5061064b60048036038101906106469190611fea565b610f3b565b6040516106589190612058565b60405180910390f35b34801561066d57600080fd5b50610676610f4d565b6040516106839190611ee7565b60405180910390f35b34801561069857600080fd5b506106b360048036038101906106ae9190611fea565b610f60565b6040516106c09190611f92565b60405180910390f35b3480156106d557600080fd5b506106f060048036038101906106eb919061215c565b610fc9565b6040516106fd91906120ee565b60405180910390f35b34801561071257600080fd5b5061072d60048036038101906107289190612424565b610fe1565b60405161073a9190611ee7565b60405180910390f35b60007f80ac58cd000000000000000000000000000000000000000000000000000000007bffffffffffffffffffffffffffffffffffffffffffffffffffffffff1916827bffffffffffffffffffffffffffffffffffffffffffffffffffffffff1916148061080e57507f5b5e139f000000000000000000000000000000000000000000000000000000007bffffffffffffffffffffffffffffffffffffffffffffffffffffffff1916827bffffffffffffffffffffffffffffffffffffffffffffffffffffffff1916145b8061081e575061081d82611075565b5b9050919050565b60606000805461083490612493565b80601f016020809104026020016040519081016040528092919081815260200182805461086090612493565b80156108ad5780601f10610882576101008083540402835291602001916108ad565b820191906000526020600020905b81548152906001019060200180831161089057829003601f168201915b5050505050905090565b60006108c2826110df565b506108cc82611167565b9050919050565b6108e582826108e06111a4565b6111ac565b5050565b6013602052816000526040600020602052806000526040600020600091509150505481565b600073ffffffffffffffffffffffffffffffffffffffff168273ffffffffffffffffffffffffffffffffffffffff16036109805760006040517f64a0ae920000000000000000000000000000000000000000000000000000000081526004016109779190612058565b60405180910390fd5b6000610994838361098f6111a4565b6111be565b90508373ffffffffffffffffffffffffffffffffffffffff168173ffffffffffffffffffffffffffffffffffffffff1614610a0a578382826040517f64283d7b000000000000000000000000000000000000000000000000000000008152600401610a01939291906124c4565b60405180910390fd5b50505050565b6000600a60009054906101000a900473ffffffffffffffffffffffffffffffffffffffff1673ffffffffffffffffffffffffffffffffffffffff168273ffffffffffffffffffffffffffffffffffffffff1614610a6e576000610a71565b60015b9050919050565b610a9383838360405180602001604052806000815250610f1e565b505050565b600b5481565b6000610aa9826110df565b9050919050565b600c5481565b60008073ffffffffffffffffffffffffffffffffffffffff168273ffffffffffffffffffffffffffffffffffffffff1603610b295760006040517f89c62b64000000000000000000000000000000000000000000000000000000008152600401610b209190612058565b60405180910390fd5b600360008373ffffffffffffffffffffffffffffffffffffffff1673ffffffffffffffffffffffffffffffffffffffff168152602001908152602001600020549050919050565b600e8054610b7d90612493565b80601f0160208091040260200160405190810160405280929190818152602001828054610ba990612493565b8015610bf65780601f10610bcb57610100808354040283529160200191610bf6565b820191906000526020600020905b815481529060010190602001808311610bd957829003601f168201915b505050505081565b600a60009054906101000a900473ffffffffffffffffffffffffffffffffffffffff1681565b606060018054610c3390612493565b80601f0160208091040260200160405190810160405280929190818152602001828054610c5f90612493565b8015610cac5780601f10610c8157610100808354040283529160200191610cac565b820191906000526020600020905b815481529060010190602001808311610c8f57829003601f168201915b5050505050905090565b600d8054610cc390612493565b80601f0160208091040260200160405190810160405280929190818152602001828054610cef90612493565b8015610d3c5780601f10610d1157610100808354040283529160200191610d3c565b820191906000526020600020905b815481529060010190602001808311610d1f57829003601f168201915b505050505081565b60116020528060005260406000206000915090508054610d6390612493565b80601f0160208091040260200160405190810160405280929190818152602001828054610d8f90612493565b8015610ddc5780601f10610db157610100808354040283529160200191610ddc565b820191906000526020600020905b815481529060010190602001808311610dbf57829003601f168201915b505050505081565b60105481565b6000600c54600b54101580610e0e5750600c5482600b54610e0b919061252a565b10155b15610e45576040517f064a6c4100000000000000000000000000000000000000000000000000000000815260040160405180910390fd5b81601054610e53919061255e565b3410610e8b576040517fefc60c1400000000000000000000000000000000000000000000000000000000815260040160405180910390fd5b610e94826113d8565b50600b549050919050565b610eb1610eaa6111a4565b8383611425565b5050565b6000601360003373ffffffffffffffffffffffffffffffffffffffff1673ffffffffffffffffffffffffffffffffffffffff1681526020019081526020016000206000838152602001908152602001600020549050919050565b6000610f19611594565b905090565b610f2984848461090e565b610f35848484846115c4565b50505050565b6000610f4682610a9e565b9050919050565b600f60009054906101000a900460ff1681565b6060610f6b826110df565b506000610f7661177b565b90506000815111610f965760405180602001604052806000815250610fc1565b80610fa084611792565b604051602001610fb19291906125dc565b6040516020818303038152906040525b915050919050565b60126020528060005260406000206000915090505481565b6000600560008473ffffffffffffffffffffffffffffffffffffffff1673ffffffffffffffffffffffffffffffffffffffff16815260200190815260200160002060008373ffffffffffffffffffffffffffffffffffffffff1673ffffffffffffffffffffffffffffffffffffffff16815260200190815260200160002060009054906101000a900460ff16905092915050565b60007f01ffc9a7000000000000000000000000000000000000000000000000000000007bffffffffffffffffffffffffffffffffffffffffffffffffffffffff1916827bffffffffffffffffffffffffffffffffffffffffffffffffffffffff1916149050919050565b6000806110eb83611860565b9050600073ffffffffffffffffffffffffffffffffffffffff168173ffffffffffffffffffffffffffffffffffffffff160361115e57826040517f7e27328900000000000000000000000000000000000000000000000000000000815260040161115591906120ee565b60405180910390fd5b80915050919050565b60006004600083815260200190815260200160002060009054906101000a900473ffffffffffffffffffffffffffffffffffffffff169050919050565b600033905090565b6111b9838383600161189d565b505050565b6000806111ca84611860565b9050600073ffffffffffffffffffffffffffffffffffffffff168373ffffffffffffffffffffffffffffffffffffffff161461120c5761120b818486611a62565b5b600073ffffffffffffffffffffffffffffffffffffffff168173ffffffffffffffffffffffffffffffffffffffff161461129d5761124e60008560008061189d565b6001600360008373ffffffffffffffffffffffffffffffffffffffff1673ffffffffffffffffffffffffffffffffffffffff168152602001908152602001600020600082825403925050819055505b600073ffffffffffffffffffffffffffffffffffffffff168573ffffffffffffffffffffffffffffffffffffffff1614611320576001600360008773ffffffffffffffffffffffffffffffffffffffff1673ffffffffffffffffffffffffffffffffffffffff168152602001908152602001600020600082825401925050819055505b846002600086815260200190815260200160002060006101000a81548173ffffffffffffffffffffffffffffffffffffffff021916908373ffffffffffffffffffffffffffffffffffffffff160217905550838573ffffffffffffffffffffffffffffffffffffffff168273ffffffffffffffffffffffffffffffffffffffff167fddf252ad1be2c89b69c2b068fc378daa952ba7f163c4a11628f55a4df523b3ef60405160405180910390a4809150509392505050565b600060078211156113e857600080fd5b60005b8281101561141a576113ff33600b54611b26565b600b60008154600101919050819055508060010190506113eb565b50600b549050919050565b600073ffffffffffffffffffffffffffffffffffffffff168273ffffffffffffffffffffffffffffffffffffffff160361149657816040517f5b08ba1800000000000000000000000000000000000000000000000000000000815260040161148d9190612058565b60405180910390fd5b80600560008573ffffffffffffffffffffffffffffffffffffffff1673ffffffffffffffffffffffffffffffffffffffff16815260200190815260200160002060008473ffffffffffffffffffffffffffffffffffffffff1673ffffffffffffffffffffffffffffffffffffffff16815260200190815260200160002060006101000a81548160ff0219169083151502179055508173ffffffffffffffffffffffffffffffffffffffff168373ffffffffffffffffffffffffffffffffffffffff167f17307eab39ab6107e8899845ad3d59bd9653f200f220920489ca2b5937696c31836040516115879190611ee7565b60405180910390a3505050565b6000600f60009054906101000a900460ff1615600f60006101000a81548160ff0219169083151502179055905090565b60008373ffffffffffffffffffffffffffffffffffffffff163b1115611775578273ffffffffffffffffffffffffffffffffffffffff1663150b7a026116086111a4565b8685856040518563ffffffff1660e01b815260040161162a9493929190612600565b6020604051808303816000875af192505050801561166657506040513d601f19601f820116820180604052508101906116639190612661565b60015b6116ea573d8060008114611696576040519150601f19603f3d011682016040523d82523d6000602084013e61169b565b606091505b5060008151036116e257836040517f64a0ae920000000000000000000000000000000000000000000000000000000081526004016116d99190612058565b60405180910390fd5b805181602001fd5b63150b7a0260e01b7bffffffffffffffffffffffffffffffffffffffffffffffffffffffff1916817bffffffffffffffffffffffffffffffffffffffffffffffffffffffff19161461177357836040517f64a0ae9200000000000000000000000000000000000000000000000000000000815260040161176a9190612058565b60405180910390fd5b505b50505050565b606060405180602001604052806000815250905090565b6060600060016117a184611c1f565b01905060008167ffffffffffffffff8111156117c0576117bf612276565b5b6040519080825280601f01601f1916602001820160405280156117f25781602001600182028036833780820191505090505b509050600082602001820190505b600115611855578080600190039150507f3031323334353637383961626364656600000000000000000000000000000000600a86061a8153600a85816118495761184861268e565b5b04945060008503611800575b819350505050919050565b60006002600083815260200190815260200160002060009054906101000a900473ffffffffffffffffffffffffffffffffffffffff169050919050565b80806118d65750600073ffffffffffffffffffffffffffffffffffffffff168273ffffffffffffffffffffffffffffffffffffffff1614155b15611a0a5760006118e6846110df565b9050600073ffffffffffffffffffffffffffffffffffffffff168373ffffffffffffffffffffffffffffffffffffffff161415801561195157508273ffffffffffffffffffffffffffffffffffffffff168173ffffffffffffffffffffffffffffffffffffffff1614155b801561196457506119628184610fe1565b155b156119a657826040517fa9fbf51f00000000000000000000000000000000000000000000000000000000815260040161199d9190612058565b60405180910390fd5b8115611a0857838573ffffffffffffffffffffffffffffffffffffffff168273ffffffffffffffffffffffffffffffffffffffff167f8c5be1e5ebec7d5bd14f71427d1e84f3dd0314c0f7b2291e5b200ac8c7c3b92560405160405180910390a45b505b836004600085815260200190815260200160002060006101000a81548173ffffffffffffffffffffffffffffffffffffffff021916908373ffffffffffffffffffffffffffffffffffffffff16021790555050505050565b611a6d838383611d72565b611b2157600073ffffffffffffffffffffffffffffffffffffffff168373ffffffffffffffffffffffffffffffffffffffff1603611ae257806040517f7e273289000000000000000000000000000000000000000000000000000000008152600401611ad991906120ee565b60405180910390fd5b81816040517f177e802f000000000000000000000000000000000000000000000000000000008152600401611b189291906126bd565b60405180910390fd5b505050565b600073ffffffffffffffffffffffffffffffffffffffff168273ffffffffffffffffffffffffffffffffffffffff1603611b985760006040517f64a0ae92000000000000000000000000000000000000000000000000000000008152600401611b8f9190612058565b60405180910390fd5b6000611ba6838360006111be565b9050600073ffffffffffffffffffffffffffffffffffffffff168173ffffffffffffffffffffffffffffffffffffffff1614611c1a5760006040517f73c6ac6e000000000000000000000000000000000000000000000000000000008152600401611c119190612058565b60405180910390fd5b505050565b600080600090507a184f03e93ff9f4daa797ed6e38ed64bf6a1f0100000000000000008310611c7d577a184f03e93ff9f4daa797ed6e38ed64bf6a1f0100000000000000008381611c7357611c7261268e565b5b0492506040810190505b6d04ee2d6d415b85acef81000000008310611cba576d04ee2d6d415b85acef81000000008381611cb057611caf61268e565b5b0492506020810190505b662386f26fc100008310611ce957662386f26fc100008381611cdf57611cde61268e565b5b0492506010810190505b6305f5e1008310611d12576305f5e1008381611d0857611d0761268e565b5b0492506008810190505b6127108310611d37576127108381611d2d57611d2c61268e565b5b0492506004810190505b60648310611d5a5760648381611d5057611d4f61268e565b5b0492506002810190505b600a8310611d69576001810190505b80915050919050565b60008073ffffffffffffffffffffffffffffffffffffffff168373ffffffffffffffffffffffffffffffffffffffff1614158015611e2a57508273ffffffffffffffffffffffffffffffffffffffff168473ffffffffffffffffffffffffffffffffffffffff161480611deb5750611dea8484610fe1565b5b80611e2957508273ffffffffffffffffffffffffffffffffffffffff16611e1183611167565b73ffffffffffffffffffffffffffffffffffffffff16145b5b90509392505050565b6000604051905090565b600080fd5b600080fd5b60007fffffffff0000000000000000000000000000000000000000000000000000000082169050919050565b611e7c81611e47565b8114611e8757600080fd5b50565b600081359050611e9981611e73565b92915050565b600060208284031215611eb557611eb4611e3d565b5b6000611ec384828501611e8a565b91505092915050565b60008115159050919050565b611ee181611ecc565b82525050565b6000602082019050611efc6000830184611ed8565b92915050565b600081519050919050565b600082825260208201905092915050565b60005b83811015611f3c578082015181840152602081019050611f21565b60008484015250505050565b6000601f19601f8301169050919050565b6000611f6482611f02565b611f6e8185611f0d565b9350611f7e818560208601611f1e565b611f8781611f48565b840191505092915050565b60006020820190508181036000830152611fac8184611f59565b905092915050565b6000819050919050565b611fc781611fb4565b8114611fd257600080fd5b50565b600081359050611fe481611fbe565b92915050565b60006020828403121561200057611fff611e3d565b5b600061200e84828501611fd5565b91505092915050565b600073ffffffffffffffffffffffffffffffffffffffff82169050919050565b600061204282612017565b9050919050565b61205281612037565b82525050565b600060208201905061206d6000830184612049565b92915050565b61207c81612037565b811461208757600080fd5b50565b60008135905061209981612073565b92915050565b600080604083850312156120b6576120b5611e3d565b5b60006120c48582860161208a565b92505060206120d585828601611fd5565b9150509250929050565b6120e881611fb4565b82525050565b600060208201905061210360008301846120df565b92915050565b60008060006060848603121561212257612121611e3d565b5b60006121308682870161208a565b93505060206121418682870161208a565b925050604061215286828701611fd5565b9150509250925092565b60006020828403121561217257612171611e3d565b5b60006121808482850161208a565b91505092915050565b600081519050919050565b600082825260208201905092915050565b60006121b082612189565b6121ba8185612194565b93506121ca818560208601611f1e565b6121d381611f48565b840191505092915050565b600060208201905081810360008301526121f881846121a5565b905092915050565b61220981611ecc565b811461221457600080fd5b50565b60008135905061222681612200565b92915050565b6000806040838503121561224357612242611e3d565b5b60006122518582860161208a565b925050602061226285828601612217565b9150509250929050565b600080fd5b600080fd5b7f4e487b7100000000000000000000000000000000000000000000000000000000600052604160045260246000fd5b6122ae82611f48565b810181811067ffffffffffffffff821117156122cd576122cc612276565b5b80604052505050565b60006122e0611e33565b90506122ec82826122a5565b919050565b600067ffffffffffffffff82111561230c5761230b612276565b5b61231582611f48565b9050602081019050919050565b82818337600083830152505050565b600061234461233f846122f1565b6122d6565b9050828152602081018484840111156123605761235f612271565b5b61236b848285612322565b509392505050565b600082601f8301126123885761238761226c565b5b8135612398848260208601612331565b91505092915050565b600080600080608085870312156123bb576123ba611e3d565b5b60006123c98782880161208a565b94505060206123da8782880161208a565b93505060406123eb87828801611fd5565b925050606085013567ffffffffffffffff81111561240c5761240b611e42565b5b61241887828801612373565b91505092959194509250565b6000806040838503121561243b5761243a611e3d565b5b60006124498582860161208a565b925050602061245a8582860161208a565b9150509250929050565b7f4e487b7100000000000000000000000000000000000000000000000000000000600052602260045260246000fd5b600060028204905060018216806124ab57607f821691505b6020821081036124be576124bd612464565b5b50919050565b60006060820190506124d96000830186612049565b6124e660208301856120df565b6124f36040830184612049565b949350505050565b7f4e487b7100000000000000000000000000000000000000000000000000000000600052601160045260246000fd5b600061253582611fb4565b915061254083611fb4565b9250828201905080821115612558576125576124fb565b5b92915050565b600061256982611fb4565b915061257483611fb4565b925082820261258281611fb4565b91508282048414831517612599576125986124fb565b5b5092915050565b600081905092915050565b60006125b682611f02565b6125c081856125a0565b93506125d0818560208601611f1e565b80840191505092915050565b60006125e882856125ab565b91506125f482846125ab565b91508190509392505050565b60006080820190506126156000830187612049565b6126226020830186612049565b61262f60408301856120df565b818103606083015261264181846121a5565b905095945050505050565b60008151905061265b81611e73565b92915050565b60006020828403121561267757612676611e3d565b5b60006126858482850161264c565b91505092915050565b7f4e487b7100000000000000000000000000000000000000000000000000000000600052601260045260246000fd5b60006040820190506126d26000830185612049565b6126df60208301846120df565b939250505056fea2646970667358221220f46f36bdc1498f6ae52bf80f0367344817dc49455806ce152cb5370ae478a16664736f6c6343000817003360806040523480156200001157600080fd5b5060405162001ccc38038062001ccc8339818101604052810190620000379190620001d8565b336000806101000a81548173ffffffffffffffffffffffffffffffffffffffff021916908373ffffffffffffffffffffffffffffffffffffffff1602179055506040518060400160405280601a81526020017f4245204652455348204d5920465255495459204652454e5a202100000000000081525060039081620000bd91906200048f565b50600060018190555081600281905550620000de81620000e760201b60201c565b50505062000576565b600081600560006101000a81548173ffffffffffffffffffffffffffffffffffffffff021916908373ffffffffffffffffffffffffffffffffffffffff16021790555060019050919050565b600080fd5b6000819050919050565b6200014d8162000138565b81146200015957600080fd5b50565b6000815190506200016d8162000142565b92915050565b600073ffffffffffffffffffffffffffffffffffffffff82169050919050565b6000620001a08262000173565b9050919050565b620001b28162000193565b8114620001be57600080fd5b50565b600081519050620001d281620001a7565b92915050565b60008060408385031215620001f257620001f162000133565b5b600062000202858286016200015c565b92505060206200021585828601620001c1565b9150509250929050565b600081519050919050565b7f4e487b7100000000000000000000000000000000000000000000000000000000600052604160045260246000fd5b7f4e487b7100000000000000000000000000000000000000000000000000000000600052602260045260246000fd5b60006002820490506001821680620002a157607f821691505b602082108103620002b757620002b662000259565b5b50919050565b60008190508160005260206000209050919050565b60006020601f8301049050919050565b600082821b905092915050565b600060088302620003217fffffffffffffffffffffffffffffffffffffffffffffffffffffffffffffffff82620002e2565b6200032d8683620002e2565b95508019841693508086168417925050509392505050565b6000819050919050565b6000620003706200036a620003648462000138565b62000345565b62000138565b9050919050565b6000819050919050565b6200038c836200034f565b620003a46200039b8262000377565b848454620002ef565b825550505050565b600090565b620003bb620003ac565b620003c881848462000381565b505050565b5b81811015620003f057620003e4600082620003b1565b600181019050620003ce565b5050565b601f8211156200043f576200040981620002bd565b6200041484620002d2565b8101602085101562000424578190505b6200043c6200043385620002d2565b830182620003cd565b50505b505050565b600082821c905092915050565b6000620004646000198460080262000444565b1980831691505092915050565b60006200047f838362000451565b9150826002028217905092915050565b6200049a826200021f565b67ffffffffffffffff811115620004b657620004b56200022a565b5b620004c2825462000288565b620004cf828285620003f4565b600060209050601f831160018114620005075760008415620004f2578287015190505b620004fe858262000471565b8655506200056e565b601f1984166200051786620002bd565b60005b8281101562000541578489015182556001820191506020850194506020810190506200051a565b868310156200056157848901516200055d601f89168262000451565b8355505b6001600288020188555050505b505050505050565b61174680620005866000396000f3fe6080604052600436106100f35760003560e01c806377b3cc9a1161008a578063e21f37ce11610059578063e21f37ce14610349578063ece866b914610374578063f794062e1461039f578063f851a440146103dc576100f3565b806377b3cc9a14610286578063c4784fd4146102b1578063c85e07b9146102e1578063cc87ec5f1461030c576100f3565b8063329dd364116100c6578063329dd364146101c8578063365b98b2146101f35780633ccfd60b146102305780636ac5db191461025b576100f3565b806301c0fb4c146100f8578063161dbc14146101355780632a0c74d4146101725780632f7136551461019d575b600080fd5b34801561010457600080fd5b5061011f600480360381019061011a9190610e7d565b610407565b60405161012c9190610ec5565b60405180910390f35b34801561014157600080fd5b5061015c60048036038101906101579190611026565b610419565b6040516101699190610ec5565b60405180910390f35b34801561017e57600080fd5b506101876104c0565b60405161019491906110ee565b60405180910390f35b3480156101a957600080fd5b506101b2610552565b6040516101bf919061116f565b60405180910390f35b3480156101d457600080fd5b506101dd610578565b6040516101ea9190611236565b60405180910390f35b3480156101ff57600080fd5b5061021a60048036038101906102159190611288565b6105fb565b60405161022791906112c4565b60405180910390f35b34801561023c57600080fd5b50610245610632565b60405161025291906112ee565b60405180910390f35b34801561026757600080fd5b50610270610726565b60405161027d91906112ee565b60405180910390f35b34801561029257600080fd5b5061029b61072c565b6040516102a89190610ec5565b60405180910390f35b6102cb60048036038101906102c69190611026565b610925565b6040516102d89190610ec5565b60405180910390f35b3480156102ed57600080fd5b506102f66109d0565b60405161030391906112ee565b60405180910390f35b34801561031857600080fd5b50610333600480360381019061032e9190610e7d565b6109d6565b6040516103409190610ec5565b60405180910390f35b34801561035557600080fd5b5061035e610c19565b60405161036b91906110ee565b60405180910390f35b34801561038057600080fd5b50610389610ca7565b60405161039691906112ee565b60405180910390f35b3480156103ab57600080fd5b506103c660048036038101906103c19190610e7d565b610cad565b6040516103d39190610ec5565b60405180910390f35b3480156103e857600080fd5b506103f1610ccd565b6040516103fe91906112c4565b60405180910390f35b600061041282610cf1565b9050919050565b60003373ffffffffffffffffffffffffffffffffffffffff1660008054906101000a900473ffffffffffffffffffffffffffffffffffffffff1673ffffffffffffffffffffffffffffffffffffffff16146104a0576040517f82b4290000000000000000000000000000000000000000000000000000000000815260040160405180910390fd5b81600390816104af919061150b565b504260048190555060019050919050565b6060600380546104cf90611338565b80601f01602080910402602001604051908101604052809291908181526020018280546104fb90611338565b80156105485780601f1061051d57610100808354040283529160200191610548565b820191906000526020600020905b81548152906001019060200180831161052b57829003601f168201915b5050505050905090565b600560009054906101000a900473ffffffffffffffffffffffffffffffffffffffff1681565b610580610de7565b60076104d28060200260405190810160405280929190826104d280156105f1576020028201915b8160009054906101000a900473ffffffffffffffffffffffffffffffffffffffff1673ffffffffffffffffffffffffffffffffffffffff16815260200190600101908083116105a7575b5050505050905090565b6007816104d2811061060c57600080fd5b016000915054906101000a900473ffffffffffffffffffffffffffffffffffffffff1681565b60003373ffffffffffffffffffffffffffffffffffffffff1660008054906101000a900473ffffffffffffffffffffffffffffffffffffffff1673ffffffffffffffffffffffffffffffffffffffff16146106b9576040517f82b4290000000000000000000000000000000000000000000000000000000000815260040160405180910390fd5b60008054906101000a900473ffffffffffffffffffffffffffffffffffffffff1673ffffffffffffffffffffffffffffffffffffffff166108fc479081150290604051600060405180830381858888f1935050505015801561071f573d6000803e3d6000fd5b5047905090565b60025481565b60003360011515600660008373ffffffffffffffffffffffffffffffffffffffff1673ffffffffffffffffffffffffffffffffffffffff16815260200190815260200160002060009054906101000a900460ff161515036107b9576040517fe08ca6b000000000000000000000000000000000000000000000000000000000815260040160405180910390fd5b600254600154106107f6576040517fea5db9c500000000000000000000000000000000000000000000000000000000815260040160405180910390fd5b6001600660003373ffffffffffffffffffffffffffffffffffffffff1673ffffffffffffffffffffffffffffffffffffffff16815260200190815260200160002060006101000a81548160ff0219169083151502179055503360076001546104d28110610866576108656115dd565b5b0160006101000a81548173ffffffffffffffffffffffffffffffffffffffff021916908373ffffffffffffffffffffffffffffffffffffffff160217905550600160008154809291906108b89061163b565b9190505550600254600154036108d2576108d0610d3d565b505b600660003373ffffffffffffffffffffffffffffffffffffffff1673ffffffffffffffffffffffffffffffffffffffff16815260200190815260200160002060009054906101000a900460ff1691505090565b6000670de0b6b3a76400003411610968576040517f99956c4600000000000000000000000000000000000000000000000000000000815260040160405180910390fd5b610e106004546109789190611683565b42116109b0576040517f7cd5facc00000000000000000000000000000000000000000000000000000000815260040160405180910390fd5b81600390816109bf919061150b565b504260048190555060019050919050565b60045481565b60008160011515600660008373ffffffffffffffffffffffffffffffffffffffff1673ffffffffffffffffffffffffffffffffffffffff16815260200190815260200160002060009054906101000a900460ff16151503610a63576040517fe08ca6b000000000000000000000000000000000000000000000000000000000815260040160405180910390fd5b3373ffffffffffffffffffffffffffffffffffffffff1660008054906101000a900473ffffffffffffffffffffffffffffffffffffffff1673ffffffffffffffffffffffffffffffffffffffff1614610ae8576040517f82b4290000000000000000000000000000000000000000000000000000000000815260040160405180910390fd5b6001600660008573ffffffffffffffffffffffffffffffffffffffff1673ffffffffffffffffffffffffffffffffffffffff16815260200190815260200160002060006101000a81548160ff0219169083151502179055508260076001546104d28110610b5857610b576115dd565b5b0160006101000a81548173ffffffffffffffffffffffffffffffffffffffff021916908373ffffffffffffffffffffffffffffffffffffffff16021790555060016000815480929190610baa9061163b565b919050555060025460015403610bc457610bc2610d3d565b505b600660008473ffffffffffffffffffffffffffffffffffffffff1673ffffffffffffffffffffffffffffffffffffffff16815260200190815260200160002060009054906101000a900460ff16915050919050565b60038054610c2690611338565b80601f0160208091040260200160405190810160405280929190818152602001828054610c5290611338565b8015610c9f5780601f10610c7457610100808354040283529160200191610c9f565b820191906000526020600020905b815481529060010190602001808311610c8257829003601f168201915b505050505081565b60015481565b60066020528060005260406000206000915054906101000a900460ff1681565b60008054906101000a900473ffffffffffffffffffffffffffffffffffffffff1681565b600081600560006101000a81548173ffffffffffffffffffffffffffffffffffffffff021916908373ffffffffffffffffffffffffffffffffffffffff16021790555060019050919050565b600060025460015414610d4f57600080fd5b600560009054906101000a900473ffffffffffffffffffffffffffffffffffffffff1673ffffffffffffffffffffffffffffffffffffffff1663b524fd6f6040518163ffffffff1660e01b81526004016020604051808303816000875af1158015610dbe573d6000803e3d6000fd5b505050506040513d601f19601f82011682018060405250810190610de291906116e3565b905090565b60405180619a4001604052806104d290602082028036833780820191505090505090565b6000604051905090565b600080fd5b600080fd5b600073ffffffffffffffffffffffffffffffffffffffff82169050919050565b6000610e4a82610e1f565b9050919050565b610e5a81610e3f565b8114610e6557600080fd5b50565b600081359050610e7781610e51565b92915050565b600060208284031215610e9357610e92610e15565b5b6000610ea184828501610e68565b91505092915050565b60008115159050919050565b610ebf81610eaa565b82525050565b6000602082019050610eda6000830184610eb6565b92915050565b600080fd5b600080fd5b6000601f19601f8301169050919050565b7f4e487b7100000000000000000000000000000000000000000000000000000000600052604160045260246000fd5b610f3382610eea565b810181811067ffffffffffffffff82111715610f5257610f51610efb565b5b80604052505050565b6000610f65610e0b565b9050610f718282610f2a565b919050565b600067ffffffffffffffff821115610f9157610f90610efb565b5b610f9a82610eea565b9050602081019050919050565b82818337600083830152505050565b6000610fc9610fc484610f76565b610f5b565b905082815260208101848484011115610fe557610fe4610ee5565b5b610ff0848285610fa7565b509392505050565b600082601f83011261100d5761100c610ee0565b5b813561101d848260208601610fb6565b91505092915050565b60006020828403121561103c5761103b610e15565b5b600082013567ffffffffffffffff81111561105a57611059610e1a565b5b61106684828501610ff8565b91505092915050565b600081519050919050565b600082825260208201905092915050565b60005b838110156110a957808201518184015260208101905061108e565b60008484015250505050565b60006110c08261106f565b6110ca818561107a565b93506110da81856020860161108b565b6110e381610eea565b840191505092915050565b6000602082019050818103600083015261110881846110b5565b905092915050565b6000819050919050565b600061113561113061112b84610e1f565b611110565b610e1f565b9050919050565b60006111478261111a565b9050919050565b60006111598261113c565b9050919050565b6111698161114e565b82525050565b60006020820190506111846000830184611160565b92915050565b60006104d29050919050565b600081905092915050565b6000819050919050565b6111b481610e3f565b82525050565b60006111c683836111ab565b60208301905092915050565b6000602082019050919050565b6111e88161118a565b6111f28184611196565b92506111fd826111a1565b8060005b8381101561122e57815161121587826111ba565b9650611220836111d2565b925050600181019050611201565b505050505050565b6000619a408201905061124c60008301846111df565b92915050565b6000819050919050565b61126581611252565b811461127057600080fd5b50565b6000813590506112828161125c565b92915050565b60006020828403121561129e5761129d610e15565b5b60006112ac84828501611273565b91505092915050565b6112be81610e3f565b82525050565b60006020820190506112d960008301846112b5565b92915050565b6112e881611252565b82525050565b600060208201905061130360008301846112df565b92915050565b7f4e487b7100000000000000000000000000000000000000000000000000000000600052602260045260246000fd5b6000600282049050600182168061135057607f821691505b60208210810361136357611362611309565b5b50919050565b60008190508160005260206000209050919050565b60006020601f8301049050919050565b600082821b905092915050565b6000600883026113cb7fffffffffffffffffffffffffffffffffffffffffffffffffffffffffffffffff8261138e565b6113d5868361138e565b95508019841693508086168417925050509392505050565b60006114086114036113fe84611252565b611110565b611252565b9050919050565b6000819050919050565b611422836113ed565b61143661142e8261140f565b84845461139b565b825550505050565b600090565b61144b61143e565b611456818484611419565b505050565b5b8181101561147a5761146f600082611443565b60018101905061145c565b5050565b601f8211156114bf5761149081611369565b6114998461137e565b810160208510156114a8578190505b6114bc6114b48561137e565b83018261145b565b50505b505050565b600082821c905092915050565b60006114e2600019846008026114c4565b1980831691505092915050565b60006114fb83836114d1565b9150826002028217905092915050565b6115148261106f565b67ffffffffffffffff81111561152d5761152c610efb565b5b6115378254611338565b61154282828561147e565b600060209050601f8311600181146115755760008415611563578287015190505b61156d85826114ef565b8655506115d5565b601f19841661158386611369565b60005b828110156115ab57848901518255600182019150602085019450602081019050611586565b868310156115c857848901516115c4601f8916826114d1565b8355505b6001600288020188555050505b505050505050565b7f4e487b7100000000000000000000000000000000000000000000000000000000600052603260045260246000fd5b7f4e487b7100000000000000000000000000000000000000000000000000000000600052601160045260246000fd5b600061164682611252565b91507fffffffffffffffffffffffffffffffffffffffffffffffffffffffffffffffff82036116785761167761160c565b5b600182019050919050565b600061168e82611252565b915061169983611252565b92508282019050808211156116b1576116b061160c565b5b92915050565b6116c081610eaa565b81146116cb57600080fd5b50565b6000815190506116dd816116b7565b92915050565b6000602082840312156116f9576116f8610e15565b5b6000611707848285016116ce565b9150509291505056fea2646970667358221220de39d3b641414aca1825d463d302c3cedb8d622f68ce25a6c465a15c7e9a352c64736f6c63430008170033a2646970667358221220c9d774c1150f4e175ba2de31e1ac600fadc840b23b1ae8a4cdd19a982849cb6264736f6c63430008170033",
  "immutableReferences": {},
  "source": "// SPDX-License-Identifier: GPL-3.0\n// // // // // // // // // // // // // // // // // // // // // // // // // // // // // // // // // // // // // // // // // // // // // // // // // // // // // // // // // // // // //\n//\n//      MMWKd:..                                                                                    ..:dKWMM\n//      MKl.                                                                                            .lKW\n//      O'       ..''''''''''''.     .''''''.     .'''''.      .''''''''''''''.     .''''''''''''..       'O\n//      '     .ckKNNWNWWWWWWWWWk.   .xNWWNWNl    ,0WWWWW0,     lNWWWWWWWWWNWNk'    ;0NNNWWWWWWWWNNKkc.     '\n//           ,OWMMMMMMMMMMMMMMMO.   .kMMMMMWl    ,KMMMMMK,     lWMMMMMMMMMMM0,    ;KMMMMMMMMMMMMMMMMWO,\n//          .kMMMMMMMMMMMMMMMMMO.   .kMMMMMWl    ,KMMMMMK,     lWMMMMMMMMMM0,    ;KMMMMMMMMMMMMMMMMMMMk.\n//          '0MMMMMMMMMMMMMMMMMO.   .kMMMMMWl    ,KMMMMMK,     lWMMMMMMMMM0,    :KMMMMMMMMMMMMMMMMMMMM0'\n//          '0MMMMMMMMMMMMMMMMMO.   .kMMMMMWl    ,KMMMMMK,     lWMMMMMMMM0,    :KMMMMMMMMMMMMMMMMMMMMM0'\n//          '0MMMMMMMMMMMMMMMMMO.   .kMMMMMWl    ,KMMMMMK,     lWMMMMMMM0,    ;0NNWWMMMMMMMMMMMMMMMMMM0'\n//          '0MMMMMMMMMMMMMMMMMO.   .kMMMMMWl    ,KMMMMMK,     lWMMMMMM0,     .'.',;lkNMMMMMMMMMMMMMMM0'\n//          '0MMMMMMMMMMMMMMMMMO.   .kMMMMMWl    ,KMMMMMK,     lWMMMMMK;              ,kWMMMMMMMMMMMMM0'\n//          '0MMMMMMMMMMMMMMMMMO.   .kMMMMMWl    ,KMMMMMK,     lWMMMMX:    .:oxxdc'    .dWMMMMMMMMMMMM0'\n//          '0MMMMMMMMMMMMMMMMMO.   .kMMMMMWl    ,KMMMMMK,     lWMMMWd.   ,OWMMMMMXl.   '0MMMMMMMMMMMM0'\n//          '0MMMMMMMMMMMMMMMMMO.   .kMMMMMWl    ,KMMMMMK,     lWMMMX;   .kMMMMMMMMK,   .xMMMMMMMMMMMM0'\n//          '0MMMMMMMMMMMMMMMMMO.   .kMMMMMWl    ,KMMMMMK,     lWMMM0'   .OMMMMMMMMX;   .xMMMMMMMMMMMM0'\n//          .OMMMMMMMMMMMMMMMMMO.   .kMMMMMWl    ,KMMMMMK,     lWMMMK,    lNMMMMMMWx.   '0MMMMMMMMMMMMO.\n//           lNMMMMMMMMMMMMMMMMO.   .kMMMMMWl    ,KMMMMMK,     lWMMMWd.   .:x0KKKkc.   .dWMMMMMMMMMMMNl\n//      .    .c0WMMMMMMMMMMMMMMO.   .kMMMMMWo    ,KMMMMMK,     lWMMMMNd.     ....     .xNMMMMMMMMMMW0c.    .\n//      l      .,lddxxxxxxxxxxxc.    :xxxxxd,    .lxxxxxl.     ,dxxxxxd:.            .cdxxxxxxxxddl,.      l\n//      No.                                                                                              .oN\n//      MW0l'                                                                                          'l0WM\n//      MMMWKd;.                                                                                    .;dKWMMM\n//\n// // // // // // // // // // // // // // // // // // // // // // // // // // // // // // // // // // // // // // // // // // // // // // // // // // // // // // // // // // // // //\n//                                                                                                                                                                                  //\n//      @dev            ::              Aron Mauritala Ayuk                                                                                                                                          //\n//      @msg            ::              stereo@iii6.xyz                                                                                                                                   //\n//      @github         ::              @stereoIII6\n//      @twitter        ::              @stereoIII6                                                                                                                                              //\n//                                                                                                                                                                                  //\n// // // // // // // // // // // // // // // // // // // // // // // // // // // // // // // // // // // // // // // // // // // // // // // // // // // // // // // // // // // // //\n//                                                                                                                                                                                  //\n//      @dev            ::              Juan Xavier Valverde                                                                                                                                    //\n//      @msg            ::              juanxavier@iii6.xyz                                                                                                                               //\n//      @twitter        ::              @JuanXavier                                                                                                                                             //\n//      @github         ::              @JuanXavier                                                                                                                                             //\n//                                                                                                                                                                                  //                                                                                                                                                                                 //\n// // // // // // // // // // // // // // // // // // // // // // // // // // // // // // // // // // // // // // // // // // // // // // // // // // // // // // // // // // // // //\n//  *   *   *   *   *   *   *   *   *   *   *   *   *   *   *   *   *   *   *   *   *   *   *   *   *   *   *   *   *   *   *   *   *   *   *   *   *   *   *   *   *   *   *   *   //\n// // // // // // // // // // // // // // // // // // // // // // // // // // // // // // // // // // // // // // // // // // // // // // // // // // // // // // // // // // // // //\n//                                                                                                                                                                                  //\n//      @company        ::              Fractio Holding                                                                                                                                                                       //\n//      @title          ::              iii6 Coin Factory                                                                                                                            //\n//      @description    ::              ERC721 DIA Factory Contract                                                                                                                           //\n//      @version        ::              0.0.1                                                                                                                                       //\n//      @purpose        ::              ERC721 DIA Factory                                                                                                          //\n//                                                                                                                                                                                  //\n//                                                                                                                                                                                  //\n//                                                                                                                                                                                  //\n//                                                                                                                                                                                  //\n//                                                                                                                                                                                  //\n// // // // // // // // // // // // // // // // // // // // // // // // // // // // // // // // // // // // // // // // // // // // // // // // // // // // // // // // // // // // //\n//  *   *   *   *   *   *   *   *   *   *   *   *   *   *   *   *   *   *   *   *   *   *   *   *   *   *   *   *   *   *   *   *   *   *   *   *   *   *   *   *   *   *   *   *   //\n// // // // // // // // // // // // // // // // // // // // // // // // // // // // // // // // // // // // // // // // // // // // // // // // // // // // // // // // // // // // //\n\n/////////////////////////////////////////////////////////////////////////////////////////////////////////////////////\n\n/////////////////////////////////////////////////////////////////////////////////////////////////////////////////////\n\npragma solidity ^0.8.7;\n\nimport \"./iii6DiaModel.sol\";\nimport \"../Math/iii6PriceMath.sol\";\n\ncontract iii6AssetFactory {\n    /**\n     * @dev this contract is a model contract to be deployed through the iii6AssetFactory\n     */\n    // \n    // \n    // \n    // \n    // \n    // \n\n    /*\n     * @dev this constructor creates a Dia NFT Token Contract\n     * @param _owner contract admin\n     * @param _name dia token name\n     * @param _max amount of tokens 0 = infinte\n     * @param _price amount of gascoin for token\n     * @param _cName name of related ERC20 token\n     * @param _cSym symbol of related ERC20 token\n     * @param _c bool if related coin exists\n     * @param _cs max supply of related ERC20 token 0 = infinite\n     * @param _rate price of related ERC20 token in gascoin\n     * @param _g number of greenlist slots for Dia NFT project 0 = no greenlist\n     */\n    constructor() {}\n\n    // function creates a ERC721 Token Contract\n    function _makeERC721Asset(\n        string memory _name,\n        string memory _sym,\n        uint256 _max,\n        uint256 _price,\n        uint256 _g\n    ) internal returns (address) {\n        // chose token model\n        iii6DiaModel diaToken;\n        /**\n         * @dev this constructor creates a Dia NFT Token Contract\n         * @param _owner contract admin\n         * @param _name dia token name\n         * @param _sym dia token name\n         * @param _max amount of tokens 0 = infinte\n         * @param _price amount of gascoin for Dia token\n         * @param _g number of greenlist slots for Dia NFT project 0 = no greenlist\n         */\n        diaToken = new iii6DiaModel(msg.sender, _name, _sym, _max, _price, _g);\n        return address(diaToken);\n    }\n\n    /**\n     * @dev function\n     * @param _name dia token name\n     * @param _max amount of tokens 0 = infinte\n     * @param _price amount of gascoin for Dia token\n     * @param _g number of greenlist slots for Dia NFT project 0 = no greenlist\n     */\n    function buildERC721Token(\n        string calldata _name,\n        string calldata _sym,\n        uint256 _max,\n        uint256 _price,\n        uint256 _g\n    ) external payable returns (address) {\n        return _makeERC721Asset(_name, _sym, _max, _price, _g);\n    }\n}\n",
  "sourcePath": "/Users/iii6/Documents/GitHub/iii6v2/iii6v2/contracts/iii6utils/Assets/iii6AssetFactory.sol",
  "compiler": {
    "name": "solc",
    "version": "0.8.23+commit.f704f362.Emscripten.clang"
  },
  "schemaVersion": "3.4.16",
  "updatedAt": "2023-12-07T17:34:07.146Z",
  "networkType": "ethereum",
  "devdoc": {
    "kind": "dev",
    "methods": {
      "buildERC721Token(string,string,uint256,uint256,uint256)": {
        "details": "function",
        "params": {
          "_g": "number of greenlist slots for Dia NFT project 0 = no greenlist",
          "_max": "amount of tokens 0 = infinte",
          "_name": "dia token name",
          "_price": "amount of gascoin for Dia token"
        }
      },
      "constructor": {
        "details": "this contract is a model contract to be deployed through the iii6AssetFactory"
      }
    },
    "version": 1
  },
  "userdoc": {
    "kind": "user",
    "methods": {},
    "version": 1
  }
}