{
  "contractName": "NFTemp",
  "abi": [
    {
      "inputs": [
        {
          "internalType": "string",
          "name": "_baseHSH",
          "type": "string"
        },
        {
          "internalType": "string",
          "name": "_name",
          "type": "string"
        },
        {
          "internalType": "string",
          "name": "_sym",
          "type": "string"
        },
        {
          "internalType": "uint256",
          "name": "_amnt",
          "type": "uint256"
        },
        {
          "internalType": "uint256",
          "name": "_limit",
          "type": "uint256"
        },
        {
          "internalType": "uint256",
          "name": "_price",
          "type": "uint256"
        }
      ],
      "stateMutability": "nonpayable",
      "type": "constructor"
    },
    {
      "inputs": [
        {
          "internalType": "address",
          "name": "sender",
          "type": "address"
        },
        {
          "internalType": "uint256",
          "name": "tokenId",
          "type": "uint256"
        },
        {
          "internalType": "address",
          "name": "owner",
          "type": "address"
        }
      ],
      "name": "ERC721IncorrectOwner",
      "type": "error"
    },
    {
      "inputs": [
        {
          "internalType": "address",
          "name": "operator",
          "type": "address"
        },
        {
          "internalType": "uint256",
          "name": "tokenId",
          "type": "uint256"
        }
      ],
      "name": "ERC721InsufficientApproval",
      "type": "error"
    },
    {
      "inputs": [
        {
          "internalType": "address",
          "name": "approver",
          "type": "address"
        }
      ],
      "name": "ERC721InvalidApprover",
      "type": "error"
    },
    {
      "inputs": [
        {
          "internalType": "address",
          "name": "operator",
          "type": "address"
        }
      ],
      "name": "ERC721InvalidOperator",
      "type": "error"
    },
    {
      "inputs": [
        {
          "internalType": "address",
          "name": "owner",
          "type": "address"
        }
      ],
      "name": "ERC721InvalidOwner",
      "type": "error"
    },
    {
      "inputs": [
        {
          "internalType": "address",
          "name": "receiver",
          "type": "address"
        }
      ],
      "name": "ERC721InvalidReceiver",
      "type": "error"
    },
    {
      "inputs": [
        {
          "internalType": "address",
          "name": "sender",
          "type": "address"
        }
      ],
      "name": "ERC721InvalidSender",
      "type": "error"
    },
    {
      "inputs": [
        {
          "internalType": "uint256",
          "name": "tokenId",
          "type": "uint256"
        }
      ],
      "name": "ERC721NonexistentToken",
      "type": "error"
    },
    {
      "anonymous": false,
      "inputs": [
        {
          "indexed": true,
          "internalType": "address",
          "name": "owner",
          "type": "address"
        },
        {
          "indexed": true,
          "internalType": "address",
          "name": "approved",
          "type": "address"
        },
        {
          "indexed": true,
          "internalType": "uint256",
          "name": "tokenId",
          "type": "uint256"
        }
      ],
      "name": "Approval",
      "type": "event"
    },
    {
      "anonymous": false,
      "inputs": [
        {
          "indexed": true,
          "internalType": "address",
          "name": "owner",
          "type": "address"
        },
        {
          "indexed": true,
          "internalType": "address",
          "name": "operator",
          "type": "address"
        },
        {
          "indexed": false,
          "internalType": "bool",
          "name": "approved",
          "type": "bool"
        }
      ],
      "name": "ApprovalForAll",
      "type": "event"
    },
    {
      "anonymous": false,
      "inputs": [
        {
          "indexed": true,
          "internalType": "address",
          "name": "from",
          "type": "address"
        },
        {
          "indexed": true,
          "internalType": "address",
          "name": "to",
          "type": "address"
        },
        {
          "indexed": true,
          "internalType": "uint256",
          "name": "tokenId",
          "type": "uint256"
        }
      ],
      "name": "Transfer",
      "type": "event"
    },
    {
      "inputs": [
        {
          "internalType": "uint256",
          "name": "",
          "type": "uint256"
        }
      ],
      "name": "TOKEN_URI",
      "outputs": [
        {
          "internalType": "string",
          "name": "",
          "type": "string"
        }
      ],
      "stateMutability": "view",
      "type": "function"
    },
    {
      "inputs": [
        {
          "internalType": "address",
          "name": "_man",
          "type": "address"
        }
      ],
      "name": "addManager",
      "outputs": [],
      "stateMutability": "nonpayable",
      "type": "function"
    },
    {
      "inputs": [
        {
          "internalType": "address",
          "name": "to",
          "type": "address"
        },
        {
          "internalType": "uint256",
          "name": "tokenId",
          "type": "uint256"
        }
      ],
      "name": "approve",
      "outputs": [],
      "stateMutability": "nonpayable",
      "type": "function"
    },
    {
      "inputs": [
        {
          "internalType": "address",
          "name": "owner",
          "type": "address"
        }
      ],
      "name": "balanceOf",
      "outputs": [
        {
          "internalType": "uint256",
          "name": "",
          "type": "uint256"
        }
      ],
      "stateMutability": "view",
      "type": "function"
    },
    {
      "inputs": [
        {
          "internalType": "uint256",
          "name": "tokenId",
          "type": "uint256"
        }
      ],
      "name": "getApproved",
      "outputs": [
        {
          "internalType": "address",
          "name": "",
          "type": "address"
        }
      ],
      "stateMutability": "view",
      "type": "function"
    },
    {
      "inputs": [
        {
          "internalType": "address",
          "name": "owner",
          "type": "address"
        },
        {
          "internalType": "address",
          "name": "operator",
          "type": "address"
        }
      ],
      "name": "isApprovedForAll",
      "outputs": [
        {
          "internalType": "bool",
          "name": "",
          "type": "bool"
        }
      ],
      "stateMutability": "view",
      "type": "function"
    },
    {
      "inputs": [],
      "name": "name",
      "outputs": [
        {
          "internalType": "string",
          "name": "",
          "type": "string"
        }
      ],
      "stateMutability": "view",
      "type": "function"
    },
    {
      "inputs": [
        {
          "internalType": "uint256",
          "name": "tokenId",
          "type": "uint256"
        }
      ],
      "name": "ownerOf",
      "outputs": [
        {
          "internalType": "address",
          "name": "",
          "type": "address"
        }
      ],
      "stateMutability": "view",
      "type": "function"
    },
    {
      "inputs": [
        {
          "internalType": "address",
          "name": "from",
          "type": "address"
        },
        {
          "internalType": "address",
          "name": "to",
          "type": "address"
        },
        {
          "internalType": "uint256",
          "name": "tokenId",
          "type": "uint256"
        }
      ],
      "name": "safeTransferFrom",
      "outputs": [],
      "stateMutability": "nonpayable",
      "type": "function"
    },
    {
      "inputs": [
        {
          "internalType": "address",
          "name": "from",
          "type": "address"
        },
        {
          "internalType": "address",
          "name": "to",
          "type": "address"
        },
        {
          "internalType": "uint256",
          "name": "tokenId",
          "type": "uint256"
        },
        {
          "internalType": "bytes",
          "name": "data",
          "type": "bytes"
        }
      ],
      "name": "safeTransferFrom",
      "outputs": [],
      "stateMutability": "nonpayable",
      "type": "function"
    },
    {
      "inputs": [
        {
          "internalType": "address",
          "name": "operator",
          "type": "address"
        },
        {
          "internalType": "bool",
          "name": "approved",
          "type": "bool"
        }
      ],
      "name": "setApprovalForAll",
      "outputs": [],
      "stateMutability": "nonpayable",
      "type": "function"
    },
    {
      "inputs": [
        {
          "internalType": "bytes4",
          "name": "interfaceId",
          "type": "bytes4"
        }
      ],
      "name": "supportsInterface",
      "outputs": [
        {
          "internalType": "bool",
          "name": "",
          "type": "bool"
        }
      ],
      "stateMutability": "view",
      "type": "function"
    },
    {
      "inputs": [],
      "name": "symbol",
      "outputs": [
        {
          "internalType": "string",
          "name": "",
          "type": "string"
        }
      ],
      "stateMutability": "view",
      "type": "function"
    },
    {
      "inputs": [
        {
          "internalType": "uint256",
          "name": "tokenId",
          "type": "uint256"
        }
      ],
      "name": "tokenURI",
      "outputs": [
        {
          "internalType": "string",
          "name": "",
          "type": "string"
        }
      ],
      "stateMutability": "view",
      "type": "function"
    },
    {
      "inputs": [
        {
          "internalType": "address",
          "name": "from",
          "type": "address"
        },
        {
          "internalType": "address",
          "name": "to",
          "type": "address"
        },
        {
          "internalType": "uint256",
          "name": "tokenId",
          "type": "uint256"
        }
      ],
      "name": "transferFrom",
      "outputs": [],
      "stateMutability": "nonpayable",
      "type": "function"
    },
    {
      "inputs": [
        {
          "internalType": "address",
          "name": "to",
          "type": "address"
        }
      ],
      "name": "mint",
      "outputs": [],
      "stateMutability": "nonpayable",
      "type": "function"
    }
  ],
  "bytecode": "0x60806040523480156200001157600080fd5b5060405162002e7938038062002e79833981810160405281019062000037919062000429565b33858581600090816200004b919062000763565b5080600190816200005d919062000763565b50505080600660006101000a81548173ffffffffffffffffffffffffffffffffffffffff021916908373ffffffffffffffffffffffffffffffffffffffff160217905550606360096000600660009054906101000a900473ffffffffffffffffffffffffffffffffffffffff1673ffffffffffffffffffffffffffffffffffffffff1673ffffffffffffffffffffffffffffffffffffffff1681526020019081526020016000208190555033600760006101000a81548173ffffffffffffffffffffffffffffffffffffffff021916908373ffffffffffffffffffffffffffffffffffffffff160217905550600060096000600760009054906101000a900473ffffffffffffffffffffffffffffffffffffffff1673ffffffffffffffffffffffffffffffffffffffff1673ffffffffffffffffffffffffffffffffffffffff168152602001908152602001600020819055505033600760006101000a81548173ffffffffffffffffffffffffffffffffffffffff021916908373ffffffffffffffffffffffffffffffffffffffff16021790555085604051602001620002059190620008b2565b6040516020818303038152906040526010908162000224919062000763565b506001600b8190555082600c8190555081600d8190555080600e8190555065033f506e4400600f81905550505050505050620008dc565b6000604051905090565b600080fd5b600080fd5b600080fd5b600080fd5b6000601f19601f8301169050919050565b7f4e487b7100000000000000000000000000000000000000000000000000000000600052604160045260246000fd5b620002c48262000279565b810181811067ffffffffffffffff82111715620002e657620002e56200028a565b5b80604052505050565b6000620002fb6200025b565b9050620003098282620002b9565b919050565b600067ffffffffffffffff8211156200032c576200032b6200028a565b5b620003378262000279565b9050602081019050919050565b60005b838110156200036457808201518184015260208101905062000347565b60008484015250505050565b60006200038762000381846200030e565b620002ef565b905082815260208101848484011115620003a657620003a562000274565b5b620003b384828562000344565b509392505050565b600082601f830112620003d357620003d26200026f565b5b8151620003e584826020860162000370565b91505092915050565b6000819050919050565b6200040381620003ee565b81146200040f57600080fd5b50565b6000815190506200042381620003f8565b92915050565b60008060008060008060c0878903121562000449576200044862000265565b5b600087015167ffffffffffffffff8111156200046a57620004696200026a565b5b6200047889828a01620003bb565b965050602087015167ffffffffffffffff8111156200049c576200049b6200026a565b5b620004aa89828a01620003bb565b955050604087015167ffffffffffffffff811115620004ce57620004cd6200026a565b5b620004dc89828a01620003bb565b9450506060620004ef89828a0162000412565b93505060806200050289828a0162000412565b92505060a06200051589828a0162000412565b9150509295509295509295565b600081519050919050565b7f4e487b7100000000000000000000000000000000000000000000000000000000600052602260045260246000fd5b600060028204905060018216806200057557607f821691505b6020821081036200058b576200058a6200052d565b5b50919050565b60008190508160005260206000209050919050565b60006020601f8301049050919050565b600082821b905092915050565b600060088302620005f57fffffffffffffffffffffffffffffffffffffffffffffffffffffffffffffffff82620005b6565b620006018683620005b6565b95508019841693508086168417925050509392505050565b6000819050919050565b6000620006446200063e6200063884620003ee565b62000619565b620003ee565b9050919050565b6000819050919050565b620006608362000623565b620006786200066f826200064b565b848454620005c3565b825550505050565b600090565b6200068f62000680565b6200069c81848462000655565b505050565b5b81811015620006c457620006b860008262000685565b600181019050620006a2565b5050565b601f8211156200071357620006dd8162000591565b620006e884620005a6565b81016020851015620006f8578190505b620007106200070785620005a6565b830182620006a1565b50505b505050565b600082821c905092915050565b6000620007386000198460080262000718565b1980831691505092915050565b600062000753838362000725565b9150826002028217905092915050565b6200076e8262000522565b67ffffffffffffffff8111156200078a57620007896200028a565b5b6200079682546200055c565b620007a3828285620006c8565b600060209050601f831160018114620007db5760008415620007c6578287015190505b620007d2858262000745565b86555062000842565b601f198416620007eb8662000591565b60005b828110156200081557848901518255600182019150602085019450602081019050620007ee565b8683101562000835578489015162000831601f89168262000725565b8355505b6001600288020188555050505b505050505050565b7f68747470733a2f2f697066732e696f2f697066732f0000000000000000000000815250565b600081905092915050565b6000620008888262000522565b62000894818562000870565b9350620008a681856020860162000344565b80840191505092915050565b6000620008bf826200084a565b601582019150620008d182846200087b565b915081905092915050565b61258d80620008ec6000396000f3fe608060405234801561001057600080fd5b50600436106101005760003560e01c80636352211e11610097578063a22cb46511610066578063a22cb465146102bd578063b88d4fde146102d9578063c87b56dd146102f5578063e985e9c51461032557610100565b80636352211e146102235780636a6278421461025357806370a082311461026f57806395d89b411461029f57610100565b806312d9d57b116100d357806312d9d57b1461019f57806323b872dd146101cf5780632d06177a146101eb57806342842e0e1461020757610100565b806301ffc9a71461010557806306fdde0314610135578063081812fc14610153578063095ea7b314610183575b600080fd5b61011f600480360381019061011a9190611a3b565b610355565b60405161012c9190611a83565b60405180910390f35b61013d610437565b60405161014a9190611b2e565b60405180910390f35b61016d60048036038101906101689190611b86565b6104c9565b60405161017a9190611bf4565b60405180910390f35b61019d60048036038101906101989190611c3b565b6104e5565b005b6101b960048036038101906101b49190611b86565b6104fb565b6040516101c69190611b2e565b60405180910390f35b6101e960048036038101906101e49190611c7b565b61059b565b005b61020560048036038101906102009190611cce565b61069d565b005b610221600480360381019061021c9190611c7b565b61088f565b005b61023d60048036038101906102389190611b86565b6108af565b60405161024a9190611bf4565b60405180910390f35b61026d60048036038101906102689190611cce565b6108c1565b005b61028960048036038101906102849190611cce565b6109d8565b6040516102969190611d0a565b60405180910390f35b6102a7610a92565b6040516102b49190611b2e565b60405180910390f35b6102d760048036038101906102d29190611d51565b610b24565b005b6102f360048036038101906102ee9190611ec6565b610b3a565b005b61030f600480360381019061030a9190611b86565b610b57565b60405161031c9190611b2e565b60405180910390f35b61033f600480360381019061033a9190611f49565b610bc0565b60405161034c9190611a83565b60405180910390f35b60007f80ac58cd000000000000000000000000000000000000000000000000000000007bffffffffffffffffffffffffffffffffffffffffffffffffffffffff1916827bffffffffffffffffffffffffffffffffffffffffffffffffffffffff1916148061042057507f5b5e139f000000000000000000000000000000000000000000000000000000007bffffffffffffffffffffffffffffffffffffffffffffffffffffffff1916827bffffffffffffffffffffffffffffffffffffffffffffffffffffffff1916145b80610430575061042f82610c54565b5b9050919050565b60606000805461044690611fb8565b80601f016020809104026020016040519081016040528092919081815260200182805461047290611fb8565b80156104bf5780601f10610494576101008083540402835291602001916104bf565b820191906000526020600020905b8154815290600101906020018083116104a257829003601f168201915b5050505050905090565b60006104d482610cbe565b506104de82610d46565b9050919050565b6104f782826104f2610d83565b610d8b565b5050565b6011602052806000526040600020600091509050805461051a90611fb8565b80601f016020809104026020016040519081016040528092919081815260200182805461054690611fb8565b80156105935780601f1061056857610100808354040283529160200191610593565b820191906000526020600020905b81548152906001019060200180831161057657829003601f168201915b505050505081565b600073ffffffffffffffffffffffffffffffffffffffff168273ffffffffffffffffffffffffffffffffffffffff160361060d5760006040517f64a0ae920000000000000000000000000000000000000000000000000000000081526004016106049190611bf4565b60405180910390fd5b6000610621838361061c610d83565b610d9d565b90508373ffffffffffffffffffffffffffffffffffffffff168173ffffffffffffffffffffffffffffffffffffffff1614610697578382826040517f64283d7b00000000000000000000000000000000000000000000000000000000815260040161068e93929190611fe9565b60405180910390fd5b50505050565b3373ffffffffffffffffffffffffffffffffffffffff16600760009054906101000a900473ffffffffffffffffffffffffffffffffffffffff1673ffffffffffffffffffffffffffffffffffffffff1614158061073a57506000600960003373ffffffffffffffffffffffffffffffffffffffff1673ffffffffffffffffffffffffffffffffffffffff1681526020019081526020016000205414155b1561074457600080fd5b6000600960008373ffffffffffffffffffffffffffffffffffffffff1673ffffffffffffffffffffffffffffffffffffffff1681526020019081526020016000205414806107d157506063600960008373ffffffffffffffffffffffffffffffffffffffff1673ffffffffffffffffffffffffffffffffffffffff16815260200190815260200160002054145b156107db57600080fd5b8060086000600a54815260200190815260200160002060006101000a81548173ffffffffffffffffffffffffffffffffffffffff021916908373ffffffffffffffffffffffffffffffffffffffff1602179055506001600960008373ffffffffffffffffffffffffffffffffffffffff1673ffffffffffffffffffffffffffffffffffffffff16815260200190815260200160002081905550600a60008154809291906108879061204f565b919050555050565b6108aa83838360405180602001604052806000815250610b3a565b505050565b60006108ba82610cbe565b9050919050565b3373ffffffffffffffffffffffffffffffffffffffff16600660009054906101000a900473ffffffffffffffffffffffffffffffffffffffff1673ffffffffffffffffffffffffffffffffffffffff1614158061095e57506063600960003373ffffffffffffffffffffffffffffffffffffffff1673ffffffffffffffffffffffffffffffffffffffff1681526020019081526020016000205414155b1561096857600080fd5b61097481600b54610fb7565b6010610981600b54610fd5565b60405160200161099292919061216b565b60405160208183030381529060405260116000600b54815260200190815260200160002090816109c29190612326565b50600b6000815480929190600101919050555050565b60008073ffffffffffffffffffffffffffffffffffffffff168273ffffffffffffffffffffffffffffffffffffffff1603610a4b5760006040517f89c62b64000000000000000000000000000000000000000000000000000000008152600401610a429190611bf4565b60405180910390fd5b600360008373ffffffffffffffffffffffffffffffffffffffff1673ffffffffffffffffffffffffffffffffffffffff168152602001908152602001600020549050919050565b606060018054610aa190611fb8565b80601f0160208091040260200160405190810160405280929190818152602001828054610acd90611fb8565b8015610b1a5780601f10610aef57610100808354040283529160200191610b1a565b820191906000526020600020905b815481529060010190602001808311610afd57829003601f168201915b5050505050905090565b610b36610b2f610d83565b83836110a3565b5050565b610b4584848461059b565b610b5184848484611212565b50505050565b6060610b6282610cbe565b506000610b6d6113c9565b90506000815111610b8d5760405180602001604052806000815250610bb8565b80610b9784610fd5565b604051602001610ba89291906123f8565b6040516020818303038152906040525b915050919050565b6000600560008473ffffffffffffffffffffffffffffffffffffffff1673ffffffffffffffffffffffffffffffffffffffff16815260200190815260200160002060008373ffffffffffffffffffffffffffffffffffffffff1673ffffffffffffffffffffffffffffffffffffffff16815260200190815260200160002060009054906101000a900460ff16905092915050565b60007f01ffc9a7000000000000000000000000000000000000000000000000000000007bffffffffffffffffffffffffffffffffffffffffffffffffffffffff1916827bffffffffffffffffffffffffffffffffffffffffffffffffffffffff1916149050919050565b600080610cca836113e0565b9050600073ffffffffffffffffffffffffffffffffffffffff168173ffffffffffffffffffffffffffffffffffffffff1603610d3d57826040517f7e273289000000000000000000000000000000000000000000000000000000008152600401610d349190611d0a565b60405180910390fd5b80915050919050565b60006004600083815260200190815260200160002060009054906101000a900473ffffffffffffffffffffffffffffffffffffffff169050919050565b600033905090565b610d98838383600161141d565b505050565b600080610da9846113e0565b9050600073ffffffffffffffffffffffffffffffffffffffff168373ffffffffffffffffffffffffffffffffffffffff1614610deb57610dea8184866115e2565b5b600073ffffffffffffffffffffffffffffffffffffffff168173ffffffffffffffffffffffffffffffffffffffff1614610e7c57610e2d60008560008061141d565b6001600360008373ffffffffffffffffffffffffffffffffffffffff1673ffffffffffffffffffffffffffffffffffffffff168152602001908152602001600020600082825403925050819055505b600073ffffffffffffffffffffffffffffffffffffffff168573ffffffffffffffffffffffffffffffffffffffff1614610eff576001600360008773ffffffffffffffffffffffffffffffffffffffff1673ffffffffffffffffffffffffffffffffffffffff168152602001908152602001600020600082825401925050819055505b846002600086815260200190815260200160002060006101000a81548173ffffffffffffffffffffffffffffffffffffffff021916908373ffffffffffffffffffffffffffffffffffffffff160217905550838573ffffffffffffffffffffffffffffffffffffffff168273ffffffffffffffffffffffffffffffffffffffff167fddf252ad1be2c89b69c2b068fc378daa952ba7f163c4a11628f55a4df523b3ef60405160405180910390a4809150509392505050565b610fd18282604051806020016040528060008152506116a6565b5050565b606060006001610fe4846116c2565b01905060008167ffffffffffffffff81111561100357611002611d9b565b5b6040519080825280601f01601f1916602001820160405280156110355781602001600182028036833780820191505090505b509050600082602001820190505b600115611098578080600190039150507f3031323334353637383961626364656600000000000000000000000000000000600a86061a8153600a858161108c5761108b61241c565b5b04945060008503611043575b819350505050919050565b600073ffffffffffffffffffffffffffffffffffffffff168273ffffffffffffffffffffffffffffffffffffffff160361111457816040517f5b08ba1800000000000000000000000000000000000000000000000000000000815260040161110b9190611bf4565b60405180910390fd5b80600560008573ffffffffffffffffffffffffffffffffffffffff1673ffffffffffffffffffffffffffffffffffffffff16815260200190815260200160002060008473ffffffffffffffffffffffffffffffffffffffff1673ffffffffffffffffffffffffffffffffffffffff16815260200190815260200160002060006101000a81548160ff0219169083151502179055508173ffffffffffffffffffffffffffffffffffffffff168373ffffffffffffffffffffffffffffffffffffffff167f17307eab39ab6107e8899845ad3d59bd9653f200f220920489ca2b5937696c31836040516112059190611a83565b60405180910390a3505050565b60008373ffffffffffffffffffffffffffffffffffffffff163b11156113c3578273ffffffffffffffffffffffffffffffffffffffff1663150b7a02611256610d83565b8685856040518563ffffffff1660e01b815260040161127894939291906124a0565b6020604051808303816000875af19250505080156112b457506040513d601f19601f820116820180604052508101906112b19190612501565b60015b611338573d80600081146112e4576040519150601f19603f3d011682016040523d82523d6000602084013e6112e9565b606091505b50600081510361133057836040517f64a0ae920000000000000000000000000000000000000000000000000000000081526004016113279190611bf4565b60405180910390fd5b805181602001fd5b63150b7a0260e01b7bffffffffffffffffffffffffffffffffffffffffffffffffffffffff1916817bffffffffffffffffffffffffffffffffffffffffffffffffffffffff1916146113c157836040517f64a0ae920000000000000000000000000000000000000000000000000000000081526004016113b89190611bf4565b60405180910390fd5b505b50505050565b606060405180602001604052806000815250905090565b60006002600083815260200190815260200160002060009054906101000a900473ffffffffffffffffffffffffffffffffffffffff169050919050565b80806114565750600073ffffffffffffffffffffffffffffffffffffffff168273ffffffffffffffffffffffffffffffffffffffff1614155b1561158a57600061146684610cbe565b9050600073ffffffffffffffffffffffffffffffffffffffff168373ffffffffffffffffffffffffffffffffffffffff16141580156114d157508273ffffffffffffffffffffffffffffffffffffffff168173ffffffffffffffffffffffffffffffffffffffff1614155b80156114e457506114e28184610bc0565b155b1561152657826040517fa9fbf51f00000000000000000000000000000000000000000000000000000000815260040161151d9190611bf4565b60405180910390fd5b811561158857838573ffffffffffffffffffffffffffffffffffffffff168273ffffffffffffffffffffffffffffffffffffffff167f8c5be1e5ebec7d5bd14f71427d1e84f3dd0314c0f7b2291e5b200ac8c7c3b92560405160405180910390a45b505b836004600085815260200190815260200160002060006101000a81548173ffffffffffffffffffffffffffffffffffffffff021916908373ffffffffffffffffffffffffffffffffffffffff16021790555050505050565b6115ed838383611815565b6116a157600073ffffffffffffffffffffffffffffffffffffffff168373ffffffffffffffffffffffffffffffffffffffff160361166257806040517f7e2732890000000000000000000000000000000000000000000000000000000081526004016116599190611d0a565b60405180910390fd5b81816040517f177e802f00000000000000000000000000000000000000000000000000000000815260040161169892919061252e565b60405180910390fd5b505050565b6116b083836118d6565b6116bd6000848484611212565b505050565b600080600090507a184f03e93ff9f4daa797ed6e38ed64bf6a1f0100000000000000008310611720577a184f03e93ff9f4daa797ed6e38ed64bf6a1f01000000000000000083816117165761171561241c565b5b0492506040810190505b6d04ee2d6d415b85acef8100000000831061175d576d04ee2d6d415b85acef810000000083816117535761175261241c565b5b0492506020810190505b662386f26fc10000831061178c57662386f26fc1000083816117825761178161241c565b5b0492506010810190505b6305f5e10083106117b5576305f5e10083816117ab576117aa61241c565b5b0492506008810190505b61271083106117da5761271083816117d0576117cf61241c565b5b0492506004810190505b606483106117fd57606483816117f3576117f261241c565b5b0492506002810190505b600a831061180c576001810190505b80915050919050565b60008073ffffffffffffffffffffffffffffffffffffffff168373ffffffffffffffffffffffffffffffffffffffff16141580156118cd57508273ffffffffffffffffffffffffffffffffffffffff168473ffffffffffffffffffffffffffffffffffffffff16148061188e575061188d8484610bc0565b5b806118cc57508273ffffffffffffffffffffffffffffffffffffffff166118b483610d46565b73ffffffffffffffffffffffffffffffffffffffff16145b5b90509392505050565b600073ffffffffffffffffffffffffffffffffffffffff168273ffffffffffffffffffffffffffffffffffffffff16036119485760006040517f64a0ae9200000000000000000000000000000000000000000000000000000000815260040161193f9190611bf4565b60405180910390fd5b600061195683836000610d9d565b9050600073ffffffffffffffffffffffffffffffffffffffff168173ffffffffffffffffffffffffffffffffffffffff16146119ca5760006040517f73c6ac6e0000000000000000000000000000000000000000000000000000000081526004016119c19190611bf4565b60405180910390fd5b505050565b6000604051905090565b600080fd5b600080fd5b60007fffffffff0000000000000000000000000000000000000000000000000000000082169050919050565b611a18816119e3565b8114611a2357600080fd5b50565b600081359050611a3581611a0f565b92915050565b600060208284031215611a5157611a506119d9565b5b6000611a5f84828501611a26565b91505092915050565b60008115159050919050565b611a7d81611a68565b82525050565b6000602082019050611a986000830184611a74565b92915050565b600081519050919050565b600082825260208201905092915050565b60005b83811015611ad8578082015181840152602081019050611abd565b60008484015250505050565b6000601f19601f8301169050919050565b6000611b0082611a9e565b611b0a8185611aa9565b9350611b1a818560208601611aba565b611b2381611ae4565b840191505092915050565b60006020820190508181036000830152611b488184611af5565b905092915050565b6000819050919050565b611b6381611b50565b8114611b6e57600080fd5b50565b600081359050611b8081611b5a565b92915050565b600060208284031215611b9c57611b9b6119d9565b5b6000611baa84828501611b71565b91505092915050565b600073ffffffffffffffffffffffffffffffffffffffff82169050919050565b6000611bde82611bb3565b9050919050565b611bee81611bd3565b82525050565b6000602082019050611c096000830184611be5565b92915050565b611c1881611bd3565b8114611c2357600080fd5b50565b600081359050611c3581611c0f565b92915050565b60008060408385031215611c5257611c516119d9565b5b6000611c6085828601611c26565b9250506020611c7185828601611b71565b9150509250929050565b600080600060608486031215611c9457611c936119d9565b5b6000611ca286828701611c26565b9350506020611cb386828701611c26565b9250506040611cc486828701611b71565b9150509250925092565b600060208284031215611ce457611ce36119d9565b5b6000611cf284828501611c26565b91505092915050565b611d0481611b50565b82525050565b6000602082019050611d1f6000830184611cfb565b92915050565b611d2e81611a68565b8114611d3957600080fd5b50565b600081359050611d4b81611d25565b92915050565b60008060408385031215611d6857611d676119d9565b5b6000611d7685828601611c26565b9250506020611d8785828601611d3c565b9150509250929050565b600080fd5b600080fd5b7f4e487b7100000000000000000000000000000000000000000000000000000000600052604160045260246000fd5b611dd382611ae4565b810181811067ffffffffffffffff82111715611df257611df1611d9b565b5b80604052505050565b6000611e056119cf565b9050611e118282611dca565b919050565b600067ffffffffffffffff821115611e3157611e30611d9b565b5b611e3a82611ae4565b9050602081019050919050565b82818337600083830152505050565b6000611e69611e6484611e16565b611dfb565b905082815260208101848484011115611e8557611e84611d96565b5b611e90848285611e47565b509392505050565b600082601f830112611ead57611eac611d91565b5b8135611ebd848260208601611e56565b91505092915050565b60008060008060808587031215611ee057611edf6119d9565b5b6000611eee87828801611c26565b9450506020611eff87828801611c26565b9350506040611f1087828801611b71565b925050606085013567ffffffffffffffff811115611f3157611f306119de565b5b611f3d87828801611e98565b91505092959194509250565b60008060408385031215611f6057611f5f6119d9565b5b6000611f6e85828601611c26565b9250506020611f7f85828601611c26565b9150509250929050565b7f4e487b7100000000000000000000000000000000000000000000000000000000600052602260045260246000fd5b60006002820490506001821680611fd057607f821691505b602082108103611fe357611fe2611f89565b5b50919050565b6000606082019050611ffe6000830186611be5565b61200b6020830185611cfb565b6120186040830184611be5565b949350505050565b7f4e487b7100000000000000000000000000000000000000000000000000000000600052601160045260246000fd5b600061205a82611b50565b91507fffffffffffffffffffffffffffffffffffffffffffffffffffffffffffffffff820361208c5761208b612020565b5b600182019050919050565b600081905092915050565b60008190508160005260206000209050919050565b600081546120c481611fb8565b6120ce8186612097565b945060018216600081146120e957600181146120fe57612131565b60ff1983168652811515820286019350612131565b612107856120a2565b60005b838110156121295781548189015260018201915060208101905061210a565b838801955050505b50505092915050565b600061214582611a9e565b61214f8185612097565b935061215f818560208601611aba565b80840191505092915050565b600061217782856120b7565b9150612183828461213a565b91508190509392505050565b60006020601f8301049050919050565b600082821b905092915050565b6000600883026121dc7fffffffffffffffffffffffffffffffffffffffffffffffffffffffffffffffff8261219f565b6121e6868361219f565b95508019841693508086168417925050509392505050565b6000819050919050565b600061222361221e61221984611b50565b6121fe565b611b50565b9050919050565b6000819050919050565b61223d83612208565b6122516122498261222a565b8484546121ac565b825550505050565b600090565b612266612259565b612271818484612234565b505050565b5b818110156122955761228a60008261225e565b600181019050612277565b5050565b601f8211156122da576122ab816120a2565b6122b48461218f565b810160208510156122c3578190505b6122d76122cf8561218f565b830182612276565b50505b505050565b600082821c905092915050565b60006122fd600019846008026122df565b1980831691505092915050565b600061231683836122ec565b9150826002028217905092915050565b61232f82611a9e565b67ffffffffffffffff81111561234857612347611d9b565b5b6123528254611fb8565b61235d828285612299565b600060209050601f831160018114612390576000841561237e578287015190505b612388858261230a565b8655506123f0565b601f19841661239e866120a2565b60005b828110156123c6578489015182556001820191506020850194506020810190506123a1565b868310156123e357848901516123df601f8916826122ec565b8355505b6001600288020188555050505b505050505050565b6000612404828561213a565b9150612410828461213a565b91508190509392505050565b7f4e487b7100000000000000000000000000000000000000000000000000000000600052601260045260246000fd5b600081519050919050565b600082825260208201905092915050565b60006124728261244b565b61247c8185612456565b935061248c818560208601611aba565b61249581611ae4565b840191505092915050565b60006080820190506124b56000830187611be5565b6124c26020830186611be5565b6124cf6040830185611cfb565b81810360608301526124e18184612467565b905095945050505050565b6000815190506124fb81611a0f565b92915050565b600060208284031215612517576125166119d9565b5b6000612525848285016124ec565b91505092915050565b60006040820190506125436000830185611be5565b6125506020830184611cfb565b939250505056fea2646970667358221220444b62ad6c78125752cd789ab5ced5bd2e2f82c7dec1f201733c6616bf1f11b864736f6c63430008170033",
  "immutableReferences": {},
  "source": "// SPDX-License-Identifier: MIT\npragma solidity ^0.8.19;\n\nimport \"@openzeppelin/contracts/token/ERC721/ERC721.sol\";\nimport \"./utils/Administration.sol\";\n\ncontract NFTemp is ERC721, Administration {\n    \n    uint tokenId;\n    uint tokenAmount;\n    uint mintLimit;\n    uint tokenPrice;\n    uint digits;\n\n    string BASE_URI;\n\n    mapping(uint => string) public TOKEN_URI;\n\n    constructor(string memory _baseHSH,string memory _name, string memory _sym, uint _amnt, uint _limit, uint _price) ERC721(_name, _sym) Administration(msg.sender) {\n        admin = msg.sender;\n        BASE_URI = string.concat(\"https://ipfs.io/ipfs/\", _baseHSH);\n        tokenId = 1;\n        tokenAmount = _amnt;\n        mintLimit = _limit;\n        tokenPrice = _price;\n        digits = 18 ** 10;\n    }\n\n    function mint(address to) public onlyOwner {\n        _safeMint(to, tokenId);\n        TOKEN_URI[tokenId] = string.concat(BASE_URI, Strings.toString(tokenId)); \n        unchecked {\n            tokenId++;\n        }\n    }\n}",
  "sourcePath": "/Users/iii6/Documents/GitHub/iii6v2/iii6v2/contracts/NFTemp.sol",
  "compiler": {
    "name": "solc",
    "version": "0.8.23+commit.f704f362.Emscripten.clang"
  },
  "schemaVersion": "3.4.16",
  "updatedAt": "2023-12-05T23:55:20.081Z",
  "devdoc": {
    "errors": {
      "ERC721IncorrectOwner(address,uint256,address)": [
        {
          "details": "Indicates an error related to the ownership over a particular token. Used in transfers.",
          "params": {
            "owner": "Address of the current owner of a token.",
            "sender": "Address whose tokens are being transferred.",
            "tokenId": "Identifier number of a token."
          }
        }
      ],
      "ERC721InsufficientApproval(address,uint256)": [
        {
          "details": "Indicates a failure with the `operator`s approval. Used in transfers.",
          "params": {
            "operator": "Address that may be allowed to operate on tokens without being their owner.",
            "tokenId": "Identifier number of a token."
          }
        }
      ],
      "ERC721InvalidApprover(address)": [
        {
          "details": "Indicates a failure with the `approver` of a token to be approved. Used in approvals.",
          "params": {
            "approver": "Address initiating an approval operation."
          }
        }
      ],
      "ERC721InvalidOperator(address)": [
        {
          "details": "Indicates a failure with the `operator` to be approved. Used in approvals.",
          "params": {
            "operator": "Address that may be allowed to operate on tokens without being their owner."
          }
        }
      ],
      "ERC721InvalidOwner(address)": [
        {
          "details": "Indicates that an address can't be an owner. For example, `address(0)` is a forbidden owner in EIP-20. Used in balance queries.",
          "params": {
            "owner": "Address of the current owner of a token."
          }
        }
      ],
      "ERC721InvalidReceiver(address)": [
        {
          "details": "Indicates a failure with the token `receiver`. Used in transfers.",
          "params": {
            "receiver": "Address to which tokens are being transferred."
          }
        }
      ],
      "ERC721InvalidSender(address)": [
        {
          "details": "Indicates a failure with the token `sender`. Used in transfers.",
          "params": {
            "sender": "Address whose tokens are being transferred."
          }
        }
      ],
      "ERC721NonexistentToken(uint256)": [
        {
          "details": "Indicates a `tokenId` whose `owner` is the zero address.",
          "params": {
            "tokenId": "Identifier number of a token."
          }
        }
      ]
    },
    "events": {
      "Approval(address,address,uint256)": {
        "details": "Emitted when `owner` enables `approved` to manage the `tokenId` token."
      },
      "ApprovalForAll(address,address,bool)": {
        "details": "Emitted when `owner` enables or disables (`approved`) `operator` to manage all of its assets."
      },
      "Transfer(address,address,uint256)": {
        "details": "Emitted when `tokenId` token is transferred from `from` to `to`."
      }
    },
    "kind": "dev",
    "methods": {
      "approve(address,uint256)": {
        "details": "See {IERC721-approve}."
      },
      "balanceOf(address)": {
        "details": "See {IERC721-balanceOf}."
      },
      "getApproved(uint256)": {
        "details": "See {IERC721-getApproved}."
      },
      "isApprovedForAll(address,address)": {
        "details": "See {IERC721-isApprovedForAll}."
      },
      "name()": {
        "details": "See {IERC721Metadata-name}."
      },
      "ownerOf(uint256)": {
        "details": "See {IERC721-ownerOf}."
      },
      "safeTransferFrom(address,address,uint256)": {
        "details": "See {IERC721-safeTransferFrom}."
      },
      "safeTransferFrom(address,address,uint256,bytes)": {
        "details": "See {IERC721-safeTransferFrom}."
      },
      "setApprovalForAll(address,bool)": {
        "details": "See {IERC721-setApprovalForAll}."
      },
      "supportsInterface(bytes4)": {
        "details": "See {IERC165-supportsInterface}."
      },
      "symbol()": {
        "details": "See {IERC721Metadata-symbol}."
      },
      "tokenURI(uint256)": {
        "details": "See {IERC721Metadata-tokenURI}."
      },
      "transferFrom(address,address,uint256)": {
        "details": "See {IERC721-transferFrom}."
      }
    },
    "version": 1
  },
  "userdoc": {
    "kind": "user",
    "methods": {},
    "version": 1
  }
}