{
  "contractName": "s0xFactory",
  "abi": [
    {
      "inputs": [],
      "stateMutability": "nonpayable",
      "type": "constructor"
    },
    {
      "inputs": [
        {
          "internalType": "address",
          "name": "_adr",
          "type": "address"
        }
      ],
      "name": "addedConnection",
      "outputs": [
        {
          "internalType": "uint256",
          "name": "",
          "type": "uint256"
        }
      ],
      "stateMutability": "nonpayable",
      "type": "function"
    },
    {
      "inputs": [
        {
          "internalType": "address",
          "name": "_adr",
          "type": "address"
        },
        {
          "internalType": "string",
          "name": "_dias",
          "type": "string"
        },
        {
          "internalType": "uint256",
          "name": "_r",
          "type": "uint256"
        }
      ],
      "name": "adminEditUser",
      "outputs": [
        {
          "internalType": "bool",
          "name": "",
          "type": "bool"
        }
      ],
      "stateMutability": "nonpayable",
      "type": "function"
    },
    {
      "inputs": [
        {
          "internalType": "string",
          "name": "_dias",
          "type": "string"
        },
        {
          "internalType": "address",
          "name": "_user",
          "type": "address"
        },
        {
          "internalType": "string",
          "name": "_name",
          "type": "string"
        }
      ],
      "name": "createUserAccount",
      "outputs": [
        {
          "internalType": "bool",
          "name": "",
          "type": "bool"
        }
      ],
      "stateMutability": "nonpayable",
      "type": "function"
    },
    {
      "inputs": [
        {
          "internalType": "string",
          "name": "_dias",
          "type": "string"
        }
      ],
      "name": "editUser",
      "outputs": [
        {
          "internalType": "bool",
          "name": "",
          "type": "bool"
        }
      ],
      "stateMutability": "nonpayable",
      "type": "function"
    },
    {
      "inputs": [],
      "name": "friends",
      "outputs": [
        {
          "internalType": "contract s0xFriends",
          "name": "",
          "type": "address"
        }
      ],
      "stateMutability": "view",
      "type": "function",
      "constant": true
    },
    {
      "inputs": [
        {
          "internalType": "address",
          "name": "",
          "type": "address"
        },
        {
          "internalType": "uint256",
          "name": "",
          "type": "uint256"
        }
      ],
      "name": "groupByCount",
      "outputs": [
        {
          "internalType": "address",
          "name": "",
          "type": "address"
        }
      ],
      "stateMutability": "view",
      "type": "function",
      "constant": true
    },
    {
      "inputs": [
        {
          "internalType": "address",
          "name": "",
          "type": "address"
        }
      ],
      "name": "groupCount",
      "outputs": [
        {
          "internalType": "uint256",
          "name": "",
          "type": "uint256"
        }
      ],
      "stateMutability": "view",
      "type": "function",
      "constant": true
    },
    {
      "inputs": [],
      "name": "groups",
      "outputs": [
        {
          "internalType": "contract s0xGroups",
          "name": "",
          "type": "address"
        }
      ],
      "stateMutability": "view",
      "type": "function",
      "constant": true
    },
    {
      "inputs": [
        {
          "internalType": "address",
          "name": "",
          "type": "address"
        }
      ],
      "name": "impx",
      "outputs": [
        {
          "internalType": "uint256",
          "name": "action",
          "type": "uint256"
        },
        {
          "internalType": "uint256",
          "name": "connection",
          "type": "uint256"
        },
        {
          "internalType": "uint256",
          "name": "liquidity",
          "type": "uint256"
        }
      ],
      "stateMutability": "view",
      "type": "function",
      "constant": true
    },
    {
      "inputs": [
        {
          "internalType": "address",
          "name": "",
          "type": "address"
        }
      ],
      "name": "isUser",
      "outputs": [
        {
          "internalType": "bool",
          "name": "",
          "type": "bool"
        }
      ],
      "stateMutability": "view",
      "type": "function",
      "constant": true
    },
    {
      "inputs": [
        {
          "internalType": "address",
          "name": "",
          "type": "address"
        },
        {
          "internalType": "uint256",
          "name": "",
          "type": "uint256"
        }
      ],
      "name": "myGroupByCount",
      "outputs": [
        {
          "internalType": "address",
          "name": "",
          "type": "address"
        }
      ],
      "stateMutability": "view",
      "type": "function",
      "constant": true
    },
    {
      "inputs": [
        {
          "internalType": "address",
          "name": "",
          "type": "address"
        }
      ],
      "name": "myGroupCount",
      "outputs": [
        {
          "internalType": "uint256",
          "name": "",
          "type": "uint256"
        }
      ],
      "stateMutability": "view",
      "type": "function",
      "constant": true
    },
    {
      "inputs": [
        {
          "internalType": "address",
          "name": "",
          "type": "address"
        }
      ],
      "name": "name",
      "outputs": [
        {
          "internalType": "string",
          "name": "",
          "type": "string"
        }
      ],
      "stateMutability": "view",
      "type": "function",
      "constant": true
    },
    {
      "inputs": [
        {
          "internalType": "address",
          "name": "",
          "type": "address"
        }
      ],
      "name": "roles",
      "outputs": [
        {
          "internalType": "uint256",
          "name": "",
          "type": "uint256"
        }
      ],
      "stateMutability": "view",
      "type": "function",
      "constant": true
    },
    {
      "inputs": [
        {
          "internalType": "address",
          "name": "_adr",
          "type": "address"
        }
      ],
      "name": "showImpx",
      "outputs": [
        {
          "internalType": "uint256",
          "name": "",
          "type": "uint256"
        },
        {
          "internalType": "uint256",
          "name": "",
          "type": "uint256"
        },
        {
          "internalType": "uint256",
          "name": "",
          "type": "uint256"
        }
      ],
      "stateMutability": "view",
      "type": "function",
      "constant": true
    },
    {
      "inputs": [
        {
          "internalType": "address",
          "name": "_adr",
          "type": "address"
        }
      ],
      "name": "showUser",
      "outputs": [
        {
          "internalType": "string",
          "name": "",
          "type": "string"
        }
      ],
      "stateMutability": "view",
      "type": "function",
      "constant": true
    },
    {
      "inputs": [
        {
          "internalType": "address",
          "name": "",
          "type": "address"
        }
      ],
      "name": "users",
      "outputs": [
        {
          "internalType": "bytes",
          "name": "",
          "type": "bytes"
        }
      ],
      "stateMutability": "view",
      "type": "function",
      "constant": true
    },
    {
      "inputs": [
        {
          "internalType": "address",
          "name": "_adr",
          "type": "address"
        },
        {
          "internalType": "address",
          "name": "_group",
          "type": "address"
        },
        {
          "internalType": "string",
          "name": "_p",
          "type": "string"
        }
      ],
      "name": "addUserToGroup",
      "outputs": [
        {
          "internalType": "address",
          "name": "",
          "type": "address"
        }
      ],
      "stateMutability": "nonpayable",
      "type": "function"
    },
    {
      "inputs": [
        {
          "internalType": "address",
          "name": "_adr",
          "type": "address"
        },
        {
          "internalType": "address",
          "name": "_group",
          "type": "address"
        }
      ],
      "name": "delUserFromGroup",
      "outputs": [
        {
          "internalType": "address",
          "name": "",
          "type": "address"
        }
      ],
      "stateMutability": "nonpayable",
      "type": "function"
    },
    {
      "inputs": [
        {
          "internalType": "string",
          "name": "_name",
          "type": "string"
        },
        {
          "internalType": "uint256",
          "name": "_state",
          "type": "uint256"
        },
        {
          "internalType": "string",
          "name": "_p",
          "type": "string"
        },
        {
          "internalType": "address[]",
          "name": "_usrs",
          "type": "address[]"
        }
      ],
      "name": "createGroup",
      "outputs": [
        {
          "internalType": "address",
          "name": "",
          "type": "address"
        }
      ],
      "stateMutability": "nonpayable",
      "type": "function"
    },
    {
      "inputs": [
        {
          "internalType": "string",
          "name": "_name",
          "type": "string"
        },
        {
          "internalType": "address",
          "name": "_usr",
          "type": "address"
        }
      ],
      "name": "createConvo",
      "outputs": [
        {
          "internalType": "address",
          "name": "",
          "type": "address"
        }
      ],
      "stateMutability": "nonpayable",
      "type": "function"
    }
  ],
  "bytecode": "0x60806040523480156200001157600080fd5b50336000806101000a81548173ffffffffffffffffffffffffffffffffffffffff021916908373ffffffffffffffffffffffffffffffffffffffff160217905550620000d560008054906101000a900473ffffffffffffffffffffffffffffffffffffffff166040518060a00160405280607d815260200162008e9b607d913960636040518060400160405280600881526020017f73307841646d696e000000000000000000000000000000000000000000000000815250620001b860201b60201c565b5030604051620000e5906200037e565b620000f19190620003d1565b604051809103906000f0801580156200010e573d6000803e3d6000fd5b50600660006101000a81548173ffffffffffffffffffffffffffffffffffffffff021916908373ffffffffffffffffffffffffffffffffffffffff160217905550600660009054906101000a900473ffffffffffffffffffffffffffffffffffffffff16600860006101000a81548173ffffffffffffffffffffffffffffffffffffffff021916908373ffffffffffffffffffffffffffffffffffffffff160217905550620008a6565b600083600160008773ffffffffffffffffffffffffffffffffffffffff1673ffffffffffffffffffffffffffffffffffffffff168152602001908152602001600020908162000208919062000668565b506001600260008773ffffffffffffffffffffffffffffffffffffffff1673ffffffffffffffffffffffffffffffffffffffff16815260200190815260200160002060006101000a81548160ff02191690831515021790555082600360008773ffffffffffffffffffffffffffffffffffffffff1673ffffffffffffffffffffffffffffffffffffffff16815260200190815260200160002081905550604051806060016040528060008152602001600081526020016000815250600460008773ffffffffffffffffffffffffffffffffffffffff1673ffffffffffffffffffffffffffffffffffffffff16815260200190815260200160002060008201518160000155602082015181600101556040820151816002015590505081600560008773ffffffffffffffffffffffffffffffffffffffff1673ffffffffffffffffffffffffffffffffffffffff1681526020019081526020016000209081620003719190620007bf565b5060019050949350505050565b612ced80620061ae83390190565b600073ffffffffffffffffffffffffffffffffffffffff82169050919050565b6000620003b9826200038c565b9050919050565b620003cb81620003ac565b82525050565b6000602082019050620003e86000830184620003c0565b92915050565b600081519050919050565b7f4e487b7100000000000000000000000000000000000000000000000000000000600052604160045260246000fd5b7f4e487b7100000000000000000000000000000000000000000000000000000000600052602260045260246000fd5b600060028204905060018216806200047057607f821691505b60208210810362000486576200048562000428565b5b50919050565b60008190508160005260206000209050919050565b60006020601f8301049050919050565b600082821b905092915050565b600060088302620004f07fffffffffffffffffffffffffffffffffffffffffffffffffffffffffffffffff82620004b1565b620004fc8683620004b1565b95508019841693508086168417925050509392505050565b6000819050919050565b6000819050919050565b600062000549620005436200053d8462000514565b6200051e565b62000514565b9050919050565b6000819050919050565b620005658362000528565b6200057d620005748262000550565b848454620004be565b825550505050565b600090565b6200059462000585565b620005a18184846200055a565b505050565b5b81811015620005c957620005bd6000826200058a565b600181019050620005a7565b5050565b601f8211156200061857620005e2816200048c565b620005ed84620004a1565b81016020851015620005fd578190505b620006156200060c85620004a1565b830182620005a6565b50505b505050565b600082821c905092915050565b60006200063d600019846008026200061d565b1980831691505092915050565b60006200065883836200062a565b9150826002028217905092915050565b6200067382620003ee565b67ffffffffffffffff8111156200068f576200068e620003f9565b5b6200069b825462000457565b620006a8828285620005cd565b600060209050601f831160018114620006e05760008415620006cb578287015190505b620006d785826200064a565b86555062000747565b601f198416620006f0866200048c565b60005b828110156200071a57848901518255600182019150602085019450602081019050620006f3565b868310156200073a578489015162000736601f8916826200062a565b8355505b6001600288020188555050505b505050505050565b600081519050919050565b60008190508160005260206000209050919050565b601f821115620007ba5762000784816200075a565b6200078f84620004a1565b810160208510156200079f578190505b620007b7620007ae85620004a1565b830182620005a6565b50505b505050565b620007ca826200074f565b67ffffffffffffffff811115620007e657620007e5620003f9565b5b620007f2825462000457565b620007ff8282856200076f565b600060209050601f83116001811462000837576000841562000822578287015190505b6200082e85826200064a565b8655506200089e565b601f19841662000847866200075a565b60005b8281101562000871578489015182556001820191506020850194506020810190506200084a565b868310156200089157848901516200088d601f8916826200062a565b8355505b6001600288020188555050505b505050505050565b6158f880620008b66000396000f3fe60806040523480156200001157600080fd5b5060043610620001545760003560e01c80638b006d6c11620000c9578063b723147e1162000087578063b723147e146200045d578063bd9980111462000493578063c2a59c7714620004c9578063cf92cddd1462000501578063d328e8401462000537578063f3390581146200056d5762000154565b80638b006d6c146200034f578063993746421462000385578063a87430ba14620003bb578063b0ca278e14620003f1578063b571b38614620004275762000154565b80635bf89d9e11620001175780635bf89d9e146200026757806381754494146200028957806382f7a58814620002bf578063837b4b1514620002f75780638784e008146200032d5762000154565b80630198489214620001595780631fcc608b146200018f57806337dfd16214620001c55780634209fff114620001fb578063517fe4de1462000231575b600080fd5b62000177600480360381019062000171919062001903565b620005a3565b604051620001869190620019cf565b60405180910390f35b620001ad6004803603810190620001a7919062001a2e565b6200064b565b604051620001bc919062001a86565b60405180910390f35b620001e36004803603810190620001dd919062001c5d565b6200068d565b604051620001f2919062001d19565b60405180910390f35b62000219600480360381019062000213919062001903565b620006ec565b60405162000228919062001d19565b60405180910390f35b6200024f600480360381019062000249919062001903565b6200070c565b6040516200025e9190620019cf565b60405180910390f35b62000271620007e5565b60405162000280919062001da1565b60405180910390f35b620002a76004803603810190620002a1919062001dbe565b6200080b565b604051620002b6919062001d19565b60405180910390f35b620002dd6004803603810190620002d7919062001903565b620008f7565b604051620002ee9392919062001e20565b60405180910390f35b6200031560048036038101906200030f919062001903565b620009d2565b60405162000324919062001e5d565b60405180910390f35b62000337620009ea565b60405162000346919062001e9f565b60405180910390f35b6200036d600480360381019062000367919062001ebc565b62000a10565b6040516200037c919062001d19565b60405180910390f35b620003a360048036038101906200039d919062001903565b62000b58565b604051620003b2919062001e5d565b60405180910390f35b620003d96004803603810190620003d3919062001903565b62000b70565b604051620003e8919062001f94565b60405180910390f35b6200040f600480360381019062000409919062001903565b62000c18565b6040516200041e919062001e5d565b60405180910390f35b6200044560048036038101906200043f919062002017565b62000c30565b60405162000454919062001a86565b60405180910390f35b6200047b600480360381019062000475919062001a2e565b62000d75565b6040516200048a919062001a86565b60405180910390f35b620004b16004803603810190620004ab9190620020f4565b62000db7565b604051620004c0919062001a86565b60405180910390f35b620004e76004803603810190620004e1919062001903565b62000dcf565b604051620004f89392919062001e20565b60405180910390f35b6200051f60048036038101906200051991906200216f565b62000df9565b6040516200052e919062001a86565b60405180910390f35b6200055560048036038101906200054f919062001903565b62000e8b565b60405162000564919062001e5d565b60405180910390f35b6200058b6004803603810190620005859190620021d9565b62000eeb565b6040516200059a919062001a86565b60405180910390f35b60056020528060005260406000206000915090508054620005c4906200224f565b80601f0160208091040260200160405190810160405280929190818152602001828054620005f2906200224f565b8015620006435780601f10620006175761010080835404028352916020019162000643565b820191906000526020600020905b8154815290600101906020018083116200062557829003601f168201915b505050505081565b600a6020528160005260406000206020528060005260406000206000915091509054906101000a900473ffffffffffffffffffffffffffffffffffffffff1681565b6000620006e28486600286868080601f016020809104026020016040519081016040528093929190818152602001838380828437600081840152601f19601f8201169050808301925050505050505062000f01565b9050949350505050565b60026020528060005260406000206000915054906101000a900460ff1681565b6060600160008373ffffffffffffffffffffffffffffffffffffffff1673ffffffffffffffffffffffffffffffffffffffff16815260200190815260200160002080546200075a906200224f565b80601f016020809104026020016040519081016040528092919081815260200182805462000788906200224f565b8015620007d95780601f10620007ad57610100808354040283529160200191620007d9565b820191906000526020600020905b815481529060010190602001808311620007bb57829003601f168201915b50505050509050919050565b600760009054906101000a900473ffffffffffffffffffffffffffffffffffffffff1681565b600080600560003373ffffffffffffffffffffffffffffffffffffffff1673ffffffffffffffffffffffffffffffffffffffff16815260200190815260200160002080546200085a906200224f565b80601f016020809104026020016040519081016040528092919081815260200182805462000888906200224f565b8015620008d95780601f10620008ad57610100808354040283529160200191620008d9565b820191906000526020600020905b815481529060010190602001808311620008bb57829003601f168201915b50505050509050620008ef338460028462000f01565b915050919050565b6000806000600460008573ffffffffffffffffffffffffffffffffffffffff1673ffffffffffffffffffffffffffffffffffffffff16815260200190815260200160002060000154600460008673ffffffffffffffffffffffffffffffffffffffff1673ffffffffffffffffffffffffffffffffffffffff16815260200190815260200160002060010154600460008773ffffffffffffffffffffffffffffffffffffffff1673ffffffffffffffffffffffffffffffffffffffff168152602001908152602001600020600201549250925092509193909250565b600b6020528060005260406000206000915090505481565b600660009054906101000a900473ffffffffffffffffffffffffffffffffffffffff1681565b60008060009054906101000a900473ffffffffffffffffffffffffffffffffffffffff1673ffffffffffffffffffffffffffffffffffffffff163373ffffffffffffffffffffffffffffffffffffffff161462000a6c57600080fd5b6000600560008673ffffffffffffffffffffffffffffffffffffffff1673ffffffffffffffffffffffffffffffffffffffff168152602001908152602001600020805462000aba906200224f565b80601f016020809104026020016040519081016040528092919081815260200182805462000ae8906200224f565b801562000b395780601f1062000b0d5761010080835404028352916020019162000b39565b820191906000526020600020905b81548152906001019060200180831162000b1b57829003601f168201915b5050505050905062000b4e8585858462000f01565b9150509392505050565b60036020528060005260406000206000915090505481565b6001602052806000526040600020600091509050805462000b91906200224f565b80601f016020809104026020016040519081016040528092919081815260200182805462000bbf906200224f565b801562000c105780601f1062000be45761010080835404028352916020019162000c10565b820191906000526020600020905b81548152906001019060200180831162000bf257829003601f168201915b505050505081565b60096020528060005260406000206000915090505481565b60008062000cc889898080601f016020809104026020016040519081016040528093929190818152602001838380828437600081840152601f19601f820116905080830192505050505050508888888080601f016020809104026020016040519081016040528093929190818152602001838380828437600081840152601f19601f82011690508083019250505050505050620010c7565b905060005b8484905081101562000d655762000d5685858381811062000cf35762000cf262002284565b5b905060200201602081019062000d0a919062001903565b8389898080601f016020809104026020016040519081016040528093929190818152602001838380828437600081840152601f19601f82011690508083019250505050505050620012f0565b50808060010191505062000ccd565b5080915050979650505050505050565b600c6020528160005260406000206020528060005260406000206000915091509054906101000a900473ffffffffffffffffffffffffffffffffffffffff1681565b600062000dc6848484620012f0565b90509392505050565b60046020528060005260406000206000915090508060000154908060010154908060020154905083565b60008062000e5d85858080601f016020809104026020016040519081016040528093929190818152602001838380828437600081840152601f19601f82011690508083019250505050505050600060405180602001604052806000815250620010c7565b9050600062000e7d848360405180602001604052806000815250620012f0565b905080925050509392505050565b6000600460008373ffffffffffffffffffffffffffffffffffffffff1673ffffffffffffffffffffffffffffffffffffffff1681526020019081526020016000206001016000815462000ede90620022e2565b9190508190559050919050565b600062000ef983836200152c565b905092915050565b600083600160008773ffffffffffffffffffffffffffffffffffffffff1673ffffffffffffffffffffffffffffffffffffffff168152602001908152602001600020908162000f519190620024f7565b506001600260008773ffffffffffffffffffffffffffffffffffffffff1673ffffffffffffffffffffffffffffffffffffffff16815260200190815260200160002060006101000a81548160ff02191690831515021790555082600360008773ffffffffffffffffffffffffffffffffffffffff1673ffffffffffffffffffffffffffffffffffffffff16815260200190815260200160002081905550604051806060016040528060008152602001600081526020016000815250600460008773ffffffffffffffffffffffffffffffffffffffff1673ffffffffffffffffffffffffffffffffffffffff16815260200190815260200160002060008201518160000155602082015181600101556040820151816002015590505081600560008773ffffffffffffffffffffffffffffffffffffffff1673ffffffffffffffffffffffffffffffffffffffff1681526020019081526020016000209081620010ba919062002643565b5060019050949350505050565b600080620010d58462001804565b905030600860009054906101000a900473ffffffffffffffffffffffffffffffffffffffff16868333876040516200110d906200187c565b6200111e96959493929190620027aa565b604051809103906000f0801580156200113b573d6000803e3d6000fd5b50600760006101000a81548173ffffffffffffffffffffffffffffffffffffffff021916908373ffffffffffffffffffffffffffffffffffffffff160217905550600760009054906101000a900473ffffffffffffffffffffffffffffffffffffffff16600a60003373ffffffffffffffffffffffffffffffffffffffff1673ffffffffffffffffffffffffffffffffffffffff1681526020019081526020016000206000600960003373ffffffffffffffffffffffffffffffffffffffff1673ffffffffffffffffffffffffffffffffffffffff16815260200190815260200160002054815260200190815260200160002060006101000a81548173ffffffffffffffffffffffffffffffffffffffff021916908373ffffffffffffffffffffffffffffffffffffffff160217905550600960003373ffffffffffffffffffffffffffffffffffffffff1673ffffffffffffffffffffffffffffffffffffffff1681526020019081526020016000206000815480929190620012be90620022e2565b9190505550600760009054906101000a900473ffffffffffffffffffffffffffffffffffffffff169150509392505050565b600082600760006101000a81548173ffffffffffffffffffffffffffffffffffffffff021916908373ffffffffffffffffffffffffffffffffffffffff160217905550600760009054906101000a900473ffffffffffffffffffffffffffffffffffffffff1673ffffffffffffffffffffffffffffffffffffffff1663cbc692603386856040518463ffffffff1660e01b8152600401620013949392919062002825565b6020604051808303816000875af1158015620013b4573d6000803e3d6000fd5b505050506040513d601f19601f82011682018060405250810190620013da919062002880565b50600760009054906101000a900473ffffffffffffffffffffffffffffffffffffffff16600a60008673ffffffffffffffffffffffffffffffffffffffff1673ffffffffffffffffffffffffffffffffffffffff1681526020019081526020016000206000600960008873ffffffffffffffffffffffffffffffffffffffff1673ffffffffffffffffffffffffffffffffffffffff16815260200190815260200160002054815260200190815260200160002060006101000a81548173ffffffffffffffffffffffffffffffffffffffff021916908373ffffffffffffffffffffffffffffffffffffffff160217905550600960008573ffffffffffffffffffffffffffffffffffffffff1673ffffffffffffffffffffffffffffffffffffffff16815260200190815260200160002060008154809291906200151d90620022e2565b91905055508390509392505050565b600081600760006101000a81548173ffffffffffffffffffffffffffffffffffffffff021916908373ffffffffffffffffffffffffffffffffffffffff16021790555060005b600960008573ffffffffffffffffffffffffffffffffffffffff1673ffffffffffffffffffffffffffffffffffffffff16815260200190815260200160002054811015620017a3578273ffffffffffffffffffffffffffffffffffffffff16600a60008673ffffffffffffffffffffffffffffffffffffffff1673ffffffffffffffffffffffffffffffffffffffff168152602001908152602001600020600083815260200190815260200160002060009054906101000a900473ffffffffffffffffffffffffffffffffffffffff1673ffffffffffffffffffffffffffffffffffffffff160362001795576000600a60008673ffffffffffffffffffffffffffffffffffffffff1673ffffffffffffffffffffffffffffffffffffffff168152602001908152602001600020600083815260200190815260200160002060006101000a81548173ffffffffffffffffffffffffffffffffffffffff021916908373ffffffffffffffffffffffffffffffffffffffff160217905550600760009054906101000a900473ffffffffffffffffffffffffffffffffffffffff1673ffffffffffffffffffffffffffffffffffffffff166322928d6b33866040518363ffffffff1660e01b81526004016200174d929190620028b2565b6020604051808303816000875af11580156200176d573d6000803e3d6000fd5b505050506040513d601f19601f8201168201806040525081019062001793919062002880565b505b808060010191505062001572565b50600960008473ffffffffffffffffffffffffffffffffffffffff1673ffffffffffffffffffffffffffffffffffffffff1681526020019081526020016000206000815480929190620017f690620028df565b919050555082905092915050565b600080820362001818576000905062001877565b600182036200182b576001905062001876565b600282036200183e576002905062001875565b6003820362001851576003905062001874565b6004820362001864576004905062001873565b600582036200187257600590505b5b5b5b5b5b919050565b612fb5806200290e83390190565b6000604051905090565b600080fd5b600080fd5b600073ffffffffffffffffffffffffffffffffffffffff82169050919050565b6000620018cb826200189e565b9050919050565b620018dd81620018be565b8114620018e957600080fd5b50565b600081359050620018fd81620018d2565b92915050565b6000602082840312156200191c576200191b62001894565b5b60006200192c84828501620018ec565b91505092915050565b600081519050919050565b600082825260208201905092915050565b60005b838110156200197157808201518184015260208101905062001954565b60008484015250505050565b6000601f19601f8301169050919050565b60006200199b8262001935565b620019a7818562001940565b9350620019b981856020860162001951565b620019c4816200197d565b840191505092915050565b60006020820190508181036000830152620019eb81846200198e565b905092915050565b6000819050919050565b62001a0881620019f3565b811462001a1457600080fd5b50565b60008135905062001a2881620019fd565b92915050565b6000806040838503121562001a485762001a4762001894565b5b600062001a5885828601620018ec565b925050602062001a6b8582860162001a17565b9150509250929050565b62001a8081620018be565b82525050565b600060208201905062001a9d600083018462001a75565b92915050565b600080fd5b600080fd5b7f4e487b7100000000000000000000000000000000000000000000000000000000600052604160045260246000fd5b62001ae7826200197d565b810181811067ffffffffffffffff8211171562001b095762001b0862001aad565b5b80604052505050565b600062001b1e6200188a565b905062001b2c828262001adc565b919050565b600067ffffffffffffffff82111562001b4f5762001b4e62001aad565b5b62001b5a826200197d565b9050602081019050919050565b82818337600083830152505050565b600062001b8d62001b878462001b31565b62001b12565b90508281526020810184848401111562001bac5762001bab62001aa8565b5b62001bb984828562001b67565b509392505050565b600082601f83011262001bd95762001bd862001aa3565b5b813562001beb84826020860162001b76565b91505092915050565b600080fd5b600080fd5b60008083601f84011262001c175762001c1662001aa3565b5b8235905067ffffffffffffffff81111562001c375762001c3662001bf4565b5b60208301915083600182028301111562001c565762001c5562001bf9565b5b9250929050565b6000806000806060858703121562001c7a5762001c7962001894565b5b600085013567ffffffffffffffff81111562001c9b5762001c9a62001899565b5b62001ca98782880162001bc1565b945050602062001cbc87828801620018ec565b935050604085013567ffffffffffffffff81111562001ce05762001cdf62001899565b5b62001cee8782880162001bfe565b925092505092959194509250565b60008115159050919050565b62001d138162001cfc565b82525050565b600060208201905062001d30600083018462001d08565b92915050565b6000819050919050565b600062001d6162001d5b62001d55846200189e565b62001d36565b6200189e565b9050919050565b600062001d758262001d40565b9050919050565b600062001d898262001d68565b9050919050565b62001d9b8162001d7c565b82525050565b600060208201905062001db8600083018462001d90565b92915050565b60006020828403121562001dd75762001dd662001894565b5b600082013567ffffffffffffffff81111562001df85762001df762001899565b5b62001e068482850162001bc1565b91505092915050565b62001e1a81620019f3565b82525050565b600060608201905062001e37600083018662001e0f565b62001e46602083018562001e0f565b62001e55604083018462001e0f565b949350505050565b600060208201905062001e74600083018462001e0f565b92915050565b600062001e878262001d68565b9050919050565b62001e998162001e7a565b82525050565b600060208201905062001eb6600083018462001e8e565b92915050565b60008060006060848603121562001ed85762001ed762001894565b5b600062001ee886828701620018ec565b935050602084013567ffffffffffffffff81111562001f0c5762001f0b62001899565b5b62001f1a8682870162001bc1565b925050604062001f2d8682870162001a17565b9150509250925092565b600081519050919050565b600082825260208201905092915050565b600062001f608262001f37565b62001f6c818562001f42565b935062001f7e81856020860162001951565b62001f89816200197d565b840191505092915050565b6000602082019050818103600083015262001fb0818462001f53565b905092915050565b60008083601f84011262001fd15762001fd062001aa3565b5b8235905067ffffffffffffffff81111562001ff15762001ff062001bf4565b5b60208301915083602082028301111562002010576200200f62001bf9565b5b9250929050565b60008060008060008060006080888a03121562002039576200203862001894565b5b600088013567ffffffffffffffff8111156200205a576200205962001899565b5b620020688a828b0162001bfe565b975097505060206200207d8a828b0162001a17565b955050604088013567ffffffffffffffff811115620020a157620020a062001899565b5b620020af8a828b0162001bfe565b9450945050606088013567ffffffffffffffff811115620020d557620020d462001899565b5b620020e38a828b0162001fb8565b925092505092959891949750929550565b60008060006060848603121562002110576200210f62001894565b5b60006200212086828701620018ec565b93505060206200213386828701620018ec565b925050604084013567ffffffffffffffff81111562002157576200215662001899565b5b620021658682870162001bc1565b9150509250925092565b6000806000604084860312156200218b576200218a62001894565b5b600084013567ffffffffffffffff811115620021ac57620021ab62001899565b5b620021ba8682870162001bfe565b93509350506020620021cf86828701620018ec565b9150509250925092565b60008060408385031215620021f357620021f262001894565b5b60006200220385828601620018ec565b92505060206200221685828601620018ec565b9150509250929050565b7f4e487b7100000000000000000000000000000000000000000000000000000000600052602260045260246000fd5b600060028204905060018216806200226857607f821691505b6020821081036200227e576200227d62002220565b5b50919050565b7f4e487b7100000000000000000000000000000000000000000000000000000000600052603260045260246000fd5b7f4e487b7100000000000000000000000000000000000000000000000000000000600052601160045260246000fd5b6000620022ef82620019f3565b91507fffffffffffffffffffffffffffffffffffffffffffffffffffffffffffffffff8203620023245762002323620022b3565b5b600182019050919050565b60008190508160005260206000209050919050565b60006020601f8301049050919050565b600082821b905092915050565b600060088302620023937fffffffffffffffffffffffffffffffffffffffffffffffffffffffffffffffff8262002354565b6200239f868362002354565b95508019841693508086168417925050509392505050565b6000620023d8620023d2620023cc84620019f3565b62001d36565b620019f3565b9050919050565b6000819050919050565b620023f483620023b7565b6200240c6200240382620023df565b84845462002361565b825550505050565b600090565b6200242362002414565b62002430818484620023e9565b505050565b5b8181101562002458576200244c60008262002419565b60018101905062002436565b5050565b601f821115620024a75762002471816200232f565b6200247c8462002344565b810160208510156200248c578190505b620024a46200249b8562002344565b83018262002435565b50505b505050565b600082821c905092915050565b6000620024cc60001984600802620024ac565b1980831691505092915050565b6000620024e78383620024b9565b9150826002028217905092915050565b620025028262001f37565b67ffffffffffffffff8111156200251e576200251d62001aad565b5b6200252a82546200224f565b620025378282856200245c565b600060209050601f8311600181146200256f57600084156200255a578287015190505b620025668582620024d9565b865550620025d6565b601f1984166200257f866200232f565b60005b82811015620025a95784890151825560018201915060208501945060208101905062002582565b86831015620025c95784890151620025c5601f891682620024b9565b8355505b6001600288020188555050505b505050505050565b60008190508160005260206000209050919050565b601f8211156200263e576200260881620025de565b620026138462002344565b8101602085101562002623578190505b6200263b620026328562002344565b83018262002435565b50505b505050565b6200264e8262001935565b67ffffffffffffffff8111156200266a576200266962001aad565b5b6200267682546200224f565b62002683828285620025f3565b600060209050601f831160018114620026bb5760008415620026a6578287015190505b620026b28582620024d9565b86555062002722565b601f198416620026cb86620025de565b60005b82811015620026f557848901518255600182019150602085019450602081019050620026ce565b8683101562002715578489015162002711601f891682620024b9565b8355505b6001600288020188555050505b505050505050565b7f4e487b7100000000000000000000000000000000000000000000000000000000600052602160045260246000fd5b600681106200276d576200276c6200272a565b5b50565b6000819050620027808262002759565b919050565b6000620027928262002770565b9050919050565b620027a48162002785565b82525050565b600060c082019050620027c1600083018962001a75565b620027d0602083018862001a75565b8181036040830152620027e4818762001f53565b9050620027f5606083018662002799565b62002804608083018562001a75565b81810360a08301526200281881846200198e565b9050979650505050505050565b60006060820190506200283c600083018662001a75565b6200284b602083018562001a75565b81810360408301526200285f81846200198e565b9050949350505050565b6000815190506200287a81620018d2565b92915050565b60006020828403121562002899576200289862001894565b5b6000620028a98482850162002869565b91505092915050565b6000604082019050620028c9600083018562001a75565b620028d8602083018462001a75565b9392505050565b6000620028ec82620019f3565b915060008203620029025762002901620022b3565b5b60018203905091905056fe60806040523480156200001157600080fd5b5060405162002fb538038062002fb5833981810160405281019062000037919062000524565b82600760006101000a81548160ff021916908360058111156200005f576200005e620005fe565b5b0217905550856000806101000a81548173ffffffffffffffffffffffffffffffffffffffff021916908373ffffffffffffffffffffffffffffffffffffffff16021790555084600160006101000a81548173ffffffffffffffffffffffffffffffffffffffff021916908373ffffffffffffffffffffffffffffffffffffffff16021790555081600260006101000a81548173ffffffffffffffffffffffffffffffffffffffff021916908373ffffffffffffffffffffffffffffffffffffffff160217905550806004908162000137919062000878565b50836003908162000149919062000878565b50600160058190555062000185600260009054906101000a900473ffffffffffffffffffffffffffffffffffffffff166200019260201b60201c565b50505050505050620009db565b60008160086000600554815260200190815260200160002060006101000a81548173ffffffffffffffffffffffffffffffffffffffff021916908373ffffffffffffffffffffffffffffffffffffffff160217905550600554600960008473ffffffffffffffffffffffffffffffffffffffff1673ffffffffffffffffffffffffffffffffffffffff168152602001908152602001600020819055506005600081548092919062000243906200098e565b9190505550819050919050565b6000604051905090565b600080fd5b600080fd5b600073ffffffffffffffffffffffffffffffffffffffff82169050919050565b6000620002918262000264565b9050919050565b620002a38162000284565b8114620002af57600080fd5b50565b600081519050620002c38162000298565b92915050565b600080fd5b600080fd5b6000601f19601f8301169050919050565b7f4e487b7100000000000000000000000000000000000000000000000000000000600052604160045260246000fd5b6200031e82620002d3565b810181811067ffffffffffffffff8211171562000340576200033f620002e4565b5b80604052505050565b60006200035562000250565b905062000363828262000313565b919050565b600067ffffffffffffffff821115620003865762000385620002e4565b5b6200039182620002d3565b9050602081019050919050565b60005b83811015620003be578082015181840152602081019050620003a1565b60008484015250505050565b6000620003e1620003db8462000368565b62000349565b9050828152602081018484840111156200040057620003ff620002ce565b5b6200040d8482856200039e565b509392505050565b600082601f8301126200042d576200042c620002c9565b5b81516200043f848260208601620003ca565b91505092915050565b600681106200045657600080fd5b50565b6000815190506200046a8162000448565b92915050565b600067ffffffffffffffff8211156200048e576200048d620002e4565b5b6200049982620002d3565b9050602081019050919050565b6000620004bd620004b78462000470565b62000349565b905082815260208101848484011115620004dc57620004db620002ce565b5b620004e98482856200039e565b509392505050565b600082601f830112620005095762000508620002c9565b5b81516200051b848260208601620004a6565b91505092915050565b60008060008060008060c087890312156200054457620005436200025a565b5b60006200055489828a01620002b2565b96505060206200056789828a01620002b2565b955050604087015167ffffffffffffffff8111156200058b576200058a6200025f565b5b6200059989828a0162000415565b9450506060620005ac89828a0162000459565b9350506080620005bf89828a01620002b2565b92505060a087015167ffffffffffffffff811115620005e357620005e26200025f565b5b620005f189828a01620004f1565b9150509295509295509295565b7f4e487b7100000000000000000000000000000000000000000000000000000000600052602160045260246000fd5b600081519050919050565b7f4e487b7100000000000000000000000000000000000000000000000000000000600052602260045260246000fd5b600060028204905060018216806200068057607f821691505b60208210810362000696576200069562000638565b5b50919050565b60008190508160005260206000209050919050565b60006020601f8301049050919050565b600082821b905092915050565b600060088302620007007fffffffffffffffffffffffffffffffffffffffffffffffffffffffffffffffff82620006c1565b6200070c8683620006c1565b95508019841693508086168417925050509392505050565b6000819050919050565b6000819050919050565b600062000759620007536200074d8462000724565b6200072e565b62000724565b9050919050565b6000819050919050565b620007758362000738565b6200078d620007848262000760565b848454620006ce565b825550505050565b600090565b620007a462000795565b620007b18184846200076a565b505050565b5b81811015620007d957620007cd6000826200079a565b600181019050620007b7565b5050565b601f8211156200082857620007f2816200069c565b620007fd84620006b1565b810160208510156200080d578190505b620008256200081c85620006b1565b830182620007b6565b50505b505050565b600082821c905092915050565b60006200084d600019846008026200082d565b1980831691505092915050565b60006200086883836200083a565b9150826002028217905092915050565b62000883826200062d565b67ffffffffffffffff8111156200089f576200089e620002e4565b5b620008ab825462000667565b620008b8828285620007dd565b600060209050601f831160018114620008f05760008415620008db578287015190505b620008e785826200085a565b86555062000957565b601f19841662000900866200069c565b60005b828110156200092a5784890151825560018201915060208501945060208101905062000903565b868310156200094a578489015162000946601f8916826200083a565b8355505b6001600288020188555050505b505050505050565b7f4e487b7100000000000000000000000000000000000000000000000000000000600052601160045260246000fd5b60006200099b8262000724565b91507fffffffffffffffffffffffffffffffffffffffffffffffffffffffffffffffff8203620009d057620009cf6200095f565b5b600182019050919050565b6125ca80620009eb6000396000f3fe608060405234801561001057600080fd5b50600436106101215760003560e01c80634f0592e7116100ad578063bc87c22511610071578063bc87c2251461037f578063cbc69260146103af578063d3758c2a146103df578063f471d7ac1461040f578063f6ed3c431461043f57610121565b80634f0592e7146102b25780635a2ee019146102e35780635daf08ca146103015780638da5cb5b146103315780639a76a6d71461034f57610121565b806322928d6b116100f457806322928d6b146101d4578063295a5212146102045780632cdd0d5c146102225780632f5300e4146102525780634b77c4681461028257610121565b8063028c3f481461012657806306fdde03146101565780630a0b138f146101745780631bea2627146101a4575b600080fd5b610140600480360381019061013b9190611b70565b61046f565b60405161014d9190611bee565b60405180910390f35b61015e6105d5565b60405161016b9190611c88565b60405180910390f35b61018e60048036038101906101899190611caa565b610663565b60405161019b9190611bee565b60405180910390f35b6101be60048036038101906101b99190611cd7565b61067b565b6040516101cb9190611d59565b60405180910390f35b6101ee60048036038101906101e99190611d7b565b61071b565b6040516101fb9190611dca565b60405180910390f35b61020c6108f0565b6040516102199190611e5c565b60405180910390f35b61023c60048036038101906102379190611e77565b610903565b6040516102499190611d59565b60405180910390f35b61026c60048036038101906102679190611caa565b6109b0565b6040516102799190611bee565b60405180910390f35b61029c60048036038101906102979190611caa565b6109c8565b6040516102a99190611ed2565b60405180910390f35b6102cc60048036038101906102c79190611cd7565b6109e8565b6040516102da929190611ff9565b60405180910390f35b6102eb6109fd565b6040516102f89190611bee565b60405180910390f35b61031b60048036038101906103169190611cd7565b610a03565b6040516103289190611dca565b60405180910390f35b610339610a36565b6040516103469190611dca565b60405180910390f35b61036960048036038101906103649190611caa565b610a5c565b6040516103769190611bee565b60405180910390f35b61039960048036038101906103949190612030565b610a74565b6040516103a69190611c88565b60405180910390f35b6103c960048036038101906103c4919061208c565b610ba8565b6040516103d69190611dca565b60405180910390f35b6103f960048036038101906103f491906120fb565b611542565b6040516104069190611d59565b60405180910390f35b61042960048036038101906104249190611cd7565b6115ef565b6040516104369190611bee565b60405180910390f35b610459600480360381019061045491906120fb565b611607565b6040516104669190611d59565b60405180910390f35b600082600e60008481526020019081526020016000206000600d600086815260200190815260200160002054815260200190815260200160002090816104b59190612347565b5082601060008673ffffffffffffffffffffffffffffffffffffffff1673ffffffffffffffffffffffffffffffffffffffff1681526020019081526020016000206000600f60008873ffffffffffffffffffffffffffffffffffffffff1673ffffffffffffffffffffffffffffffffffffffff16815260200190815260200160002054815260200190815260200160002090816105529190612347565b50600f60008573ffffffffffffffffffffffffffffffffffffffff1673ffffffffffffffffffffffffffffffffffffffff1681526020019081526020016000206000815461059f90612448565b91905081905550600d6000838152602001908152602001600020600081546105c690612448565b91905081905590509392505050565b600380546105e29061216a565b80601f016020809104026020016040519081016040528092919081815260200182805461060e9061216a565b801561065b5780601f106106305761010080835404028352916020019161065b565b820191906000526020600020905b81548152906001019060200180831161063e57829003601f168201915b505050505081565b600a6020528060005260406000206000915090505481565b600c602052806000526040600020600091509050805461069a9061216a565b80601f01602080910402602001604051908101604052809291908181526020018280546106c69061216a565b80156107135780601f106106e857610100808354040283529160200191610713565b820191906000526020600020905b8154815290600101906020018083116106f657829003601f168201915b505050505081565b60008060058111156107305761072f611de5565b5b600760009054906101000a900460ff16600581111561075257610751611de5565b5b03610789576040517f3a5bc32100000000000000000000000000000000000000000000000000000000815260040160405180910390fd5b600260009054906101000a900473ffffffffffffffffffffffffffffffffffffffff1673ffffffffffffffffffffffffffffffffffffffff168373ffffffffffffffffffffffffffffffffffffffff1614610810576040517f82b4290000000000000000000000000000000000000000000000000000000000815260040160405180910390fd5b600060086000600960008673ffffffffffffffffffffffffffffffffffffffff1673ffffffffffffffffffffffffffffffffffffffff16815260200190815260200160002054815260200190815260200160002060006101000a81548173ffffffffffffffffffffffffffffffffffffffff021916908373ffffffffffffffffffffffffffffffffffffffff1602179055506000600960008473ffffffffffffffffffffffffffffffffffffffff1673ffffffffffffffffffffffffffffffffffffffff1681526020019081526020016000208190555081905092915050565b600760009054906101000a900460ff1681565b600e60205281600052604060002060205280600052604060002060009150915050805461092f9061216a565b80601f016020809104026020016040519081016040528092919081815260200182805461095b9061216a565b80156109a85780601f1061097d576101008083540402835291602001916109a8565b820191906000526020600020905b81548152906001019060200180831161098b57829003601f168201915b505050505081565b60096020528060005260406000206000915090505481565b60116020528060005260406000206000915054906101000a900460ff1681565b6060806109f4836116b4565b91509150915091565b60055481565b60086020528060005260406000206000915054906101000a900473ffffffffffffffffffffffffffffffffffffffff1681565b600260009054906101000a900473ffffffffffffffffffffffffffffffffffffffff1681565b600f6020528060005260406000206000915090505481565b606081600b60008573ffffffffffffffffffffffffffffffffffffffff1673ffffffffffffffffffffffffffffffffffffffff1681526020019081526020016000206000600a60008773ffffffffffffffffffffffffffffffffffffffff1673ffffffffffffffffffffffffffffffffffffffff1681526020019081526020016000205481526020019081526020016000209081610b129190612347565b50600a60008473ffffffffffffffffffffffffffffffffffffffff1673ffffffffffffffffffffffffffffffffffffffff16815260200190815260200160002060008154610b5f90612448565b9190508190555081600c600060065481526020019081526020016000209081610b889190612347565b50600660008154610b9890612448565b9190508190555081905092915050565b6000806005811115610bbd57610bbc611de5565b5b600760009054906101000a900460ff166005811115610bdf57610bde611de5565b5b03610dae5760026005541115610c21576040517fea5db9c500000000000000000000000000000000000000000000000000000000815260040160405180910390fd5b600260009054906101000a900473ffffffffffffffffffffffffffffffffffffffff1673ffffffffffffffffffffffffffffffffffffffff168473ffffffffffffffffffffffffffffffffffffffff1614610ca8576040517f82b4290000000000000000000000000000000000000000000000000000000000815260040160405180910390fd5b600160009054906101000a900473ffffffffffffffffffffffffffffffffffffffff1673ffffffffffffffffffffffffffffffffffffffff1663614df572600260009054906101000a900473ffffffffffffffffffffffffffffffffffffffff16856040518363ffffffff1660e01b8152600401610d27929190612490565b602060405180830381865afa158015610d44573d6000803e3d6000fd5b505050506040513d601f19601f82011682018060405250810190610d6891906124e5565b610d9e576040517fcece67ff00000000000000000000000000000000000000000000000000000000815260040160405180910390fd5b610da78361186d565b905061153b565b60016005811115610dc257610dc1611de5565b5b600760009054906101000a900460ff166005811115610de457610de3611de5565b5b0361101257600260009054906101000a900473ffffffffffffffffffffffffffffffffffffffff1673ffffffffffffffffffffffffffffffffffffffff168473ffffffffffffffffffffffffffffffffffffffff16141580610f035750600160009054906101000a900473ffffffffffffffffffffffffffffffffffffffff1673ffffffffffffffffffffffffffffffffffffffff1663614df572600260009054906101000a900473ffffffffffffffffffffffffffffffffffffffff16856040518363ffffffff1660e01b8152600401610ec0929190612490565b602060405180830381865afa158015610edd573d6000803e3d6000fd5b505050506040513d601f19601f82011682018060405250810190610f0191906124e5565b155b80610fcb5750600160009054906101000a900473ffffffffffffffffffffffffffffffffffffffff1673ffffffffffffffffffffffffffffffffffffffff1663614df57284600260009054906101000a900473ffffffffffffffffffffffffffffffffffffffff166040518363ffffffff1660e01b8152600401610f88929190612490565b602060405180830381865afa158015610fa5573d6000803e3d6000fd5b505050506040513d601f19601f82011682018060405250810190610fc991906124e5565b155b15611002576040517f82b4290000000000000000000000000000000000000000000000000000000000815260040160405180910390fd5b61100b8361186d565b905061153a565b6002600581111561102657611025611de5565b5b600760009054906101000a900460ff16600581111561104857611047611de5565b5b036112a957600160009054906101000a900473ffffffffffffffffffffffffffffffffffffffff1673ffffffffffffffffffffffffffffffffffffffff1663614df57285856040518363ffffffff1660e01b81526004016110aa929190612490565b602060405180830381865afa1580156110c7573d6000803e3d6000fd5b505050506040513d601f19601f820116820180604052508101906110eb91906124e5565b15806111925750600160009054906101000a900473ffffffffffffffffffffffffffffffffffffffff1673ffffffffffffffffffffffffffffffffffffffff1663614df57284866040518363ffffffff1660e01b815260040161114f929190612490565b602060405180830381865afa15801561116c573d6000803e3d6000fd5b505050506040513d601f19601f8201168201806040525081019061119091906124e5565b155b156111c9576040517f82b4290000000000000000000000000000000000000000000000000000000000815260040160405180910390fd5b61125d82600480546111da9061216a565b80601f01602080910402602001604051908101604052809291908181526020018280546112069061216a565b80156112535780601f1061122857610100808354040283529160200191611253565b820191906000526020600020905b81548152906001019060200180831161123657829003601f168201915b5050505050611929565b156112725761126b8361186d565b90506112a4565b6040517f82b4290000000000000000000000000000000000000000000000000000000000815260040160405180910390fd5b611539565b600360058111156112bd576112bc611de5565b5b600760009054906101000a900460ff1660058111156112df576112de611de5565b5b148061131e5750600460058111156112fa576112f9611de5565b5b600760009054906101000a900460ff16600581111561131c5761131b611de5565b5b145b156114bb5760001515600160009054906101000a900473ffffffffffffffffffffffffffffffffffffffff1673ffffffffffffffffffffffffffffffffffffffff1663614df57286866040518363ffffffff1660e01b8152600401611384929190612490565b602060405180830381865afa1580156113a1573d6000803e3d6000fd5b505050506040513d601f19601f820116820180604052508101906113c591906124e5565b15151480611474575060001515600160009054906101000a900473ffffffffffffffffffffffffffffffffffffffff1673ffffffffffffffffffffffffffffffffffffffff1663614df57285876040518363ffffffff1660e01b815260040161142f929190612490565b602060405180830381865afa15801561144c573d6000803e3d6000fd5b505050506040513d601f19601f8201168201806040525081019061147091906124e5565b1515145b156114ab576040517f82b4290000000000000000000000000000000000000000000000000000000000815260040160405180910390fd5b6114b48361186d565b9050611538565b6005808111156114ce576114cd611de5565b5b600760009054906101000a900460ff1660058111156114f0576114ef611de5565b5b03611505576114fe8361186d565b9050611537565b6040517f82b4290000000000000000000000000000000000000000000000000000000000815260040160405180910390fd5b5b5b5b5b9392505050565b600b60205281600052604060002060205280600052604060002060009150915050805461156e9061216a565b80601f016020809104026020016040519081016040528092919081815260200182805461159a9061216a565b80156115e75780601f106115bc576101008083540402835291602001916115e7565b820191906000526020600020905b8154815290600101906020018083116115ca57829003601f168201915b505050505081565b600d6020528060005260406000206000915090505481565b60106020528160005260406000206020528060005260406000206000915091505080546116339061216a565b80601f016020809104026020016040519081016040528092919081815260200182805461165f9061216a565b80156116ac5780601f10611681576101008083540402835291602001916116ac565b820191906000526020600020905b81548152906001019060200180831161168f57829003601f168201915b505050505081565b606080606060005b600d6000868152602001908152602001600020548110156117c257600e60008681526020019081526020016000206000600d600088815260200190815260200160002054815260200190815260200160002080546117199061216a565b80601f01602080910402602001604051908101604052809291908181526020018280546117459061216a565b80156117925780601f1061176757610100808354040283529160200191611792565b820191906000526020600020905b81548152906001019060200180831161177557829003601f168201915b50505050508282815181106117aa576117a9612512565b5b602002602001018190525080806001019150506116bc565b50600c6000858152602001908152602001600020818180546117e39061216a565b80601f016020809104026020016040519081016040528092919081815260200182805461180f9061216a565b801561185c5780601f106118315761010080835404028352916020019161185c565b820191906000526020600020905b81548152906001019060200180831161183f57829003601f168201915b505050505091509250925050915091565b60008160086000600554815260200190815260200160002060006101000a81548173ffffffffffffffffffffffffffffffffffffffff021916908373ffffffffffffffffffffffffffffffffffffffff160217905550600554600960008473ffffffffffffffffffffffffffffffffffffffff1673ffffffffffffffffffffffffffffffffffffffff168152602001908152602001600020819055506005600081548092919061191c90612448565b9190505550819050919050565b60008160405160200161193c919061257d565b6040516020818303038152906040528051906020012083604051602001611963919061257d565b6040516020818303038152906040528051906020012014905092915050565b6000604051905090565b600080fd5b600080fd5b600073ffffffffffffffffffffffffffffffffffffffff82169050919050565b60006119c182611996565b9050919050565b6119d1816119b6565b81146119dc57600080fd5b50565b6000813590506119ee816119c8565b92915050565b600080fd5b600080fd5b6000601f19601f8301169050919050565b7f4e487b7100000000000000000000000000000000000000000000000000000000600052604160045260246000fd5b611a47826119fe565b810181811067ffffffffffffffff82111715611a6657611a65611a0f565b5b80604052505050565b6000611a79611982565b9050611a858282611a3e565b919050565b600067ffffffffffffffff821115611aa557611aa4611a0f565b5b611aae826119fe565b9050602081019050919050565b82818337600083830152505050565b6000611add611ad884611a8a565b611a6f565b905082815260208101848484011115611af957611af86119f9565b5b611b04848285611abb565b509392505050565b600082601f830112611b2157611b206119f4565b5b8135611b31848260208601611aca565b91505092915050565b6000819050919050565b611b4d81611b3a565b8114611b5857600080fd5b50565b600081359050611b6a81611b44565b92915050565b600080600060608486031215611b8957611b8861198c565b5b6000611b97868287016119df565b935050602084013567ffffffffffffffff811115611bb857611bb7611991565b5b611bc486828701611b0c565b9250506040611bd586828701611b5b565b9150509250925092565b611be881611b3a565b82525050565b6000602082019050611c036000830184611bdf565b92915050565b600081519050919050565b600082825260208201905092915050565b60005b83811015611c43578082015181840152602081019050611c28565b60008484015250505050565b6000611c5a82611c09565b611c648185611c14565b9350611c74818560208601611c25565b611c7d816119fe565b840191505092915050565b60006020820190508181036000830152611ca28184611c4f565b905092915050565b600060208284031215611cc057611cbf61198c565b5b6000611cce848285016119df565b91505092915050565b600060208284031215611ced57611cec61198c565b5b6000611cfb84828501611b5b565b91505092915050565b600081519050919050565b600082825260208201905092915050565b6000611d2b82611d04565b611d358185611d0f565b9350611d45818560208601611c25565b611d4e816119fe565b840191505092915050565b60006020820190508181036000830152611d738184611d20565b905092915050565b60008060408385031215611d9257611d9161198c565b5b6000611da0858286016119df565b9250506020611db1858286016119df565b9150509250929050565b611dc4816119b6565b82525050565b6000602082019050611ddf6000830184611dbb565b92915050565b7f4e487b7100000000000000000000000000000000000000000000000000000000600052602160045260246000fd5b60068110611e2557611e24611de5565b5b50565b6000819050611e3682611e14565b919050565b6000611e4682611e28565b9050919050565b611e5681611e3b565b82525050565b6000602082019050611e716000830184611e4d565b92915050565b60008060408385031215611e8e57611e8d61198c565b5b6000611e9c85828601611b5b565b9250506020611ead85828601611b5b565b9150509250929050565b60008115159050919050565b611ecc81611eb7565b82525050565b6000602082019050611ee76000830184611ec3565b92915050565b600081519050919050565b600082825260208201905092915050565b6000819050602082019050919050565b600082825260208201905092915050565b6000611f3582611c09565b611f3f8185611f19565b9350611f4f818560208601611c25565b611f58816119fe565b840191505092915050565b6000611f6f8383611f2a565b905092915050565b6000602082019050919050565b6000611f8f82611eed565b611f998185611ef8565b935083602082028501611fab85611f09565b8060005b85811015611fe75784840389528151611fc88582611f63565b9450611fd383611f77565b925060208a01995050600181019050611faf565b50829750879550505050505092915050565b600060408201905081810360008301526120138185611c4f565b905081810360208301526120278184611f84565b90509392505050565b600080604083850312156120475761204661198c565b5b6000612055858286016119df565b925050602083013567ffffffffffffffff81111561207657612075611991565b5b61208285828601611b0c565b9150509250929050565b6000806000606084860312156120a5576120a461198c565b5b60006120b3868287016119df565b93505060206120c4868287016119df565b925050604084013567ffffffffffffffff8111156120e5576120e4611991565b5b6120f186828701611b0c565b9150509250925092565b600080604083850312156121125761211161198c565b5b6000612120858286016119df565b925050602061213185828601611b5b565b9150509250929050565b7f4e487b7100000000000000000000000000000000000000000000000000000000600052602260045260246000fd5b6000600282049050600182168061218257607f821691505b6020821081036121955761219461213b565b5b50919050565b60008190508160005260206000209050919050565b60006020601f8301049050919050565b600082821b905092915050565b6000600883026121fd7fffffffffffffffffffffffffffffffffffffffffffffffffffffffffffffffff826121c0565b61220786836121c0565b95508019841693508086168417925050509392505050565b6000819050919050565b600061224461223f61223a84611b3a565b61221f565b611b3a565b9050919050565b6000819050919050565b61225e83612229565b61227261226a8261224b565b8484546121cd565b825550505050565b600090565b61228761227a565b612292818484612255565b505050565b5b818110156122b6576122ab60008261227f565b600181019050612298565b5050565b601f8211156122fb576122cc8161219b565b6122d5846121b0565b810160208510156122e4578190505b6122f86122f0856121b0565b830182612297565b50505b505050565b600082821c905092915050565b600061231e60001984600802612300565b1980831691505092915050565b6000612337838361230d565b9150826002028217905092915050565b61235082611d04565b67ffffffffffffffff81111561236957612368611a0f565b5b612373825461216a565b61237e8282856122ba565b600060209050601f8311600181146123b1576000841561239f578287015190505b6123a9858261232b565b865550612411565b601f1984166123bf8661219b565b60005b828110156123e7578489015182556001820191506020850194506020810190506123c2565b868310156124045784890151612400601f89168261230d565b8355505b6001600288020188555050505b505050505050565b7f4e487b7100000000000000000000000000000000000000000000000000000000600052601160045260246000fd5b600061245382611b3a565b91507fffffffffffffffffffffffffffffffffffffffffffffffffffffffffffffffff820361248557612484612419565b5b600182019050919050565b60006040820190506124a56000830185611dbb565b6124b26020830184611dbb565b9392505050565b6124c281611eb7565b81146124cd57600080fd5b50565b6000815190506124df816124b9565b92915050565b6000602082840312156124fb576124fa61198c565b5b6000612509848285016124d0565b91505092915050565b7f4e487b7100000000000000000000000000000000000000000000000000000000600052603260045260246000fd5b600081905092915050565b600061255782611c09565b6125618185612541565b9350612571818560208601611c25565b80840191505092915050565b6000612589828461254c565b91508190509291505056fea2646970667358221220149b1b7640d1b3a482364eadd64f8142af3a4524e8083b18c8eabf26a7ccb93f64736f6c63430008170033a26469706673582212201bff847d921b97d2f961073c1017c6709f8635642a355c615ea753f502af3dbf64736f6c6343000817003360806040523480156200001157600080fd5b5060405162002ced38038062002ced8339818101604052810190620000379190620000e8565b806000806101000a81548173ffffffffffffffffffffffffffffffffffffffff021916908373ffffffffffffffffffffffffffffffffffffffff160217905550506200011a565b600080fd5b600073ffffffffffffffffffffffffffffffffffffffff82169050919050565b6000620000b08262000083565b9050919050565b620000c281620000a3565b8114620000ce57600080fd5b50565b600081519050620000e281620000b7565b92915050565b6000602082840312156200010157620001006200007e565b5b60006200011184828501620000d1565b91505092915050565b612bc3806200012a6000396000f3fe608060405234801561001057600080fd5b50600436106100f55760003560e01c80639c8d83bb11610097578063bd49739711610066578063bd497397146102f8578063d77d72ca14610328578063e27b3ca814610358578063e340938214610388576100f5565b80639c8d83bb1461024a578063a34cc9361461027a578063ab2d8b4f14610298578063ad2bb1b3146102c8576100f5565b80634e8810f7116100d35780634e8810f71461018a578063614df572146101ba5780638d4b42ff146101ea57806393bb5cab1461021a576100f5565b80631059c192146100fa5780631629ea531461012a57806330b3a8901461015a575b600080fd5b610114600480360381019061010f919061251a565b6103b8565b6040516101219190612569565b60405180910390f35b610144600480360381019061013f9190612584565b6103fa565b60405161015191906125c0565b60405180910390f35b610174600480360381019061016f9190612584565b610443565b60405161018191906125c0565b60405180910390f35b6101a4600480360381019061019f919061251a565b61045b565b6040516101b19190612569565b60405180910390f35b6101d460048036038101906101cf91906125db565b6104d6565b6040516101e19190612636565b60405180910390f35b61020460048036038101906101ff919061267d565b61056d565b6040516102119190612844565b60405180910390f35b610234600480360381019061022f9190612860565b61058d565b60405161024191906125c0565b60405180910390f35b610264600480360381019061025f9190612584565b611798565b6040516102719190612636565b60405180910390f35b6102826117b8565b60405161028f9190612943565b60405180910390f35b6102b260048036038101906102ad9190612584565b61185e565b6040516102bf91906125c0565b60405180910390f35b6102e260048036038101906102dd9190612584565b611876565b6040516102ef9190612844565b60405180910390f35b610312600480360381019061030d9190612584565b611895565b60405161031f9190612943565b60405180910390f35b610342600480360381019061033d91906125db565b61193d565b60405161034f91906125c0565b60405180910390f35b610372600480360381019061036d9190612584565b611962565b60405161037f9190612844565b60405180910390f35b6103a2600480360381019061039d9190612584565b611b1b565b6040516103af91906125c0565b60405180910390f35b60086020528160005260406000206020528060005260406000206000915091509054906101000a900473ffffffffffffffffffffffffffffffffffffffff1681565b6000600760008373ffffffffffffffffffffffffffffffffffffffff1673ffffffffffffffffffffffffffffffffffffffff168152602001908152602001600020549050919050565b60066020528060005260406000206000915090505481565b6000600860008473ffffffffffffffffffffffffffffffffffffffff1673ffffffffffffffffffffffffffffffffffffffff168152602001908152602001600020600083815260200190815260200160002060009054906101000a900473ffffffffffffffffffffffffffffffffffffffff16905092915050565b6000600160008473ffffffffffffffffffffffffffffffffffffffff1673ffffffffffffffffffffffffffffffffffffffff16815260200190815260200160002060008373ffffffffffffffffffffffffffffffffffffffff1673ffffffffffffffffffffffffffffffffffffffff16815260200190815260200160002060010160059054906101000a900460ff16905092915050565b6105756123f6565b6105828686868686611b64565b905095945050505050565b6000806105998361234d565b9050600760008673ffffffffffffffffffffffffffffffffffffffff1673ffffffffffffffffffffffffffffffffffffffff168152602001908152602001600020600081546105e790612994565b9190508190555084600860008673ffffffffffffffffffffffffffffffffffffffff1673ffffffffffffffffffffffffffffffffffffffff1681526020019081526020016000206000600660008873ffffffffffffffffffffffffffffffffffffffff1673ffffffffffffffffffffffffffffffffffffffff16815260200190815260200160002054815260200190815260200160002060006101000a81548173ffffffffffffffffffffffffffffffffffffffff021916908373ffffffffffffffffffffffffffffffffffffffff160217905550600660008573ffffffffffffffffffffffffffffffffffffffff1673ffffffffffffffffffffffffffffffffffffffff1681526020019081526020016000206000815461070890612994565b9190508190555060008061071c87876123a1565b915091506000600560008473ffffffffffffffffffffffffffffffffffffffff1673ffffffffffffffffffffffffffffffffffffffff16815260200190815260200160002060008373ffffffffffffffffffffffffffffffffffffffff1673ffffffffffffffffffffffffffffffffffffffff1681526020019081526020016000205403610dd3576003600081546107b390612994565b91905081905550600354600560008473ffffffffffffffffffffffffffffffffffffffff1673ffffffffffffffffffffffffffffffffffffffff16815260200190815260200160002060008373ffffffffffffffffffffffffffffffffffffffff1673ffffffffffffffffffffffffffffffffffffffff16815260200190815260200160002081905550604051806101200160405280600454815260200160011515815260200160001515815260200160001515815260200160001515815260200160011515815260200160001515815260200184600881111561089a57610899612716565b5b8152602001600060088111156108b3576108b2612716565b5b815250600160008873ffffffffffffffffffffffffffffffffffffffff1673ffffffffffffffffffffffffffffffffffffffff16815260200190815260200160002060008973ffffffffffffffffffffffffffffffffffffffff1673ffffffffffffffffffffffffffffffffffffffff1681526020019081526020016000206000820151816000015560208201518160010160006101000a81548160ff02191690831515021790555060408201518160010160016101000a81548160ff02191690831515021790555060608201518160010160026101000a81548160ff02191690831515021790555060808201518160010160036101000a81548160ff02191690831515021790555060a08201518160010160046101000a81548160ff02191690831515021790555060c08201518160010160056101000a81548160ff02191690831515021790555060e08201518160010160066101000a81548160ff02191690836008811115610a2757610a26612716565b5b02179055506101008201518160010160076101000a81548160ff02191690836008811115610a5857610a57612716565b5b0217905550905050600460008154610a6f90612994565b9190508190555060008054906101000a900473ffffffffffffffffffffffffffffffffffffffff1673ffffffffffffffffffffffffffffffffffffffff1663d328e840876040518263ffffffff1660e01b8152600401610acf9190612569565b6020604051808303816000875af1158015610aee573d6000803e3d6000fd5b505050506040513d601f19601f82011682018060405250810190610b1291906129f1565b50604051806101200160405280600454815260200160001515815260200160011515815260200160001515815260200160001515815260200160001515815260200160011515815260200160006008811115610b7157610b70612716565b5b8152602001846008811115610b8957610b88612716565b5b815250600160008973ffffffffffffffffffffffffffffffffffffffff1673ffffffffffffffffffffffffffffffffffffffff16815260200190815260200160002060008873ffffffffffffffffffffffffffffffffffffffff1673ffffffffffffffffffffffffffffffffffffffff1681526020019081526020016000206000820151816000015560208201518160010160006101000a81548160ff02191690831515021790555060408201518160010160016101000a81548160ff02191690831515021790555060608201518160010160026101000a81548160ff02191690831515021790555060808201518160010160036101000a81548160ff02191690831515021790555060a08201518160010160046101000a81548160ff02191690831515021790555060c08201518160010160056101000a81548160ff02191690831515021790555060e08201518160010160066101000a81548160ff02191690836008811115610cfd57610cfc612716565b5b02179055506101008201518160010160076101000a81548160ff02191690836008811115610d2e57610d2d612716565b5b0217905550905050600460008154610d4590612994565b91905081905550600560008373ffffffffffffffffffffffffffffffffffffffff1673ffffffffffffffffffffffffffffffffffffffff16815260200190815260200160002060008273ffffffffffffffffffffffffffffffffffffffff1673ffffffffffffffffffffffffffffffffffffffff168152602001908152602001600020549350505050611791565b6001600560008473ffffffffffffffffffffffffffffffffffffffff1673ffffffffffffffffffffffffffffffffffffffff16815260200190815260200160002060008373ffffffffffffffffffffffffffffffffffffffff1673ffffffffffffffffffffffffffffffffffffffff168152602001908152602001600020540361170e57600360008154610e6690612994565b9190508190555060006008811115610e8157610e80612716565b5b600160008873ffffffffffffffffffffffffffffffffffffffff1673ffffffffffffffffffffffffffffffffffffffff16815260200190815260200160002060008973ffffffffffffffffffffffffffffffffffffffff1673ffffffffffffffffffffffffffffffffffffffff16815260200190815260200160002060010160069054906101000a900460ff166008811115610f2057610f1f612716565b5b0361168757600354600560008473ffffffffffffffffffffffffffffffffffffffff1673ffffffffffffffffffffffffffffffffffffffff16815260200190815260200160002060008373ffffffffffffffffffffffffffffffffffffffff1673ffffffffffffffffffffffffffffffffffffffff16815260200190815260200160002081905550610fb06123f6565b600160008873ffffffffffffffffffffffffffffffffffffffff1673ffffffffffffffffffffffffffffffffffffffff16815260200190815260200160002060008973ffffffffffffffffffffffffffffffffffffffff1673ffffffffffffffffffffffffffffffffffffffff16815260200190815260200160002060405180610120016040529081600082015481526020016001820160009054906101000a900460ff161515151581526020016001820160019054906101000a900460ff161515151581526020016001820160029054906101000a900460ff161515151581526020016001820160039054906101000a900460ff161515151581526020016001820160049054906101000a900460ff161515151581526020016001820160059054906101000a900460ff161515151581526020016001820160069054906101000a900460ff16600881111561110957611108612716565b5b600881111561111b5761111a612716565b5b81526020016001820160079054906101000a900460ff16600881111561114457611143612716565b5b600881111561115657611155612716565b5b81525050905060405180610120016040528060045481526020016001151581526020018260400151151581526020016000151581526020018260800151151581526020016001151581526020018260c00151151581526020018560088111156111c2576111c1612716565b5b815260200182610100015160088111156111df576111de612716565b5b815250600160008973ffffffffffffffffffffffffffffffffffffffff1673ffffffffffffffffffffffffffffffffffffffff16815260200190815260200160002060008a73ffffffffffffffffffffffffffffffffffffffff1673ffffffffffffffffffffffffffffffffffffffff1681526020019081526020016000206000820151816000015560208201518160010160006101000a81548160ff02191690831515021790555060408201518160010160016101000a81548160ff02191690831515021790555060608201518160010160026101000a81548160ff02191690831515021790555060808201518160010160036101000a81548160ff02191690831515021790555060a08201518160010160046101000a81548160ff02191690831515021790555060c08201518160010160056101000a81548160ff02191690831515021790555060e08201518160010160066101000a81548160ff0219169083600881111561135357611352612716565b5b02179055506101008201518160010160076101000a81548160ff0219169083600881111561138457611383612716565b5b021790555090505060046000815461139b90612994565b9190508190555060008054906101000a900473ffffffffffffffffffffffffffffffffffffffff1673ffffffffffffffffffffffffffffffffffffffff1663d328e840886040518263ffffffff1660e01b81526004016113fb9190612569565b6020604051808303816000875af115801561141a573d6000803e3d6000fd5b505050506040513d601f19601f8201168201806040525081019061143e91906129f1565b5060405180610120016040528060045481526020018260400151151581526020016001151581526020018260800151151581526020016000151581526020018260c001511515815260200160011515815260200182610100015160088111156114aa576114a9612716565b5b81526020018560088111156114c2576114c1612716565b5b815250600160008a73ffffffffffffffffffffffffffffffffffffffff1673ffffffffffffffffffffffffffffffffffffffff16815260200190815260200160002060008973ffffffffffffffffffffffffffffffffffffffff1673ffffffffffffffffffffffffffffffffffffffff1681526020019081526020016000206000820151816000015560208201518160010160006101000a81548160ff02191690831515021790555060408201518160010160016101000a81548160ff02191690831515021790555060608201518160010160026101000a81548160ff02191690831515021790555060808201518160010160036101000a81548160ff02191690831515021790555060a08201518160010160046101000a81548160ff02191690831515021790555060c08201518160010160056101000a81548160ff02191690831515021790555060e08201518160010160066101000a81548160ff0219169083600881111561163657611635612716565b5b02179055506101008201518160010160076101000a81548160ff0219169083600881111561166757611666612716565b5b021790555090505060046000815461167e90612994565b91905081905550505b600560008373ffffffffffffffffffffffffffffffffffffffff1673ffffffffffffffffffffffffffffffffffffffff16815260200190815260200160002060008273ffffffffffffffffffffffffffffffffffffffff1673ffffffffffffffffffffffffffffffffffffffff168152602001908152602001600020549350505050611791565b600560008373ffffffffffffffffffffffffffffffffffffffff1673ffffffffffffffffffffffffffffffffffffffff16815260200190815260200160002060008273ffffffffffffffffffffffffffffffffffffffff1673ffffffffffffffffffffffffffffffffffffffff1681526020019081526020016000205493505050505b9392505050565b60026020528060005260406000206000915054906101000a900460ff1681565b606060008054906101000a900473ffffffffffffffffffffffffffffffffffffffff1673ffffffffffffffffffffffffffffffffffffffff1663517fe4de336040518263ffffffff1660e01b81526004016118139190612569565b600060405180830381865afa158015611830573d6000803e3d6000fd5b505050506040513d6000823e3d601f19601f820116820180604052508101906118599190612b44565b905090565b60076020528060005260406000206000915090505481565b61187e6123f6565b61188e8260008060016005611b64565b9050919050565b606060008054906101000a900473ffffffffffffffffffffffffffffffffffffffff1673ffffffffffffffffffffffffffffffffffffffff1663517fe4de836040518263ffffffff1660e01b81526004016118f09190612569565b600060405180830381865afa15801561190d573d6000803e3d6000fd5b505050506040513d6000823e3d601f19601f820116820180604052508101906119369190612b44565b9050919050565b6005602052816000526040600020602052806000526040600020600091509150505481565b61196a6123f6565b600160003373ffffffffffffffffffffffffffffffffffffffff1673ffffffffffffffffffffffffffffffffffffffff16815260200190815260200160002060008373ffffffffffffffffffffffffffffffffffffffff1673ffffffffffffffffffffffffffffffffffffffff16815260200190815260200160002060405180610120016040529081600082015481526020016001820160009054906101000a900460ff161515151581526020016001820160019054906101000a900460ff161515151581526020016001820160029054906101000a900460ff161515151581526020016001820160039054906101000a900460ff161515151581526020016001820160049054906101000a900460ff161515151581526020016001820160059054906101000a900460ff161515151581526020016001820160069054906101000a900460ff166008811115611ac357611ac2612716565b5b6008811115611ad557611ad4612716565b5b81526020016001820160079054906101000a900460ff166008811115611afe57611afd612716565b5b6008811115611b1057611b0f612716565b5b815250509050919050565b6000600660008373ffffffffffffffffffffffffffffffffffffffff1673ffffffffffffffffffffffffffffffffffffffff168152602001908152602001600020549050919050565b611b6c6123f6565b6000611b778361234d565b90506000600160003373ffffffffffffffffffffffffffffffffffffffff1673ffffffffffffffffffffffffffffffffffffffff16815260200190815260200160002060008973ffffffffffffffffffffffffffffffffffffffff1673ffffffffffffffffffffffffffffffffffffffff16815260200190815260200160002060405180610120016040529081600082015481526020016001820160009054906101000a900460ff161515151581526020016001820160019054906101000a900460ff161515151581526020016001820160029054906101000a900460ff161515151581526020016001820160039054906101000a900460ff161515151581526020016001820160049054906101000a900460ff161515151581526020016001820160059054906101000a900460ff161515151581526020016001820160069054906101000a900460ff166008811115611cd457611cd3612716565b5b6008811115611ce657611ce5612716565b5b81526020016001820160079054906101000a900460ff166008811115611d0f57611d0e612716565b5b6008811115611d2157611d20612716565b5b8152505090506000600160008a73ffffffffffffffffffffffffffffffffffffffff1673ffffffffffffffffffffffffffffffffffffffff16815260200190815260200160002060003373ffffffffffffffffffffffffffffffffffffffff1673ffffffffffffffffffffffffffffffffffffffff16815260200190815260200160002060405180610120016040529081600082015481526020016001820160009054906101000a900460ff161515151581526020016001820160019054906101000a900460ff161515151581526020016001820160029054906101000a900460ff161515151581526020016001820160039054906101000a900460ff161515151581526020016001820160049054906101000a900460ff161515151581526020016001820160059054906101000a900460ff161515151581526020016001820160069054906101000a900460ff166008811115611e8257611e81612716565b5b6008811115611e9457611e93612716565b5b81526020016001820160079054906101000a900460ff166008811115611ebd57611ebc612716565b5b6008811115611ecf57611ece612716565b5b8152505090506000604051806101200160405280846000015181526020018a15158152602001846040015115158152602001881515815260200184608001511515815260200189151581526020018460c0015115158152602001856008811115611f3c57611f3b612716565b5b81526020018461010001516008811115611f5957611f58612716565b5b81525090506000604051806101200160405280846000015181526020018460200151151581526020018b1515815260200184606001511515815260200189151581526020018460a00151151581526020018a151581526020018460e001516008811115611fc957611fc8612716565b5b8152602001866008811115611fe157611fe0612716565b5b815250905081600160003373ffffffffffffffffffffffffffffffffffffffff1673ffffffffffffffffffffffffffffffffffffffff16815260200190815260200160002060008d73ffffffffffffffffffffffffffffffffffffffff1673ffffffffffffffffffffffffffffffffffffffff1681526020019081526020016000206000820151816000015560208201518160010160006101000a81548160ff02191690831515021790555060408201518160010160016101000a81548160ff02191690831515021790555060608201518160010160026101000a81548160ff02191690831515021790555060808201518160010160036101000a81548160ff02191690831515021790555060a08201518160010160046101000a81548160ff02191690831515021790555060c08201518160010160056101000a81548160ff02191690831515021790555060e08201518160010160066101000a81548160ff0219169083600881111561215857612157612716565b5b02179055506101008201518160010160076101000a81548160ff0219169083600881111561218957612188612716565b5b021790555090505080600160008d73ffffffffffffffffffffffffffffffffffffffff1673ffffffffffffffffffffffffffffffffffffffff16815260200190815260200160002060003373ffffffffffffffffffffffffffffffffffffffff1673ffffffffffffffffffffffffffffffffffffffff1681526020019081526020016000206000820151816000015560208201518160010160006101000a81548160ff02191690831515021790555060408201518160010160016101000a81548160ff02191690831515021790555060608201518160010160026101000a81548160ff02191690831515021790555060808201518160010160036101000a81548160ff02191690831515021790555060a08201518160010160046101000a81548160ff02191690831515021790555060c08201518160010160056101000a81548160ff02191690831515021790555060e08201518160010160066101000a81548160ff0219169083600881111561230357612302612716565b5b02179055506101008201518160010160076101000a81548160ff0219169083600881111561233457612333612716565b5b0217905550905050819550505050505095945050505050565b600080820361235b57600290505b6001820361236857600390505b6002820361237557600490505b6003820361238257600590505b6004820361238f57600690505b6005820361239c57600790505b919050565b6000808273ffffffffffffffffffffffffffffffffffffffff168473ffffffffffffffffffffffffffffffffffffffff16106123e45782915081849150816123ed565b83915081839150815b50509250929050565b604051806101200160405280600081526020016000151581526020016000151581526020016000151581526020016000151581526020016000151581526020016000151581526020016000600881111561245357612452612716565b5b81526020016000600881111561246c5761246b612716565b5b81525090565b6000604051905090565b600080fd5b600080fd5b600073ffffffffffffffffffffffffffffffffffffffff82169050919050565b60006124b182612486565b9050919050565b6124c1816124a6565b81146124cc57600080fd5b50565b6000813590506124de816124b8565b92915050565b6000819050919050565b6124f7816124e4565b811461250257600080fd5b50565b600081359050612514816124ee565b92915050565b600080604083850312156125315761253061247c565b5b600061253f858286016124cf565b925050602061255085828601612505565b9150509250929050565b612563816124a6565b82525050565b600060208201905061257e600083018461255a565b92915050565b60006020828403121561259a5761259961247c565b5b60006125a8848285016124cf565b91505092915050565b6125ba816124e4565b82525050565b60006020820190506125d560008301846125b1565b92915050565b600080604083850312156125f2576125f161247c565b5b6000612600858286016124cf565b9250506020612611858286016124cf565b9150509250929050565b60008115159050919050565b6126308161261b565b82525050565b600060208201905061264b6000830184612627565b92915050565b61265a8161261b565b811461266557600080fd5b50565b60008135905061267781612651565b92915050565b600080600080600060a086880312156126995761269861247c565b5b60006126a7888289016124cf565b95505060206126b888828901612668565b94505060406126c988828901612668565b93505060606126da88828901612668565b92505060806126eb88828901612505565b9150509295509295909350565b612701816124e4565b82525050565b6127108161261b565b82525050565b7f4e487b7100000000000000000000000000000000000000000000000000000000600052602160045260246000fd5b6009811061275657612755612716565b5b50565b600081905061276782612745565b919050565b600061277782612759565b9050919050565b6127878161276c565b82525050565b610120820160008201516127a460008501826126f8565b5060208201516127b76020850182612707565b5060408201516127ca6040850182612707565b5060608201516127dd6060850182612707565b5060808201516127f06080850182612707565b5060a082015161280360a0850182612707565b5060c082015161281660c0850182612707565b5060e082015161282960e085018261277e565b5061010082015161283e61010085018261277e565b50505050565b60006101208201905061285a600083018461278d565b92915050565b6000806000606084860312156128795761287861247c565b5b6000612887868287016124cf565b9350506020612898868287016124cf565b92505060406128a986828701612505565b9150509250925092565b600081519050919050565b600082825260208201905092915050565b60005b838110156128ed5780820151818401526020810190506128d2565b60008484015250505050565b6000601f19601f8301169050919050565b6000612915826128b3565b61291f81856128be565b935061292f8185602086016128cf565b612938816128f9565b840191505092915050565b6000602082019050818103600083015261295d818461290a565b905092915050565b7f4e487b7100000000000000000000000000000000000000000000000000000000600052601160045260246000fd5b600061299f826124e4565b91507fffffffffffffffffffffffffffffffffffffffffffffffffffffffffffffffff82036129d1576129d0612965565b5b600182019050919050565b6000815190506129eb816124ee565b92915050565b600060208284031215612a0757612a0661247c565b5b6000612a15848285016129dc565b91505092915050565b600080fd5b600080fd5b7f4e487b7100000000000000000000000000000000000000000000000000000000600052604160045260246000fd5b612a60826128f9565b810181811067ffffffffffffffff82111715612a7f57612a7e612a28565b5b80604052505050565b6000612a92612472565b9050612a9e8282612a57565b919050565b600067ffffffffffffffff821115612abe57612abd612a28565b5b612ac7826128f9565b9050602081019050919050565b6000612ae7612ae284612aa3565b612a88565b905082815260208101848484011115612b0357612b02612a23565b5b612b0e8482856128cf565b509392505050565b600082601f830112612b2b57612b2a612a1e565b5b8151612b3b848260208601612ad4565b91505092915050565b600060208284031215612b5a57612b5961247c565b5b600082015167ffffffffffffffff811115612b7857612b77612481565b5b612b8484828501612b16565b9150509291505056fea2646970667358221220775de0e9b8e838c7835a0de955ce653f67b6ecf55bcf603d9e046a20301d5ae464736f6c634300081700337b226e616d65223a2273307841646d696e222c22656d61696c223a22747970652e73746572656f40706d2e6d65222c22696d616765223a2268747470733a2f2f697066732e696f2f697066732f516d584e63694776474a4752563248484538326f4c6f69637677617442387371737964786e3750334e5350316e57227d",
  "immutableReferences": {},
  "source": "// SPDX-License-Identifier: GPL-3.0\n// // // // // // // // // // // // // // // // // // // // // // // // // // // // // // // // // // // // // // // // // // // // // // // // // // // // // // // // // // // // //\n//\n//      0KKKKKKKKKKKKKKKKKKKKKKKKKKKKKKKK0Okdlc:;,......    ......',;cldxO0KKKKKKKKKKKKKKKKKKKKKKKKKKKKKKKKK\n//      XNNNNNNNNNNNNNNNNNNNNNNNNNNXX0kdc;'...        .......         ...';coxOKXNNNNNNNNNNNNNNNNNNNNNNNNNNN\n//      XNNNNNNNNNNNNNNNNNNNNNNNX0xl;'..              .,;;:,.                ..;cdOXXNNNNNNNNNNNNNNNNNNNNNNN\n//      XNNNNNNNNNNNNNNNNNNXNXOo:'.                   .......                    ..;lkKXNNNNNNNNNNNNNNNNNNNN\n//      XNNNNNNNNNNNNNNNNNXOo;..              .........................             ..,lkKNNNNXNNNNNNNNNNNNN\n//      XNNNNNNNNNNNNXXNKx:..            ..........    'lc'.    ............            .;d0XNNNNNNNNNNNNNNN\n//      XNNNNNNNNNNNNX0d;.          ........         .;dddkl.            .......          .'lOXNNNNNNNNNNNNN\n//      XNNNNNNNNNNX0d,.         ......             .cx:..,lo'               ......         .'lOXNNNNNNNNNNN\n//      XNNNNXNNNNKx,.         .....               .ox;.   .:o,.                 ....         .'o0XNNNNNNNNN\n//      XNXNNNNNXOc.        .....                .,dd'      .;l;.                  .....   .... .;xXNNNNNNNN\n//      XNNNNNNKd'....... .....                 .;xo.        .'c;.                    .....':;..  .l0XNNNNNN\n//      XNNNNX0c. ..'''......                  .ckc.           .:;.                     ....',...  .;OXNNNNN\n//      XNNNXO:.   ........                   .ok:.             .;;.                     ......     .,xXNNXX\n//      XNNXO;.       ...                    'dx;.               .,;.                      ...        'xXNNN\n//      XNXO;.       ...                   .,xx'       .....''''''';:..                     ...        'xXNN\n//      XN0:.       ...                   .;kd.  ..,:ldxkOOOOOOOOOkO0Odl:,..                  ...      .,kXN\n//      XKl.       ...                   .cko'':ok00Okdlc;;,'''...',;:dkxkkd:..                ..       .:0N\n//      Xx'       ...                   .lKOxk00xxxl,.  ....',..      .'..,cddl,.              ...       .oX\n//      O:.      ...                  ..dNN0xl;':c::c:'..':odol:..     .... ..:lc,.             ...       ,k\n//      d.       ..                 .,o00d:.. .od'  .,cclxxl'.'coc.     ....   ..,,'..           ..       .l\n//      :.      ...              ..:xKNO,.   .lO:    .;k0o;.   .'do.     ...      .....          ...       ,\n//      '       ..             ..cddx0x'     .xO,   .:dc',:;'.   ;k:.           ..,'...           ..       .\n//      .       ..            .:lc,ckd.      .dKc. .cl'.  ..,'. .lO:       ..':ll:,..             ...      .\n//      .      ...          .,:,..ckl.       .;0O:,:,.      ...'lOl.   ..;ldkkdo;.                ...      .\n//             ...        ..'.. .lkc.         .;kK0o,.......':dOx;..,cdOKKko;..'c:.               ...\n//      .      ...       ....  .lk:.           .'coxOkkxxxxkkkxdodkKXXOdc'.    .'dd,.             ...\n//      .      ...        ....,dk;.            ..  ..;coxkkOO0KXX0ko:'..         'dOc.            ...      .\n//      .       ..          .,dd;,,;;:::;;;;;::clloxkO0KK00Oxdl;'..               .l0d'.          ...      .\n//      ,.      ...        .;dc.  ...,;:clloodddddoolc:;'....                      .;OO:.         ......   .\n//      c.  .......       .:o;.                                                     .'d0d'.      ....,;'. .:\n//      x'  .';,...      .cl'.                                                        .:OO:.     ....;;.. .o\n//      0l. ..,'....   .'ol...............................'''',,,,,,;;;:::::ccccclllllookNXd.   ... .... .;0\n//      XO,       ...  .coc::cccccccccllllllllllllloooooooooooooooooooooooooooooooolllllllc;.  ...       .dX\n//      XXd.       ...  .........................................                             ...       .lKN\n//      XNKl.       ...            .:cccccc:;:ccccccc:::cccccccccccccccccccccccc'.           ...       .:0NX\n//      XNNKc.       ...          .cXWNXXNKkxokXNWWNNK0NMWWNXNW0OXWNNWWNWWNWWNWWo.          ...       .;OXNN\n//      XNNN0l.       ....        .cXNxokKxokllOkdxKNOxXWkloddOdlOXKkK0ONWOdx0WWo.         ...       .;OXNNN\n//      XNNNNKo.        ...       .cXNOdokxcddd0klo0WKdOXd;lxkKOd0NWOlokKXOllOWWo.       ...        .c0NNNNN\n//      XNNNNNXd'.       ....     .cXWK00XNKO0XXKNXKWN0KNNK00KNNK0XXOdOKKXKNXKNWo.     ....        .lKNNNNNN\n//      XNNNNNNXO:.        ....    'oddddddddddddddddddddddddddddddl:coddddddddo;.   ....        .,xXNNNNNNN\n//      XNNNNNNNNKd'.        .....                                                 ....        ..l0XNNNNNNNN\n//      XNNNNNNNNNXOl..        ......                                           .....         .:kXNNNNNNNNNN\n//      XNNNNNNNNNNNXOc..         ......                                    ......          .:xKNNNNNNNNNNNN\n//      XNNNNNNNNNNNNNXOl'.          ........                          ........          ..ckKNNNNNNXNNNNNNN\n//      XNNNNNNNNNNNNNNNX0d;..       ..'....................................',,.       .,oOXNNNNNNNNNNNNNNNN\n//      XNNNNNNNNNNNNNNNNNNXOo;..    ...;;.     ....................      .;,'..   ..,lkKXNNNNNNNNNNNNNNNNNN\n//      XNNNNNNNNNNNNNNNNNNNNNKOd:'.    ..                                 ...  ..;lkKXNXNNNNNNNNNNNNNNNNNNN\n//      XNNNNNNNNNNNNNNNNNNNNNNNNX0ko:,...                                 ..':lx0XNNNNNXNNNNNNNNNNNNNNNNNNN\n//      XNNNNNNNNNNNNNNNNNNNNNNNNNNNNXKOxoc;,....                  ....';:ldOKXXNNNNNNNNNNNNNNNNNNNNNNNNNNNN\n//      XNNNNNNNNNNNNNNNNNNNNNNNNNNNXXNNNNXK0kdl:;'.....    .....',:ldk0KXNNNNNXNNNNNNNNNNNNNNNNNNNNNNNNNNNN\n//\n// // // // // // // // // // // // // // // // // // // // // // // // // // // // // // // // // // // // // // // // // // // // // // // // // // // // // // // // // // // // //\n//                                                                                                                                                                                  //\n//      @dev            ::              Aron Mauritala Ayuk                                                                                                                                          //\n//      @msg            ::              stereo@iii6.xyz                                                                                                                                   //\n//      @github         ::              @stereoIII6\n//      @twitter        ::              @stereoIII6                                                                                                                                              //\n//                                                                                                                                                                                  //\n// // // // // // // // // // // // // // // // // // // // // // // // // // // // // // // // // // // // // // // // // // // // // // // // // // // // // // // // // // // // //\n//                                                                                                                                                                                  //\n//      @dev            ::              Juan Xavier Valverde                                                                                                                                    //\n//      @msg            ::              juanxavier@iii6.xyz                                                                                                                               //\n//      @twitter        ::              @JuanXavier                                                                                                                                             //\n//      @github         ::              @JuanXavier                                                                                                                                             //\n//                                                                                                                                                                                  //                                                                                                                                                                                 //\n// // // // // // // // // // // // // // // // // // // // // // // // // // // // // // // // // // // // // // // // // // // // // // // // // // // // // // // // // // // // //\n//  *   *   *   *   *   *   *   *   *   *   *   *   *   *   *   *   *   *   *   *   *   *   *   *   *   *   *   *   *   *   *   *   *   *   *   *   *   *   *   *   *   *   *   *   //\n// // // // // // // // // // // // // // // // // // // // // // // // // // // // // // // // // // // // // // // // // // // // // // // // // // // // // // // // // // // // //\n//                                                                                                                                                                                  //\n//      @company        ::              Fractio Holding                                                                                                                                                                       //\n//      @title          ::              s0xiety Factory                                                                                                                            //\n//      @description    ::              Factory Constructor Contract                                                                                                                           //\n//      @version        ::              0.0.1                                                                                                                                       //\n//      @purpose        ::              Factory Constructor                                                                                                           //\n//                                                                                                                                                                                  //\n//                                                                                                                                                                                  //\n//                                                                                                                                                                                  //\n//                                                                                                                                                                                  //\n//                                                                                                                                                                                  //\n// // // // // // // // // // // // // // // // // // // // // // // // // // // // // // // // // // // // // // // // // // // // // // // // // // // // // // // // // // // // //\n//  *   *   *   *   *   *   *   *   *   *   *   *   *   *   *   *   *   *   *   *   *   *   *   *   *   *   *   *   *   *   *   *   *   *   *   *   *   *   *   *   *   *   *   *   //\n// // // // // // // // // // // // // // // // // // // // // // // // // // // // // // // // // // // // // // // // // // // // // // // // // // // // // // // // // // // // //\n\n/////////////////////////////////////////////////////////////////////////////////////////////////////////////////////\n\n/////////////////////////////////////////////////////////////////////////////////////////////////////////////////////\n\npragma solidity ^0.8.7;\n\nimport \"./s0xUsers.sol\";\nimport \"./s0xFriends.sol\";\nimport \"./s0xGroups.sol\";\nimport \"../iii6utils/Math/iii6Math.sol\";\nimport \"../iii6utils/Misc/iii6Relations.sol\";\n\n/**\n * @dev the s0xFactory creates the s0xial user friend and group interface and\n * functions as central administration hub for all s0xial interactions\n */\ncontract s0xFactory is s0xUsers, iii6Math, iii6Relations {\n    s0xFriends public friends;\n    s0xGroups public groups;\n    address private fAdr;\n    mapping(address => uint256) public groupCount;\n    mapping(address => mapping(uint256 => address)) public groupByCount;\n    mapping(address => uint256) public myGroupCount;\n    mapping(address => mapping(uint256 => address)) public myGroupByCount;\n\n    /**\n     * @dev the s0xFactory creates the s0xial user friend and group interface and\n     * functions as central administration hub for all s0xial interactions\n     * the constructor creates a friends instance and stores the address of the contract\n     */\n    constructor() s0xUsers() iii6Math() {\n        friends = new s0xFriends(address(this));\n        fAdr = address(friends);\n    }\n\n    function _getState(uint256 _state) internal pure returns (GroupType state) {\n        if (_state == 0) state = GroupType.FaceToFace;\n        else if (_state == 1) state = GroupType.Private;\n        else if (_state == 2) state = GroupType.Closed;\n        else if (_state == 3) state = GroupType.Shared;\n        else if (_state == 4) state = GroupType.Public;\n        else if (_state == 5) state = GroupType.Open;\n    }\n\n    /**\n     * @dev the s0xFactory creates the s0xial user friend and group interface and\n     * functions as central administration hub for all s0xial interactions\n     * the constructor creates a friends instance and stores the address of the contract\n     */\n    function _makeGroup(\n        string memory _name,\n        uint256 _state,\n        string memory _p\n    ) internal returns (address) {\n        GroupType state;\n        state = _getState(_state);\n\n        groups = new s0xGroups(\n            address(this),\n            fAdr,\n            bytes(_name),\n            state,\n            msg.sender,\n            _p\n        );\n        groupByCount[msg.sender][groupCount[msg.sender]] = address(groups);\n        groupCount[msg.sender]++;\n        return address(groups);\n    }\n\n    /**\n     * @dev the s0xFactory creates the s0xial user friend and group interface and\n     * functions as central administration hub for all s0xial interactions\n     * the constructor creates a friends instance and stores the address of the contract\n     */\n    function _addUserToGroup(\n        address _adr,\n        address _group,\n        string memory _p\n    ) internal returns (address) {\n        groups = s0xGroups(_group);\n        groups.addUser(msg.sender, _adr, _p);\n        groupByCount[_adr][groupCount[_adr]] = address(groups);\n        groupCount[_adr]++;\n        return _adr;\n    }\n\n    /**\n     * @dev the s0xFactory creates the s0xial user friend and group interface and\n     * functions as central administration hub for all s0xial interactions\n     * the constructor creates a friends instance and stores the address of the contract\n     */\n    function _delUserFromGroup(address _adr, address _group)\n        internal\n        returns (address)\n    {\n        groups = s0xGroups(_group);\n        for (uint256 i = 0; i < groupCount[_adr]; i++) {\n            if (groupByCount[_adr][i] == _group) {\n                groupByCount[_adr][i] = address(0);\n                groups.removeUser(msg.sender, _adr);\n            }\n        }\n        groupCount[_adr]--;\n        return _adr;\n    }\n\n    /**\n     * @dev the s0xFactory creates the s0xial user friend and group interface and\n     * functions as central administration hub for all s0xial interactions\n     * the constructor creates a friends instance and stores the address of the contract\n     */\n    function addUserToGroup(\n        address _adr,\n        address _group,\n        string memory _p\n    ) external returns (address) {\n        return _addUserToGroup(_adr, _group, _p);\n    }\n\n    /**\n     * @dev the s0xFactory creates the s0xial user friend and group interface and\n     * functions as central administration hub for all s0xial interactions\n     * the constructor creates a friends instance and stores the address of the contract\n     */\n    function delUserFromGroup(address _adr, address _group)\n        external\n        returns (address)\n    {\n        return _delUserFromGroup(_adr, _group);\n    }\n\n    /**\n     * @dev the s0xFactory creates the s0xial user friend and group interface and\n     * functions as central administration hub for all s0xial interactions\n     * the constructor creates a friends instance and stores the address of the contract\n     */\n    function createGroup(\n        string calldata _name,\n        uint256 _state,\n        string calldata _p,\n        address[] calldata _usrs\n    ) external returns (address) {\n        address adr = _makeGroup(_name, _state, _p);\n        for (uint256 i = 0; i < _usrs.length; i++) {\n            _addUserToGroup(_usrs[i], adr, _p);\n        }\n        return adr;\n    }\n\n    /**\n     * @dev the s0xFactory creates the s0xial user friend and group interface and\n     * functions as central administration hub for all s0xial interactions\n     * the constructor creates a friends instance and stores the address of the contract\n     */\n    function createConvo(string calldata _name, address _usr)\n        external\n        returns (address)\n    {\n        address adr = _makeGroup(_name, 0, \"\");\n        address usr = _addUserToGroup(_usr, adr, \"\");\n        return usr;\n    }\n}\n",
  "sourcePath": "/Users/iii6/Documents/GitHub/iii6v2/iii6v2/contracts/s0xCommunity/s0xFactory.sol",
  "compiler": {
    "name": "solc",
    "version": "0.8.23+commit.f704f362.Emscripten.clang"
  },
  "schemaVersion": "3.4.16",
  "updatedAt": "2023-12-07T17:31:55.278Z",
  "networkType": "ethereum",
  "devdoc": {
    "details": "the s0xFactory creates the s0xial user friend and group interface and functions as central administration hub for all s0xial interactions",
    "kind": "dev",
    "methods": {
      "addUserToGroup(address,address,string)": {
        "details": "the s0xFactory creates the s0xial user friend and group interface and functions as central administration hub for all s0xial interactions the constructor creates a friends instance and stores the address of the contract"
      },
      "constructor": {
        "details": "the s0xFactory creates the s0xial user friend and group interface and functions as central administration hub for all s0xial interactions the constructor creates a friends instance and stores the address of the contract"
      },
      "createConvo(string,address)": {
        "details": "the s0xFactory creates the s0xial user friend and group interface and functions as central administration hub for all s0xial interactions the constructor creates a friends instance and stores the address of the contract"
      },
      "createGroup(string,uint256,string,address[])": {
        "details": "the s0xFactory creates the s0xial user friend and group interface and functions as central administration hub for all s0xial interactions the constructor creates a friends instance and stores the address of the contract"
      },
      "delUserFromGroup(address,address)": {
        "details": "the s0xFactory creates the s0xial user friend and group interface and functions as central administration hub for all s0xial interactions the constructor creates a friends instance and stores the address of the contract"
      }
    },
    "version": 1
  },
  "userdoc": {
    "kind": "user",
    "methods": {
      "createUserAccount(string,address,string)": {
        "notice": "takes dias to create guest user profile"
      }
    },
    "version": 1
  }
}