{
  "contractName": "s0xGroups",
  "abi": [
    {
      "inputs": [
        {
          "internalType": "address",
          "name": "_user",
          "type": "address"
        },
        {
          "internalType": "address",
          "name": "_friend",
          "type": "address"
        },
        {
          "internalType": "bytes",
          "name": "_name",
          "type": "bytes"
        },
        {
          "internalType": "enum iii6Relations.GroupType",
          "name": "_mode",
          "type": "uint8"
        },
        {
          "internalType": "address",
          "name": "_o",
          "type": "address"
        },
        {
          "internalType": "string",
          "name": "_p",
          "type": "string"
        }
      ],
      "stateMutability": "nonpayable",
      "type": "constructor"
    },
    {
      "inputs": [],
      "name": "All_Slots_Taken",
      "type": "error"
    },
    {
      "inputs": [],
      "name": "Already_Listed",
      "type": "error"
    },
    {
      "inputs": [],
      "name": "Array_Length_Mismatch",
      "type": "error"
    },
    {
      "inputs": [],
      "name": "Event_Has_Ended",
      "type": "error"
    },
    {
      "inputs": [],
      "name": "Greenlist_Expired",
      "type": "error"
    },
    {
      "inputs": [],
      "name": "Insufficient_Amount",
      "type": "error"
    },
    {
      "inputs": [],
      "name": "Insufficient_Balance",
      "type": "error"
    },
    {
      "inputs": [],
      "name": "Insufficient_Funds",
      "type": "error"
    },
    {
      "inputs": [],
      "name": "Insufficient_MLQ",
      "type": "error"
    },
    {
      "inputs": [],
      "name": "Insufficient_Supply",
      "type": "error"
    },
    {
      "inputs": [],
      "name": "Invalid_Amount",
      "type": "error"
    },
    {
      "inputs": [],
      "name": "Invalid_Response",
      "type": "error"
    },
    {
      "inputs": [],
      "name": "Max_Tokens_Minted",
      "type": "error"
    },
    {
      "inputs": [],
      "name": "Min_Requirements_Not_Met",
      "type": "error"
    },
    {
      "inputs": [],
      "name": "Mint_In_Progress",
      "type": "error"
    },
    {
      "inputs": [],
      "name": "Mint_Is_Not_Yet_Live",
      "type": "error"
    },
    {
      "inputs": [],
      "name": "Not_Burnable",
      "type": "error"
    },
    {
      "inputs": [],
      "name": "Not_Friends",
      "type": "error"
    },
    {
      "inputs": [],
      "name": "Not_Friends_Rev",
      "type": "error"
    },
    {
      "inputs": [],
      "name": "Not_Greenlisted",
      "type": "error"
    },
    {
      "inputs": [],
      "name": "Not_Pausable",
      "type": "error"
    },
    {
      "inputs": [],
      "name": "Sold_Out",
      "type": "error"
    },
    {
      "inputs": [],
      "name": "Unauthorized",
      "type": "error"
    },
    {
      "inputs": [],
      "name": "You_Are_Not_The_Holder",
      "type": "error"
    },
    {
      "inputs": [],
      "name": "You_Need_To_Wait",
      "type": "error"
    },
    {
      "inputs": [
        {
          "internalType": "uint256",
          "name": "",
          "type": "uint256"
        }
      ],
      "name": "cntnt",
      "outputs": [
        {
          "internalType": "bytes",
          "name": "",
          "type": "bytes"
        }
      ],
      "stateMutability": "view",
      "type": "function"
    },
    {
      "inputs": [
        {
          "internalType": "address",
          "name": "",
          "type": "address"
        },
        {
          "internalType": "uint256",
          "name": "",
          "type": "uint256"
        }
      ],
      "name": "content",
      "outputs": [
        {
          "internalType": "bytes",
          "name": "",
          "type": "bytes"
        }
      ],
      "stateMutability": "view",
      "type": "function"
    },
    {
      "inputs": [
        {
          "internalType": "address",
          "name": "",
          "type": "address"
        }
      ],
      "name": "invite",
      "outputs": [
        {
          "internalType": "bool",
          "name": "",
          "type": "bool"
        }
      ],
      "stateMutability": "view",
      "type": "function"
    },
    {
      "inputs": [],
      "name": "m",
      "outputs": [
        {
          "internalType": "uint256",
          "name": "",
          "type": "uint256"
        }
      ],
      "stateMutability": "view",
      "type": "function"
    },
    {
      "inputs": [
        {
          "internalType": "address",
          "name": "",
          "type": "address"
        }
      ],
      "name": "mNum",
      "outputs": [
        {
          "internalType": "uint256",
          "name": "",
          "type": "uint256"
        }
      ],
      "stateMutability": "view",
      "type": "function"
    },
    {
      "inputs": [
        {
          "internalType": "uint256",
          "name": "",
          "type": "uint256"
        }
      ],
      "name": "members",
      "outputs": [
        {
          "internalType": "address",
          "name": "",
          "type": "address"
        }
      ],
      "stateMutability": "view",
      "type": "function"
    },
    {
      "inputs": [],
      "name": "mode",
      "outputs": [
        {
          "internalType": "enum iii6Relations.GroupType",
          "name": "",
          "type": "uint8"
        }
      ],
      "stateMutability": "view",
      "type": "function"
    },
    {
      "inputs": [
        {
          "internalType": "address",
          "name": "",
          "type": "address"
        }
      ],
      "name": "myContent",
      "outputs": [
        {
          "internalType": "uint256",
          "name": "",
          "type": "uint256"
        }
      ],
      "stateMutability": "view",
      "type": "function"
    },
    {
      "inputs": [
        {
          "internalType": "address",
          "name": "",
          "type": "address"
        },
        {
          "internalType": "uint256",
          "name": "",
          "type": "uint256"
        }
      ],
      "name": "myReplys",
      "outputs": [
        {
          "internalType": "bytes",
          "name": "",
          "type": "bytes"
        }
      ],
      "stateMutability": "view",
      "type": "function"
    },
    {
      "inputs": [
        {
          "internalType": "address",
          "name": "",
          "type": "address"
        }
      ],
      "name": "myRplyCount",
      "outputs": [
        {
          "internalType": "uint256",
          "name": "",
          "type": "uint256"
        }
      ],
      "stateMutability": "view",
      "type": "function"
    },
    {
      "inputs": [],
      "name": "name",
      "outputs": [
        {
          "internalType": "string",
          "name": "",
          "type": "string"
        }
      ],
      "stateMutability": "view",
      "type": "function"
    },
    {
      "inputs": [],
      "name": "owner",
      "outputs": [
        {
          "internalType": "address",
          "name": "",
          "type": "address"
        }
      ],
      "stateMutability": "view",
      "type": "function"
    },
    {
      "inputs": [
        {
          "internalType": "uint256",
          "name": "",
          "type": "uint256"
        }
      ],
      "name": "r",
      "outputs": [
        {
          "internalType": "uint256",
          "name": "",
          "type": "uint256"
        }
      ],
      "stateMutability": "view",
      "type": "function"
    },
    {
      "inputs": [
        {
          "internalType": "uint256",
          "name": "",
          "type": "uint256"
        },
        {
          "internalType": "uint256",
          "name": "",
          "type": "uint256"
        }
      ],
      "name": "replys",
      "outputs": [
        {
          "internalType": "bytes",
          "name": "",
          "type": "bytes"
        }
      ],
      "stateMutability": "view",
      "type": "function"
    },
    {
      "inputs": [
        {
          "internalType": "address",
          "name": "_sender",
          "type": "address"
        },
        {
          "internalType": "address",
          "name": "_adr",
          "type": "address"
        },
        {
          "internalType": "string",
          "name": "_pin",
          "type": "string"
        }
      ],
      "name": "addUser",
      "outputs": [
        {
          "internalType": "address",
          "name": "ad",
          "type": "address"
        }
      ],
      "stateMutability": "nonpayable",
      "type": "function"
    },
    {
      "inputs": [
        {
          "internalType": "address",
          "name": "_sender",
          "type": "address"
        },
        {
          "internalType": "address",
          "name": "_adr",
          "type": "address"
        }
      ],
      "name": "removeUser",
      "outputs": [
        {
          "internalType": "address",
          "name": "",
          "type": "address"
        }
      ],
      "stateMutability": "nonpayable",
      "type": "function"
    },
    {
      "inputs": [
        {
          "internalType": "address",
          "name": "_sender",
          "type": "address"
        },
        {
          "internalType": "string",
          "name": "_cnt",
          "type": "string"
        }
      ],
      "name": "addContent",
      "outputs": [
        {
          "internalType": "string",
          "name": "",
          "type": "string"
        }
      ],
      "stateMutability": "nonpayable",
      "type": "function"
    },
    {
      "inputs": [
        {
          "internalType": "address",
          "name": "_sender",
          "type": "address"
        },
        {
          "internalType": "string",
          "name": "_rply",
          "type": "string"
        },
        {
          "internalType": "uint256",
          "name": "_c",
          "type": "uint256"
        }
      ],
      "name": "addReplyToContent",
      "outputs": [
        {
          "internalType": "uint256",
          "name": "",
          "type": "uint256"
        }
      ],
      "stateMutability": "nonpayable",
      "type": "function"
    },
    {
      "inputs": [
        {
          "internalType": "uint256",
          "name": "_contentId",
          "type": "uint256"
        }
      ],
      "name": "showContent",
      "outputs": [
        {
          "internalType": "string",
          "name": "",
          "type": "string"
        },
        {
          "internalType": "string[]",
          "name": "",
          "type": "string[]"
        }
      ],
      "stateMutability": "view",
      "type": "function"
    }
  ],
  "bytecode": "0x60806040523480156200001157600080fd5b5060405162002fb538038062002fb5833981810160405281019062000037919062000524565b82600760006101000a81548160ff021916908360058111156200005f576200005e620005fe565b5b0217905550856000806101000a81548173ffffffffffffffffffffffffffffffffffffffff021916908373ffffffffffffffffffffffffffffffffffffffff16021790555084600160006101000a81548173ffffffffffffffffffffffffffffffffffffffff021916908373ffffffffffffffffffffffffffffffffffffffff16021790555081600260006101000a81548173ffffffffffffffffffffffffffffffffffffffff021916908373ffffffffffffffffffffffffffffffffffffffff160217905550806004908162000137919062000878565b50836003908162000149919062000878565b50600160058190555062000185600260009054906101000a900473ffffffffffffffffffffffffffffffffffffffff166200019260201b60201c565b50505050505050620009db565b60008160086000600554815260200190815260200160002060006101000a81548173ffffffffffffffffffffffffffffffffffffffff021916908373ffffffffffffffffffffffffffffffffffffffff160217905550600554600960008473ffffffffffffffffffffffffffffffffffffffff1673ffffffffffffffffffffffffffffffffffffffff168152602001908152602001600020819055506005600081548092919062000243906200098e565b9190505550819050919050565b6000604051905090565b600080fd5b600080fd5b600073ffffffffffffffffffffffffffffffffffffffff82169050919050565b6000620002918262000264565b9050919050565b620002a38162000284565b8114620002af57600080fd5b50565b600081519050620002c38162000298565b92915050565b600080fd5b600080fd5b6000601f19601f8301169050919050565b7f4e487b7100000000000000000000000000000000000000000000000000000000600052604160045260246000fd5b6200031e82620002d3565b810181811067ffffffffffffffff8211171562000340576200033f620002e4565b5b80604052505050565b60006200035562000250565b905062000363828262000313565b919050565b600067ffffffffffffffff821115620003865762000385620002e4565b5b6200039182620002d3565b9050602081019050919050565b60005b83811015620003be578082015181840152602081019050620003a1565b60008484015250505050565b6000620003e1620003db8462000368565b62000349565b9050828152602081018484840111156200040057620003ff620002ce565b5b6200040d8482856200039e565b509392505050565b600082601f8301126200042d576200042c620002c9565b5b81516200043f848260208601620003ca565b91505092915050565b600681106200045657600080fd5b50565b6000815190506200046a8162000448565b92915050565b600067ffffffffffffffff8211156200048e576200048d620002e4565b5b6200049982620002d3565b9050602081019050919050565b6000620004bd620004b78462000470565b62000349565b905082815260208101848484011115620004dc57620004db620002ce565b5b620004e98482856200039e565b509392505050565b600082601f830112620005095762000508620002c9565b5b81516200051b848260208601620004a6565b91505092915050565b60008060008060008060c087890312156200054457620005436200025a565b5b60006200055489828a01620002b2565b96505060206200056789828a01620002b2565b955050604087015167ffffffffffffffff8111156200058b576200058a6200025f565b5b6200059989828a0162000415565b9450506060620005ac89828a0162000459565b9350506080620005bf89828a01620002b2565b92505060a087015167ffffffffffffffff811115620005e357620005e26200025f565b5b620005f189828a01620004f1565b9150509295509295509295565b7f4e487b7100000000000000000000000000000000000000000000000000000000600052602160045260246000fd5b600081519050919050565b7f4e487b7100000000000000000000000000000000000000000000000000000000600052602260045260246000fd5b600060028204905060018216806200068057607f821691505b60208210810362000696576200069562000638565b5b50919050565b60008190508160005260206000209050919050565b60006020601f8301049050919050565b600082821b905092915050565b600060088302620007007fffffffffffffffffffffffffffffffffffffffffffffffffffffffffffffffff82620006c1565b6200070c8683620006c1565b95508019841693508086168417925050509392505050565b6000819050919050565b6000819050919050565b600062000759620007536200074d8462000724565b6200072e565b62000724565b9050919050565b6000819050919050565b620007758362000738565b6200078d620007848262000760565b848454620006ce565b825550505050565b600090565b620007a462000795565b620007b18184846200076a565b505050565b5b81811015620007d957620007cd6000826200079a565b600181019050620007b7565b5050565b601f8211156200082857620007f2816200069c565b620007fd84620006b1565b810160208510156200080d578190505b620008256200081c85620006b1565b830182620007b6565b50505b505050565b600082821c905092915050565b60006200084d600019846008026200082d565b1980831691505092915050565b60006200086883836200083a565b9150826002028217905092915050565b62000883826200062d565b67ffffffffffffffff8111156200089f576200089e620002e4565b5b620008ab825462000667565b620008b8828285620007dd565b600060209050601f831160018114620008f05760008415620008db578287015190505b620008e785826200085a565b86555062000957565b601f19841662000900866200069c565b60005b828110156200092a5784890151825560018201915060208501945060208101905062000903565b868310156200094a578489015162000946601f8916826200083a565b8355505b6001600288020188555050505b505050505050565b7f4e487b7100000000000000000000000000000000000000000000000000000000600052601160045260246000fd5b60006200099b8262000724565b91507fffffffffffffffffffffffffffffffffffffffffffffffffffffffffffffffff8203620009d057620009cf6200095f565b5b600182019050919050565b6125ca80620009eb6000396000f3fe608060405234801561001057600080fd5b50600436106101215760003560e01c80634f0592e7116100ad578063bc87c22511610071578063bc87c2251461037f578063cbc69260146103af578063d3758c2a146103df578063f471d7ac1461040f578063f6ed3c431461043f57610121565b80634f0592e7146102b25780635a2ee019146102e35780635daf08ca146103015780638da5cb5b146103315780639a76a6d71461034f57610121565b806322928d6b116100f457806322928d6b146101d4578063295a5212146102045780632cdd0d5c146102225780632f5300e4146102525780634b77c4681461028257610121565b8063028c3f481461012657806306fdde03146101565780630a0b138f146101745780631bea2627146101a4575b600080fd5b610140600480360381019061013b9190611b70565b61046f565b60405161014d9190611bee565b60405180910390f35b61015e6105d5565b60405161016b9190611c88565b60405180910390f35b61018e60048036038101906101899190611caa565b610663565b60405161019b9190611bee565b60405180910390f35b6101be60048036038101906101b99190611cd7565b61067b565b6040516101cb9190611d59565b60405180910390f35b6101ee60048036038101906101e99190611d7b565b61071b565b6040516101fb9190611dca565b60405180910390f35b61020c6108f0565b6040516102199190611e5c565b60405180910390f35b61023c60048036038101906102379190611e77565b610903565b6040516102499190611d59565b60405180910390f35b61026c60048036038101906102679190611caa565b6109b0565b6040516102799190611bee565b60405180910390f35b61029c60048036038101906102979190611caa565b6109c8565b6040516102a99190611ed2565b60405180910390f35b6102cc60048036038101906102c79190611cd7565b6109e8565b6040516102da929190611ff9565b60405180910390f35b6102eb6109fd565b6040516102f89190611bee565b60405180910390f35b61031b60048036038101906103169190611cd7565b610a03565b6040516103289190611dca565b60405180910390f35b610339610a36565b6040516103469190611dca565b60405180910390f35b61036960048036038101906103649190611caa565b610a5c565b6040516103769190611bee565b60405180910390f35b61039960048036038101906103949190612030565b610a74565b6040516103a69190611c88565b60405180910390f35b6103c960048036038101906103c4919061208c565b610ba8565b6040516103d69190611dca565b60405180910390f35b6103f960048036038101906103f491906120fb565b611542565b6040516104069190611d59565b60405180910390f35b61042960048036038101906104249190611cd7565b6115ef565b6040516104369190611bee565b60405180910390f35b610459600480360381019061045491906120fb565b611607565b6040516104669190611d59565b60405180910390f35b600082600e60008481526020019081526020016000206000600d600086815260200190815260200160002054815260200190815260200160002090816104b59190612347565b5082601060008673ffffffffffffffffffffffffffffffffffffffff1673ffffffffffffffffffffffffffffffffffffffff1681526020019081526020016000206000600f60008873ffffffffffffffffffffffffffffffffffffffff1673ffffffffffffffffffffffffffffffffffffffff16815260200190815260200160002054815260200190815260200160002090816105529190612347565b50600f60008573ffffffffffffffffffffffffffffffffffffffff1673ffffffffffffffffffffffffffffffffffffffff1681526020019081526020016000206000815461059f90612448565b91905081905550600d6000838152602001908152602001600020600081546105c690612448565b91905081905590509392505050565b600380546105e29061216a565b80601f016020809104026020016040519081016040528092919081815260200182805461060e9061216a565b801561065b5780601f106106305761010080835404028352916020019161065b565b820191906000526020600020905b81548152906001019060200180831161063e57829003601f168201915b505050505081565b600a6020528060005260406000206000915090505481565b600c602052806000526040600020600091509050805461069a9061216a565b80601f01602080910402602001604051908101604052809291908181526020018280546106c69061216a565b80156107135780601f106106e857610100808354040283529160200191610713565b820191906000526020600020905b8154815290600101906020018083116106f657829003601f168201915b505050505081565b60008060058111156107305761072f611de5565b5b600760009054906101000a900460ff16600581111561075257610751611de5565b5b03610789576040517f3a5bc32100000000000000000000000000000000000000000000000000000000815260040160405180910390fd5b600260009054906101000a900473ffffffffffffffffffffffffffffffffffffffff1673ffffffffffffffffffffffffffffffffffffffff168373ffffffffffffffffffffffffffffffffffffffff1614610810576040517f82b4290000000000000000000000000000000000000000000000000000000000815260040160405180910390fd5b600060086000600960008673ffffffffffffffffffffffffffffffffffffffff1673ffffffffffffffffffffffffffffffffffffffff16815260200190815260200160002054815260200190815260200160002060006101000a81548173ffffffffffffffffffffffffffffffffffffffff021916908373ffffffffffffffffffffffffffffffffffffffff1602179055506000600960008473ffffffffffffffffffffffffffffffffffffffff1673ffffffffffffffffffffffffffffffffffffffff1681526020019081526020016000208190555081905092915050565b600760009054906101000a900460ff1681565b600e60205281600052604060002060205280600052604060002060009150915050805461092f9061216a565b80601f016020809104026020016040519081016040528092919081815260200182805461095b9061216a565b80156109a85780601f1061097d576101008083540402835291602001916109a8565b820191906000526020600020905b81548152906001019060200180831161098b57829003601f168201915b505050505081565b60096020528060005260406000206000915090505481565b60116020528060005260406000206000915054906101000a900460ff1681565b6060806109f4836116b4565b91509150915091565b60055481565b60086020528060005260406000206000915054906101000a900473ffffffffffffffffffffffffffffffffffffffff1681565b600260009054906101000a900473ffffffffffffffffffffffffffffffffffffffff1681565b600f6020528060005260406000206000915090505481565b606081600b60008573ffffffffffffffffffffffffffffffffffffffff1673ffffffffffffffffffffffffffffffffffffffff1681526020019081526020016000206000600a60008773ffffffffffffffffffffffffffffffffffffffff1673ffffffffffffffffffffffffffffffffffffffff1681526020019081526020016000205481526020019081526020016000209081610b129190612347565b50600a60008473ffffffffffffffffffffffffffffffffffffffff1673ffffffffffffffffffffffffffffffffffffffff16815260200190815260200160002060008154610b5f90612448565b9190508190555081600c600060065481526020019081526020016000209081610b889190612347565b50600660008154610b9890612448565b9190508190555081905092915050565b6000806005811115610bbd57610bbc611de5565b5b600760009054906101000a900460ff166005811115610bdf57610bde611de5565b5b03610dae5760026005541115610c21576040517fea5db9c500000000000000000000000000000000000000000000000000000000815260040160405180910390fd5b600260009054906101000a900473ffffffffffffffffffffffffffffffffffffffff1673ffffffffffffffffffffffffffffffffffffffff168473ffffffffffffffffffffffffffffffffffffffff1614610ca8576040517f82b4290000000000000000000000000000000000000000000000000000000000815260040160405180910390fd5b600160009054906101000a900473ffffffffffffffffffffffffffffffffffffffff1673ffffffffffffffffffffffffffffffffffffffff1663614df572600260009054906101000a900473ffffffffffffffffffffffffffffffffffffffff16856040518363ffffffff1660e01b8152600401610d27929190612490565b602060405180830381865afa158015610d44573d6000803e3d6000fd5b505050506040513d601f19601f82011682018060405250810190610d6891906124e5565b610d9e576040517fcece67ff00000000000000000000000000000000000000000000000000000000815260040160405180910390fd5b610da78361186d565b905061153b565b60016005811115610dc257610dc1611de5565b5b600760009054906101000a900460ff166005811115610de457610de3611de5565b5b0361101257600260009054906101000a900473ffffffffffffffffffffffffffffffffffffffff1673ffffffffffffffffffffffffffffffffffffffff168473ffffffffffffffffffffffffffffffffffffffff16141580610f035750600160009054906101000a900473ffffffffffffffffffffffffffffffffffffffff1673ffffffffffffffffffffffffffffffffffffffff1663614df572600260009054906101000a900473ffffffffffffffffffffffffffffffffffffffff16856040518363ffffffff1660e01b8152600401610ec0929190612490565b602060405180830381865afa158015610edd573d6000803e3d6000fd5b505050506040513d601f19601f82011682018060405250810190610f0191906124e5565b155b80610fcb5750600160009054906101000a900473ffffffffffffffffffffffffffffffffffffffff1673ffffffffffffffffffffffffffffffffffffffff1663614df57284600260009054906101000a900473ffffffffffffffffffffffffffffffffffffffff166040518363ffffffff1660e01b8152600401610f88929190612490565b602060405180830381865afa158015610fa5573d6000803e3d6000fd5b505050506040513d601f19601f82011682018060405250810190610fc991906124e5565b155b15611002576040517f82b4290000000000000000000000000000000000000000000000000000000000815260040160405180910390fd5b61100b8361186d565b905061153a565b6002600581111561102657611025611de5565b5b600760009054906101000a900460ff16600581111561104857611047611de5565b5b036112a957600160009054906101000a900473ffffffffffffffffffffffffffffffffffffffff1673ffffffffffffffffffffffffffffffffffffffff1663614df57285856040518363ffffffff1660e01b81526004016110aa929190612490565b602060405180830381865afa1580156110c7573d6000803e3d6000fd5b505050506040513d601f19601f820116820180604052508101906110eb91906124e5565b15806111925750600160009054906101000a900473ffffffffffffffffffffffffffffffffffffffff1673ffffffffffffffffffffffffffffffffffffffff1663614df57284866040518363ffffffff1660e01b815260040161114f929190612490565b602060405180830381865afa15801561116c573d6000803e3d6000fd5b505050506040513d601f19601f8201168201806040525081019061119091906124e5565b155b156111c9576040517f82b4290000000000000000000000000000000000000000000000000000000000815260040160405180910390fd5b61125d82600480546111da9061216a565b80601f01602080910402602001604051908101604052809291908181526020018280546112069061216a565b80156112535780601f1061122857610100808354040283529160200191611253565b820191906000526020600020905b81548152906001019060200180831161123657829003601f168201915b5050505050611929565b156112725761126b8361186d565b90506112a4565b6040517f82b4290000000000000000000000000000000000000000000000000000000000815260040160405180910390fd5b611539565b600360058111156112bd576112bc611de5565b5b600760009054906101000a900460ff1660058111156112df576112de611de5565b5b148061131e5750600460058111156112fa576112f9611de5565b5b600760009054906101000a900460ff16600581111561131c5761131b611de5565b5b145b156114bb5760001515600160009054906101000a900473ffffffffffffffffffffffffffffffffffffffff1673ffffffffffffffffffffffffffffffffffffffff1663614df57286866040518363ffffffff1660e01b8152600401611384929190612490565b602060405180830381865afa1580156113a1573d6000803e3d6000fd5b505050506040513d601f19601f820116820180604052508101906113c591906124e5565b15151480611474575060001515600160009054906101000a900473ffffffffffffffffffffffffffffffffffffffff1673ffffffffffffffffffffffffffffffffffffffff1663614df57285876040518363ffffffff1660e01b815260040161142f929190612490565b602060405180830381865afa15801561144c573d6000803e3d6000fd5b505050506040513d601f19601f8201168201806040525081019061147091906124e5565b1515145b156114ab576040517f82b4290000000000000000000000000000000000000000000000000000000000815260040160405180910390fd5b6114b48361186d565b9050611538565b6005808111156114ce576114cd611de5565b5b600760009054906101000a900460ff1660058111156114f0576114ef611de5565b5b03611505576114fe8361186d565b9050611537565b6040517f82b4290000000000000000000000000000000000000000000000000000000000815260040160405180910390fd5b5b5b5b5b9392505050565b600b60205281600052604060002060205280600052604060002060009150915050805461156e9061216a565b80601f016020809104026020016040519081016040528092919081815260200182805461159a9061216a565b80156115e75780601f106115bc576101008083540402835291602001916115e7565b820191906000526020600020905b8154815290600101906020018083116115ca57829003601f168201915b505050505081565b600d6020528060005260406000206000915090505481565b60106020528160005260406000206020528060005260406000206000915091505080546116339061216a565b80601f016020809104026020016040519081016040528092919081815260200182805461165f9061216a565b80156116ac5780601f10611681576101008083540402835291602001916116ac565b820191906000526020600020905b81548152906001019060200180831161168f57829003601f168201915b505050505081565b606080606060005b600d6000868152602001908152602001600020548110156117c257600e60008681526020019081526020016000206000600d600088815260200190815260200160002054815260200190815260200160002080546117199061216a565b80601f01602080910402602001604051908101604052809291908181526020018280546117459061216a565b80156117925780601f1061176757610100808354040283529160200191611792565b820191906000526020600020905b81548152906001019060200180831161177557829003601f168201915b50505050508282815181106117aa576117a9612512565b5b602002602001018190525080806001019150506116bc565b50600c6000858152602001908152602001600020818180546117e39061216a565b80601f016020809104026020016040519081016040528092919081815260200182805461180f9061216a565b801561185c5780601f106118315761010080835404028352916020019161185c565b820191906000526020600020905b81548152906001019060200180831161183f57829003601f168201915b505050505091509250925050915091565b60008160086000600554815260200190815260200160002060006101000a81548173ffffffffffffffffffffffffffffffffffffffff021916908373ffffffffffffffffffffffffffffffffffffffff160217905550600554600960008473ffffffffffffffffffffffffffffffffffffffff1673ffffffffffffffffffffffffffffffffffffffff168152602001908152602001600020819055506005600081548092919061191c90612448565b9190505550819050919050565b60008160405160200161193c919061257d565b6040516020818303038152906040528051906020012083604051602001611963919061257d565b6040516020818303038152906040528051906020012014905092915050565b6000604051905090565b600080fd5b600080fd5b600073ffffffffffffffffffffffffffffffffffffffff82169050919050565b60006119c182611996565b9050919050565b6119d1816119b6565b81146119dc57600080fd5b50565b6000813590506119ee816119c8565b92915050565b600080fd5b600080fd5b6000601f19601f8301169050919050565b7f4e487b7100000000000000000000000000000000000000000000000000000000600052604160045260246000fd5b611a47826119fe565b810181811067ffffffffffffffff82111715611a6657611a65611a0f565b5b80604052505050565b6000611a79611982565b9050611a858282611a3e565b919050565b600067ffffffffffffffff821115611aa557611aa4611a0f565b5b611aae826119fe565b9050602081019050919050565b82818337600083830152505050565b6000611add611ad884611a8a565b611a6f565b905082815260208101848484011115611af957611af86119f9565b5b611b04848285611abb565b509392505050565b600082601f830112611b2157611b206119f4565b5b8135611b31848260208601611aca565b91505092915050565b6000819050919050565b611b4d81611b3a565b8114611b5857600080fd5b50565b600081359050611b6a81611b44565b92915050565b600080600060608486031215611b8957611b8861198c565b5b6000611b97868287016119df565b935050602084013567ffffffffffffffff811115611bb857611bb7611991565b5b611bc486828701611b0c565b9250506040611bd586828701611b5b565b9150509250925092565b611be881611b3a565b82525050565b6000602082019050611c036000830184611bdf565b92915050565b600081519050919050565b600082825260208201905092915050565b60005b83811015611c43578082015181840152602081019050611c28565b60008484015250505050565b6000611c5a82611c09565b611c648185611c14565b9350611c74818560208601611c25565b611c7d816119fe565b840191505092915050565b60006020820190508181036000830152611ca28184611c4f565b905092915050565b600060208284031215611cc057611cbf61198c565b5b6000611cce848285016119df565b91505092915050565b600060208284031215611ced57611cec61198c565b5b6000611cfb84828501611b5b565b91505092915050565b600081519050919050565b600082825260208201905092915050565b6000611d2b82611d04565b611d358185611d0f565b9350611d45818560208601611c25565b611d4e816119fe565b840191505092915050565b60006020820190508181036000830152611d738184611d20565b905092915050565b60008060408385031215611d9257611d9161198c565b5b6000611da0858286016119df565b9250506020611db1858286016119df565b9150509250929050565b611dc4816119b6565b82525050565b6000602082019050611ddf6000830184611dbb565b92915050565b7f4e487b7100000000000000000000000000000000000000000000000000000000600052602160045260246000fd5b60068110611e2557611e24611de5565b5b50565b6000819050611e3682611e14565b919050565b6000611e4682611e28565b9050919050565b611e5681611e3b565b82525050565b6000602082019050611e716000830184611e4d565b92915050565b60008060408385031215611e8e57611e8d61198c565b5b6000611e9c85828601611b5b565b9250506020611ead85828601611b5b565b9150509250929050565b60008115159050919050565b611ecc81611eb7565b82525050565b6000602082019050611ee76000830184611ec3565b92915050565b600081519050919050565b600082825260208201905092915050565b6000819050602082019050919050565b600082825260208201905092915050565b6000611f3582611c09565b611f3f8185611f19565b9350611f4f818560208601611c25565b611f58816119fe565b840191505092915050565b6000611f6f8383611f2a565b905092915050565b6000602082019050919050565b6000611f8f82611eed565b611f998185611ef8565b935083602082028501611fab85611f09565b8060005b85811015611fe75784840389528151611fc88582611f63565b9450611fd383611f77565b925060208a01995050600181019050611faf565b50829750879550505050505092915050565b600060408201905081810360008301526120138185611c4f565b905081810360208301526120278184611f84565b90509392505050565b600080604083850312156120475761204661198c565b5b6000612055858286016119df565b925050602083013567ffffffffffffffff81111561207657612075611991565b5b61208285828601611b0c565b9150509250929050565b6000806000606084860312156120a5576120a461198c565b5b60006120b3868287016119df565b93505060206120c4868287016119df565b925050604084013567ffffffffffffffff8111156120e5576120e4611991565b5b6120f186828701611b0c565b9150509250925092565b600080604083850312156121125761211161198c565b5b6000612120858286016119df565b925050602061213185828601611b5b565b9150509250929050565b7f4e487b7100000000000000000000000000000000000000000000000000000000600052602260045260246000fd5b6000600282049050600182168061218257607f821691505b6020821081036121955761219461213b565b5b50919050565b60008190508160005260206000209050919050565b60006020601f8301049050919050565b600082821b905092915050565b6000600883026121fd7fffffffffffffffffffffffffffffffffffffffffffffffffffffffffffffffff826121c0565b61220786836121c0565b95508019841693508086168417925050509392505050565b6000819050919050565b600061224461223f61223a84611b3a565b61221f565b611b3a565b9050919050565b6000819050919050565b61225e83612229565b61227261226a8261224b565b8484546121cd565b825550505050565b600090565b61228761227a565b612292818484612255565b505050565b5b818110156122b6576122ab60008261227f565b600181019050612298565b5050565b601f8211156122fb576122cc8161219b565b6122d5846121b0565b810160208510156122e4578190505b6122f86122f0856121b0565b830182612297565b50505b505050565b600082821c905092915050565b600061231e60001984600802612300565b1980831691505092915050565b6000612337838361230d565b9150826002028217905092915050565b61235082611d04565b67ffffffffffffffff81111561236957612368611a0f565b5b612373825461216a565b61237e8282856122ba565b600060209050601f8311600181146123b1576000841561239f578287015190505b6123a9858261232b565b865550612411565b601f1984166123bf8661219b565b60005b828110156123e7578489015182556001820191506020850194506020810190506123c2565b868310156124045784890151612400601f89168261230d565b8355505b6001600288020188555050505b505050505050565b7f4e487b7100000000000000000000000000000000000000000000000000000000600052601160045260246000fd5b600061245382611b3a565b91507fffffffffffffffffffffffffffffffffffffffffffffffffffffffffffffffff820361248557612484612419565b5b600182019050919050565b60006040820190506124a56000830185611dbb565b6124b26020830184611dbb565b9392505050565b6124c281611eb7565b81146124cd57600080fd5b50565b6000815190506124df816124b9565b92915050565b6000602082840312156124fb576124fa61198c565b5b6000612509848285016124d0565b91505092915050565b7f4e487b7100000000000000000000000000000000000000000000000000000000600052603260045260246000fd5b600081905092915050565b600061255782611c09565b6125618185612541565b9350612571818560208601611c25565b80840191505092915050565b6000612589828461254c565b91508190509291505056fea2646970667358221220975996c28d8712916b9d253ae5dd419f2f989dd2b9f5a41b5ad4ff72eb406bd464736f6c63430008170033",
  "immutableReferences": {},
  "source": "// SPDX-License-Identifier: GPL-3.0\n// // // // // // // // // // // // // // // // // // // // // // // // // // // // // // // // // // // // // // // // // // // // // // // // // // // // // // // // // // // // //\n//\n//      0KKKKKKKKKKKKKKKKKKKKKKKKKKKKKKKK0Okdlc:;,......    ......',;cldxO0KKKKKKKKKKKKKKKKKKKKKKKKKKKKKKKKK\n//      XNNNNNNNNNNNNNNNNNNNNNNNNNNXX0kdc;'...        .......         ...';coxOKXNNNNNNNNNNNNNNNNNNNNNNNNNNN\n//      XNNNNNNNNNNNNNNNNNNNNNNNX0xl;'..              .,;;:,.                ..;cdOXXNNNNNNNNNNNNNNNNNNNNNNN\n//      XNNNNNNNNNNNNNNNNNNXNXOo:'.                   .......                    ..;lkKXNNNNNNNNNNNNNNNNNNNN\n//      XNNNNNNNNNNNNNNNNNXOo;..              .........................             ..,lkKNNNNXNNNNNNNNNNNNN\n//      XNNNNNNNNNNNNXXNKx:..            ..........    'lc'.    ............            .;d0XNNNNNNNNNNNNNNN\n//      XNNNNNNNNNNNNX0d;.          ........         .;dddkl.            .......          .'lOXNNNNNNNNNNNNN\n//      XNNNNNNNNNNX0d,.         ......             .cx:..,lo'               ......         .'lOXNNNNNNNNNNN\n//      XNNNNXNNNNKx,.         .....               .ox;.   .:o,.                 ....         .'o0XNNNNNNNNN\n//      XNXNNNNNXOc.        .....                .,dd'      .;l;.                  .....   .... .;xXNNNNNNNN\n//      XNNNNNNKd'....... .....                 .;xo.        .'c;.                    .....':;..  .l0XNNNNNN\n//      XNNNNX0c. ..'''......                  .ckc.           .:;.                     ....',...  .;OXNNNNN\n//      XNNNXO:.   ........                   .ok:.             .;;.                     ......     .,xXNNXX\n//      XNNXO;.       ...                    'dx;.               .,;.                      ...        'xXNNN\n//      XNXO;.       ...                   .,xx'       .....''''''';:..                     ...        'xXNN\n//      XN0:.       ...                   .;kd.  ..,:ldxkOOOOOOOOOkO0Odl:,..                  ...      .,kXN\n//      XKl.       ...                   .cko'':ok00Okdlc;;,'''...',;:dkxkkd:..                ..       .:0N\n//      Xx'       ...                   .lKOxk00xxxl,.  ....',..      .'..,cddl,.              ...       .oX\n//      O:.      ...                  ..dNN0xl;':c::c:'..':odol:..     .... ..:lc,.             ...       ,k\n//      d.       ..                 .,o00d:.. .od'  .,cclxxl'.'coc.     ....   ..,,'..           ..       .l\n//      :.      ...              ..:xKNO,.   .lO:    .;k0o;.   .'do.     ...      .....          ...       ,\n//      '       ..             ..cddx0x'     .xO,   .:dc',:;'.   ;k:.           ..,'...           ..       .\n//      .       ..            .:lc,ckd.      .dKc. .cl'.  ..,'. .lO:       ..':ll:,..             ...      .\n//      .      ...          .,:,..ckl.       .;0O:,:,.      ...'lOl.   ..;ldkkdo;.                ...      .\n//             ...        ..'.. .lkc.         .;kK0o,.......':dOx;..,cdOKKko;..'c:.               ...\n//      .      ...       ....  .lk:.           .'coxOkkxxxxkkkxdodkKXXOdc'.    .'dd,.             ...\n//      .      ...        ....,dk;.            ..  ..;coxkkOO0KXX0ko:'..         'dOc.            ...      .\n//      .       ..          .,dd;,,;;:::;;;;;::clloxkO0KK00Oxdl;'..               .l0d'.          ...      .\n//      ,.      ...        .;dc.  ...,;:clloodddddoolc:;'....                      .;OO:.         ......   .\n//      c.  .......       .:o;.                                                     .'d0d'.      ....,;'. .:\n//      x'  .';,...      .cl'.                                                        .:OO:.     ....;;.. .o\n//      0l. ..,'....   .'ol...............................'''',,,,,,;;;:::::ccccclllllookNXd.   ... .... .;0\n//      XO,       ...  .coc::cccccccccllllllllllllloooooooooooooooooooooooooooooooolllllllc;.  ...       .dX\n//      XXd.       ...  .........................................                             ...       .lKN\n//      XNKl.       ...            .:cccccc:;:ccccccc:::cccccccccccccccccccccccc'.           ...       .:0NX\n//      XNNKc.       ...          .cXWNXXNKkxokXNWWNNK0NMWWNXNW0OXWNNWWNWWNWWNWWo.          ...       .;OXNN\n//      XNNN0l.       ....        .cXNxokKxokllOkdxKNOxXWkloddOdlOXKkK0ONWOdx0WWo.         ...       .;OXNNN\n//      XNNNNKo.        ...       .cXNOdokxcddd0klo0WKdOXd;lxkKOd0NWOlokKXOllOWWo.       ...        .c0NNNNN\n//      XNNNNNXd'.       ....     .cXWK00XNKO0XXKNXKWN0KNNK00KNNK0XXOdOKKXKNXKNWo.     ....        .lKNNNNNN\n//      XNNNNNNXO:.        ....    'oddddddddddddddddddddddddddddddl:coddddddddo;.   ....        .,xXNNNNNNN\n//      XNNNNNNNNKd'.        .....                                                 ....        ..l0XNNNNNNNN\n//      XNNNNNNNNNXOl..        ......                                           .....         .:kXNNNNNNNNNN\n//      XNNNNNNNNNNNXOc..         ......                                    ......          .:xKNNNNNNNNNNNN\n//      XNNNNNNNNNNNNNXOl'.          ........                          ........          ..ckKNNNNNNXNNNNNNN\n//      XNNNNNNNNNNNNNNNX0d;..       ..'....................................',,.       .,oOXNNNNNNNNNNNNNNNN\n//      XNNNNNNNNNNNNNNNNNNXOo;..    ...;;.     ....................      .;,'..   ..,lkKXNNNNNNNNNNNNNNNNNN\n//      XNNNNNNNNNNNNNNNNNNNNNKOd:'.    ..                                 ...  ..;lkKXNXNNNNNNNNNNNNNNNNNNN\n//      XNNNNNNNNNNNNNNNNNNNNNNNNX0ko:,...                                 ..':lx0XNNNNNXNNNNNNNNNNNNNNNNNNN\n//      XNNNNNNNNNNNNNNNNNNNNNNNNNNNNXKOxoc;,....                  ....';:ldOKXXNNNNNNNNNNNNNNNNNNNNNNNNNNNN\n//      XNNNNNNNNNNNNNNNNNNNNNNNNNNNXXNNNNXK0kdl:;'.....    .....',:ldk0KXNNNNNXNNNNNNNNNNNNNNNNNNNNNNNNNNNN\n//\n// // // // // // // // // // // // // // // // // // // // // // // // // // // // // // // // // // // // // // // // // // // // // // // // // // // // // // // // // // // // //\n//                                                                                                                                                                                  //\n//      @dev            ::              Aron Mauritala Ayuk                                                                                                                                          //\n//      @msg            ::              stereo@iii6.xyz                                                                                                                                   //\n//      @github         ::              @stereoIII6\n//      @twitter        ::              @stereoIII6                                                                                                                                              //\n//                                                                                                                                                                                  //\n// // // // // // // // // // // // // // // // // // // // // // // // // // // // // // // // // // // // // // // // // // // // // // // // // // // // // // // // // // // // //\n//                                                                                                                                                                                  //\n//      @dev            ::              Juan Xavier Valverde                                                                                                                                    //\n//      @msg            ::              juanxavier@iii6.xyz                                                                                                                               //\n//      @twitter        ::              @JuanXavier                                                                                                                                             //\n//      @github         ::              @JuanXavier                                                                                                                                             //\n//                                                                                                                                                                                  //                                                                                                                                                                                 //\n// // // // // // // // // // // // // // // // // // // // // // // // // // // // // // // // // // // // // // // // // // // // // // // // // // // // // // // // // // // // //\n//  *   *   *   *   *   *   *   *   *   *   *   *   *   *   *   *   *   *   *   *   *   *   *   *   *   *   *   *   *   *   *   *   *   *   *   *   *   *   *   *   *   *   *   *   //\n// // // // // // // // // // // // // // // // // // // // // // // // // // // // // // // // // // // // // // // // // // // // // // // // // // // // // // // // // // // // //\n//                                                                                                                                                                                  //\n//      @company        ::              Fractio Holding                                                                                                                                                                       //\n//      @title          ::              s0xiety Groups                                                                                                                            //\n//      @description    ::              Group Interface Contract                                                                                                                           //\n//      @version        ::              0.0.1                                                                                                                                       //\n//      @purpose        ::              Multinet Group Interface                                                                                                           //\n//                                                                                                                                                                                  //\n//                                                                                                                                                                                  //\n//                                                                                                                                                                                  //\n//                                                                                                                                                                                  //\n//                                                                                                                                                                                  //\n// // // // // // // // // // // // // // // // // // // // // // // // // // // // // // // // // // // // // // // // // // // // // // // // // // // // // // // // // // // // //\n//  *   *   *   *   *   *   *   *   *   *   *   *   *   *   *   *   *   *   *   *   *   *   *   *   *   *   *   *   *   *   *   *   *   *   *   *   *   *   *   *   *   *   *   *   //\n// // // // // // // // // // // // // // // // // // // // // // // // // // // // // // // // // // // // // // // // // // // // // // // // // // // // // // // // // // // // //\n\n/////////////////////////////////////////////////////////////////////////////////////////////////////////////////////\n\n/////////////////////////////////////////////////////////////////////////////////////////////////////////////////////\n\npragma solidity ^0.8.7;\n\nimport \"./s0xUsers.sol\";\nimport {s0xFriends, iii6Relations, iii6Math} from \"./s0xFriends.sol\";\nimport \"../iii6Utils/Misc/Errors/iii6Errors.sol\";\n\ncontract s0xGroups is iii6Math, iii6Relations, iii6Errors {\n    s0xUsers private user; // user contract reference\n    s0xFriends private friend; // friend contract reference\n    address public owner; // owner address\n    string public name; // group name\n    string p;\n    uint256 public m; // member count\n    uint256 private c; // content count\n    GroupType public mode; // 0-private (no invite), 1-bothchecked, 2-ulike, 3-likeu, 4-bothcheckedofulike, 5-public, 9-secret, 99-admin\n\n    mapping(uint256 => address) public members; // address by id\n    mapping(address => uint256) public mNum; // id by address\n    mapping(address => uint256) public myContent; // content count by address\n    mapping(address => mapping(uint256 => bytes)) public content; // content by address => myContent counter\n    mapping(uint256 => bytes) public cntnt; // contentt by cid\n    mapping(uint256 => uint256) public r; // replys by cntnt id c\n    mapping(uint256 => mapping(uint256 => bytes)) public replys; // replys by cid => rply id => reply content\n    mapping(address => uint256) public myRplyCount; // reply count  by useraddress\n    mapping(address => mapping(uint256 => bytes)) public myReplys; // reply content by address and myrplycount\n    mapping(address => bool) public invite;\n\n    constructor(\n        address _user,\n        address _friend,\n        bytes memory _name,\n        GroupType _mode,\n        address _o,\n        string memory _p\n    ) {\n        mode = _mode;\n        user = s0xUsers(_user);\n        friend = s0xFriends(_friend);\n        owner = _o;\n        p = _p;\n        name = string(_name);\n        m = 1;\n        _addUser(owner);\n    }\n\n    function _addUser(address _adr) internal returns (address) {\n        members[m] = _adr;\n        mNum[_adr] = m;\n        m++;\n        return _adr;\n    }\n\n    function addUser(\n        address _sender,\n        address _adr,\n        string memory _pin\n    ) external returns (address ad) {\n        /**\n         * @dev FACE TO FACE PRIVATE CHAT\n         * if sender and receiver know another\n         * and ref user is alone new user gets\n         * added to face to face chat\n         */\n        if (mode == GroupType.FaceToFace) {\n            if (m > 2) revert All_Slots_Taken();\n            if (_sender != owner) revert Unauthorized();\n            if (!friend.getMsgAllow(owner, _adr)) revert Not_Friends();\n            ad = _addUser(_adr);\n        }\n        /**\n         * @dev PRIVATE GROUP\n         * if owner and receiver know another\n         * new user gets added\n         */\n        else if (mode == GroupType.Private) {\n            if (\n                _sender != owner ||\n                !friend.getMsgAllow(owner, _adr) ||\n                !friend.getMsgAllow(_adr, owner)\n            ) revert Unauthorized();\n            // add user to group\n            ad = _addUser(_adr);\n        }\n        /**\n         * @dev Password Protected PRIVATE Group\n         */\n        else if (mode == GroupType.Closed) {\n            if (\n                !friend.getMsgAllow(_sender, _adr) ||\n                !friend.getMsgAllow(_adr, _sender)\n            ) revert Unauthorized();\n            if (_stringEqual(_pin, p)) {\n                ad = _addUser(_adr);\n            } else revert Unauthorized();\n        }\n        /**\n         * @dev Friends Invite Friends Public Group\n         */\n        else if (mode == GroupType.Shared || mode == GroupType.Public) {\n            if (\n                friend.getMsgAllow(_sender, _adr) == false ||\n                friend.getMsgAllow(_adr, _sender) == false\n            ) revert Unauthorized();\n            ad = _addUser(_adr);\n        }\n        /**\n         * @dev public group\n         */\n        else if (mode == GroupType.Open) {\n            ad = _addUser(_adr);\n        }\n        /**\n         * @dev open group\n         */\n        else revert Unauthorized();\n    }\n\n    function removeUser(address _sender, address _adr)\n        external\n        returns (address)\n    {\n        if (mode == GroupType.FaceToFace) revert Min_Requirements_Not_Met();\n        if (_sender != owner) revert Unauthorized();\n        members[mNum[_adr]] = address(0);\n        mNum[_adr] = 0;\n        return _adr;\n    }\n\n    function addContent(address _sender, string memory _cnt)\n        external\n        returns (string memory)\n    {\n        content[_sender][myContent[_sender]] = bytes(_cnt);\n        ++myContent[_sender];\n        cntnt[c] = bytes(_cnt);\n        ++c;\n        return _cnt;\n    }\n\n    function addReplyToContent(\n        address _sender,\n        string memory _rply,\n        uint256 _c\n    ) external returns (uint256) {\n        replys[_c][r[_c]] = bytes(_rply);\n        myReplys[_sender][myRplyCount[_sender]] = bytes(_rply);\n        ++myRplyCount[_sender];\n        return ++r[_c];\n    }\n\n    function _showContent(uint256 _contentId)\n        internal\n        view\n        returns (string memory, string[] memory)\n    {\n        string[] memory repliers;\n        for (uint256 i = 0; i < r[_contentId]; i++) {\n            repliers[i] = string(replys[_contentId][r[_contentId]]);\n        }\n        return (string(cntnt[_contentId]), repliers);\n    }\n\n    function showContent(uint256 _contentId)\n        external\n        view\n        returns (string memory, string[] memory)\n    {\n        return _showContent(_contentId);\n    }\n}\n",
  "sourcePath": "/Users/iii6/Documents/GitHub/iii6v2/iii6v2/contracts/s0xCommunity/s0xGroups.sol",
  "compiler": {
    "name": "solc",
    "version": "0.8.23+commit.f704f362.Emscripten.clang"
  },
  "schemaVersion": "3.4.16",
  "updatedAt": "2023-11-30T04:01:16.867Z",
  "devdoc": {
    "kind": "dev",
    "methods": {},
    "version": 1
  },
  "userdoc": {
    "kind": "user",
    "methods": {},
    "version": 1
  }
}